:100000000A168A11E22C0030FC000030FB000030A0
:10001000FA000030F9000C28701C0F28102828283E
:100020007408F907750803110318013E031919280C
:10003000FA07760803110318013E03192028FB076D
:10004000770803110318013E03192728FC07282805
:100050000130F8000310F40DF50DF60DF70DF80B57
:100060002A2801300310F30CF20CF10CF00CFF3EC7
:10007000031D32287308720471047004031D4128A3
:1000800042280C2843287C08F3007B08F2007A08F9
:10009000F1007908F0004C28080078088312031357
:1000A000A0007908A1007A08A2000310210D220DFA
:1000B000A3002308A400A408031D5F286028682863
:1000C0000030F8000030F9000030FA0038293829F3
:1000D0007B08A0007C08A1007D08A2000310210D70
:1000E000220DA3002308A900A908031D7828792858
:1000F00081280030F8000030F9000030FA0038297B
:10010000382929087B3EA0002008A4077808A00011
:100110007908A1007A08A20010300310A20CA10CEB
:10012000A00CFF3E031D8D282008A3002308A90072
:100130007B08A0007C08A1007D08A20010300310FD
:10014000A20CA10CA00CFF3E031D9F282008A300B9
:100150002308A9068030A0002008A905F917FC177C
:10016000FF30FB05FF30FC050030FD050030A50029
:100170000030A6000030A7000730A0002008A8002B
:10018000C128781CC428C528D6287B08A5077C0868
:10019000031103187C0A0319CE28A6077D08031152
:1001A00003187D0A0319D528A707D62801300310A4
:1001B000FA0CF90CF80CFF3E031DD7280130031090
:1001C000FB0DFC0DFD0DFF3E031DDF280130A802D5
:1001D000031DEB28EC28C128ED280930A0002008D9
:1001E000A800F228781CF528F62807297B08A5071F
:1001F0007C08031103187C0A0319FF28A6077D0851
:10020000031103187D0A03190629A70707290130DE
:100210000310FA0CF90CF80CFF3E031D08290130FD
:100220000310A70CA60CA50CFF3E031D10290130DE
:10023000A802031D1C291D29F2281E292508F000EB
:100240002608F1002708F2002408A0002008F30087
:100250002908A1002108F4000A128A153F240A1275
:100260008A117008F8007108F9007208FA0038293C
:100270000800831203132F08B5003008B6003108B8
:10028000B7000310360D370DB8003808BB00320830
:10029000B5003308B6003408B7000310360D370D2B
:1002A000B8003808BA003B08031D572968293A08E6
:1002B0003B0203185C295D2970293B03FF3A3A078A
:1002C000B50019303502031C662967297029682991
:1002D0003208AF003308B0003408B1007D2A7D2A0F
:1002E0003A08031D742984293B083A020318792926
:1002F0007A2985293A03FF3A3B07B50019303502C0
:10030000031C8329842985297D2A0630B5003508F8
:10031000B900B11F8C298D298E29B917B41F9129D5
:10032000922993293917B017FF30AF05FF30B00578
:100330000030B105B317FF30B205FF30B305003010
:10034000B4053A083B020318A629A729D829A829E9
:1003500001300310B20DB30DB40DFF3E031DA929EA
:100360000130BA023A083B060319B729B829D02947
:100370000130B90239080739031DBF29C029A8294E
:10038000D029D029D02901300310B10CB00CAF0C0A
:10039000FF3E031DC4290130B5003508BB07D02935
:1003A0003B083A06031DD529D629C3290F2A0F2A4F
:1003B0003B083A020318DD29DE290F2ADF29013024
:1003C0000310AF0DB00DB10DFF3E031DE02901304C
:1003D000BB023A083B060319EE29EF29072A013030
:1003E000B90239080739031DF629F729DF29072A39
:1003F000072A072A01300310B40CB30CB20CFF3EDD
:10040000031DFB290130B5003508BA07072A3B0850
:100410003A06031D0C2A0D2AFA290F2A0F2AB91FA2
:10042000122A132A242AFF30AF06FF30B006FF300D
:10043000B1060130AF07003003180130B0070030BB
:1004400003180130B107242A391F272A282A392AFC
:10045000FF30B206FF30B306FF30B4060130B207FA
:10046000003003180130B307003003180130B4071F
:10047000392AB9012F08B207300803110318300ACE
:100480000319432AB307310803110318310A03196A
:100490004A2AB407B41F4D2A4E2A612AFF30B206F9
:1004A000FF30B306FF30B4060130B2070030031846
:1004B0000130B307003003180130B407B901B90A9D
:1004C000612A3208F0003308F1003408F2003B08DA
:1004D000B5003508F3003908B6003608F4000A12F2
:1004E0008A153F240A128A11700883120313AF0081
:1004F0007108B0007208B1007D2A0800A0308400A5
:10050000303083120313D6000408D7002030D800FF
:100510005608840083170008D900D60A57088400BB
:10052000831359088000D70AD80B882ADA0183166A
:100530000313ED01EE0183120313DE01DF01DD0180
:10054000DD0ADB01DC01003083160313EA00003012
:10055000EB000030EC00AC2A0A168A1147270A1279
:100560008A1183160313ED01EE0100306E0207308D
:1005700003196D02031CBD2ABE2AC02AF62AF62AD8
:100580006D08C03E8400831380016D08C73E84005F
:1005900080016D0883120313D6005607D83E8400ED
:1005A000FF308000840AFF308000831603136D083B
:1005B00083120313D6005607903E8400FF30831742
:1005C0008000840AFF308000013083160313ED079A
:1005D0000318EE0A0030EE0700306E0207300319F0
:1005E0006D02031CF42AF52AC02AF62AED01EE0159
:1005F00000306E020A3003196D02031C002B012B20
:10060000032B182B182B6D08CE3E8400831380011A
:100610000130ED070318EE0A0030EE0700306E02DD
:100620000A3003196D02031C162B172B032B182BF2
:10063000ED01EE0100306E02203003196D02031C43
:10064000222B232B252B3A2B3A2B6D08A03E84001E
:10065000831380010130ED070318EE0A0030EE0726
:1006600000306E02203003196D02031C382B392B29
:10067000252B3A2BED01EE013D2BF0308312D600F5
:1006800056088604061A452B462B372C5D08031D99
:100690004A2BBD2B831603136D0883120313D60058
:1006A0005607D83E8400013083138007840A03185C
:1006B000800A831603136D0883120313D6005607AE
:1006C000D83E84000008D700840A0008D8005808E3
:1006D000803AFF0080307F02031D702B0A305702E2
:1006E0000318732B742B8B2B831603136D08831243
:1006F0000313D6005607D83E840083130008303E0B
:10070000D700831603136D08C03E840083120313C1
:10071000570880009B2B831603136D088312031365
:10072000D6005607D83E8400FF3083138000840A29
:10073000FF3080009B2BF90100300A168A11AD258D
:100740000A128A11C03083120313A1000030A200E4
:100750000A168A11D2250A128A11831603136D080C
:10076000013E83120313D6005608F90000300A1622
:100770008A11AD250A128A11372CDC01DC0A831696
:1007800003136D0883120313D6005607903E8400AE
:10079000013083178007840A0318800A8316031325
:1007A0006D0883120313D6005607903E840000089C
:1007B000D700840A0008D8005808803AFF0080302B
:1007C0007F02031DE52B0A3057020318E82BE92BA3
:1007D000012C831603136D0883120313D6005607EA
:1007E000903E840083170008303ED7008316031321
:1007F0006D08C73E840083120313570883138000DB
:10080000112C831603136D0883120313D6005607A9
:10081000903E8400FF3083178000840AFF30800000
:10082000112C0930D6005608F90000300A168A113A
:10083000AD250A128A11C73083120313A1000030BC
:10084000A2000A168A11D2250A128A1183160313EE
:100850006D080A3E83120313D6005608F9000030D3
:100860000A168A11AD250A128A11372C372CF0305E
:1008700083120313D60056088604861A402C412C96
:10088000CC2C831603136D0883120313D60056076E
:10089000D83E840083130008D700840A0008D800DB
:1008A000FF305806031D562CFF3057060319592CEC
:1008B0005A2C672C5D08031D5E2C672C01308316B3
:1008C0000313ED070318EE0A0030EE07672C8316BA
:1008D00003136D0883120313D6005607903E84005D
:1008E00083170008D700840A0008D800FF30580694
:1008F000031D7C2CFF30570603197F2C802C8D2C78
:10090000DD08031D842C852C8D2C013083160313E8
:10091000ED070318EE0A0030EE07063083160313C6
:100920006D066E04031D952C962CA22CED01EE0194
:10093000031000300318013083120313D600560849
:10094000DD00A22C8312DE01DF0100305F020430E3
:1009500003195E02031CAD2CAE2CB02CCC2CCC2C7D
:100960005030F000C330F1000A168A1179240A12BF
:100970008A11013083120313DE070318DF0A0030E7
:10098000DF0700305F02043003195E02031CC92C2C
:10099000CA2CB02CCC2CCC2C5C08031DD02CFD2CEC
:1009A000F030D60056088604861BD72CD82CFD2C98
:1009B000DB01DB0A831603136D0883120313D600D1
:1009C0005607903E840083170008D700840A000869
:1009D000D800FF305806031DEF2CFF305706031DCB
:1009E000F22CF32CFD2C013083160313ED020030A2
:1009F000031CEE03EE02FD2CFD2C83125B08031D8D
:100A0000022D3D2B032D831603136D08013E831227
:100A10000313C100831603136E080318013E003E42
:100A200083120313C2009030BF000130C0000A12CD
:100A30008A15BA240A128A11831203134208AD00E0
:100A40004108AC004008AB003F08AA000A168A1112
:100A500011270A128A11831203132A08AF002B08E8
:100A6000B0002C08B1000630C1000030C200D83000
:100A7000BF000030C0000A128A15BA240A128A1177
:100A8000831203134208AD004108AC004008AB00DC
:100A90003F08AA000A168A1111270A128A11831226
:100AA00003132A08B2002B08B3002C08B4000A1262
:100AB0008A15F8250A128A11831203132F08831648
:100AC0000313EA0083120313300883160313EB00A9
:100AD00083120313310883160313EC000030E9007E
:100AE0000030E8000030E7000030E6006A08F0005F
:100AF0006B08F1006C08F2000A128A1554250A12DC
:100B00008A11730883160313E9007208E80071085C
:100B1000E7007008E600553083120313D60056082C
:100B2000AA0083160313690883120313AE00831609
:100B30000313680883120313AD00831603136708B9
:100B400083120313AC008316031366088312031386
:100B5000AB00CE300A128A15C0260A128A110A305A
:100B600083160313ED000030EE006A0883120313AE
:100B7000AF00831603136B0883120313B0008316B0
:100B800003136C0883120313B1008316031369085F
:100B900083120313AD008316031368088312031333
:100BA000AC0083160313670883120313AB0083168C
:100BB0000313660883120313AA000A168A11112769
:100BC0000A128A11831203132A08F8002B08F9006D
:100BD0002C08FA000A168A11FD230A128A117808D5
:100BE00083120313B2007908B3007A08B4000A1222
:100BF0008A1139210A128A11831203133108300431
:100C00002F04031D042E052E212E0D2E0D2E0A1647
:100C10008A1181270A128A110D2E013083160313BF
:100C2000ED020030031CEE03EE02FF306E06031DE2
:100C30001B2EFF306D06031D1E2E1F2E072E212E8C
:100C4000212E83160313ED01EE012D2E0130ED0749
:100C50000318EE0A0030EE072D2E6D08CE3E8400FC
:100C600083138008031D352E362E262E372E2E3068
:100C700083120313D600831603136D08CE3E84003F
:100C80008312031356088000831603136908831226
:100C90000313AD0083160313680883120313AC001B
:100CA00083160313670883120313AB008316031321
:100CB000660883120313AA000A168A1111270A1262
:100CC0008A11831203132A08BC002B08BD002C08CC
:100CD000BE00831603136A0883120313BF00831632
:100CE00003136B0883120313C000831603136C08ED
:100CF00083120313C1000A168A114B250A128A11A6
:100D0000831203133C0883160313EA0083120313B0
:100D10003D0883160313EB00831203133E0883166A
:100D20000313EC000130ED070318EE0A0030EE0764
:100D300083120313DE01DF0100305F020330031969
:100D40005E02031CA42EA52EA72E4C2F4C2F003084
:100D5000F8002030F9004130FA00831603136A08C6
:100D6000FB006B08FC006C08FD000A128A114D2084
:100D70000A128A11780883160313EA007908EB0037
:100D80007A08EC006A08F0006B08F1006C08F200C9
:100D90000A128A1554250A128A117308831603133E
:100DA000E9007208E8007108E7007008E6006908C9
:100DB00083120313AD008316031368088312031311
:100DC000AC0083160313670883120313AB0083166A
:100DD0000313660883120313AA000A168A11112747
:100DE0000A128A11831203132A08BC002B08BD00C3
:100DF0002C08BE00831603136A0883120313BF0076
:100E0000831603136B0883120313C00083160313A6
:100E10006C0883120313C1000A168A114B250A12AB
:100E20008A11831203133C0883160313EA0083120A
:100E300003133D0883160313EB00831203133E08CC
:100E400083160313EC006608303E83120313D600AA
:100E5000831603136D08CE3E8400831203135608D5
:100E600083138000013083160313ED070318EE0A85
:100E70000030EE07013083120313DE070318DF0A88
:100E80000030DF0700305F02033003195E02031CED
:100E90004A2F4B2FA72E4C2FF90101300A168A1129
:100EA000AD250A128A114A3083120313A100803043
:100EB000A2000A168A11D2250A128A11CE30831294
:100EC0000313A1000030A2000A168A11D2250A12CB
:100ED0008A116A2FF03083120313D6005608860455
:100EE000861B732F742F6A2FC030D6005608F0006F
:100EF000A0300A168A116A250A128A115030F000B1
:100F00008030F100A0300A128A156C200A128A1172
:100F1000C730F0000030F100A0300A128A156C20B2
:100F20000A128A1183160313ED01EE019E2F013080
:100F3000ED070318EE0A0030EE079E2F6D08C73E3E
:100F4000840083138008031DA62FA72F972FA82F97
:100F5000063083120313DE000030DF00C22F53304F
:100F6000F0008030F100A0300A128A156C200A12BD
:100F70008A11013083120313DE020030031CDF03E9
:100F8000DF02C22F5F08831603136E02031DCE2FEC
:100F9000831203135E08831603136D02031CD12F03
:100FA000D22FAF2FD32F4A30F0008030F100A03085
:100FB0000A128A156C200A128A11CE30F000003015
:100FC000F100A0300A128A156C200A128A118316C9
:100FD0000313ED01EE01A030FC000030FD000A1605
:100FE0008A1127260A128A11F62F6A2F83120313F9
:100FF000DB01DC01DD01DD0ADA01AC2AAC2A0800E4
:10100000FF1B0A2883137F1883170008840A03191B
:10101000FF0A080008308A000408840A82070034A6
:1010200001340034003400340A3400340034003415
:101030006434003400340034E834033400340034C1
:101040001034273400340034A034863401340034A2
:10105000403442340F3400348034963498340034B1
:101060000034E134F53405340034CA349A343B3466
:101070005534733465342034453445345034523457
:101080004F344D343F342034203420342034203445
:1010900042343134203459344534533420342034EC
:1010A0002034203420344234323420344E344F340F
:1010B00000345234453453343A342034003420342C
:1010C000203420342034003425346C346C347534AE
:0210D0000034EA
:1010D800F3007308F2007208F40077280130F20078
:1010E8007208F40777287408840083138008031DA6
:1010F8007E287F2872288A288A280130F200720800
:10110800F4070130F0070318F10A8A2871088312DE
:101118000313FF00700884000A128A1500200A12BF
:101128008A15F2007408840072088313800080080E
:10113800031D9F28A0288128A1280800E830F00076
:101148000330F1000A168A1179240A128A158316C7
:101158000313860130308312031386002C30F2000B
:101168000130F3000A168A112E250A128A1520303A
:101178008312031386006430F2000030F3000A166D
:101188008A112E250A128A1528300A128A157C21FE
:101198000A128A150D300A128A157C210A128A153C
:1011A80006300A128A157C210A128A1502300A12A0
:1011B8008A157C210A128A1583120313E701F0307D
:1011C80086000800770883120313E501E50776080F
:1011D800E401E407EF280A168A11A1240A128A15E5
:1011E800FE30F800780883120313EA056A080A1625
:1011F8008A11DE260A128A15831203136608031D54
:1012080006290C290A168A11FA240A128A15EF28C7
:1012180077080A168A11DE260A128A158312031322
:101228006608031D18291E290A168A11FA240A12AB
:101238008A15EF2876080A168A11DE260A128A15F8
:10124800831203136608031D2A2930290A168A11F6
:10125800FA240A128A15EF28080083120313A00043
:101268000030F9000030FA000A168A1114250A1213
:101278008A1583120313A101A201A101A201220868
:10128800803AFF0080307F02031D4C292030210264
:10129800031C4F2950295229762976290A168A11C2
:1012A80033240A128A15FB0083120313210820072E
:1012B800FC007C0884007B08831780000130A107AC
:1012C8000318A20A0030A2072208803AFF008030E3
:1012D8007F02031D712920302102031C74297529FE
:1012E800522976290A168A118D240A128A150800AD
:1012F800F6008729E830F0000330F1000A168A1159
:1013080079240A128A150A168A11FC250A128A15E6
:101318000038031D902991297E2983120313861012
:101328000F300605F4007608F0397407860064303B
:10133800F2000030F3000A168A112E250A128A15C7
:101348000F30831203130605F4007608F500033006
:101358000310F50DFF3E031DAC290310750D74072E
:1013680086006430F2000030F3000A168A112E2538
:101378000A128A15831203138614E830F00003302A
:10138800F1000A168A1179240A128A1508008312B4
:1013980003132008A6002108A700A801A901230813
:1013A8002204031DD829D929E3290030A3000030DD
:1013B800A2000030A1000130A000202A202A01301C
:1013C800A4000030A5000C2A2008F0002108F10034
:1013D800F201F3012908F7002808F6002708F500AC
:1013E8002608F4000A128A1103200A128A157308C3
:1013F80083120313A9007208A8007108A7007008D7
:10140800A6000130A4070318A50A0030A5070C2A76
:1014180023082502031D122A22082402031C152A68
:10142800162AE829172A2908A3002808A20027084D
:10143800A1002608A000202A08008312031323080D
:1014480022042104200403192A2A2B2A742AA90118
:10145800A90A3C2A0130A8000310A00DA10DA20D75
:10146800A30DA80B302A0130A8002808A9073C2A98
:10147800A31F3F2A402A2E2A422A422A230827024B
:10148800031D502A22082602031D502A210825027E
:10149800031D502A20082402031C532A542A632AB5
:1014A8002008A4022108031C210FA5022208031CFE
:1014B800220FA6022308031C230FA702632A013068
:1014C8000310A30CA20CA10CA00CFF3E031D642A60
:1014D8000130A902031D712A722A422A742A742A29
:1014E8002708A3002608A2002508A1002408A000B8
:1014F8007D2A080083120313A0008B2AE830F0002D
:101508000330F1000A168A1179240A128A150A167C
:101518008A11FC250A128A150038031D942A952A77
:10152800822A962A0F30831203130605FC0020082E
:10153800F0397C0786000A30F2000030F3000A1602
:101548008A112E250A128A150F30831203130605F5
:10155800FC002008FD0003300310FD0DFF3E031DB5
:10156800B02A03107D0D7C0786000A30F200003097
:10157800F3000A168A112E250A128A150130FC007A
:101588007C0883120313E7076708103A031DCD2A66
:10159800CE2AD62AF90101300A168A11AD250A1277
:1015A8008A15D62A831203136708203A031DDD2AF9
:1015B800DE2AE62AF90100300A168A11AD250A1238
:1015C8008A15E62A08000030FC000030FB000030D5
:1015D800FA000030F90073087204710470040319EA
:1015E800F62AF72A4A2BFD01FD0A082B0130F800DC
:1015F8000310F00DF10DF20DF30DF80BFC2A01307C
:10160800F8007808FD07082BF31F0B2B0C2BFA2A80
:101618000E2B0E2B0130F8000310F90DFA0DFB0DFF
:10162800FC0DF80B102B73087702031D252B72088D
:101638007602031D252B71087502031D252B7008E2
:101648007402031C282B292B392B7008F40271080B
:10165800031C710FF5027208031C720FF60273085F
:10166800031C730FF7027914392B01300310F30CA4
:10167800F20CF10CF00CFF3E031D3A2B0130FD0279
:10168800031D472B482B0E2B4A2B4A2B7C08F300B3
:101698007B08F2007A08F1007908F000532B080063
:1016A800F601F11F582B592B612BF009F109F00AAB
:1016B8000319F10AF601F60A612BF31F642B652B57
:1016C8006F2BF209F309F20A0319F30A0130F40047
:1016D8007408F6066F2BF701F801710870040319F6
:1016E800762B772BB42BF501F50A862B01300310E6
:1016F800F00DF10DFF3E031D7B2B0130F400740843
:10170800F507862BF11F892B8A2B7A2B8C2B8C2B98
:1017180001300310F70DF80DFF3E031D8D2B7108E6
:101728007302031D992B70087202031C9C2B9D2BBE
:10173800A52B7008F2027108031CF303F302771457
:10174800A52B01300310F10CF00CFF3E031DA62B56
:101758000130F502031DB12BB22B8C2BB42BB42B0B
:101768007608031DB82BBE2BF709F809F70A0319E9
:10177800F80ABE2B7808F101F1077708F001F007A5
:10178800C52B08000A168A1154240A128A150A124F
:101798008A15A2200A128A150A168A1147270A12E0
:1017A8008A1583160317DE010A168A1152260A12B1
:1017B8008A15003A0319E12BE22B222CBE30840053
:1017C800103083120313E0000408E1002030E20027
:1017D8006008840083170008E300E00A61088400B9
:1017E80063088000E10AE20BEC2BBE300A128A156E
:1017F80031210A128A15BE3083120313A100013069
:10180800A2000A168A11D2250A128A150B2CF0306A
:1018180083120313E00060088604861B142C152C21
:101828001A2C83160317DE01DE0A1A2C83160317F7
:101838005E08031D202C0B2C222C222C2030F000BB
:101848000030F1002030F2000030F3009E300A161C
:101858008A1189250A128A159E30FC000130FD0084
:101868000A168A1127260A128A150A128A117E2256
:101878000A128A1508007308031D432C4B2C7208A2
:1018880071047004031D492C4A2C612C4B2C003028
:10189800F0000030F1000030F200B92CB92C612CB6
:1018A8000130F5007508F30701300310F20CF10C54
:1018B800F00CFF3E031D592C612CFE307205031DF0
:1018C800662C672C542C7F2C7F2C0130F500750872
:1018D800F3070130F007003003180130F10700303A
:1018E80003180130F20701300310F20CF10CF00C70
:1018F800FF3E031D782CFF307205031D842C852CB8
:10190800692C922C922C0130F30201300310F00D57
:10191800F10DF20DFF3E031D8A2C922CF11F952C20
:10192800962C872C7318992C9A2CA02CFF30F00534
:101938007F30F105FF30F2050310F30C7308F50052
:10194800F601F70110300310F50DF60DF70DFF3E07
:10195800031DA72C7508F0047608F1047708F20433
:101968007408031DB82CB92CF2170800831203134E
:101978004208C901C9074108C801C8070030D10099
:101988000030D0000030CF000030CE004208D50132
:10199800D5074108D401D407D201D301550854040E
:1019A800031DD72CD82CDA2C4A2D4A2D5408FF3E7B
:1019B800A20055080318013EFF3EA3000A30A0000C
:1019C8000030A1000A128A15CB210A128A15831247
:1019D80003132308CD002208CC002108CB002008DF
:1019E800CA005208C30043073F07C4004008031851
:1019F800013EC500440884008317451C8313000872
:101A0800C600840A0008C7004608F0004708F1002D
:101A18000030F11BFF30F200F3004D08F7004C08CE
:101A2800F6004B08F5004A08F4000A128A11032050
:101A38000A128A15700883120313CE07710803115E
:101A48000318013E0319292DCF0772080311031843
:101A5800013E0319302DD007730803110318013E06
:101A68000319372DD1070130D4020030031CD503E8
:101A7800D5020130D2070318D30A0030D30755081E
:101A88005404031D482D492DDA2C4A2D5108C20053
:101A98005008C1004F08C0004E08BF00532D080071
:101AA8007008F4007108F5007208F6000310750D4F
:101AB800760DF7007708FD00FD08031D642D652DE0
:101AC8006F2D0030F3000030F2000030F1000030DC
:101AD800F000F72DF72D7008F4007108F500720872
:101AE800F60017300310F60CF50CF40CFF3E031D3E
:101AF800762D7408F7007708F800F117FF30F00525
:101B0800FF30F1050030F2057008F9007108FA009D
:101B18007208FB00FC018E30FD02FD1F942D952DEF
:101B2800BA2D7D08803A8F3E03189B2D9C2DA72D3A
:101B38000030F3000030F2000030F1000030F00017
:101B4800F72DF72DA72D01300310FC0CFB0CFA0C18
:101B5800F90CFF3E031DA82D0130F4007408FD07A1
:101B6800031DB72DB82DA72DDE2DDE2D18307D02D3
:101B7800031CBF2DC02DD72D0030F3000030F2001C
:101B88000030F1000030F000F72DF72DD72D01308F
:101B9800F4000310F90DFA0DFB0DFC0DF40BCD2D1F
:101BA8000130FD02D72DFD08031DDB2DDC2DCB2DCB
:101BB800DE2DDE2D7808031DE22DEE2DF909FA0938
:101BC800FB09FC09F90A0319FA0A0319FB0A0319A4
:101BD800FC0AEE2D7C08F3007B08F2007A08F1007D
:101BE8007908F000F72D0800831203133208B500B6
:101BF8003308B6003408B7000310360D370DB800A7
:101C08003808BD00BD08031D0A2E0B2E132E003008
:101C1800AF000030B0000030B100BF2EBF2E2F083B
:101C2800B5003008B6003108B7000310360D370D7F
:101C3800B8003808BE00BE08031D232E242E2C2E03
:101C48000030AF000030B0000030B100BF2EBF2E12
:101C58000030BA000030BB000030BC0089303E07BD
:101C6800B5003508BD023208B5003308B60034089F
:101C7800B70010300310B70CB60CB50CFF3E031DAF
:101C88003E2E3508B8003808BE002F08B5003008C9
:101C9800B6003108B70010300310B70CB60CB50CFD
:101CA800FF3E031D502E3508B8003808BE068030A8
:101CB800B5003508BE05B317FF30B205FF30B305D0
:101CC8000030B405B017FF30AF05FF30B005003065
:101CD800B1051830B5003508B900722E013003106F
:101CE800BA0DBB0DBC0DFF3E031D732E3108340227
:101CF800031D842E30083302031D842E2F08320260
:101D0800031C872E882E942E2F08B2023008031C3D
:101D1800300FB3023108031C310AB4023A14942E6E
:101D280001300310B20DB30DB40DFF3E031D952E07
:101D38000130B902031DA12EA22E722EA32E3A083D
:101D4800F0003B08F1003C08F2003D08B5003508FA
:101D5800F3003E08B6003608F4000A128A153F243C
:101D68000A128A15700883120313AF007108B000B5
:101D78007208B100BF2E080083120313BC002B3079
:101D8800AF002F08BB00E62F3D08253A0319CD2EDA
:101D9800CE2EDA2E3D08AF003C0884002F088313AE
:101DA80080000130AF002F08BC07E62FB401E72EF2
:101DB800E72EFA2F3416E72EE62FC030AF002F0893
:101DC800B404FC2EFC2E0130AA07FF302A07840039
:101DD8000A128A150A200A128A15BD00003A031948
:101DE800FA2F6C3A0319DE2E193A0319E12EE62F61
:101DF800341EFF2E002F132F3B0884008313000886
:101E0800B700840A0008B800840A0008B900840AE8
:101E18000008BA000430AF002F08BB07262F3B0884
:101E2800840083130008AF00840A0008B0002F085C
:101E3800B7003008B800B901BA010230AF002F0866
:101E4800BB07262FBD01BD0A3D080A3A031D2D2FE9
:101E58002E2F302F732F732F3D08AF000130031042
:101E6800AF0DFF3E031D332F03102F0D013E8400DD
:101E78000A128A150A200A128A15B0000A128A154F
:101E88000A200A128A15B1000A128A150A200A12B3
:101E98008A15B2000A128A150A200A128A15B30096
:101EA80033083A02031D622F32083902031D622FDC
:101EB80031083802031D622F300837020318652FD6
:101EC800662F682F732F732F0130AF002F08BD07BF
:101ED8003D080A3A031D712F722F302F732F3D08CA
:101EE800B500B601B51BB603D42F0030A3000030EF
:101EF800A2000030A1000A30A0003508AF00013070
:101F08000310AF0DFF3E031D842F03102F0D013E5C
:101F180084000A128A150A200A128A15F0000A1289
:101F28008A150A200A128A15F1000A128A150A204F
:101F38000A128A15F2000A128A150A200A128A154C
:101F4800F3003A08F7003908F6003808F5003708B2
:101F5800F4000A128A15E7220A128A1573088312F6
:101F68000313A7007208A6007108A5007008A40052
:101F78000A128A1521220A128A15831203132008CD
:101F8800303EB0003008BD003D08AF003C0884007A
:101F98002F08831380000130AF002F08BC07D42F0F
:101FA800FF30B5070318B60AFF30B607FF3036060C
:101FB800031DE02FFF303506031DE32FE42F792F93
:101FC800E62FE62F0130AA07FF302A0784000A12FD
:101FD8008A150A200A128A15AF002F08BD00BD080D
:101FE800031DF72FF82FC82EFA2FFA2F3C0884006C
:081FF80083138001FF2F080094
:1027B8000A168A1109240A168A110A168A1123246C
:1027C8000A168A1108000A168A11B6240A168A11EE
:1027D8000A168A11DC230A168A1108000A168A11B9
:1027E80016240A168A110A168A11DC230A168A1177
:1027F80008007A08790478040319032C042C072CA0
:102808008030FA06072C082C08008312031387155A
:102818000530F0000030F1000A168A1179240A16F2
:102828008A1108008316031307160530F0000030DC
:10283800F1000A168A1179240A168A110800F7305D
:10284800F20072088312031387050530F000003088
:10285800F1000A168A1179240A168A1108000A1644
:102868008A11AD260A168A11F6007608F7000A16AC
:102878008A11E7230A168A117708422C0800F030DB
:10288800831203138600F0308316031386000A129E
:102898008A15C6230A168A11512C0A128A11002891
:1028A800A030F000700883120313EA009B308316EF
:1028B8000313870083120313071283160313871168
:1028C800071208007E088A007F0882000A168A110B
:1028D80066240A168A118000840A04087D060319F2
:1028E8000034FF0A0319FE0A6A2C7B2C7B2C01306A
:1028F800F0020030031CF103F102FF307106031DE2
:10290800872CFF307006031D8A2C8B2C7B2C8C2C7B
:1029180008000A168A11AD260A168A11F6007608EA
:10292800F7000A168A11F2230A168A110A168A1162
:10293800FA240A168A11A02C08000A168A111624ED
:102948000A168A110A168A1109240A168A110A1601
:102958008A11B6240A168A110A168A1123240A161D
:102968008A110800EF30F2007208831203138705FA
:10297800EF30F20072088316031387050530F00064
:102988000030F1000A168A1179240A168A11080003
:102998000A168A1109240A168A1183120313071EBC
:1029A800D62CD72CDA2CE601E60ADC2CE601DC2C46
:1029B8000A168A1123240A168A110800E401E5017F
:1029C800E601E701E801E90183175030FD001730FF
:1029D800FE00C030FF00103084000A168A116A24F5
:1029E8000A168A1183010A168A11432C0A168A11BB
:1029F800B6240A168A110A168A1123240A168A117D
:102A08000A168A1109240A168A110A168A11162426
:102A18000A168A110A168A1123240A168A1108002E
:102A28007A08F701F7077908F601F6070A128A15F6
:102A3800E6200A168A110A168A11A1240A168A1192
:102A4800831203136A146A080A168A11DE260A1604
:102A58008A1108008312031306157308F101F107A0
:102A68007208F001F0070A168A1179240A168A11E9
:102A78008312031306117308F101F1077208F001BC
:102A8800F0070A168A1179240A168A11080080307C
:102A980083120313BE063F08AF004008B000410888
:102AA800B1003C08B2003D08B3003E08B4000A1269
:102AB8008A1139210A168A11831203132F08BC00C0
:102AC8003008BD003108BE00692D0800F200720808
:102AD800F1007108F300792D0130F1007108F30756
:102AE8000130F1007108F007792D70088400831314
:102AF8000008F10073088400710880008008031D35
:102B0800862D872D702D882D0800F5007508F40096
:102B18007408F6009B2D7008F40076088400740889
:102B2800831780000130F4007408F6079B2D0130EC
:102B3800F2020030031CF303F302FF307306031D97
:102B4800A72DFF307206031DAA2DAB2D8F2DAC2D9E
:102B58000800FB00FB08031DB22DB32DC12D790819
:102B6800FA007A0883120313E7007908803E0A12F4
:102B78008A157C210A168A11D12D7908103EFA008F
:102B88007A0883120313E7007908C03E0A128A15EF
:102B98007C210A168A11D12DD12D0800EA2D831225
:102BA80003132208FF00210884000A128A15002056
:102BB8000A168A110A128A157E220A168A1101300B
:102BC80083120313A1070318A20AEA2D8312031321
:102BD8002208FF00210884000A128A1500200A161C
:102BE8008A110038031DF92DFA2DD32DFB2D08006D
:102BF800831203130608F0007008F200831603130B
:102C08000608F0007008F3000F30F0007008860521
:102C1800F030F00070088312031386040609F000F0
:102C28007008F10072088600730883160313860083
:102C38007108F00004300310F00CFF3E031D1F2E36
:102C48007008262E08000030F6000030F7000A123F
:102C58008A15E6200A168A11412E7C0884008317FB
:102C68007D1C831300080A168A117D260A168A110C
:102C78000130FC070318FD0A412E7C0884008317E5
:102C88007D1C83138008031D4A2E4B2E312E4C2E9B
:102C98000A168A11FA240A168A11080083120313E5
:102CA800A501A4012930A1008030A2000A168A11CA
:102CB800D2250A168A11602EF03083120313A3005E
:102CC80023088604061A692E6A2E6E2EA401A40A09
:102CD800A501A50A861A712E722E752EA501A50AC0
:102CE800752E2508031D792E602E7A2E24087C2E39
:102CF8000800FB007B080A168A11DE260A168A11CC
:102D0800013083120313E4070318E50A0030E507CE
:102D18003F306405F90000306505FA007A08790447
:102D28000319972E982E9A2EAC2EAC2E0A168A11BD
:102D3800FA240A168A11831203136508F701F707A4
:102D48006408F601F6070A128A15E6200A168A119F
:102D58000800F5010830F3007308F4000A168A1118
:102D680016240A168A11D22E7508F3007308F5077F
:102D78000A168A1109240A168A1183120313071ED8
:102D8800C62EC72ECC2E0130F3007308F507CC2EC3
:102D98000A168A1123240A168A11D22E0130F40247
:102DA8007408FF3A031DD92EDA2EB82EDB2E7508CB
:102DB800DD2E0800F5000830F3007308F400FD2E3E
:102DC800F51FE72EE82EEE2E0A168A1116240A168B
:102DD8008A11F32E0A168A11B6240A168A110A16BF
:102DE8008A11DC230A168A117508F3007308F5079F
:102DF800FD2E0130F4027408FF3A031D042F052F3D
:102E0800E42E062F0A168A1116240A168A110A16A3
:102E18008A11CC240A168A1108008E30FD007D081C
:102E280083120313AE00262F01300310AD0CAC0C37
:102E3800AB0CAA0CFF3E031D192F0130FD007D08C5
:102E4800AE07262FFF302D05031D2B2F2C2F182FF3
:102E58002D2F2A08F0002B08F1002C08F2002E086C
:102E6800FD007D08F300F4010A128A153F240A16B2
:102E78008A11700883120313AA007108AB00720844
:102E8800AC00462F080083120313A401203024024B
:102E9800031C4F2F502F522F802F802F24080F39BB
:102EA800A1002108F9001030F0000030F1002408DA
:102EB800A200A3012208F2002308F3000A128A15CF
:102EC80054230A168A1170080A168A11AD250A16A3
:102ED8008A1120300A128A157E220A168A110130B8
:102EE80083120313A1002108A40720302402031C25
:102EF8007E2F7F2F522F802F08008316031306087A
:102F0800F2007208F300831203130608F200720835
:102F1800F400831603138611A030F2007208F5003E
:102F2800AE2F8312031386156E30F0000030F100C7
:102F38000A168A1179240A168A1183120313861134
:102F48006E30F0000030F1000A168A1179240A1652
:102F58008A11AE2F0130F5027508FF3A031DB52F0F
:102F6800B62F952FB72F74088312031386007308A2
:102F7800831603138600080020340034003400341C
:102F88000034003400340034003400340034003499
:102F98000034003400340034003400340034003489
:102FA8000034003400340034003400340034003479
:102FB8000034003400340034203400340034003449
:102FC8000034003400340034003400340034003459
:102FD8000034003400340034003400340034003449
:102FE8000034003400340034003400340034003439
:082FF800003400340034003401
:02400E003AFF77
:00000001FF
