:060000000A128A150E2E03
:100008007A08F701F7077908F601F6070A128A1540
:100018005A270A128A110A128A15F9250A128A1110
:10002800831203135C145C080A128A1527270A1224
:100038008A110800F601F31F222823282B28F20929
:10004800F309F20A0319F30AF601F60A2B28F11F3D
:100058002E282F283528F009F109F00A0319F10A8A
:1000680035287108700403193A283B287028F501CF
:10007800F50A4A2801300310F00DF10DFF3E031D6B
:100088003F280130F4007408F5074A28F11F4D286D
:100098004E283E285028502871087302031D562800
:1000A80070087202031C59285A2861287008F20245
:1000B8007108031CF303F302612801300310F10CEB
:1000C800F00CFF3E031D62280130F502031D6D2868
:1000D8006E285028702870287608031D74287A28FE
:1000E800F209F309F20A0319F30A7A287308F101ED
:1000F800F1077208F001F00781280800FC00831658
:1001080003130608FA00831203135F08A03E840055
:100118007A08831380005F08013E1F39FA007A08C5
:10012800DF000608FA005F08A03E84007A08800015
:100138005F08013E1F39FA007A08DF007C08FA00E0
:1001480004300310FA0DFF3E031DA52879087A072D
:10015800FB007B08D8007C08FA0006300310FA0D73
:10016800FF3E031DB22879087A07803E0A128A11D9
:10017800D5220A128A1183120313DF08031DC5282A
:10018800C628CB280130FA007A08DF07CB280130CF
:10019800DF025F08A03E8400831300088600DF08A2
:1001A800031DD728D828DD280130FA007A08DF0790
:1001B800DD280130DF025F08A03E840000088316B6
:1001C800031386000800831603130608831203131B
:1001D800A4005F08A03E84002408831380005F0801
:1001E800013E1F39A4002408DF000608A4005F08A8
:1001F800A03E8400240880005F08013E1F39A40047
:100208002408DF001C292308FF00220884000A12A2
:100218008A1500200A128A110A128A117F230A12EB
:100228008A11013083120313A2070318A30A1C2999
:100238002308FF00220884000A128A1500200A12E7
:100248008A110038031D29292A2907292B29DF08A3
:10025800031D2F29302935290130A4002408DF0780
:1002680035290130DF025F08A03E840083130008AF
:100278008600DF08031D4129422947290130A400CF
:100288002408DF0747290130DF025F08A03E840009
:1002980000088316031386000800F601F11F55298C
:1002A80056295E29F009F109F00A0319F10AF60145
:1002B800F60A5E29F31F612962296C29F209F309FC
:1002C800F20A0319F30A0130F4007408F6066C29DF
:1002D800F701F80171087004031973297429B12909
:1002E800F501F50A832901300310F00DF10DFF3EE9
:1002F800031D78290130F4007408F5078329F11FDC
:100308008629872977298929892901300310F70D3A
:10031800F80DFF3E031D8A2971087302031D9629F3
:1003280070087202031C99299A29A2297008F202FE
:100338007108031CF303F3027714A2290130031098
:10034800F10CF00CFF3E031DA3290130F502031D3B
:10035800AE29AF298929B129B1297608031DB52904
:10036800BB29F709F809F70A0319F80ABB2978081D
:10037800F101F1077708F001F007C2290800FD0034
:10038800CA290130F8007808FD07CA297D088400C9
:1003980083130008203A0319D229D329C5297D08D7
:1003A80084000008093A0319DA29DB29C529DC2960
:1003B800FB01FC01FA017D08840000082D3A031DA9
:1003C800E629E729F0290130F8007808FA07013012
:1003D800F8007808FD07252A7D08840000082B3AD4
:1003E800031DF729F829252A0130F8007808FD07A8
:1003F800252A252A252A7C08F101F1077B08F00126
:10040800F0070A30F2000030F3000A128A15692654
:100418000A128A117D088400831300087007F80007
:1004280071080318710AF9007808D03EFB007908B2
:100438000318013EFF3EFC000130F8007808FD0774
:10044800252A7D08840000080A128A15BD250A128B
:100458008A110318302A312AFF29322A7A08031D03
:10046800362A432A7B09F8007C09F900F80A03199F
:10047800F90A7808F6007908F7004A2A4A2A7C0817
:10048800F701F7077B08F601F6074A2A08008316E2
:1004980003130608F500831203135F08A03E8400C7
:1004A8007508831380005F08013E1F39F500750841
:1004B800DF000608F5005F08A03E8400750880008C
:1004C8005F08013E1F39F5007508DF008230F6002D
:1004D800DD30F500F50B6E2AF60B6E2A732A3030E4
:1004E8000A128A11D5220A128A112830831203139C
:1004F800860006150830F500F50B802A83120313D1
:1005080006110830F500F50B872A4230F500F50B87
:100518008B2A000028300A128A11D5220A128A1161
:1005280008300A128A11D5220A128A1101300A12D9
:100538008A11D5220A128A1106300A128A11D52286
:100548000A128A110E300A128A11D5220A128A1149
:1005580083120313D801DF08031DB32AB42AB92A6A
:100568000130F5007508DF07B92A0130DF025F089E
:10057800A03E8400831300088600DF08031DC52AF7
:10058800C62ACB2A0130F5007508DF07CB2A0130CF
:10059800DF025F08A03E840000088316031386006C
:1005A8000800F400831203138601831603138601DF
:1005B8008312031386100611EC2AEC2A2130F3006B
:1005C8007630F200F20BE62AF30BE62A0000EC2A5A
:1005D8000A128A15A5270A128A110038031DF52A5E
:1005E800F62AE22AF72A2130F3007630F200F20BDD
:1005F800FB2AF30BFB2A00000B2B2130F30076308B
:10060800F200F20B052BF30B052B00000B2B0A1243
:100618008A15A5270A128A110038031D142B152BD9
:10062800012B162B2130F3007630F200F20B1A2B37
:10063800F30B1A2B00000A128A15A5270A128A1131
:100648000038031D282B292BEC2A2A2B0F30831264
:1006580003130605F2007408F039720786000615C0
:100668000830F200F20B362B831203130611083000
:10067800F200F20B3D2B0F30831203130605F20034
:100688007408F30003300310F30DFF3E031D472BDE
:100698000310730DF0397207860006150830F20052
:1006A800F20B542B8312031306110830F200F20BDD
:1006B8005B2B7408013A0319622B632B6A2B7408AD
:1006C800023A031D682B692B772B6A2B0B30F3003A
:1006D8006230F200F20B6E2BF30B6E2B00008312CC
:1006E8000313D8017E2B4230F200F20B792B000065
:1006F8007E2B7E2B0800FD008312031386018316D0
:10070800031386018312031386140611982B982B62
:10071800213083120313A1007630A000A00B922B86
:10072800A10B922B0000982B0A128A15A5270A12F2
:100738008A110038031DA12BA22B8C2BA32B21304F
:1007480083120313A1007630A000A00BA92BA10BE4
:10075800A92B0000BB2B213083120313A100763094
:10076800A000A00BB52BA10BB52B0000BB2B0A12C8
:100778008A15A5270A128A110038031DC42BC52B18
:10078800AF2BC62B213083120313A1007630A000B3
:10079800A00BCC2BA10BCC2B00000A128A15A52785
:1007A8000A128A110038031DDA2BDB2B982BDC2B5D
:1007B8000F30831203130605A0007D08F0392007C7
:1007C800860006150830A000A00BE82B831203133F
:1007D80006110830A000A00BEF2B0F308312031373
:1007E8000605A0007D08A10003300310A10DFF3EFF
:1007F800031DF92B0310210DF0392007860006157B
:100808000830A000A00B062C831203130611083031
:10081800A000A00B0D2C423083120313A000A00BE4
:10082800132C0000013083120313A0002008D807FE
:1008380058080F39031D212C222C3B2CF9011030AC
:10084800F0000030F1005808A000A1012008F200D3
:100858002108F3000A128A1151210A128A1170081C
:100868000A128A1182200A128A113B2C3B2C08009A
:1008780083120313AB00AC01AA01AA0A831603135F
:10088800060883120313A7005F08A03E8400270808
:10089800831380005F08013E1F39A7002708DF0087
:1008A8000608A7005F08A03E8400270880005F08AC
:1008B800013E1F39A7002708DF000F30A7002708CF
:1008C800831603138605F03083120313A700270845
:1008D80086040130A5020030031CA603A6022B08DB
:1008E80084008001B72D061A7A2C7B2C7D2CAA0156
:1008F800B02D861A802C812CB52C2C08031D852C34
:10090800B02D20300A128A117F230A128A11023070
:1009180083120313D8022C082B07A700270884008A
:10092800831380010130AC0258080F39A70027084B
:10093800F9001030F0000030F1005808A800A901B3
:100948002808F2002908F3000A128A1151210A1214
:100958008A1170080A128A1182200A128A11B02D8F
:10096800B02D061BB82CB92C042D2C082B07A7007A
:1009780027088400831380080319C32CC42CB02DC6
:100988002C08A700A80126082802031DCD2C25083D
:1009980027020318D02CD12CB02D2B088400000876
:1009A800303A0319D82CD92CB02D0130A7002708CC
:1009B800D8070130A7002708AC072C082B07A80088
:1009C80028088400800158080F39A7002708F90073
:1009D8001030F0000030F1005808A800A9012808DC
:1009E800F2002908F3000A128A1151210A128A1109
:1009F80070080A128A1182200A128A11B02DB02DAD
:100A0800861B072D082DB02D2C082B07A7002708BB
:100A18008400831380080319122D132D362D0A30F4
:100A2800F0000030F1002C082B07A70027088400ED
:100A38000008D13EF200FF3003180030F3000A121C
:100A48008A111E200A128A117008303E831203137D
:100A5800A8002C082B07A90029088400280883135C
:100A68008000462D3030A7002C082B07A800280846
:100A78008400270880002C08013E2B07A7002708C0
:100A8800840080015808A7005F08A03E840027085A
:100A980080005F08013E1F39A7002708DF002C08E7
:100AA800D80258080F39A7002708F9001030F000BD
:100AB8000030F1005808A800A9012808F200290808
:100AC800F3000A128A1151210A128A1170080A12B7
:100AD8008A1182200A128A11831203132B08A2009A
:100AE8000030A3000A128A11E7200A128A11831221
:100AF8000313DF08031D812D822D872D0130A700E8
:100B08002708DF07872D0130DF025F08A03E840039
:100B180083130008A7002708D80058080F39A70032
:100B28002708F9001030F0000030F1005808A8003C
:100B3800A9012808F2002908F3000A128A11512194
:100B48000A128A1170080A128A1182200A128A115E
:100B5800B02DB02DB02DB02DF03083120313A700A7
:100B680027088604B72DAA08031DBB2DBC2D772C9A
:100B7800BD2DDF08031DC12DC22DC72D0130A700D3
:100B88002708DF07C72D0130DF025F08A03E840079
:100B9800831300088600DF08031DD32DD42DD92D1B
:100BA8000130A7002708DF07D92D0130DF025F08D1
:100BB800A03E8400000883160313860083120313E3
:100BC8002B08840080080319EA2DEB2DF72D01303E
:100BD800A7002708AC072C08A800A9012808A50029
:100BE8002908A600002E2C08A700A8012708A500A0
:100BF8002808A600002E002E08000A128A114B228F
:100C08000A128A1131308400473083120313AD0071
:100C18000408AE000F30AF002D08840083130008CD
:100C2800B000AD0A2E08840030088000AE0AAF0B71
:100C3800102EA030AD002D08DC009B308316031366
:100C480087000A128A1552250A128A110330831264
:100C58000313AF008A30AE005630AD00AD0B322E14
:100C6800AE0B322EAF0B322E392E01300A128A11FA
:100C7800D5220A128A11113083120313A200803080
:100C8800A3000A128A11E7200A128A110F30831270
:100C98000313AD002D08831603138605F030831265
:100CA8000313AD002D088604592E83120313061A68
:100CB8005E2E5F2E8F2E0030F9000030FA000A12E7
:100CC8008A1104200A128A1183120313C501C6016E
:100CD800742E0130C5070318C60A0030C607742EE3
:100CE8000A128A15AD250A128A1183120313AD0060
:100CF8004508313E84002D08831380008008031DB9
:100D0800862E872E6D2E882E0A128A15E5250A1240
:100D18008A11982E592E861B922E932E592E982E74
:100D2800982E592E592E592E063083120313AF00D0
:100D38001330AE00B130AD00AD0BA02EAE0BA02E1F
:100D4800AF0BA02EA72EA92EA92E0A128A15A52709
:100D58000A128A110038031DB22EB32EA92EB42E02
:100D680001300A128A11D5220A128A11F9010130BA
:100D78000A128A1182200A128A113130831203134F
:100D8800A2000030A3000A128A11E7200A128A1171
:100D9800F90100300A128A1182200A128A11D42E0F
:100DA800F90100300A128A1182200A128A110130D0
:100DB80083120313A2008030A3000A128A11E720CD
:100DC8000A128A11F90100300A128A1182200A12C5
:100DD8008A11EE2E2A3083120313A2008030A3005A
:100DE8000A128A11E7200A128A11023083120313A9
:100DF800A5000030A60040300A128A113C240A12CD
:100E08008A11831203132608C401C4072508C301E5
:100E1800C30740300A128A11C3210A128A117708BF
:100E280083120313C401C4077608C301C307003043
:100E380044021E3003194302031C232F242F2E2F94
:100E480000304402333003194302031C2C2F2D2F8A
:100E58007D2F2E2FF90100300A128A1182200A12E2
:100E68008A11013083120313A2008030A3000A12F2
:100E78008A11E7200A128A11F90100300A128A1130
:100E880082200A128A111F3083120313A2008030B5
:100E9800A3000A128A11E7200A128A11333083123A
:100EA8000313AF00BC30AE001030AD00AD0B5A2FAD
:100EB800AE0B5A2FAF0B5A2FF90100300A128A11C4
:100EC80082200A128A11013083120313A200803093
:100ED800A3000A128A11E7200A128A11F9010030C8
:100EE8000A128A1182200A128A11EE2E7D2FEE2E06
:100EF800EE2E023083120313AF004530AE00A93046
:100F0800AD00AD0B852FAE0B852FAF0B852F8C2F2A
:100F18008E2F8E2F0A128A15A5270A128A110038D9
:100F2800031D972F982F8E2F992F3130831203137B
:100F3800AD002D08F00043080A128A15F5260A129A
:100F48008A11F90101300A128A1182200A128A11C3
:100F5800313083120313A2000030A3000A128A1151
:100F6800E7200A128A11F90100300A128A11822038
:100F78000A128A110030F6000030F7000A128A15AA
:100F88005A270A128A1183120313C501C601DF2FDB
:100F98004508313E8400831300080A128A15C426C6
:100FA8000A128A11013083120313C5070318C60AEF
:100FB8000030C607DF2F4508313E840083138008C0
:100FC800031DE72FE82FCC2FE92F00300A128A15CE
:100FD800C4260A128A110A128A154F260A128A1181
:100FE800F90100300A128A1182200A128A11D42EBD
:100FF800D42E0A128A110028FF1B0A2883137F188F
:1010080083170008840A0319FF0A080008308A00B9
:101018000408840A82070034203420342034203421
:101028002034203420342034203420342034203418
:10103800203420342034003445344534503452347C
:101048004F344D342834533431342F3453343434FA
:10105800293400344E346F34743420347634613497
:101068006C3469346434213400344E3475346D344E
:0C1078006234653472343A3420340034A1
:101AA4008312031307128316031387110712080006
:101AB40064008001840A04060319003404065B2DC3
:101AC4000A128A1583250A128A150A128A159D2577
:101AD4000A128A1508000A128A1590250A128A1514
:101AE4000A128A1562250A128A1508000A128A1532
:101AF40023260A128A150A128A1562250A128A15E1
:101B040008008312031387150530F0000030F1003C
:101B14000A128A15D1250A128A150800831603139E
:101B240007160530F0000030F1000A128A15D1259D
:101B34000A128A150800F730F200720883120313A0
:101B440087050530F0000030F1000A128A15D1250E
:101B54000A128A1508000A128A1593260A128A158F
:101B6400F6007608F7000A128A1578250A128A15F3
:101B74007708BC2D0800F100F0013A307102031817
:101B8400C42DC52DCE2D30307102031CCA2DCB2D92
:101B9400CE2DF001F00ACE2D700CD02D0800D32DDF
:101BA400D32D0130F0020030031CF103F102FF30A9
:101BB4007106031DDF2DFF307006031DE22DE32D9A
:101BC400D32DE42D08000A128A1593260A128A15C9
:101BD400F6007608F7000A128A156D250A128A158E
:101BE4000A128A154F260A128A15F82D08000A12BD
:101BF4008A1590250A128A150A128A1583250A1253
:101C04008A150A128A1523260A128A150A128A15B7
:101C14009D250A128A1508008313473084005F301B
:101C24000A128A155A250A128A15A0308400C03077
:101C34000A128A155A250A128A1583010A128A1170
:101C4400012EEF30F2007208831203138705EF3080
:101C5400F20072088316031387050530F000003084
:101C6400F1000A128A15D1250A128A1508000A12EF
:101C74008A1583250A128A1583120313071E432E1D
:101C8400442E472ED901D90A492ED901492E0A12C8
:101C94008A159D250A128A1508000A128A15232618
:101CA4000A128A150A128A159D250A128A150A1221
:101CB4008A1583250A128A150A128A1590250A1292
:101CC4008A150A128A159D250A128A150800F4013C
:101CD400F5016C2E701C6F2E702E762E7208F40790
:101CE4000318F50A7308F50701300310F20DF30D1C
:101CF400FF3E031D772E01300310F10CF00CFF3E64
:101D0400031D7E2E71087004031D892E8A2E6C2EED
:101D14008B2E7508F101F1077408F001F007922E7B
:101D24000800F5010830F3007308F4000A128A155C
:101D340090250A128A15B82E7508F3007308F50762
:101D44000A128A1583250A128A1583120313071EA1
:101D5400AC2EAD2EB22E0130F3007308F507B22E6F
:101D64000A128A159D250A128A15B82E0130F4022A
:101D74007408FF3A031DBF2EC02E9E2EC12E750877
:101D8400C32E0800FB007B080A128A1527270A12B3
:101D94008A15013083120313D6070318D70A0030BB
:101DA400D7073F305605F90000305705FA007A0886
:101DB40079040319DE2EDF2EE12EF42EF42E0A12FE
:101DC4008A154F260A128A15831203135708F7013E
:101DD400F7075608F601F6070A128A155A270A1257
:101DE4008A15F42E0800F4000D30F5000030F600DA
:101DF40076087504031DFF2E002F022F1F2F1F2F9F
:101E04007508FF3E7007F100710884008313000811
:101E1400F20075087007F3007308840072088000EC
:101E24000130F5020030031CF603F602760875044F
:101E3400031D1D2F1E2F022F1F2F7408F100700881
:101E440084007108831380000800F5000830F30053
:101E54007308F400462FF51F302F312F372F0A1245
:101E64008A1590250A128A153C2F0A128A152326F0
:101E74000A128A150A128A1562250A128A15750829
:101E8400F3007308F507462F0130F4027408FF3A93
:101E9400031D4D2F4E2F2D2F4F2F0A128A159025DB
:101EA4000A128A150A128A1539260A128A15080096
:101EB400770883120313D701D7077608D601D6070C
:101EC400632F0A128A15F9250A128A15FE30F800C2
:101ED400780883120313DC055C080A128A15272785
:101EE4000A128A15831203135908031D7A2F802FAF
:101EF4000A128A154F260A128A15632F77080A12C6
:101F04008A1527270A128A15831203135908031DF9
:101F14008C2F922F0A128A154F260A128A15632FC4
:101F240076080A128A1527270A128A1583120313C0
:101F34005908031D9E2FA42F0A128A154F260A1230
:101F44008A15632F0800831603130608F000831212
:101F540003135F08A03E84007008831380005F08A9
:101F6400013E1F39F0007008DF000608F0005F082A
:101F7400A03E8400700880005F08013E1F39F00015
:101F84007008DF000F30F000700883160313860515
:101F9400F030F00070088312031386040608F03949
:101FA400F03A0030031D0130F0007008F100DF0842
:101FB400031DDD2FDE2FE32F0130F0007008DF0753
:101FC400E32F0130DF025F08A03E84000008860092
:101FD400DF08031DEE2FEF2FF42F0130F0007008FF
:101FE400DF07F42F0130DF025F08A03E8400000801
:0C1FF4008316031386007108FF2F0800FD
:02400E0032FF7F
:00000001FF
