:060000000A128A11122809
:10000800FE00030E83120313A5000408A6000A08C5
:10001800A7007F08A8000A128A1114290A128A1553
:10002800BC2E83120313C4003830BA003A08BD004E
:10003800FA284508253A0319222823282F28450895
:10004800BA00440884003A08831380000130BA00DB
:100058003A08C407FA28BE0136280E294B284B282F
:10006800FA284B280130B707FF30370784000A12F7
:100078008A110A260A128A11C500003A03190E29A4
:10008800643A03194B280D3A03194B28FA283D08FE
:10009800840083130008C000840A0008C1000230ED
:1000A800BA003A08BD07C11F5A285B2865280330E3
:1000B800BA003A08BE04C009C109C00A0319C10A36
:1000C8006528C501C50A4508053A031D6C286D2831
:1000D8006F28972897284508BA003A07013E8400F8
:1000E8000A128A110A260A128A11BB000A128A11F8
:1000F8000A260A128A11BC003C084102031D862800
:100108003B084002031889288A288C2897289728B2
:100118000130BA003A08C5074508053A031D952875
:1001280096286F2897283E08033903199C289D288C
:10013800A9282D30BA00440884003A0883138000A7
:100148000130BA003A08C407A9284508BA003A0895
:10015800BF00EE280A30B1000030B2003F08BA00F4
:100168003A07013E84000A128A110A260A128A11E5
:10017800A9000A128A110A260A128A11AA0041083D
:10018800AC01AC074008AB01AB070A128A119E26E6
:100198000A128A11831203132A08B401B407290822
:1001A800B301B3070A128A1187270A128A11831228
:1001B80003133108303EBB003B08C5004508BA00B0
:1001C800440884003A08831380000130BA003A08D2
:1001D800C407EE28FF30BA003A08BF073F08FF3AC5
:1001E800031DF728F828AE28FA28FA280130B7079F
:1001F800FF30370784000A128A110A260A128A1168
:10020800BA003A08C500C508031D0B290C291D288A
:100218000E290E294408840083138001132908003D
:10022800283057065804031D1A291B29E2290A12E7
:100238008A15F5250A128A11831203135B08031D18
:1002480026294C2955080F39A3002308F900103036
:10025800F0000030F1005608F301F3075508F201E9
:10026800F2070A128A1105230A128A1170080A1263
:100278008A15D0250A128A11A63083120313A10009
:100288000030A2000A128A1568260A128A118229E9
:10029800831203136508031D52295E2955080F3977
:1002A800A3002308F90001300A128A15D0250A1282
:1002B8008A117B298312031355080F39A3002308D9
:1002C800F9001030F0000030F1005608F301F30790
:1002D8005508F201F2070A128A1105230A128A1137
:1002E80070080A128A15D0250A128A117B29A630AD
:1002F8000A128A1592250A128A1182298312031377
:100308006408031D8829B029DB08031D8C298D2961
:100318009C295508013EA30056080318013E003EDB
:10032800A4000F302305D50000302405D6009C29F1
:100338005B08031DA029DF295508013EA3005608C4
:100348000318013E003EA4001F302305D5000030ED
:100358002405D600DF29DF29DB08031DB429B529C8
:10036800C72956085504031DBA29BB29C0290F30CF
:10037800D5000030D600C729FF30D5070318D60AA4
:10038800FF30D607C7295B08031DCB29DF2956088C
:100398005504031DD029D129D6291F30D500003096
:1003A800D600DF29FF30D5070318D60AFF30D60755
:1003B800DF29DF29DF29D701D801E2290130D70752
:1003C8000318D80A0030D8070B112808FF0027089F
:1003D8008A0026088400250E8300FE0E7E0E090082
:1003E80083160313B4010A128A1511270A128A11F7
:1003F800003A0319002A012A802AB53084008312A2
:1004080003135E0883138000840A5F088000840A4F
:1004180060088000840A61088000840A62088000FD
:10042800840A63088000B5300A128A113C270A1230
:100438008A118316031336082D3A031D242A252A08
:100448002F2A3508D03E83120313D500FF30031836
:100458000030D600642A831603133508D03E831271
:100468000313A900FF3003180030AA000A30AB00BC
:100478000030AC000A128A153C270A128A1183162A
:100488000313360883120313290783160313B200D4
:10049800003003180130831203132A07831603134D
:1004A800B3003208D03E83120313D500831603131A
:1004B80033080318013EFF3E83120313D600642A53
:1004C800831603133708D03EB20032088312031391
:1004D800E500831603133808D03EB20032088312B1
:1004E8000313DB00831603133908D03EB200320829
:1004F80083120313E400802A0A128A153F260A127F
:100508008A110730831603138100A0308B000A126A
:100518008A1191220A128A11080083120313CE014C
:10052800CF01D201D001D101992A83120313D2013C
:10053800F030CD004D088604061AA32AA42AB52A4D
:10054800F030CD004D088604061AAB2AAC2AB52A2D
:10055800E408003003190130CD004D08E400B52A45
:10056800B52AF030CD004D088604861ABC2ABD2A6B
:10057800D72AF030CD004D088604861AC42AC52A29
:10058800D72A6508031DC92ACD2AE501D501D60158
:10059800D42AE501E50A1030D5000030D600D42A67
:1005A800DB01D72AD72AF030CD004D088604061B78
:1005B800DE2ADF2AEB2AF030CD004D088604061B20
:1005C800E62AE72AEB2ADB01DB0AEB2AEB2AF030E2
:1005D800CD004D088604861BF22AF32A992AF030AA
:1005E800CD004D088604861BFA2AFB2A992A0A128E
:1005F8008A110B250A128A11992A992A992A992A65
:100608000800F601F11F092B0A2B122BF009F1093A
:10061800F00A0319F10AF601F60A122BF31F152B3B
:10062800162B202BF209F309F20A0319F30A0130F9
:10063800F4007408F606202BF701F801710870041D
:100648000319272B282B652BF501F50A372B0130C9
:100658000310F00DF10DFF3E031D2C2B0130F400AB
:100668007408F507372BF11F3A2B3B2B2B2B3D2B0F
:100678003D2B01300310F70DF80DFF3E031D3E2BF7
:1006880071087302031D4A2B70087202031C4D2B5C
:100698004E2B562B7008F2027108031CF303F30269
:1006A8007714562B01300310F10CF00CFF3E031D9C
:1006B800572B0130F502031D622B632B3D2B652B55
:1006C800652B7608031D692B6F2BF709F809F70AC4
:1006D8000319F80A6F2B7808F101F1077708F00180
:1006E800F007762B080083120313B500862BE83039
:1006F80083120313A9000330AA000A128A15C8241A
:100708000A128A110A128A1598270A128A110038C1
:10071800031D8F2B902B7B2B912B0F3083120313F0
:100728000605B3003508F039330786000A30AB00F8
:100738000030AC000A128A1575250A128A110F308A
:10074800831203130605B3003508B4000330031001
:10075800B40DFF3E031DAB2B0310340D3307860089
:100768000A30AB000030AC000A128A1575250A124F
:100778008A11013083120313B3003308DA075A08C9
:10078800103A031DC82BC92BD12BB00101300A1216
:100798008A151A260A128A11D12B831203135A08B2
:1007A800203A031DD82BD92BE12BB00100300A12B7
:1007B8008A151A260A128A11E12B080083120313DC
:1007C800A000EF2BE830F0000330F1000A128A1580
:1007D8009F240A128A110A128A15E6260A128A1119
:1007E8000038031DF82BF92BE62BFA2B0F30831258
:1007F80003130605FC002008F0397C0786000A3040
:10080800F2000030F3000A128A1558250A128A11DC
:100818000F30831203130605FC002008FD00033087
:100828000310FD0DFF3E031D142C03107D0D7C07E6
:1008380086000A30F2000030F3000A128A155825A3
:100848000A128A110130FC007C0883120313DA07AC
:100858005A08103A031D312C322C3A2CF90165083C
:100868000A128A15D0250A128A113A2C8312031308
:100878005A08203A031D412C422C4A2CF9016508DC
:100888000A128A15D0250A128A114A2C08008312E6
:100898000313A000582CE830F0000330F1000A12CE
:1008A8008A159F240A128A110A128A15E6260A1244
:1008B8008A110038031D612C622C4F2C632C0F30D9
:1008C800831203130605FC002008F0397C07860014
:1008D8000A30F2000030F3000A128A1558250A126D
:1008E8008A110F30831203130605FC002008FD004F
:1008F80003300310FD0DFF3E031D7D2C03107D0DFD
:100908007C0786000A30F2000030F3000A128A15CC
:1009180058250A128A110130FC007C08831203133F
:10092800DA075A08103A031D9A2C9B2CA32CF901BC
:1009380001300A128A15D0250A128A11A32C8312B3
:1009480003135A08203A031DAA2CAB2CB32CF90127
:1009580000300A128A15D0250A128A11B32C080011
:10096800A03083120313A9000F30AA000A128A15B7
:10097800C8240A128A1183160313860130308312A1
:10098800031386009030AB000130AC000A128A15C0
:1009980075250A128A11903083120313AB000130B7
:1009A800AC000A128A1575250A128A119030831232
:1009B8000313AB000130AC000A128A1575250A1220
:1009C8008A1120308312031386009030AB00013067
:1009D800AC000A128A1575250A128A1128300A12E3
:1009E8008A1162250A128A110E300A128A116225AA
:1009F8000A128A1106300A128A1162250A128A110D
:100A080002300A128A1162250A128A110800473038
:100A1800840083160313200883138000840A2108A6
:100A28008000840A22088000840A23088000840A3F
:100A380024088000840A250880003D3083120313AF
:100A4800C6004608B7005608B901B9075508B801E5
:100A5800B80747300A128A1115200A128A11831220
:100A680003135608803AFF0080307F02031D3E2D95
:100A78000A3055020318412D422D492D2D3083127D
:100A88000313C6004608C800492D831203136508DE
:100A9800303EC6004608C9005B08303EC60046081E
:100AA800CA006408303EC6004608CB00CC01473077
:100AB8000A128A1568270A128A110800831203137A
:100AC800AF00712DE83083120313A9000330AA0088
:100AD8000A128A15C8240A128A110A128A15982736
:100AE8000A128A110038031D7A2D7B2D662D831278
:100AF800031386100F300605AD002F08F0392D07B7
:100B080086006430AB000030AC000A128A157525E7
:100B18000A128A110F30831203130605AD002F083D
:100B2800AE0003300310AE0DFF3E031D962D0310DB
:100B38002E0D2D0786006430AB000030AC000A1281
:100B48008A1575250A128A11831203138614E83050
:100B5800A9000330AA000A128A15C8240A128A11A9
:100B6800080083120313AE000830AC002C08AD0057
:100B7800D82DAE1FC02DC12DC72D0A128A154924A4
:100B88000A128A11CC2D0A128A150A250A128A110C
:100B98000A128A151B240A128A11831203132E08BB
:100BA800AC002C08AE07D82D0130AD022D08FF3A55
:100BB800031DDF2DE02DBD2DE12D0A128A154924D4
:100BC8000A128A110A128A15F4240A128A110800D4
:100BD8000A128A15C9270A128A1183120313AF0051
:100BE8002F08B0000A128A1531240A128A118312BA
:100BF80003133008FF2D0800FF1B0A2E83137F18EC
:100C080083170008840A0319FF0A080006308A00BF
:100C18000408840A82070034013400340A3400349A
:100C280064340034E83403341034273455347334CE
:100C38006534203445344534503452344F344D34BF
:100C48003F342034203420342034203442343134AA
:100C5800203459344534533420342034203420345B
:100C680020344234323420344E344F34003420346B
:100C780020342034203420342034203420342034CC
:100C880020342034203420342034203420340034DC
:100C9800253464340034831203133008D401D40794
:100CA8002F08D301D307582E0A128A15B3240A1223
:100CB8008A11FE3083120313B1003108E605660875
:100CC8000A128A11B5250A128A11831203135908C8
:100CD800031D6F2E752E0A128A1522250A128A11F3
:100CE800582E8312031330080A128A11B5250A12E6
:100CF8008A11831203135908031D832E892E0A12A1
:100D08008A1522250A128A11582E831203132F08D6
:100D18000A128A11B5250A128A1183120313590877
:100D2800031D972E9D2E0A128A1522250A128A1152
:100D3800582E080083120313AF01B0012A082904B2
:100D48000319A72EA82EE52EAE01AE0AB72E013044
:100D58000310A90DAA0DFF3E031DAC2E0130AD00F6
:100D68002D08AE07B72EAA1FBA2EBB2EAB2EBD2E4E
:100D7800BD2E01300310AF0DB00DFF3E031DBE2E7A
:100D88002A082C02031DCA2E29082B02031CCD2E6B
:100D9800CE2ED62E2908AB022A08031CAC03AC02BF
:100DA8002F14D62E01300310AA0CA90CFF3E031DE8
:100DB800D72E0130AE02031DE22EE32EBD2EE52E06
:100DC800E52E3008AA01AA072F08A901A907EC2EC9
:100DD8000800F600F82EE830F0000330F1000A129F
:100DE8008A159F240A128A110A128A15E6260A12FF
:100DF8008A110038031D012F022FEF2E83120313CF
:100E080086100F300605F4007608F039740786005E
:100E18006430F2000030F3000A128A1558250A12CD
:100E28008A110F30831203130605F4007608F500C3
:100E380003300310F50DFF3E031D1D2F0310750D24
:100E4800740786006430F2000030F3000A128A1535
:100E580058250A128A11831203138614E830F00009
:100E68000330F1000A128A159F240A128A11080019
:100E780083120313B6000030B2000030B3000A1228
:100E88008A153C250A128A1183120313B701B80187
:100E9800B701B8013808803AFF0080307F02031D8F
:100EA800572F05303702031C5A2F5B2F5D2F812FD8
:100EB800812F0A128A11EC250A128A118312031350
:100EC800B40037083607B5003508840034088313A2
:100ED80080000130B7070318B80A0030B80738088F
:100EE800803AFF0080307F02031D7C2F05303702D7
:100EF800031C7F2F802F5D2F812F0A128A15DE2475
:100F08000A128A11080083120313320831040319E4
:100F18008E2F8F2FC42FB601B60A9E2F01300310D3
:100F2800B10DB20DFF3E031D932F0130B5003508FA
:100F3800B6079E2FB21FA12FA22F922FA42FA42F46
:100F480032083402031DAA2F31083302031CAD2FC7
:100F5800AE2FB52F3108B3023208031CB403B40214
:100F6800B52F01300310B20CB10CFF3E031DB62F94
:100F78000130B602031DC12FC22FA42FC42FC42FC6
:100F88003408B201B2073308B101B107CB2F08000A
:100F980083120313B40034080A128A11B5250A1201
:100FA8008A11013083120313D3070318D40A0030BF
:100FB800D4073F305305B20000305405B30033085E
:100FC80032040319E82FE92FEB2FFD2FFD2F0A120A
:100FD8008A1522250A128A11831203135408B001B4
:100FE800B0075308AF01AF070A128A114F260A1239
:040FF8008A11080052
:1018260020340034003400340034003401340134F0
:101836000A128A153C240A128A150A128A15582495
:101846000A128A1508000A128A1549240A128A15EC
:101856000A128A151B240A128A1508000A128A150A
:101866000A250A128A150A128A151B240A128A15D3
:1018760008008312031387150530A9000030AA005B
:101886000A128A15C8240A128A1508008316031339
:101896000716053083120313A9000030AA000A12A6
:1018A6008A15C8240A128A150800F7308312031312
:1018B600AB002B0887050530A9000030AA000A12E4
:1018C6008A15C8240A128A150800A0308312031349
:1018D600A9002908E6009B308316031387008312AC
:1018E6000313071283160313871107120800203407
:1018F60000340034003400340034533465346C341E
:101906006C3420346734613472346134673465343E
:1019160000347E088A007F0882000A128A158C2409
:101926000A128A158000840A04087D060319003409
:10193600FF0A0319FE0A902CA12CA12C0130F002FB
:101946000030031CF103F102FF307106031DAD2CBC
:10195600FF307006031DB02CB12CA12CB22C080050
:101966000A128A1549240A128A150A128A153C2473
:101976000A128A150A128A150A250A128A150A12E5
:101986008A1558240A128A150800CA2CCA2C013056
:1019960083120313A9020030031CAA03AA02FF3014
:1019A6002A06031DD82CFF302906031DDB2CDC2C50
:1019B600CA2CDD2C08000A128A15C9270A128A15B4
:1019C60083120313AF002F08B0000A128A152624CB
:1019D6000A128A150A128A1522250A128A15F32C6A
:1019E60008000A128A153C240A128A158312031368
:1019F600071EFE2CFF2C022DD901D90A042DD90170
:101A0600042D0A128A1558240A128A150800EF3086
:101A160083120313AB002B088705EF30AB002B08AE
:101A2600831603138705053083120313A9000030BC
:101A3600AA000A128A15C8240A128A1508000A1270
:101A46008A150A250A128A150A128A1558240A12B4
:101A56008A150A128A153C240A128A150A128A1550
:101A660049240A128A150A128A1558240A128A1556
:101A76000800831203133308B001B0073208AF0120
:101A8600AF070A128A114F260A128A150A128A15F8
:101A9600B3240A128A1583120313661466080A12FF
:101AA6008A11B5250A128A15080083120313061532
:101AB6007308F101F1077208F001F0070A128A159E
:101AC6009F240A128A158312031306117308F10163
:101AD600F1077208F001F0070A128A159F240A120C
:101AE6008A1508008312031306152C08AA01AA07F3
:101AF6002B08A901A9070A128A15C8240A128A15F1
:101B06008312031306112C08AA01AA072B08A901A0
:101B1600A9070A128A15C8240A128A150800831210
:101B26000313A200A62D22088400831300080A12BC
:101B36008A11E2230A128A15013083120313A100C7
:101B46002108A207A62D2208840083138008031DFE
:101B5600AD2DAE2D962DAF2D0800F0308312031358
:101B66008600F0308316031386000A128A1568244D
:101B76000A128A150A128A11B4240A128A150A123E
:101B86008A153F260A128A150A128A11F4210A12A8
:101B96008A15CD2D0A128A111228FB00FB08031D97
:101BA600D52DD62DE42D7908FA007A088312031371
:101BB600DA007908803E0A128A11ED260A128A1581
:101BC600F42D7908103EFA007A0883120313DA001E
:101BD6007908C03E0A128A11ED260A128A15F42DDA
:101BE600F42D0800F90100300A128A15D0250A12D0
:101BF6008A152C3083120313A1008030A2000A122A
:101C06008A1568260A128A152C3083120313A1003E
:101C16008030A2000A128A1568260A128A15F9016E
:101C260000300A128A15D0250A128A150800831276
:101C36000313B200B208031D212E222E2E2E3008C9
:101C4600B1003108DA003008803E0A128A11622596
:101C56000A128A153E2E831203133008103EB10075
:101C66003108DA003008C03E0A128A1162250A12CB
:101C76008A153E2E3E2E080083120313B001003053
:101C86000A128A151A260A128A152C308312031391
:101C9600B6008030B7000A128A1592260A128A15F3
:101CA6002C3083120313B6008030B7000A128A154F
:101CB60092260A128A1583120313B00100300A1203
:101CC6008A151A260A128A150800802E8312031313
:101CD6002208FF00210884000A128A1100260A122F
:101CE6008A150A128A114B240A128A1501308312A8
:101CF6000313A1070318A20A802E831203132208D6
:101D0600FF00210884000A128A1100260A128A1589
:101D16000038031D8F2E902E692E912E0800AA2EB4
:101D2600831203133708FF00360884000A128A114B
:101D360000260A128A150A128A1177230A128A15B0
:101D4600013083120313B6070318B70AAA2E8312AB
:101D560003133708FF00360884000A128A1100268A
:101D66000A128A150038031DB92EBA2E932EBB2EE1
:101D76000800D301D401D501D601D701D801D90174
:101D8600DA01DB01DC01DD018313B230FD000C302A
:101D9600FE007A30FF00A03084000A128A159024D3
:101DA6000A128A156630FD000C30FE001330FF0063
:101DB6005E3084000A128A1590240A128A1583015D
:101DC6000A128A15B02D831203130608F000700854
:101DD600F200831603130608F0007008F3000F30B4
:101DE600F00070088605F030F000700883120313C7
:101DF60086040609F0007008F10072088600730870
:101E06008316031386007108F00004300310F00CEB
:101E1600FF3E031D092F7008102F080083120313BD
:101E2600BA01B9010B30B6008030B7000A128A1524
:101E360092260A128A151F2FF03083120313B80058
:101E460038088604061A282F292F2D2FB901B90A1A
:101E5600BA01BA0A861A302F312F342FBA01BA0ABC
:101E6600342F3A08031D382F1F2F392F39083B2FDF
:101E7600080083120313AD01AE01412F291C442F24
:101E8600452F4B2F2B08AD070318AE0A2C08AE07BB
:101E960001300310AB0DAC0DFF3E031D4C2F01307E
:101EA6000310AA0CA90CFF3E031D532F2A08290470
:101EB600031D5E2F5F2F412F602F2E08AA01AA0750
:101EC6002D08A901A907672F080083120313B6007E
:101ED6000030AF000030B0000A128A114F260A12F5
:101EE6008A15872F8312031336088400831300088C
:101EF6000A128A11CC270A128A150130831203139B
:101F0600B5003508B607872F8312031336088400F9
:101F160083138008031D902F912F752F922F0A127D
:101F26008A1522250A128A15080083120313060849
:101F3600A9002908AB0083160313060883120313AE
:101F4600A9002908AC000F30A9002908831603133D
:101F56008605F03083120313A900290886040609B2
:101F6600A9002908AA002B0886002C08831603134B
:101F76008600831203132A08A90004300310A90C53
:101F8600FF3E031DC12F2908C82F08008312031323
:101F9600AE010830AC002C08AD000A128A1549249F
:101FA6000A128A15F22F831203132E08AC002C088E
:101FB600AE070A128A153C240A128A1583120313E5
:101FC600071EE62FE72FEC2F0130AC002C08AE07DA
:101FD600EC2F0A128A1558240A128A15F22F01309C
:101FE60083120313AD022D08FF3A031DFB2FFC2FAE
:0A1FF600D62FFD2F2E08FF2F080044
:02400E003AFF77
:00000001FF
