:100000000A128A117428FF1B0D2883137F18831787
:100010000008840A0319FF0A080000308A00040857
:10002000840A82070034013400340A340034643412
:100030000034E834033410342734553473346534D1
:10004000203445344534503452344F344D343F34E9
:1000500020342034203420342034423431342034CD
:10006000593445345334203420342034203420345F
:100070004234323420344E344F340034203420346F
:1000800020342034203453344134563445344434FD
:1000900020342034203420342034203400342034E0
:1000A000203420344E344F342034543452344934C4
:1000B00050344C344534533420342034203400340C
:1000C0002034203420342034203420342034203490
:1000D0002034203420342034203420342034203480
:1000E0000034253464340034E901EA01EB01EC0109
:1000F000ED01EE018317C1308400E1300A128A1548
:100100008D230A128A11C130FD000E30FE008F309F
:10011000FF00903084000A128A1504240A128A1102
:100120005030FD000F30FE003230FF0010308400F0
:100130000A128A1504240A128A110A128A158C23BB
:100140000A128A11EF0083010A128A15B02C831259
:100150000313A0000030F9000030FA000A128A15DB
:1001600096240A128A1183120313A101A201A1018C
:10017000A2012208803AFF0080307F02031DC228BE
:100180001F302102031CC528C628C828EC28EC28EB
:100190000A128A15E0230A128A11FB008312031344
:1001A00021082007FC007C0884007B088313800062
:1001B0000130A1070318A20A0030A2072208803AE2
:1001C000FF0080307F02031DE7281F302102031C3F
:1001D000EA28EB28C828EC280A128A1527240A12D4
:1001E0008A110800F501F601710870040319F92855
:1001F000FA283729F701F70A092901300310F00D11
:10020000F10DFF3E031DFE280130F4007408F707CE
:100210000929F11F0C290D29FD280F290F2901306B
:100220000310F50DF60DFF3E031D10297108730232
:10023000031D1C2970087202031C1F29202928296C
:100240007008F2027108031CF303F30275142829E5
:1002500001300310F10CF00CFF3E031D2929013081
:10026000F702031D342935290F2937293729760844
:10027000F101F1077508F001F0073E290800F600CA
:100280004A29E830F0000330F1000A128A151324DD
:100290000A128A110A128A15A8250A128A11003830
:1002A000031D5329542941298312031386100F304B
:1002B0000605F4007608F039740786006430F20011
:1002C0000030F3000A128A15CB240A128A110F306B
:1002D000831203130605F4007608F50003300310BB
:1002E000F50DFF3E031D6F290310750D7407860081
:1002F0006430F2000030F3000A128A15CB240A128F
:100300008A11831203138614E830F0000330F100E1
:100310000A128A1513240A128A110800A030F0006C
:100320000F30F1000A128A1513240A128A1183165B
:100330000313860130308312031386009030F200DD
:100340000130F3000A128A15CB240A128A11903068
:10035000F2000130F3000A128A15CB240A128A1126
:100360009030F2000130F3000A128A15CB240A12F1
:100370008A1120308312031386009030F20001307E
:10038000F3000A128A15CB240A128A1128300A12A5
:100390008A113F210A128A110E300A128A113F2156
:1003A0000A128A1106300A128A113F210A128A1192
:1003B00002300A128A113F210A128A1108000A1219
:1003C0008A1531250A128A1183160313E8010A12CD
:1003D0008A15D3250A128A11003A0319F029F12946
:1003E000372AC8308400903083120313E5000408D4
:1003F000E6002030E7006508840083170008E80065
:10040000E50A66088400831368088000E60AE70BA3
:10041000FB29C8300A128A11A7200A128A110A126F
:100420008A1531250A128A11C83083120313A000DD
:100430000030A1000A128A157E250A128A11202A8C
:10044000F03083120313E50065088604861B292A11
:100450002A2A2F2A83160313E801E80A2F2A831673
:1004600003136808031D352A202A372A372A0A125F
:100470008A1531250A128A110A128A11E4240A12F5
:100480008A110800FC004D2AE830F0000330F1002A
:100490000A128A1513240A128A110A128A15A8252B
:1004A0000A128A110038031D562A572A442A582A4C
:1004B0000F30831203130605FA007C08F0397A071F
:1004C00086000A30F2000030F3000A128A15CB24AD
:1004D0000A128A110F30831203130605FA007C08F2
:1004E000FB0003300310FB0DFF3E031D722A0310B7
:1004F0007B0D7A0786000A30F2000030F3000A1202
:100500008A15CB240A128A110130FA007A08831264
:100510000313EC076C08103A031D8F2A902A982ABF
:10052000F70101300A128A150C250A128A11982A3D
:10053000831203136C08203A031D9F2AA02AA82ABD
:10054000F70100300A128A150C250A128A11A82A0E
:10055000080083120313C500253084001030A10069
:100560000408A2002030A30021088400831700089B
:10057000A400A10A22088400831324088000A20A90
:10058000A30BB42A2030F0000030F1002030F2003C
:100590000030F30025300A128A15E8240A128A1165
:1005A00083120313C601C7014708803AFF00803059
:1005B0007F02031DDD2A08304602031CE02AE12ADF
:1005C000E32A2C2B2C2B831203134608A1002107AE
:1005D0004507A2002208840083130008303EA300D0
:1005E0004608A4002407253E84002308800046080E
:1005F000A10021072007A200220884000008840A25
:1006000000040319042B052B182B4608A100210711
:100610002007A200220884000008303EA3004608FC
:10062000A4002407103E253E840023088000182BD8
:100630000130C6070318C70A0030C7074708803AC9
:10064000FF0080307F02031D272B08304602031C69
:100650002A2B2B2BE32A2C2B25300A128A15562500
:100660000A128A11080083120313D5003530840062
:100670003030A0000408A1002030A200200884002F
:1006800083170008A300A00A21088400831323080D
:100690008000A10AA20B3E2B24308400B030A000C1
:1006A0000408A1001130A20020088400831700086C
:1006B000A300A00A21088400831323088000A10A54
:1006C000A20B542B2030F0000030F1002030F2005B
:1006D0000030F30035300A128A15E8240A128A1114
:1006E00083120313D601D7015708803AFF008030E8
:1006F0007F02031D7D2B08305602031C802B812BAB
:10070000832BAB2BAB2B831203135608A0002007BF
:100710005507A1002108840083130008303EA20081
:100720005608A3002307353E8400220880000130CC
:10073000D6070318D70A0030D7075708803AFF00BA
:1007400080307F02031DA62B08305602031CA92B04
:10075000AA2B832BAB2B83120313D601D701570887
:10076000803AFF0080307F02031DB82B1030560204
:10077000031CBB2BBC2BBE2BE02BE02B83120313E3
:100780005608243E840083130008A0005608103E3B
:10079000353E8400200880000130D6070318D70AB0
:1007A0000030D7075708803AFF0080307F02031DD2
:1007B000DB2B10305602031CDE2BDF2BBE2BE02B75
:1007C00035300A128A1556250A128A11080083123A
:1007D0000313AD002130A3002308A600CA2C2E0865
:1007E000253A0319F42BF52B012C2E08A3002D0814
:1007F00084002308831380000130A3002308AD0781
:10080000CA2CA701082CDE2C1D2C1D2CCA2C1D2C3B
:100810000130A007FF30200784000A128A110D2042
:100820000A128A11AE00003A0319DE2C643A031949
:100830001D2C0D3A03191D2CCA2C26088400831385
:100840000008A900840A0008AA000230A3002308B7
:10085000A607AA1F2C2C2D2C372C0330A30023080D
:10086000A704A909AA09A90A0319AA0A372CAE01E3
:10087000AE0A2E08053A031D3E2C3F2C412C692C54
:10088000692C2E08A3002307013E84000A128A1156
:100890000D200A128A11A4000A128A110D200A12D0
:1008A0008A11A50025082A02031D582C24082902B4
:1008B00003185B2C5C2C5E2C692C692C0130A30086
:1008C0002308AE072E08053A031D672C682C412C1F
:1008D000692C2708033903196E2C6F2C7B2C2D30C3
:1008E000A3002D0884002308831380000130A30097
:1008F0002308AD077B2C2E08A3002308A800BE2CDC
:100900000A30F8000030F9002808A3002307013E50
:1009100084000A128A110D200A128A11F0000A12AC
:100920008A110D200A128A11F1002A08F301F30737
:100930002908F201F2070A128A11F2200A128A111A
:100940007108FB01FB077008FA01FA070A128A1501
:1009500072270A128A117808303E83120313A4000A
:100960002408AE002E08A3002D088400230883135A
:1009700080000130A3002308AD07BE2CFF30A30088
:100980002308A8072808FF3A031DC72CC82C802C71
:10099000CA2CCA2C0130A007FF30200784000A129D
:1009A0008A110D200A128A11A3002308AE00AE0896
:1009B000031DDB2CDC2CEF2BDE2CDE2C2D08840021
:1009C00083138001E32C0800B4308400C13083120B
:1009D0000313D8000408D9001030DA005808840046
:1009E00083170008DB00D80A5908840083135B08CA
:1009F0008000D90ADA0BEE2CA0308400D130D80068
:100A00000408D9001030DA00580884008317000861
:100A1000DB00D80A5908840083135B088000D90AD8
:100A2000DA0B042D83160313C401C501C601C701E7
:100A3000192D83160313350883120313B001B00771
:100A400083160313340883120313AF01AF0700307A
:100A5000B1000030B2000030B3000030B4000A1220
:100A60008A152E260A128A1183160313C401C601A1
:100A7000C7014708803AFF0080307F02031D422DE6
:100A800008304602031C452D462D492DF72DF72D24
:100A9000492DF03083120313D80058088604061A33
:100AA000522D532DBC2D83160313460883120313B6
:100AB000D8005807B43E840083130008D900840A84
:100AC0000008DA00093059065A040319682D692D07
:100AD000852D83160313460883120313D800580785
:100AE000B43E840001308007840F00080318000A18
:100AF000FF0000307F078000840300088316031383
:100B0000B200840A0008B3008A2D83160313B201D1
:100B1000B3018A2D460883120313D8005807B43E48
:100B200084008316031332088000840A330880008F
:100B3000460883120313D8005807B43E8400000807
:100B4000AF00840A0008B00083160313470883121D
:100B50000313B201B207831603134608831203136B
:100B6000B101B1070030B3000030B4000A128A1599
:100B70002E260A128A11BC2DF03083120313D800DE
:100B800058088604861BC52DC62DDC2D831603133D
:100B9000460883120313D8005807023ED9005908AB
:100BA000F70000300A128A150C250A128A118316E2
:100BB0000313C401C40ADC2D831603134408031D68
:100BC000E22D492DC4010130C6070318C70A0030C1
:100BD000C7074708803AFF0080307F02031DF22DCF
:100BE00008304602031CF52DF62D492DF72D8316EE
:100BF0000313C601C7014708803AFF0080307F0217
:100C0000031D042E05304602031C072E082E0A2E53
:100C1000582F582F83160313460883120313D80046
:100C20005807043EB43E840083130008D900840AA8
:100C30000008DA0083160313460883120313DB004F
:100C40005B07023EB43E84000008DC00840A000812
:100C5000DD0083160313460883120313DE005E07CC
:100C6000B43E84000008DF00840A0008E0005C084D
:100C70005F07E1005D0803185D0A6007E20059089C
:100C80006107E3005A0803185A0A6207E4001430A7
:100C900063066404031D4D2E4E2E402F831603134E
:100CA000460883120313D8005807B43E8400000896
:100CB000D900840A0008DA00831603134608831259
:100CC0000313DB005B07A03E840059088000840A00
:100CD0005A08800083160313460883120313D800B2
:100CE0005807023EB43E84000008D900840A000878
:100CF000DA0083160313460883120313DB005B0735
:100D0000023EA03E840059088000840A5A088000F0
:100D100083160313460883120313D8005807043EB2
:100D2000B43E84000008D900840A0008DA00831663
:100D30000313460883120313DB005B07043EA03E47
:100D4000840059088000840A5A088000831603131F
:100D5000460883120313D8005807A03E84000008F9
:100D6000AF00840A0008B0008316031347088312FB
:100D70000313B201B2078316031346088312031349
:100D8000B101B1070130B3000030B4000A128A1576
:100D90002E260A128A1183160313460883120313A0
:100DA000D8005807023EA03E840083130008AF001D
:100DB000840A0008B000831603134608013E83121C
:100DC0000313B1008316031347080318013E003EC6
:100DD00083120313B2000130B3000030B4000A12D2
:100DE0008A152E260A128A118316031346088312C7
:100DF0000313D8005807043EA03E84008313000864
:100E0000AF00840A0008B000831603134608023EB0
:100E100083120313B1008316031347080318013E1E
:100E2000003E83120313B2000130B3000030B4005F
:100E30000A128A152E260A128A110A308316031303
:100E4000B0000030B1002A2F0A128A15F3260A12C8
:100E50008A112A2FFF3083160313B0070318B10A33
:100E6000FF30B107FF303106031D382FFF30300649
:100E7000031D3B2F3C2F242FC501C50A582F442F9B
:100E800083160313C501442F0130C6070318C70A90
:100E90000030C7074708803AFF0080307F02031DFB
:100EA000532F05304602031C562F572F0A2E582F5A
:100EB00083160313C508031D5E2F5F2F732FF701E1
:100EC00001300A128A150C250A128A113D3083124C
:100ED0000313A0008030A1000A128A157E250A1291
:100EE0008A11732F732FF03083120313D800580820
:100EF0008604861B7C2F7D2F7F2FB22FB22FF030E0
:100F0000D80058088604061B862F872F732F831658
:100F100003134508031D8D2F9A2FA030831203134E
:100F2000D8005808A000B4300A128A11A9220A1267
:100F30008A11A02FB4300A128A1133230A128A119F
:100F40000A128A1531250A128A112C3083120313D2
:100F5000A0008030A1000A128A157E250A128A118B
:100F6000732F732F0A128A1531250A128A118316DC
:100F70000313C601C7014708803AFF0080307F0293
:100F8000031DC42F08304602031CC72FC82FCA2FC9
:100F9000192D192D83160313460883120313D80045
:100FA0005807B43E8400003083138000840A003068
:100FB000800083160313460883120313D8005807D2
:100FC000A03E840000308000840A003080000130A0
:100FD00083160313C6070318C70A0030C70747085C
:100FE000803AFF0080307F02031DF82F0830460250
:100FF000031CFB2FFC2FCA2F192D192D192D0800AA
:10171800203464008001840A040603190034040696
:101728008E2B0A128A15C3230A128A150A128A15E1
:10173800D0230A128A1508000A128A1550240A12A0
:101748008A150A128A1595230A128A1508000A12A0
:101758008A15B6230A128A150A128A1595230A12BF
:101768008A1508008316031307160530F0000030A9
:10177800F1000A128A1513240A128A150800831226
:10178800031387150530F0000030F1000A128A159E
:1017980013240A128A150800F730F200720883121F
:1017A800031387050530F0000030F1000A128A158E
:1017B80013240A128A1508000A128A155E260A12CC
:1017C8008A15F6007608F7000A128A15A0230A126D
:1017D8008A157708EF2B0800A030F00070088316F0
:1017E8000313E9009B308700831203130712831643
:1017F80003138711071208007E088A007F088200F9
:101808000A128A1500240A128A158000840A04081C
:101818007D0603190034FF0A0319FE0A042C152C4F
:10182800152C0130F0020030031CF103F102FF30E7
:101838007106031D212CFF307006031D242C252C56
:10184800152C262C08000A128A155E260A128A15FB
:10185800F6007608F7000A128A15AB230A128A15D1
:101868000A128A157C240A128A153A2C08000A12D0
:101878008A15B6230A128A150A128A15C3230A1270
:101888008A150A128A1550240A128A150A128A150C
:10189800D0230A128A150800EF30F200720883126A
:1018A80003138705EF30F2007208831603138705C8
:1018B8000530F0000030F1000A128A1513240A12CC
:1018C8008A1508000A128A15C3230A128A15831278
:1018D8000313071E702C712C742CEB01EB0A762C69
:1018E800EB01762C0A128A15D0230A128A150800F1
:1018F8000A128A1550240A128A150A128A15D02348
:101908000A128A150A128A15C3230A128A150A129C
:101918008A15B6230A128A150A128A15D0230A12C2
:101928008A1508007A08F701F7077908F601F6071B
:101938000A128A15B5270A128A150A128A153B2433
:101948000A128A1583160313691469080A128A157C
:10195800C0260A128A150800F03083120313860085
:10196800F0308316031386000A128A15F0230A1230
:101978008A150A128A118E210A128A150A128A11E8
:10198800DF210A128A15C82C0A128A11002883122C
:10199800031306157308F101F1077208F001F00747
:1019A8000A128A1513240A128A15831203130611C0
:1019B8007308F101F1077208F001F0070A128A159D
:1019C80013240A128A150800F5007508F400740833
:1019D800F600FA2C7008F400760884007408831363
:1019E80080000130F4007408F607FA2C0130F20286
:1019F8000030031CF303F302FF307306031D062DAA
:101A0800FF307206031D092D0A2DEE2C0B2D080040
:101A1800F900F908031D112D122D202D7708F80063
:101A2800780883120313EC007708803E0A128A11A3
:101A38003F210A128A15302D7708103EF8007808E1
:101A480083120313EC007708C03E0A128A113F2163
:101A58000A128A15302D302D0800F70100300A12BD
:101A68008A150C250A128A154E3083120313A0001A
:101A78008030A1000A128A157E250A128A154E3076
:101A880083120313A0008030A1000A128A157E2554
:101A98000A128A15F70100300A128A150C250A1253
:101AA8008A150800FD000030F6000030F7000A1221
:101AB8008A15B5270A128A156F2D7D0884008313AD
:101AC80000080A128A15FE250A128A150130FC0040
:101AD8007C08FD076F2D7D08840083138008031D93
:101AE800762D772D612D782D0A128A157C240A12FD
:101AF8008A150800962D831203132108FF00200879
:101B080084000A128A1103200A128A150A128A11FD
:101B180042220A128A15013083120313A007031800
:101B2800A10A962D831203132108FF0020088400C0
:101B38000A128A1103200A128A150038031DA52DDE
:101B4800A62D7F2DA72D0800831203130608F00089
:101B58007008F200831603130608F0007008F300FB
:101B68000F30F00070088605F030F000700883121E
:101B7800031386040609F0007008F1007208860055
:101B880073088316031386007108F00004300310ED
:101B9800F00CFF3E031DCB2D7008D22D08008312D8
:101BA8000313A301A2010B30A0008030A1000A1288
:101BB8008A157E250A128A15E12DF030FD007D0870
:101BC800831203138604061AEA2DEB2DEF2DA201CA
:101BD800A20AA301A30A861AF22DF32DF62DA3015A
:101BE800A30AF62D2308031DFA2DE12DFB2D22084B
:101BF800FD2D0800FB007B080A128A15C0260A1270
:101C08008A15013083120313E9070318EA0A003022
:101C1800EA073F306905F90000306A05FA007A08DA
:101C280079040319182E192E1B2E2D2E2D2E0A126B
:101C38008A157C240A128A15831203136A08F7018D
:101C4800F7076908F601F6070A128A15B5270A1276
:101C58008A150800831203136F08B5003508B7000A
:101C68005F30B5003508A0003008A201A2072F0890
:101C7800A101A10737300A128A11E7230A128A152F
:101C8800831203133108B5003507B6003608F7008C
:101C980033080A128A150C250A128A15373083125E
:101CA8000313A0000030A1000A128A157E250A122B
:101CB8008A150800F5010830F3007308F4000A12C9
:101CC8008A15B6230A128A15832E7508F30073083D
:101CD800F5070A128A15C3230A128A1583120313F9
:101CE800071E772E782E7D2E0130F3007308F50736
:101CF8007D2E0A128A15D0230A128A15832E0130E6
:101D0800F4027408FF3A031D8A2E8B2E692E8C2E3E
:101D180075088E2E08002034003400340034003456
:101D2800003400340034003400340034003400340B
:101D380000340034003400340034003400340034FB
:101D480000340034003400340034003400340034EB
:101D58000034003400342034203420344E344F34DE
:101D6800203454345234493450344C344534533488
:101D78002034203420340034F5000830F300730890
:101D8800F400DF2EF51FC92ECA2ED02E0A128A158E
:101D9800B6230A128A15D52E0A128A1550240A1259
:101DA8008A150A128A1595230A128A157508F300EE
:101DB8007308F507DF2E0130F4027408FF3A031D9B
:101DC800E62EE72EC62EE82E0A128A15B6230A1228
:101DD8008A150A128A1566240A128A1508008316BB
:101DE80003130608F2007208F300831203130608AF
:101DF800F2007208F4008316031386114030F200D3
:101E08007208F500202F8312031386158C30F0001A
:101E18000030F1000A128A1513240A128A15831257
:101E2800031386118C30F0000030F1000A128A1575
:101E380013240A128A15202F0130F5027508FF3A7B
:101E4800031D272F282F072F292F74088312031308
:101E580086007308831603138600080020340034B4
:101E680000340034003400340034003400340034CA
:101E780000340034003400340034003400340034BA
:101E880000340034003400340034003400340034AA
:101E9800003400340034003400340034203400347A
:101EA800003400340034003400340034003400348A
:101EB800003400340034003400340034003400347A
:101EC800003400340034003400340034003400346A
:101ED80000340034003400340034003479087804C5
:101EE8000319772F782FAD2FFD01FD0A872F0130B9
:101EF8000310F80DF90DFF3E031D7C2F0130FC0087
:101F08007C08FD07872FF91F8A2F8B2F7B2F8D2F9A
:101F18008D2F79087B02031D932F78087A02031C02
:101F2800962F972F9E2F7808FA027908031CFB0337
:101F3800FB029E2F01300310F90CF80CFF3E031D25
:101F48009F2F0130FD02031DAA2FAB2F8D2FAD2F20
:101F5800AD2F7B08F901F9077A08F801F807B42FC3
:101F68000800770883120313EA01EA077608E901F3
:101F7800E907BE2F0A128A153B240A128A15FE3079
:101F8800F800780883160313E90569080A128A1508
:101F9800C0260A128A15831203136B08031DD52F56
:101FA800DB2F0A128A157C240A128A15BE2F77089D
:101FB8000A128A15C0260A128A15831203136B089F
:101FC800031DE72FED2F0A128A157C240A128A15A1
:101FD800BE2F76080A128A15C0260A128A1583129D
:101FE80003136B08031DF92FFF2F0A128A157C248F
:081FF8000A128A15BE2F080031
:02400E003AFF77
:00000001FF
