:100000000A128A153E2EFF1B0D2883137F188317B3
:100010000008840A0319FF0A080000308A00040857
:10002000840A820700340134003408340034403438
:10003000003400340234003410340034803401348D
:1000400000340A34003464340034E83403341034A7
:1000500027345534733465342034453445345034B2
:1000600052344F344D343F34203420342034203443
:10007000203442343134203459344534533420341C
:1000800020342034203420344234323420344E346E
:100090004F340034203420342034203420342034B1
:1000A000003425346434003425346F340034203473
:1000B0000034003400340034203400340034003480
:1000C000003483120313A40120302402031C692886
:1000D0006A286C289A289A2824080F39A100210838
:1000E000F9001030F0000030F1002408A200A30154
:1000F0002208F2002308F3000A128A1162230A126E
:100100008A1170080A128A1519260A128A112030DB
:100110000A128A11F9220A128A110130831203137A
:10012000A1002108A40720302402031C9828992844
:100130006C289A280800790878040319A028A128B7
:10014000D628FD01FD0AB02801300310F80DF90D85
:10015000FF3E031DA5280130FC007C08FD07B028E8
:10016000F91FB328B428A428B628B62879087B023A
:10017000031DBC2878087A02031CBF28C028C728A2
:100180007808FA027908031CFB03FB02C728013038
:100190000310F90CF80CFF3E031DC8280130FD02C6
:1001A000031DD328D428B628D628D6287B08F901E1
:1001B000F9077A08F801F807DD280800E830F000B0
:1001C0000330F1000A128A1518250A128A118316C3
:1001D0000313860130308312031386002C30F200A3
:1001E0000130F3000A128A15B5250A128A1120304F
:1001F0008312031386006430F2000030F3000A1209
:100200008A15B5250A128A1128300A128A11052288
:100210000A128A110D300A128A1105220A128A1155
:1002200006300A128A1105220A128A1102300A12B5
:100230008A1105220A128A1183120313DF01F0309A
:1002400086000800770883120313DD01DD077608B6
:10025000DC01DC072B290A128A1540250A128A11B3
:10026000FE30F800780883120313E20562080A12D0
:100270008A1597270A128A11831203135E08031D39
:10028000422948290A128A1581250A128A112B2926
:1002900077080A128A1597270A128A118312031304
:1002A0005E08031D54295A290A128A1581250A124B
:1002B0008A112B2976080A128A1597270A128A11A1
:1002C000831203135E08031D66296C290A128A151E
:1002D00081250A128A112B29080083120313A0001A
:1002E0000030F9000030FA000A128A159B250A1224
:1002F0008A1183120313A101A201A101A201220804
:10030000803AFF0080307F02031D882920302102BF
:10031000031C8B298C298E29B229B2290A128A152D
:10032000E3240A128A11FB00831203132108200719
:10033000FC007C0884007B08831380000130A10747
:100340000318A20A0030A2072208803AFF0080307A
:100350007F02031DAD2920302102031CB029B129E1
:100360008E29B2290A128A152C250A128A11080030
:10037000F501F601710870040319BF29C029FD2990
:10038000F701F70ACF2901300310F00DF10DFF3E00
:10039000031DC4290130F4007408F707CF29F11FA9
:1003A000D229D329C329D529D52901300310F50D28
:1003B000F60DFF3E031DD62971087302031DE229C5
:1003C00070087202031CE529E629EE297008F20282
:1003D0007108031CF303F3027514EE2901300310B6
:1003E000F10CF00CFF3E031DEF290130F702031D55
:1003F000FA29FB29D529FD29FD297608F101F10704
:100400007508F001F007042A0800F600102AE83009
:10041000F0000330F1000A128A1518250A128A1119
:100420000A128A15E0260A128A110038031D192AB9
:100430001A2A072A8312031386100F300605F400C8
:100440007608F039740786006430F2000030F3005B
:100450000A128A15B5250A128A110F308312031366
:100460000605F4007608F50003300310F50DFF3E95
:10047000031D352A0310750D740786006430F200E1
:100480000030F3000A128A15B5250A128A11831268
:1004900003138614E830F0000330F1000A128A15C5
:1004A00018250A128A110800203400340034003460
:1004B000003400340034003400340034003400349C
:1004C000003400340034003400340034003400348C
:1004D000003400340034003400340034003400347C
:1004E000003400340034003420340034003400344C
:1004F000003400340034003400340034003400345C
:10050000003400340034003400340034003400344B
:10051000003400340034003400340034003400343B
:10052000003400340034003420340034003400340B
:10053000003400340034003400340034003400341B
:10054000003400340034003483120313DB010A1238
:100550008A150B270A128A11003A0319B02AB12A08
:10056000F32A3B308400903083120313B700040851
:10057000B8002030B9003708840083170008BA009B
:10058000B70A3808840083133A088000B80AB90B08
:10059000BB2A3B300A128A116D210A128A110A12F3
:1005A0008A1161200A128A113B3083120313A100C1
:1005B0000030A2000A128A158C260A128A11E02A3B
:1005C000F03083120313B70037088604861BE92A2C
:1005D000EA2AED2ADB01DB0AED2A5B08031DF12A7A
:1005E000E02AF32AF32A0A128A1158250A128A11DC
:1005F000080083120313A000062BE830F00003303C
:10060000F1000A128A1518250A128A110A128A158F
:10061000E0260A128A110038031D0F2B102BFD2A29
:10062000112B0F30831203130605FC002008F0394C
:100630007C0786000A30F2000030F3000A128A15A7
:10064000B5250A128A110F30831203130605FC0028
:100650002008FD0003300310FD0DFF3E031D2B2B72
:1006600003107D0D7C0786000A30F2000030F30095
:100670000A128A15B5250A128A110130FC007C087D
:1006800083120313DF075F08103A031D482B492B21
:10069000512BF90101300A128A1519260A128A1102
:1006A000512B831203135F08203A031D582B592B3B
:1006B000612BF90100300A128A1519260A128A11D3
:1006C000612B0800F601F11F662B672B6F2BF009D9
:1006D000F109F00A0319F10AF601F60A6F2BF31F6C
:1006E000722B732B7D2BF209F309F20A0319F30A1B
:1006F0000130F4007408F6067D2BF701F80171084B
:1007000070040319842B852BC22BF501F50A942B59
:1007100001300310F00DF10DFF3E031D892B013058
:10072000F4007408F507942BF11F972B982B882B56
:100730009A2B9A2B01300310F70DF80DFF3E031D85
:100740009B2B71087302031DA72B70087202031CF8
:10075000AA2BAB2BB32B7008F2027108031CF30316
:10076000F3027714B32B01300310F10CF00CFF3EB1
:10077000031DB42B0130F502031DBF2BC02B9A2B98
:10078000C22BC22B7608031DC62BCC2BF709F80908
:10079000F70A0319F80ACC2B7808F101F10777085A
:1007A000F001F007D32B080083120313A8002130B7
:1007B000A3002308A6003E2D2E08253A0319E12B9D
:1007C000E22BEE2B2E08A3002808840023088313B5
:1007D00080000130A3002308A8073E2DA901F72BB4
:1007E000522D29170F2C0F2C0F2C3E2D0F2C0130C2
:1007F000A007FF30200784000A128A110D200A1278
:100800008A11AE00003A0319522D643A03190F2CD5
:100810000D3A03190F2C063A0319F12B3E2D291B13
:10082000122C132C2E2C2608840083130008AA00F7
:10083000840A0008AB000230A3002308A607AB1F00
:10084000222C232CA32C0330A3002308A904AA09DB
:10085000AB09AA0A0319AB0AA32CA32C260884000F
:1008600083130008AA00840A0008AB000230A3002A
:100870002308A607A32CA32CAE01AE0A2E08053A26
:10088000031D432C442C462CAC2CAC2C2E08A3006E
:1008900023070D3E84000A128A110D200A128A11C4
:1008A000A4000A128A110D200A128A11A500250837
:1008B0002B02031D5D2C24082A020318602C612CD6
:1008C000632CAC2CAC2C0130A3002308AE072E08FF
:1008D000053A031D6C2C6D2C462CAC2CAC2CAE01B7
:1008E000AE0A2E08063A031D762C772C792CAC2CF8
:1008F000AC2C2E08A3002307013E84000A128A11A3
:100900000D200A128A11A4000A128A110D200A125F
:100910008A11A50025082B02031D902C24082A0209
:100920000318932C942C962CAC2CAC2C0130A300E7
:100930002308AE072E08063A031D9F2CA02C792C05
:10094000AC2CAC2CAC2C29084039003A03193C2CB7
:10095000403A03196F2CAC2C290803390319B12C28
:10096000B22CBE2C2D30A30028088400230883134A
:1009700080000130A3002308A807BE2C2E08A30086
:100980002308A700322D1D2D0A30F8000030F90091
:100990002708A30023070D3E84000A128A110D20A8
:1009A0000A128A11F0000A128A110D200A128A1105
:1009B000F1002B08F301F3072A08F201F2070A12EB
:1009C0008A11B8210A128A117108FB01FB0770080D
:1009D000FA01FA070A128A119B200A128A11780872
:1009E000303E83120313A4002408AE00262D2708EE
:1009F000A3002307013E84000A128A110D200A1267
:100A00008A11F0000A128A110D200A128A11F100CF
:100A10002B08F301F3072A08F201F2070A128A11E0
:100A2000B8210A128A1170080739303E8312031365
:100A3000A4002408AE00262D262D29084039003AAE
:100A40000319C42C403A0319F72C262D2E08A300B5
:100A5000280884002308831380000130A3002308A2
:100A6000A807322DFF30A3002308A7072708FF3A65
:100A7000031D3B2D3C2D1D2D3E2D3E2D0130A0078D
:100A8000FF30200784000A128A110D200A128A11F1
:100A9000A3002308AE00AE08031D4F2D502DDC2B04
:100AA000522D522D2808840083138001572D0800F1
:100AB0000A128A1161200A128A1183160313E201B5
:100AC000E301E001B0308400B03083120313B300BF
:100AD0000408B4002030B5003308840083170008F0
:100AE000B600B30A34088400831336088000B40AC1
:100AF000B50B6C2DDB308400831603136608800071
:100B0000840A67088000840A68088000840A6908EB
:100B10008000840A6A088000D23084006B0880005C
:100B2000840A6C088000840A6D088000840A6E08BC
:100B30008000840A6F088000E101E401E5010030D3
:100B4000D0008030D100A0308400D0308312031355
:100B5000B3000408B4001030B500330884008317D4
:100B60000008B600B30A34088400831336088000F6
:100B7000B40AB50BAD2DBC2D83160313E001630839
:100B800083120313B001B0078316031362088312A4
:100B90000313AF01AF07DB30B3003308B1000A1213
:100BA0008A15B6260A128A1183160313E401E50199
:100BB0006508803AFF0080307F02031DE12D0F3071
:100BC0006402031CE42DE52DE72D0B2E0B2E2030A7
:100BD00083120313B300831603136408A03E84003A
:100BE0008312031333088313800001308316031329
:100BF000E4070318E50A0030E5076508803AFF00BE
:100C000080307F02031D062E0F306402031C092E64
:100C10000A2EE72D0B2E83160313E401E501650868
:100C2000803AFF0080307F02031D182E04306402DA
:100C3000031C1B2E1C2E1E2E432E432E20308312EF
:100C40000313B300831603136408DB3E840083128E
:100C50000313330883138000013083160313E40762
:100C60000318E50A0030E5076508803AFF00803088
:100C70007F02031D3D2E04306402031C402E412ED2
:100C80001E2E432E432EF03083120313B30033087D
:100C90008604061A4C2E4D2E6F2E01308316031338
:100CA000E2070318E30A0030E30763088312031323
:100CB000B001B00783160313620883120313AF0158
:100CC000AF07DB30B3003308B1000A128A15B6262D
:100CD0000A128A1183160313E101E10A6F2EF03024
:100CE0008312B30033088604861A772E782E9A2E44
:100CF0000A3083160313E2070318E30A0030E30700
:100D0000630883120313B001B0078316031362084C
:100D100083120313AF01AF07DB30B3003308B10018
:100D20000A128A15B6260A128A1183160313E101E4
:100D3000E10A9A2EF0308312B30033088604061BB2
:100D4000A22EA32EC52E643083160313E2070318C8
:100D5000E30A0030E307630883120313B001B0070E
:100D600083160313620883120313AF01AF07DB304E
:100D7000B3003308B1000A128A15B6260A128A1186
:100D800083160313E101E10AC52EF0308312B3008C
:100D900033088604831603136308803AFF008F30FC
:100DA0007F02031DD52EFF306202031CD82ED92EE0
:100DB000DE2E83160313E001E00ADE2E83160313F2
:100DC0006108031DE42EF02E83120313861BE92E07
:100DD000EA2EF02E83160313E001E00AF02EF02E27
:100DE000831603136008031DF62E432EF72E3F30A3
:100DF00083120313B3003308A000831603136308A0
:100E000083120313A201A20783160313620883123D
:100E10000313A101A107D2300A128A11D4230A12A6
:100E20008A11063083120313B3003308F90001302E
:100E30000A128A1519260A128A11D2308312031354
:100E4000A1000030A2000A128A158C260A128A110B
:100E5000292FF03083120313B30033088604861B56
:100E6000322F332F292F3830B3003308F000B03041
:100E70000A128A15D2250A128A11DB30F0000030DE
:100E8000F100B0300A128A15CA270A128A11831695
:100E90000313E401E501532F0130E4070318E50AC9
:100EA0000030E507532F6408DB3E8400831380087D
:100EB000031D5B2F5C2F4C2F5D2F0A30D7000030B5
:100EC000D800752F3D30F0008030F100B0300A12AC
:100ED0008A15CA270A128A11FF3083160313D7070F
:100EE0000318D80AFF30D807752F6508803A831297
:100EF0000313B300831603135808803A83120313B5
:100F00003302031D872F8316031357086402031C43
:100F10008A2F8B2F622F8C2F3830F0008030F10019
:100F2000B0300A128A15CA270A128A11D230F0008C
:100F30000030F100B0300A128A15CA270A128A114D
:100F400083160313E401E501AC2F0130E407031815
:100F5000E50A0030E507AC2F6408D23E8400831315
:100F60008008031DB42FB52FA52FB62F0A30D90046
:100F70000030DA00CE2F3D30F0008030F100B0308C
:100F80000A128A15CA270A128A11FF308316031320
:100F9000D9070318DA0AFF30DA07CE2F6508803A3E
:100FA00083120313B300831603135A08803A831283
:100FB00003133302031DE02F831603135908640241
:100FC000031CE32FE42FBB2FE52FB0300A128A1544
:100FD00064260A128A11ED2F292F83160313E201CA
:100FE000E3010030D0008030D1000A128A11612064
:100FF0000A128A1183160313E101BC2DBC2D0800CF
:101930000A128A15C6240A128A150A128A15D32495
:101940000A128A1508000A128A15B9240A128A1581
:101950000A128A1598240A128A1508000A128A1592
:1019600055250A128A150A128A1598240A128A1510
:1019700008008316031307160530F0000030F1004D
:101980000A128A1518250A128A15080083120313F1
:1019900087150530F0000030F1000A128A1518256D
:1019A0000A128A150800F730F20072088312031336
:1019B00087050530F0000030F1000A128A1518255D
:1019C0000A128A1508000A128A1566270A128A1551
:1019D000F6007608F7000A128A15AE240A128A1554
:1019E0007708F22C0800A030F0007008831203136F
:1019F000E2009B3083160313870083120313071240
:101A0000831603138711071208007E088A007F08D7
:101A100082000A128A1505250A128A158000840A96
:101A200004087D0603190034FF0A0319FE0A092D74
:101A30001A2D1A2D0130F0020030031CF103F102BF
:101A4000FF307106031D262DFF307006031D292D62
:101A50002A2D1A2D2B2D08000A128A1566270A1224
:101A60008A15F6007608F7000A128A15A3240A12CE
:101A70008A150A128A1581250A128A153F2D080037
:101A80000A128A15B9240A128A150A128A15C6245E
:101A90000A128A150A128A1555250A128A150A127F
:101AA0008A15D3240A128A150800EF30F200720852
:101AB000831203138705EF30F200720883160313B5
:101AC00087050530F0000030F1000A128A1518254C
:101AD0000A128A1508000A128A15C6240A128A15E3
:101AE00083120313071E752D762D792DDE01DE0A74
:101AF0007B2DDE017B2D0A128A15D3240A128A154A
:101B000008000A128A1555250A128A150A128A1522
:101B1000D3240A128A150A128A15C6240A128A15B3
:101B20000A128A15B9240A128A150A128A15D324B0
:101B30000A128A1508007A08F701F7077908F601F2
:101B4000F6070A128A1122210A128A150A128A1528
:101B500040250A128A1583120313621462080A12BE
:101B60008A1597270A128A1508008312031306158F
:101B70007308F101F1077208F001F0070A128A15E3
:101B800018250A128A158312031306117308F1012E
:101B9000F1077208F001F0070A128A1518250A12D7
:101BA0008A150800F2007208F1007108F300E12DB7
:101BB0000130F1007108F3070130F1007108F007FE
:101BC000E12D700884000A128A110D200A128A156C
:101BD000F100730884007108831380008008031DDE
:101BE000F22DF32DD82DF42D0800F03083120313BD
:101BF0008600F030831603138600880183120313D6
:101C000088010A128A15F3240A128A150A128A1107
:101C1000DE200A128A150A128A1161200A128A1518
:101C20000A128A11A4220A128A15162E0A128A1181
:101C30000028FB00FB08031D1E2E1F2E2D2E7908E9
:101C4000FA007A0883120313DF007908803E0A1233
:101C50008A1105220A128A153D2E7908103EFA00D3
:101C60007A0883120313DF007908C03E0A128A1132
:101C700005220A128A153D2E3D2E0800DC01DD01E9
:101C8000DE01DF01E001E1018317E030FD000230F9
:101C9000FE005430FF00903084000A128A15092596
:101CA0000A128A158313F030FD000030FE00573011
:101CB000FF00E63084000A128A1509250A128A15E7
:101CC00083010A128A15F52DFD000030F600003060
:101CD000F7000A128A1122210A128A157D2E7D0828
:101CE0008400831300080A128A1536270A128A15FF
:101CF0000130FC007C08FD077D2E7D0884008313E5
:101D00008008031D842E852E6F2E862E0A128A15BA
:101D100081250A128A150800A42E831203132208B3
:101D2000FF00210884000A128A1103200A128A1572
:101D30000A128A11F9220A128A150130831203133A
:101D4000A1070318A20AA42E831203132208FF007E
:101D5000210884000A128A1103200A128A15003809
:101D6000031DB32EB42E8D2EB52E080042308312E3
:101D70000313B2003208A0003008A201A2072F0806
:101D8000A101A10731080A128A11D4230A128A1567
:101D9000063083120313B2003208F90000300A1231
:101DA0008A1519260A128A15831203133108A10015
:101DB0000030A2000A128A158C260A128A15080021
:101DC000831203130608F0007008F2008316031351
:101DD0000608F0007008F3000F30F0007008860568
:101DE000F030F00070088312031386040609F00037
:101DF0007008F100720886007308831603138600CA
:101E00007108F00004300310F00CFF3E031D032F97
:101E100070080A2F080083120313A501A4011730CC
:101E2000A1008030A2000A128A158C260A128A1597
:101E3000192FF03083120313A30023088604061A17
:101E4000222F232F272FA401A40AA501A50A861A51
:101E50002A2F2B2F2E2FA501A50A2E2F2508031D73
:101E6000322F192F332F2408352F0800FB007B0851
:101E70000A128A1597270A128A1501308312031352
:101E8000DC070318DD0A0030DD073F305C05F90090
:101E900000305D05FA007A0879040319502F512F9C
:101EA000532F652F652F0A128A1581250A128A156C
:101EB000831203135D08F701F7075C08F601F607C4
:101EC0000A128A1122210A128A150800F501083027
:101ED000F3007308F4000A128A15B9240A128A154D
:101EE0008B2F7508F3007308F5070A128A15C624AC
:101EF0000A128A1583120313071E7F2F802F852F46
:101F00000130F3007308F507852F0A128A15D324D0
:101F10000A128A158B2F0130F4027408FF3A031D50
:101F2000922F932F712F942F7508962F0800F5008C
:101F30000830F3007308F400B62FF51FA02FA12F6F
:101F4000A72F0A128A15B9240A128A15AC2F0A1271
:101F50008A1555250A128A150A128A1598240A121A
:101F60008A157508F3007308F507B62F0130F402DF
:101F70007408FF3A031DBD2FBE2F9D2FBF2F0A12DD
:101F80008A15B9240A128A150A128A156B250A12B3
:101F90008A150800F3007308F2007208F400D52FC8
:101FA0000130F2007208F407D52F740884008313FF
:101FB0008008031DDC2FDD2FD02FE82FE82F013004
:101FC000F2007208F4070130F0070318F10AE82F55
:101FD000710883120313FF00700884000A128A112B
:101FE00003200A128A15F200740884007208831311
:101FF00080008008031DFD2FFE2FDF2FFF2F08001C
:02400E003AFF77
:00000001FF
