:100000000A128A119628FF1B0D2883137F18831765
:100010000008840A0319FF0A080000308A00040857
:10002000840A8207003455347334653420344534EF
:100030004534503452344F344D343F34203420341E
:10004000203420342034423431342034593445347F
:100050005334203420342034203420344234323499
:1000600020344E344F340034203420342034413492
:100070005334433445344E34443449344E34473495
:1000800020342034203420340034203420344E34C2
:100090004F34543420344F34523444344534523481
:1000A0004534443420342034203400342034203487
:1000B0002034443445345334433445344E3444348A
:1000C00049344E3447342034203420340034203432
:1000D00020342034203420345334413456344534D1
:1000E000443400344F3456344534523446344C345E
:1000F0004F3457340034203420342034203420341A
:100100000034303400347E088A007F0882000A12EE
:100110008A1183200A128A118000840A04087D064D
:1001200003190034FF0A0319FE0A8728EE01EF01C4
:1001300083160313E501E601E701E8018317B030F8
:10014000FD000F30FE005030FF00903084000A1296
:100150008A1187200A128A118313E530FD000F30BF
:10016000FE007030FF00C53084000A128A1187201B
:100170000A128A1183010A128A15182FD6288312AF
:1001800003132208FF00210884000A128A110320A9
:100190000A128A110A128A110E240A128A110130D7
:1001A00083120313A1070318A20AD628831203138C
:1001B0002208FF00210884000A128A1103200A1273
:1001C0008A110038031DE528E628BF28E728080023
:1001D000831203130608F0007008F200831603135D
:1001E0000608F0007008F3000F30F0007008860574
:1001F000F030F00070088312031386040609F00043
:100200007008F100720886007308831603138600D5
:100210007108F00004300310F00CFF3E031D0B29A1
:1002200070081229080083120313A501A4010130EC
:10023000A1008030A2000A128A11BE200A128A117F
:100240002129F03083120313A30023088604061A21
:100250002A292B292F29A401A40AA501A50A861A57
:10026000322933293629A501A50A36292508031D77
:100270003A2921293B2924083D290800FB007B0855
:100280000A128A119F210A128A1101308316031360
:10029000E5070318E60A0030E6073F306505F90078
:1002A00000306605FA007A0879040319582959299B
:1002B0005B296D296D290A128A15E4260A128A1112
:1002C000831603136608F701F7076508F601F607BA
:1002D0000A128A11C5220A128A110800F501083093
:1002E000F3007308F4000A128A1526260A128A11EE
:1002F00093297508F3007308F5070A128A15192661
:100300000A128A1183120313071E872988298D294F
:100310000130F3007308F5078D290A128A15332678
:100320000A128A1193290130F4027408FF3A031D5E
:100330009A299B2979299C2975089E290800F5008E
:100340000830F3007308F400BE29F51FA829A92975
:10035000AF290A128A1526260A128A11B4290A120E
:100360008A15A0260A128A110A128A15F8250A127D
:100370008A117508F3007308F507BE290130F402ED
:100380007408FF3A031DC529C629A529C7290A12E1
:100390008A1526260A128A110A128A15B6260A1208
:1003A0008A110800F3007308F2007208F400DD29D6
:1003B0000130F2007208F407DD2974088400831309
:1003C0008008031DE429E529D829F029F029013006
:1003D000F2007208F4070130F0070318F10AF0295F
:1003E000710883120313FF00700884000A128A1137
:1003F00003200A128A11F200740884007208831321
:1004000080008008031D052A062AE729072A08001C
:1004100083120313A40120302402031C102A112A82
:10042000132A412A412A24080F39A1002108F90082
:100430001030F0000030F1002408A200A3012208CF
:10044000F2002308F3000A128A1177240A128A1193
:1004500070080A128A15B3270A128A1120300A126C
:100460008A110E240A128A11013083120313A1008B
:100470002108A40720302402031C3F2A402A132A03
:10048000412A0800831603130608F2007208F300DD
:10049000831203130608F2007208F4008316031394
:1004A0008611A030F2007208F5006F2A8312031340
:1004B00086158230F0000030F1000A128A1563269A
:1004C0000A128A118312031386110A30F0000030D9
:1004D000F1000A128A1563260A128A116F2A013066
:1004E000F5027508FF3A031D762A772A562A782ADC
:1004F000740883120313860073088316031386009F
:100500000800E830F0000330F1000A128A15632673
:100510000A128A11831603138601303083120313E3
:1005200086002C30F2000130F3000A128A153327BE
:100530000A128A1120308312031386006430F200FD
:100540000030F3000A128A1533270A128A11283064
:100550000A128A115B230A128A110D300A128A11BB
:100560005B230A128A1106300A128A115B230A12CF
:100570008A1102300A128A115B230A128A1183122D
:100580000313EF01F0308600080077088316031389
:10059000E601E6077608E501E507CE2A0A128A1584
:1005A0008B260A128A11FE30F8007808831603138E
:1005B000E90569080A128A119F210A128A11831219
:1005C00003136E08031DE52AEB2A0A128A15E42696
:1005D0000A128A11CE2A77080A128A119F210A125A
:1005E0008A11831203136E08031DF72AFD2A0A12CB
:1005F0008A15E4260A128A11CE2A76080A128A116E
:100600009F210A128A11831203136E08031D092BFE
:100610000F2B0A128A15E4260A128A11CE2A080024
:1006200083120313A0000030F9000030FA000A1210
:100630008A15FE260A128A1183120313A101A20150
:10064000A101A2012208803AFF0080307F02031D31
:100650002B2B1F302102031C2E2B2F2B312B552B24
:10066000552B0A128A1543260A128A11FB0083129F
:10067000031321082007FC007C0884007B088313F7
:1006800080000130A1070318A20A0030A207220847
:10069000803AFF0080307F02031D502B1F30210263
:1006A000031C532B542B312B552B0A128A157726FA
:1006B0000A128A110800F600662BE830F0000330B9
:1006C000F1000A128A1563260A128A110A128A1187
:1006D000E8200A128A110038031D6F2B702B5D2B46
:1006E0008312031386100F300605F4007608F039E4
:1006F000740786006430F2000030F3000A128A1595
:1007000033270A128A110F30831203130605F400EF
:100710007608F50003300310F50DFF3E031D8B2B0B
:100720000310750D740786006430F2000030F3008A
:100730000A128A1533270A128A11831203138614A8
:10074000E830F0000330F1000A128A1563260A121D
:100750008A11080083160313C4010A128A110822A1
:100760000A128A110A128A1113210A128A11003AF6
:100770000319BB2BBC2B032CA4308400C53083167B
:100780000313A0000408A1002030A2002008840068
:1007900083130008A300A00A210884002308800016
:1007A000A10AA20BC62BA4300A128A1110230A1226
:1007B0008A110A128A1108220A128A11A43083129D
:1007C0000313A1000030A2000A128A11BE200A12EF
:1007D0008A11EA2BF03083160313A000200883123D
:1007E00003138604861BF52BF62BFB2B83160313B2
:1007F000C401C40AFB2B831603134408031D012CF8
:10080000EA2B032C032C0A128A1108220A128A11DD
:100810000A128A11E9240A128A11080083120313AA
:10082000A0001B2CE830F0000330F1000A128A15FA
:1008300063260A128A110A128A11E8200A128A1102
:100840000038031D242C252C122C262C0F3083124B
:1008500003130605FC002008F0397C0786000A30E7
:10086000F2000030F3000A128A1533270A128A11A7
:100870000F30831203130605FC002008FD0003302F
:100880000310FD0DFF3E031D402C03107D0D7C0762
:1008900086000A30F2000030F3000A128A1533276E
:1008A0000A128A110130FC007C0883120313EF073F
:1008B0006F08103A031D5D2C5E2C662CF901013087
:1008C0000A128A15B3270A128A11662C831203139F
:1008D0006F08203A031D6D2C6E2C762CF901003028
:1008E0000A128A15B3270A128A11762C0800F6011B
:1008F000F11F7B2C7C2C842CF009F109F00A0319E0
:10090000F10AF601F60A842CF31F872C882C922C0E
:10091000F209F309F20A0319F30A0130F40074082A
:10092000F606922CF701F801710870040319992C4E
:100930009A2CD72CF501F50AA92C01300310F00DE3
:10094000F10DFF3E031D9E2C0130F4007408F507E5
:10095000A92CF11FAC2CAD2C9D2CAF2CAF2C013051
:100960000310F70DF80DFF3E031DB02C7108730244
:10097000031DBC2C70087202031CBF2CC02CC82C99
:100980007008F2027108031CF303F3027714C82CF9
:1009900001300310F10CF00CFF3E031DC92C013097
:1009A000F502031DD42CD52CAF2CD72CD72C7608D0
:1009B000031DDB2CE12CF709F809F70A0319F80AE3
:1009C000E12C7808F101F1077708F001F007E82C35
:1009D000080083120313EC01ED01EA01EB012C3056
:1009E00084009030A5000408A6002030A700250848
:1009F000840083170008A800A50A26088400831332
:100A000028088000A60AA70BF72CE701E801E901F6
:100A1000E301E401E501E601D301D4010F2DEC016E
:100A2000ED0100306D02073003196C02031C192D13
:100A30001A2D1C2D3E2D3E2D6C08A5002507553E78
:100A40008400FF3083138000840AFF308000203050
:100A5000A5006C084C3E8400250880000130EC079E
:100A60000318ED0A0030ED0700306D02073003195E
:100A70006C02031C3C2D3D2D1C2D3E2D0A128A11AB
:100A800008220A128A1183120313EC01ED010430CB
:100A9000A5002508F90000300A128A15B3270A12AA
:100AA0008A116F3083120313A1008030A2000A1252
:100AB0008A11BE200A128A115D2DF03083120313B1
:100AC000A50025088604061A662D672DCB2D6C0817
:100AD000A5002507553E8400013083138007840A52
:100AE0000318800A6C08A5002507553E84000008FD
:100AF000A600840A0008A7002708803AFF0080307B
:100B00007F02031D852D0A3026020318882D892DAA
:100B10009A2D831203136C08A5002507553E840007
:100B200083130008303EA6006C084C3E8400260863
:100B30008000A82D831203136C08A5002507553EDD
:100B40008400FF3083138000840AFF308000A82DCA
:100B50000430A5002508F90000300A128A15B327D1
:100B60000A128A114C3083120313A1000030A20034
:100B70000A128A11BE200A128A11831203136C080A
:100B8000053EA5002508F90000300A128A15B32792
:100B90000A128A11CB2DF03083120313A500250809
:100BA0008604861AD42DD52D2C2E6C08A500250779
:100BB000553E840083130008A600840A0008A7009D
:100BC000FF302706031DE62DFF3026060319E92D09
:100BD000EA2D012E00306D02063003196C02031855
:100BE000F22DF32DFA2D0130EC070318ED0A003039
:100BF000ED07012E0A128A15CC260A128A11012E3F
:100C0000012E83120313EA01EB0100306B02043062
:100C100003196A02031C0D2E0E2E102E2C2E2C2EC4
:100C20005030F000C330F1000A128A1563260A1210
:100C30008A11013083120313EA070318EB0A00300C
:100C4000EB0700306B02043003196A02031C292EE3
:100C50002A2E102E2C2E2C2EF030A50025088604CE
:100C6000861B332E342E372EE701E70A372E67080E
:100C7000031D3B2E5D2D3C2EE301E401E501E60161
:100C8000D301D401EA01EB01B02E6A08A5002507C3
:100C9000023E553E840083130008A600840A000823
:100CA000A7006A08A8002807553E84000008A9008C
:100CB000840A0008AA002A08803AAB002708803A74
:100CC0002B02031D652E260829020318682E692EA3
:100CD000722E013083120313E3070318E40A003075
:100CE000E407AA2E831203136A08A5002507553EC0
:100CF000840083130008A600840A0008A7006A087D
:100D0000A8002807023E553E84000008A900840A76
:100D10000008AA002A08803AAB002708803A2B0274
:100D2000031D942E260829020318972E982EA12E13
:100D3000013083120313E5070318E60A0030E607C3
:100D4000AA2E013083120313D3070318D40A0030EC
:100D5000D407AA2E0130EA070318EB0A0030EB078C
:100D60006D086B02031DB62E6C086A02031CB92EB7
:100D7000BA2E452EBB2E6A30A5002508F0002C3077
:100D80000A128A1590270A128A114C30F00000309E
:100D9000F1002C300A128A11D2210A128A1169300C
:100DA000F0008030F1002C300A128A11D2210A1290
:100DB0008A11831203136D086406031DE12E6C086B
:100DC0006306031DE42EE52E202F0330E8000030DB
:100DD000E900F02E0A128A1142220A128A11F02E1C
:100DE000FF3083120313E8070318E90AFF30E9070D
:100DF000FF306906031DFE2EFF306806031D012F1C
:100E0000022FEA2E032FF90101300A128A15B327A7
:100E10000A128A11223083120313A1008030A2002B
:100E20000A128A11BE200A128A112230F000803084
:100E3000F1002C300A128A11D2210A128A11D02F05
:100E4000831203136D086606031D282F6C086506C0
:100E5000031D2B2F2C2F912FF90101300A128A1517
:100E6000B3270A128A11443083120313A100803081
:100E7000A2000A128A11BE200A128A114430F00020
:100E80008030F1002C300A128A11D2210A128A1104
:100E900083120313EA01EB0100306B0202300319E5
:100EA0006A02031C542F552F572FD02FD02F0430F8
:100EB000E8000030E900622F0A128A1142220A1269
:100EC0008A11622FFF3083120313E8070318E90A1F
:100ED000FF30E907FF306906031D702FFF306806F9
:100EE000031D732F742F5C2F752F3F30F00042309D
:100EF000F1000A128A1563260A128A110130831240
:100F00000313EA070318EB0A0030EB0700306B020B
:100F1000023003196A02031C8E2F8F2F572FD02FF8
:100F2000D02FF90101300A128A15B3270A128A114B
:100F3000333083120313A1008030A2000A128A11F9
:100F4000BE200A128A113330F0008030F1002C30BC
:100F50000A128A11D2210A128A110F308312031346
:100F6000E8000030E900BA2F0A128A1142220A1260
:100F70008A11BA2FFF3083120313E8070318E90A16
:100F8000FF30E907FF306906031DC82FFF306806F0
:100F9000031DCB2FCC2FB42FD02FD02FD02FD02F5D
:100FA000F03083120313A50025088604861BD92F71
:100FB000DA2FDC2FFC2FFC2FF030A500250886044B
:100FC000061BE32FE42FD02F0A128A1108220A12DF
:100FD0008A112C300A128A15D8270A128A11553024
:100FE00083120313A1008030A2000A128A11BE20CE
:100FF0000A128A11D02FD02FE7010F2D0F2D0800D4
:101BF0000A128A1519260A128A150A128A1533261C
:101C00000A128A1508000A128A15A0260A128A15D5
:101C10000A128A15F8250A128A1508000A128A156E
:101C200026260A128A150A128A15F8250A128A151A
:101C300008008312031387150530F0000030F1000F
:101C40000A128A1563260A128A15080083160313DE
:101C500007160530F0000030F1000A128A156326DD
:101C60000A128A150800F730F20072088312031373
:101C700087050530F0000030F1000A128A1563264E
:101C80000A128A1508000A128A116E210A128A1590
:101C9000F6007608F7000A128A1503260A128A153A
:101CA0007708522E0800A030F00070088316031346
:101CB000E9009B3087008312031307128316031376
:101CC000871107120800652E652E0130F0020030E2
:101CD000031CF103F102FF307106031D712EFF306A
:101CE0007006031D742E752E652E762E08000A12BE
:101CF0008A116E210A128A15F6007608F7000A1278
:101D00008A150E260A128A150A128A15E4260A1264
:101D10008A158A2E08000A128A1526260A128A15A2
:101D20000A128A1519260A128A150A128A15A0267D
:101D30000A128A150A128A1533260A128A15080011
:101D4000EF30F2007208831203138705EF30F200C0
:101D500072088316031387050530F0000030F10088
:101D60000A128A1563260A128A1508000A128A15B1
:101D700019260A128A1583120313071EC02EC12EBC
:101D8000C42EEE01EE0AC62EEE01C62E0A128A15E8
:101D900033260A128A150800043083120313A300A5
:101DA0002308F90001300A128A15B3270A128A158E
:101DB000603083120313A1008030A2000A128A113E
:101DC000BE200A128A1508000A128A15A0260A12D5
:101DD0008A150A128A1533260A128A150A128A15DA
:101DE00019260A128A150A128A1526260A128A1537
:101DF0000A128A1533260A128A1508007A08F70192
:101E0000F7077908F601F6070A128A11C5220A12A5
:101E10008A150A128A158B260A128A15831603134D
:101E2000691469080A128A119F210A128A1508008A
:101E3000F030831203138600F030831603138600FC
:101E40000A128A1553260A128A150A128A11812249
:101E50000A128A150A128A11AA230A128A15302F29
:101E60000A128A1100288312031306157308F10160
:101E7000F1077208F001F0070A128A1563260A12A8
:101E80008A158312031306117308F101F107720812
:101E9000F001F0070A128A1563260A128A15080053
:101EA0002034003400340034003400340034003472
:101EB0000034003400340034003400340034003482
:101EC0000034003400340034003400340034003472
:101ED0000034003400340034003400340034003462
:101EE0002034003400340034003400340034003432
:101EF0000034003400340034003400340034003442
:101F00000034003400340034003400340034003431
:101F10000034003400340034003400340034003421
:101F2000F2007208F1007108F3009F2F0130F100F8
:101F30007108F3070130F1007108F0079F2F700856
:101F400084000A128A110D200A128A15F100730802
:101F500084007108831380008008031DB02FB12F07
:101F6000962FB22F0800FB00FB08031DB82FB92FD6
:101F7000C72F7908FA007A0883120313EF00790853
:101F8000803E0A128A115B230A128A15D72F79081C
:101F9000103EFA007A0883120313EF007908C03E5E
:101FA0000A128A115B230A128A15D72FD72F08002D
:101FB000FD000030F6000030F7000A128A11C52239
:101FC0000A128A15F12F7D088400831300080A1273
:101FD0008A113E210A128A150130FC007C08FD0797
:101FE000F12F7D08840083138008031DF82FF92F3B
:101FF000E32FFA2F0A128A15E4260A128A1508001E
:02400E003AFF77
:00000001FF
