:100000000A128A114C2AFF1B0D2883137F188317AD
:100010000008840A0319FF0A080000308A00040857
:10002000840A8207003455347334653420344534EF
:100030004534503452344F344D343F34203420341E
:10004000203420342034423431342034593445347F
:100050005334203420342034203420344234323499
:1000600020344E344F340034533441345634453404
:10007000443420345234423434342D343E344E34FB
:10008000453458345434003420342034203420345F
:0200900000343A
:1000A0000A128A1173200A128A110A128A15F52778
:1000B0000A128A1108000A128A1100210A128A11F2
:1000C0000A128A15F5270A128A11080083120313EF
:1000D00087150530F0000030F1000A128A11C320A4
:1000E0000A128A1108008316031307160530F00060
:1000F0000030F1000A128A11C3200A128A11080086
:10010000F730F20072088312031387050530F00000
:100110000030F1000A128A11C3200A128A11080065
:100120000A128A1155230A128A11F6007608F7007E
:100130000A128A115B200A128A1177089F28080088
:10014000A030F000700883160313E6009B30870090
:100150008312031307128316031387110712080073
:100160007E088A007F0882000A128A11B0200A12D3
:100170008A118000840A04087D0603190034FF0AEE
:100180000319FE0AB428C528C5280130F002003042
:10019000031CF103F102FF307106031DD128FF306B
:1001A0007006031DD428D528C528D62808000A12B1
:1001B0008A1155230A128A11F6007608F7000A12EE
:1001C0008A1150200A128A110A128A1130210A1249
:1001D0008A11EA2808000A128A1173200A128A1169
:1001E0000A128A1166200A128A110A128A11002143
:1001F0000A128A110A128A1180200A128A11080032
:10020000EF30F2007208831203138705EF30F2001B
:1002100072088316031387050530F0000030F100E3
:100220000A128A11C3200A128A1108000A128A11BE
:1002300066200A128A1183120313071E202921291E
:10024000262983160313D201D20A2A2983160313FF
:10025000D2012A290A128A1180200A128A11080062
:100260000A128A1100210A128A110A128A118020A8
:100270000A128A110A128A1166200A128A110A12B7
:100280008A1173200A128A110A128A1180200A1216
:100290008A1108007A08F701F7077908F601F607CE
:1002A0000A128A1129240A128A110A128A11EB20D1
:1002B0000A128A1183160313661466080A128A1139
:1002C00086230A128A110800F03083120313860075
:1002D000F0308316031386000A128A11A0200A1236
:1002E0008A110A128A110E250A128A110A128A111B
:1002F0005F250A128A117C290A128A1100288312AA
:10030000031306157308F101F1077208F001F007F5
:100310000A128A11C3200A128A11831203130611CA
:100320007308F101F1077208F001F0070A128A114F
:10033000C3200A128A110800F2007208F100710845
:10034000F300AB290130F1007108F3070130F1002F
:100350007108F007AB297008840083130008F100CE
:1003600073088400710880008008031DB829B9292A
:10037000A229BA29080020340034003400340034A3
:1003800000340034003400340034003400340034CD
:1003900000340034003400340034003400340034BD
:1003A00000340034003400340034003400340034AD
:1003B000003400340034F5007508F4007408F600C9
:1003C000ED297008F4007608840074088313800017
:1003D0000130F4007408F607ED290130F202003014
:1003E000031CF303F302FF307306031DF929FF30EA
:1003F0007206031DFC29FD29E129FE290800FB00E6
:10040000FB08031D042A052A132A7908FA007A0832
:1004100083160313D3007908803E0A128A11BF2481
:100420000A128A11232A7908103EFA007A088316E4
:100430000313D3007908C03E0A128A11BF240A129E
:100440008A11232A232A0800FD000030F60000301C
:10045000F7000A128A1129240A128A113D2A7D08FE
:100460008400831300080A128A11F5220A128A11E5
:100470000130FC007C08FD073D2A7D0884008313C1
:100480008008031D442A452A2F2A462A0A128A1167
:1004900030210A128A1108008313D0308400E6301C
:1004A0000A128A15ED270A128A118317B030FD004F
:1004B0000130FE00BB30FF00903084000A128A1128
:1004C000B4200A128A118313D030FD000330FE00DD
:1004D0002530FF00A03084000A128A11B4200A12CD
:1004E0008A1183010A128A1164298D2A8312031347
:1004F0002208FF00210884000A128A1103200A1230
:100500008A110A128A11B8250A128A11013083123F
:100510000313A1070318A20A8D2A831203132208CA
:10052000FF00210884000A128A1103200A128A118E
:100530000038031D9C2A9D2A762A9E2A08008312D1
:1005400003130608F0007008F20083160313060870
:10055000F0007008F3000F30F00070088605F030EE
:10056000F00070088312031386040609F000700877
:10057000F100720886007308831603138600710861
:10058000F00004300310F00CFF3E031DC22A700877
:10059000C92A080083120313A501A4010130A10098
:1005A0008030A2000A128A1175220A128A11D82AF2
:1005B000F03083120313A30023088604061AE12AED
:1005C000E22AE62AA401A40AA501A50A861AE92AB4
:1005D000EA2AED2AA501A50AED2A2508031DF12A1C
:1005E000D82AF22A2408F42A0800FB007B080A1201
:1005F0008A1186230A128A11013083160313D00749
:100600000318D10A0030D1073F305005F9000030FF
:100610005105FA007A08790403190F2B102B122BBD
:10062000242B242B0A128A1130210A128A118316D4
:1006300003135108F701F7075008F601F6070A12ED
:100640008A1129240A128A11080020340034003447
:1006500000340034003400340034003400340034FA
:1006600000340034003400340034003400340034EA
:1006700000340034003400340034003400340034DA
:1006800000340034003400340034483465346C34B1
:100690006C346F342C34203477346F3472346C34CF
:1006A00064340034003400340034F5010830F300C1
:1006B0007308F4000A128A1173200A128A117A2B25
:1006C0007508F3007308F5070A128A1166200A12EA
:1006D0008A1183120313071E6E2B6F2B742B0130AC
:1006E000F3007308F507742B0A128A1180200A128E
:1006F0008A117A2B0130F4027408FF3A031D812B12
:10070000822B602B832B7508852B0800F5000830A1
:10071000F3007308F400A52BF51F8F2B902B962B5D
:100720000A128A1173200A128A119B2B0A128A114B
:1007300000210A128A110A128A15F5270A128A1153
:100740007508F3007308F507A52B0130F40274084F
:10075000FF3A031DAC2BAD2B8C2BAE2B0A128A114A
:1007600073200A128A110A128A1116210A128A119A
:100770000800F3007308F2007208F400C42B013083
:10078000F2007208F407C42B7408840083138008F5
:10079000031DCB2BCC2BBF2BD72BD72B0130F2003B
:1007A0007208F4070130F0070318F10AD72B71081B
:1007B00083120313FF00700884000A128A110320B9
:1007C0000A128A11F20074088400720883138000F0
:1007D0008008031DEC2BED2BCE2BEE2B0800831293
:1007E0000313A40120302402031CF72BF82BFA2B4F
:1007F000282C282C24080F39A1002108F9001030DA
:10080000F0000030F1002408A200A3012208F20049
:100810002308F3000A128A1121260A128A1170088D
:100820000A128A11FF210A128A1120300A128A1133
:10083000B8250A128A11013083120313A10021087E
:10084000A40720302402031C262C272CFA2B282C4A
:100850000800770883160313D101D1077608D00169
:10086000D007322C0A128A11EB200A128A11FE30AC
:10087000F800780883160313E60566080A128A1141
:1008800086230A128A11831603135208031D492C6A
:100890004F2C0A128A1130210A128A11322C770841
:1008A0000A128A1186230A128A1183160313520828
:1008B000031D5B2C612C0A128A1130210A128A1145
:1008C000322C76080A128A1186230A128A1183169C
:1008D00003135208031D6D2C732C0A128A11302148
:1008E0000A128A11322C080083120313A000003070
:1008F000F9000030FA000A128A114A210A128A11FC
:1009000083120313A101A201A101A2012208803ACE
:10091000FF0080307F02031D8F2C20302102031C3A
:10092000922C932C952CB92CB92C0A128A11902058
:100930000A128A11FB008312031321082007FC000E
:100940007C0884007B08831380000130A107031812
:10095000A20A0030A2072208803AFF0080307F02FE
:10096000031DB42C20302102031CB72CB82C952C6D
:10097000B92C0A128A11D7200A128A110800F6002F
:10098000CA2CE830F0000330F1000A128A11C320AB
:100990000A128A110A128A119F220A128A11003839
:1009A000031DD32CD42CC12C8312031386100F30BB
:1009B0000605F4007608F039740786006430F2000A
:1009C0000030F3000A128A117F210A128A110F30B7
:1009D000831203130605F4007608F50003300310B4
:1009E000F50DFF3E031DEF2C0310750D74078600F7
:1009F0006430F2000030F3000A128A117F210A12DB
:100A00008A11831203138614E830F0000330F100DA
:100A10000A128A11C3200A128A110800A030F000BD
:100A20000F30F1000A128A11C3200A128A118316AC
:100A30000313860130308312031386009030F200D6
:100A40000130F3000A128A117F210A128A119030B4
:100A5000F2000130F3000A128A117F210A128A1172
:100A60009030F2000130F3000A128A117F210A123D
:100A70008A1120308312031386009030F200013077
:100A8000F3000A128A117F210A128A1128300A12F1
:100A90008A11BF240A128A110E300A128A11BF2449
:100AA0000A128A1106300A128A11BF240A128A1108
:100AB00002300A128A11BF240A128A1108000A128F
:100AC0008A11EF230A128A1183120313EF010A120B
:100AD0008A11CA220A128A11003A0319702D712D47
:100AE000B22D4F308400A03083120313CB000408D2
:100AF000CC002030CD004B08840083130008CE00CA
:100B0000CB0A4C0884004E088000CC0ACD0B7B2D0C
:100B10004F300A128A1174240A128A110A128A1199
:100B2000EF230A128A114F3083120313A100003001
:100B3000A2000A128A1175220A128A119F2DF03022
:100B400083120313CB004B088604861BA82DA92D06
:100B5000AC2DEF01EF0AAC2D6F08031DB02D9F2DBA
:100B6000B22DB22D0A128A1193260A128A11080098
:100B700083120313A000C52DE830F0000330F1000C
:100B80000A128A11C3200A128A110A128A119F229C
:100B90000A128A110038031DCE2DCF2DBC2DD02D69
:100BA0000F30831203130605FC002008F0397C0780
:100BB00086000A30F2000030F3000A128A117F2109
:100BC0000A128A110F30831203130605FC00200855
:100BD000FD0003300310FD0DFF3E031DEA2D031041
:100BE0007D0D7C0786000A30F2000030F3000A1207
:100BF0008A117F210A128A110130FC007C088316B9
:100C00000313D3075308103A031D072E082E102E86
:100C1000F90101300A128A11FF210A128A11102EDD
:100C2000831603135308203A031D172E182E202E67
:100C3000F90100300A128A11FF210A128A11202EAE
:100C40000800F601F11F252E262E2E2EF009F1099F
:100C5000F00A0319F10AF601F60A2E2EF31F312EBF
:100C6000322E3C2EF209F309F20A0319F30A01307D
:100C7000F4007408F6063C2EF701F80171087004C0
:100C80000319432E442E812EF501F50A532E01300F
:100C90000310F00DF10DFF3E031D482E0130F4004E
:100CA0007408F507532EF11F562E572E472E592E36
:100CB000592E01300310F70DF80DFF3E031D5A2E7B
:100CC00071087302031D662E70087202031C692EE0
:100CD0006A2E722E7008F2027108031CF303F302ED
:100CE0007714722E01300310F10CF00CFF3E031D3F
:100CF000732E0130F502031D7E2E7F2E592E812E7C
:100D0000812E7608031D852E8B2EF709F809F70A28
:100D10000319F80A8B2E7808F101F1077708F00122
:100D2000F007922E08000A128A11EF230A128A1184
:100D300029308400903083120313A5000408A60014
:100D40002030A7002508840083170008A800A50A02
:100D500026088400831328088000A60AA70BA22E69
:100D6000CA01C9012030F0000030F1000F30F2005C
:100D70000030F300D6300A128A11DB210A128A11E0
:100D80003230F0008030F100C0300A128A11B923ED
:100D90000A128A11C03083120313A1000030A2008E
:100DA0000A128A1175220A128A11F90100300A12F8
:100DB0008A11FF210A128A11DD2EF03083120313EB
:100DC000A50025088604061AE62EE72EFF2E4A08FF
:100DD0000F3A031DEC2EED2EEF2ECA01F42E01303A
:100DE000A5002508CA07F42E4A08A5002508F90021
:100DF00000300A128A11FF210A128A11FF2EF030E8
:100E000083120313A50025088604861A082F092FCC
:100E1000212FCA08031D0D2F0E2F132F0F30A500F1
:100E20002508CA00162F0130CA02162F4A08A5004D
:100E30002508F90000300A128A11FF210A128A11CE
:100E4000212FF03083120313A50025088604061B0A
:100E50002A2F2B2F622F4A08C03E840083130008DC
:100E6000A5004908D63E84002508800049080E3AAE
:100E7000031D3B2F3C2F3E2FC901432F0130A500FE
:100E80002508C907432FF90101300A128A11FF21F1
:100E90000A128A11D63083120313A1000030A20077
:100EA0000A128A1175220A128A11831203134A0840
:100EB000A5002508F90000300A128A11FF210A1244
:100EC0008A11622FF03083120313A50025088604CF
:100ED000861B6B2F6C2FDD2E0030F0000030F100F0
:100EE0002030F2000030F30029300A128A11DB2191
:100EF0000A128A11C03083120313A5002508F000DE
:100F000029300A128A119C210A128A11D630F00067
:100F10000030F10029300A128A11B9230A128A110D
:100F200029300A128A1124220A128A110A128A11FD
:100F3000EF230A128A11F90100300A128A11FF21E7
:100F40000A128A11223083120313A1008030A200FA
:100F50000A128A1175220A128A11AE2FF0308312FA
:100F60000313A50025088604061AB72FB82FAE2F45
:100F7000BC2FBC2FAE2FAE2FF90100300A128A1100
:100F8000FF210A128A11C03083120313A10000301E
:100F9000A2000A128A1175220A128A11F90101307F
:100FA0000A128A11FF210A128A112030F000003043
:100FB000F1000F30F2000030F300D6300A128A112F
:100FC000DB210A128A11D63083120313A1000030EC
:100FD000A2000A128A1175220A128A1183120313BF
:100FE000CA01C9014A08A5002508F90000300A1203
:100FF0008A11FF210A128A11DD2EDD2EDD2E080056
:101FDA0064008001840A0406031900340406EE2F03
:101FEA000A128A1166200A128A150A128A11802098
:061FFA000A128A1508001E
:02400E003AFF77
:00000001FF
