:100000000A128A15C62EFF1B0D2883137F1883172B
:100010000008840A0319FF0A080000308A00040857
:10002000840A82070034013400340A340034643412
:100030000034E834033410342734553473346534D1
:10004000203445344534503452344F344D343F34E9
:1000500020342034203420342034423431342034CD
:10006000593445345334203420342034203420345F
:100070004234323420344E344F340034203420346F
:1000800020342034203453344134563445344434FD
:100090000034253464340034FB00FB08031D512870
:1000A000522860287908FA007A0883120313E300C3
:1000B0007908803E0A128A11C7220A128A11702812
:1000C0007908103EFA007A0883120313E3007908D6
:1000D000C03E0A128A11C7220A128A11702870289B
:1000E0000800F5000830F3007308F4009028F51FAD
:1000F0007A287B2881280A128A1546250A128A1135
:1001000086280A128A15E2250A128A110A128A150D
:1001100025250A128A117508F3007308F50790283F
:100120000130F4027408FF3A031D972898287728B5
:1001300099280A128A1546250A128A110A128A1566
:10014000F8250A128A11080083120313A401203033
:100150002402031CAC28AD28AF28DD28DD282408A4
:100160000F39A1002108F9001030F0000030F10033
:100170002408A200A3012208F2002308F3000A12B7
:100180008A11E2230A128A1170080A128A114C207D
:100190000A128A1120300A128A1179230A128A114E
:1001A000013083120313A1002108A4072030240288
:1001B000031CDB28DC28AF28DD2808008316031386
:1001C0000608F2007208F300831203130608F20017
:1001D0007208F4008316031386114030F20072088F
:1001E000F5000B298312031386158C30F0000030C4
:1001F000F1000A128A15A5250A128A118312031327
:1002000086118C30F0000030F1000A128A15A52505
:100210000A128A110B290130F5027508FF3A031DF5
:1002200012291329F2281429740883120313860053
:10023000730883160313860008002034003400344A
:10024000003400340034003400340034003400340E
:1002500000340034003400340034003400340034FE
:1002600000340034003400340034003400340034EE
:1002700000340034003400340034203400340034BE
:1002800000340034003400340034003400340034CE
:1002900000340034003400340034003400340034BE
:1002A00000340034003400340034003400340034AE
:1002B0000034003400340034003479087804031921
:1002C000622963299829FD01FD0A72290130031072
:1002D000F80DF90DFF3E031D67290130FC007C0875
:1002E000FD077229F91F7529762966297829782949
:1002F00079087B02031D7E2978087A02031C812974
:10030000822989297808FA027908031CFB03FB0279
:10031000892901300310F90CF80CFF3E031D8A29CE
:100320000130FD02031D95299629782998299829DD
:100330007B08F901F9077A08F801F8079F290800F6
:10034000E830F0000330F1000A128A15A5250A12E0
:100350008A1183160313860130308312031386003B
:100360002C30F2000130F3000A128A155D260A12C1
:100370008A1120308312031386006430F2000030AB
:10038000F3000A128A155D260A128A1128300A1211
:100390008A11C7220A128A110D300A128A11C72245
:1003A0000A128A1106300A128A11C7220A128A1109
:1003B00002300A128A11C7220A128A118312031309
:1003C000E301F03086000800770883120313E1018F
:1003D000E1077608E001E007ED290A128A15CD252C
:1003E0000A128A11FE30F800780883120313E6051A
:1003F00066080A128A1171200A128A1183120313E5
:100400006208031D042A0A2A0A128A150E260A12F5
:100410008A11ED2977080A128A1171200A128A11AD
:10042000831203136208031D162A1C2A0A128A1556
:100430000E260A128A11ED2976080A128A117120F5
:100440000A128A11831203136208031D282A2E2A16
:100450000A128A150E260A128A11ED290800831243
:100460000313A0000030F9000030FA000A128A15C8
:1004700028260A128A1183120313A101A201A101E5
:10048000A2012208803AFF0080307F02031D4A2A21
:100490001F302102031C4D2A4E2A502A742A742A26
:1004A0000A128A1570250A128A11FB00831203139F
:1004B00021082007FC007C0884007B08831380004F
:1004C0000130A1070318A20A0030A2072208803ACF
:1004D000FF0080307F02031D6F2A1F302102031CA2
:1004E000722A732A502A742A0A128A15B9250A1206
:1004F0008A110800F501F601710870040319812AB8
:10050000822ABF2AF701F70A912A01300310F00D61
:10051000F10DFF3E031D862A0130F4007408F70731
:10052000912AF11F942A952A852A972A972A013021
:100530000310F50DF60DFF3E031D982A7108730296
:10054000031DA42A70087202031CA72AA82AB02A35
:100550007008F2027108031CF303F3027514B02A49
:1005600001300310F10CF00CFF3E031DB12A0130E5
:10057000F702031DBC2ABD2A972ABF2ABF2A760884
:10058000F101F1077508F001F007C62A0800F6002E
:10059000D22AE830F0000330F1000A128A15A525AE
:1005A0000A128A110A128A1519270A128A110038AA
:1005B000031DDB2ADC2AC92A8312031386100F309D
:1005C0000605F4007608F039740786006430F200FE
:1005D0000030F3000A128A155D260A128A110F30C4
:1005E000831203130605F4007608F50003300310A8
:1005F000F50DFF3E031DF72A0310750D74078600E5
:100600006430F2000030F3000A128A155D260A12E7
:100610008A11831203138614E830F0000330F100CE
:100620000A128A15A5250A128A1108000A128A11CF
:10063000A4200A128A1183160313E9010A128A15EB
:1006400044270A128A11003A0319272B282B6E2BF4
:10065000C9308400B03083120313CC000408CD00ED
:100660002030CE004C08840083170008CF00CC0A4D
:100670004D08840083134F088000CD0ACE0B322B27
:10068000C9300A128A112F220A128A110A128A11FB
:10069000A4200A128A11C93083120313A10000306A
:1006A000A2000A128A15EF260A128A11572BF0307F
:1006B00083120313CC004C088604861B602B612B2D
:1006C000662B83160313E901E90A662B83160313CD
:1006D0006908031D6C2B572B6E2B6E2B0A128A1187
:1006E000A4200A128A110A128A11CC250A128A1130
:1006F000080083120313A000862BE830F0000330BB
:10070000F1000A128A15A5250A128A110A128A1501
:1007100019270A128A110038031D8F2B902B7D2B6D
:10072000912B0F30831203130605FC002008F039CB
:100730007C0786000A30F2000030F3000A128A15A6
:100740005D260A128A110F30831203130605FC007E
:100750002008FD0003300310FD0DFF3E031DAB2BF1
:1007600003107D0D7C0786000A30F2000030F30094
:100770000A128A155D260A128A110130FC007C08D3
:1007800083120313E3076308103A031DC82BC92B18
:10079000D12BF90101300A128A114C200A128A1158
:1007A000D12B831203136308203A031DD82BD92BB6
:1007B000E12BF90100300A128A114C200A128A1129
:1007C000E12B0800F601F11FE62BE72BEF2BF009D8
:1007D000F109F00A0319F10AF601F60AEF2BF31FEB
:1007E000F22BF32BFD2BF209F309F20A0319F30A9A
:1007F0000130F4007408F606FD2BF701F8017108CA
:1008000070040319042C052C422CF501F50A142C54
:1008100001300310F00DF10DFF3E031D092C0130D6
:10082000F4007408F507142CF11F172C182C082C51
:100830001A2C1A2C01300310F70DF80DFF3E031D82
:100840001B2C71087302031D272C70087202031CF5
:100850002A2C2B2C332C7008F2027108031CF30392
:10086000F3027714332C01300310F10CF00CFF3E2F
:10087000031D342C0130F502031D3F2C402C1A2C93
:10088000422C422C7608031D462C4C2CF709F80903
:10089000F70A0319F80A4C2C7808F101F1077708D8
:1008A000F001F007532C080083120313C500253014
:1008B00084009030A1000408A2002030A300210889
:1008C000840083170008A400A10A2208840083136F
:1008D00024088000A20AA30B5F2C2030F000003017
:1008E000F1002030F2000030F30025300A128A15A2
:1008F0007A260A128A1183120313C601C701470818
:10090000803AFF0080307F02031D882C08304602A9
:10091000031C8B2C8C2C8E2CC82CC82C83120313FC
:100920004608A10021074507A2002208840083137E
:100930000008303EA3004608A4002407253E84009A
:10094000230880004608A10021072007A2002208F2
:1009500084000008303EA3004608A4002407103E8F
:10096000253E8400230880000130C6070318C70A0B
:100970000030C7074708803AFF0080307F02031D20
:10098000C32C08304602031CC62CC72C8E2CC82C46
:1009900025300A128A159E260A128A11080083122F
:1009A0000313AD002130A3002308A600B22D2E08AA
:1009B000253A0319DC2CDD2CE92C2E08A3002D0888
:1009C00084002308831380000130A3002308AD07AF
:1009D000B22DA701F02CC62D052D052DB22D052D0C
:1009E0000130A007FF30200784000A128A110D2071
:1009F0000A128A11AE00003A0319C62D643A03198F
:100A0000052D0D3A0319052DB22D260884008313F8
:100A10000008A900840A0008AA000230A3002308E5
:100A2000A607AA1F142D152D1F2D0330A300230880
:100A3000A704A909AA09A90A0319AA0A1F2DAE0128
:100A4000AE0A2E08053A031D262D272D292D512DDE
:100A5000512D2E08A3002307013E84000A128A119B
:100A60000D200A128A11A4000A128A110D200A12FE
:100A70008A11A50025082A02031D402D24082902F9
:100A80000318432D442D462D512D512D0130A30027
:100A90002308AE072E08053A031D4F2D502D292D92
:100AA000512D270803390319562D572D632D2D304D
:100AB000A3002D0884002308831380000130A300C5
:100AC0002308AD07632D2E08A3002308A800A62D38
:100AD0000A30F8000030F9002808A3002307013E7F
:100AE00084000A128A110D200A128A11F0000A12DB
:100AF0008A110D200A128A11F1002A08F301F30766
:100B00002908F201F2070A128A117A220A128A11BE
:100B10007108FB01FB077008FA01FA070A128A1133
:100B20005D210A128A117808303E83120313A40053
:100B30002408AE002E08A3002D0884002308831388
:100B400080000130A3002308AD07A62DFF30A300CD
:100B50002308A8072808FF3A031DAF2DB02D682DE4
:100B6000B22DB22D0130A007FF30200784000A12F9
:100B70008A110D200A128A11A3002308AE00AE08C4
:100B8000031DC32DC42DD72CC62DC62D2D088400C2
:100B900083138001CB2D0800B030840050308312C5
:100BA0000313C8000408C9001030CA0048088400B4
:100BB00083130008CB00C80A490884004B08800052
:100BC000C90ACA0BD62DA0308400D030C800040852
:100BD000C9001030CA004808840083170008CB0001
:100BE000C80A4908840083134B088000C90ACA0B4D
:100BF000EB2D83160313C601C701C801FF2D310871
:100C000083120313B001B007831603133008831255
:100C10000313AF01AF070030B1000030B200003065
:100C2000B3000030B4000A128A159F270A128A11F5
:100C300083160313C601C701C8014808803AFF00A4
:100C400080307F02031D262E08304702031C292E08
:100C50002A2E2D2EDB2EDB2E2D2EF03083120313A9
:100C6000C80048088604061A362E372EA02E831692
:100C70000313470883120313C8004807B03E8400DB
:100C800083130008C900840A0008CA000930490615
:100C90004A0403194C2E4D2E692E83160313470860
:100CA00083120313C8004807B03E84000130800758
:100CB000840F00080318000AFF0000307F0780003F
:100CC0008403000883160313C400840A0008C500C7
:100CD0006E2E83160313C401C5016E2E47088312BE
:100CE0000313C8004807B03E84008316031344086A
:100CF0008000840A45088000470883120313C80057
:100D00004807B03E84000008AF00840A0008B00025
:100D100083160313480883120313B201B207831624
:100D20000313470883120313B101B1070030B30066
:100D30000030B4000A128A159F270A128A11A02EC9
:100D4000F03083120313C80048088604861BA92EBE
:100D5000AA2EC02E83160313470883120313C8005C
:100D60004807023EC9004908F90000300A128A11FA
:100D70004C200A128A1183160313C601C60AC02E1C
:100D8000831603134608031DC62E2D2EC6010130FF
:100D9000C7070318C80A0030C8074808803AFF0090
:100DA00080307F02031DD62E08304702031CD92E47
:100DB000DA2E2D2EDB2E83160313C701C801480837
:100DC000803AFF0080307F02031DE82E0830470282
:100DD000031CEB2EEC2EEE2E622F622F83160313D4
:100DE000470883120313C8004807B03E84008313EA
:100DF0000008C900840A0008CA00491C002F012FFE
:100E00001E2F83160313470883120313C8004807D5
:100E1000B03E84000008C900840A0008CA00831696
:100E20000313470883120313CB004B07A03E840033
:100E300049088000840A4A088000272F0130831661
:100E40000313C2070318C30A0030C307272F8316F2
:100E50000313470883120313C8004807A03E840009
:100E60000008AF00840A0008B00083160313480886
:100E700083120313B201B2078316031347088312C8
:100E80000313B101B1070130B3000030B4000A12FE
:100E90008A159F270A128A11013083160313C70788
:100EA0000318C80A0030C8074808803AFF0080309D
:100EB0007F02031D5D2F08304702031C602F612F46
:100EC000EE2E622F0A3083160313C0000030C100DB
:100ED000083042064304031D6E2F6F2F8C2F772F8F
:100EE000772F0A128A11DE200A128A11772FFF301B
:100EF00083160313C0070318C10AFF30C107FF3070
:100F00004106031D852FFF304006031D882F892FC2
:100F1000712F8C2F8C2F8C2FF03083120313C8006D
:100F200048088604861B952F962F982FBC2FBC2F20
:100F3000F030C80048088604061B9F2FA02F8C2F76
:100F4000A030C8004808A000B0300A128A1154240A
:100F50000A128A110A128A11A4200A128A112C304C
:100F600083120313A1008030A2000A128A15EF2613
:100F70000A128A118C2F8C2F0A128A11A4200A12AD
:100F80008A1183160313C701C8014808803AFF007D
:100F900080307F02031DCE2F08304702031CD12F63
:100FA000D22FD42FF92FF92F83160313470883125A
:100FB0000313C8004807B03E84000030831380004C
:100FC000840A00308000013083160313C70703181A
:100FD000C80A0030C8074808803AFF0080307F0206
:100FE000031DF42F08304702031CF72FF82FD42FCE
:100FF000F92F83160313C201C301FF2DFF2D080033
:101A3800203464008001840A040603190034040673
:101A48001E2D0A128A1553250A128A150A128A159A
:101A580060250A128A1508000A128A15E2250A1258
:101A68008A150A128A1525250A128A1508000A12EB
:101A78008A1546250A128A150A128A1525250A1278
:101A88008A1508008316031307160530F000003086
:101A9800F1000A128A15A5250A128A150800831270
:101AA800031387150530F0000030F1000A128A157B
:101AB800A5250A128A150800F730F2007208831269
:101AC800031387050530F0000030F1000A128A156B
:101AD800A5250A128A1508000A128A15CF270A12A4
:101AE8008A15F6007608F7000A128A1530250A12B8
:101AF8008A1577087F2D0800A030F000700883123F
:101B08000313E6009B308316031387008312031325
:101B18000712831603138711071208007E088A002C
:101B28007F0882000A128A1592250A128A158000F7
:101B3800840A04087D0603190034FF0A0319FE0A03
:101B4800962DA72DA72D0130F0020030031CF103BC
:101B5800F102FF307106031DB32DFF307006031D1F
:101B6800B62DB72DA72DB82D08000A128A15CF2734
:101B78000A128A15F6007608F7000A128A153B251C
:101B88000A128A150A128A150E260A128A15CC2DEF
:101B980008000A128A1546250A128A150A128A1599
:101BA80053250A128A150A128A15E2250A128A157D
:101BB8000A128A1560250A128A150800EF30F20009
:101BC8007208831203138705EF30F2007208831638
:101BD800031387050530F0000030F1000A128A155A
:101BE800A5250A128A1508000A128A1553250A1211
:101BF8008A1583120313071E022E032E062EE201F6
:101C0800E20A082EE201082E0A128A1560250A1235
:101C18008A1508000A128A15E2250A128A150A127C
:101C28008A1560250A128A150A128A1553250A127E
:101C38008A150A128A1546250A128A150A128A1561
:101C480060250A128A1508007A08F701F70779084B
:101C5800F601F6070A128A11E4210A128A150A12F5
:101C68008A15CD250A128A1583120313661466088D
:101C78000A128A1171200A128A150800F03083129C
:101C880003138600F0308316031386000A128A15A0
:101C980080250A128A150A128A11A0210A128A15A9
:101CA8000A128A1116230A128A155A2E0A128A1142
:101CB80000288312031306157308F101F10772084F
:101CC800F001F0070A128A15A5250A128A1583124F
:101CD800031306117308F101F1077208F001F00708
:101CE8000A128A15A5250A128A150800F500750832
:101CF800F4007408F6008C2E7008F400760884004E
:101D08007408831380000130F4007408F6078C2EE1
:101D18000130F2020030031CF303F302FF307306B4
:101D2800031D982EFF307206031D9B2E9C2E802EBD
:101D38009D2E0800FD000030F6000030F7000A1262
:101D48008A11E4210A128A15B72E7D0884008313AC
:101D580000080A128A156F270A128A150130FC003A
:101D68007C08FD07B72E7D08840083138008031DB7
:101D7800BE2EBF2EA92EC02E0A128A150E260A12B2
:101D88008A15080083135030840066300A128A15B9
:101D98001D250A128A158317D0308400E0300A12F4
:101DA8008A151D250A128A15D030FD000130FE0063
:101DB8001D30FF00903084000A128A1596250A12F9
:101DC8008A150A128A151C250A128A15E70083014A
:101DD8000A128A15422E072F831203132208FF00C6
:101DE800210884000A128A1103200A128A150A128D
:101DF8008A1179230A128A15013083120313A10765
:101E08000318A20A072F831203132208FF002108D0
:101E180084000A128A1103200A128A150038031D49
:101E2800162F172FF02E182F0800831203130608F9
:101E3800F0007008F200831603130608F00070081B
:101E4800F3000F30F00070088605F030F0007008DD
:101E58008312031386040609F0007008F100720863
:101E6800860073088316031386007108F000043097
:101E78000310F00CFF3E031D3C2F7008432F080091
:101E880083120313A501A4010B30A1008030A20026
:101E98000A128A15EF260A128A15522FF030831279
:101EA8000313A30023088604061A5B2F5C2F602FF8
:101EB800A401A40AA501A50A861A632F642F672F17
:101EC800A501A50A672F2508031D6B2F522F6C2F1C
:101ED80024086E2F0800FB007B080A128A11712063
:101EE8000A128A15013083120313E0070318E10A66
:101EF8000030E1073F306005F90000306105FA0065
:101F08007A0879040319892F8A2F8C2F9E2F9E2FE8
:101F18000A128A150E260A128A15831203136108FB
:101F2800F701F7076008F601F6070A128A11E4219B
:101F38000A128A150800831203136708B5003508CA
:101F4800B7003730B5003508A0003008A201A20755
:101F58002F08A101A10737300A128A11CF240A12CB
:101F68008A15831203133108B5003507B600360801
:101F7800F90033080A128A114C200A128A153730E0
:101F880083120313A1000030A2000A128A15EF265B
:101F98000A128A150800F5010830F3007308F400E6
:101FA8000A128A1546250A128A15F42F7508F300B5
:101FB8007308F5070A128A1553250A128A1583121F
:101FC8000313071EE82FE92FEE2F0130F3007308E3
:101FD800F507EE2F0A128A1560250A128A15F42FC2
:101FE8000130F4027408FF3A031DFB2FFC2FDA2F8F
:081FF800FD2F7508FF2F080002
:02400E003AFF77
:00000001FF
