:100000000A128A15C62EFF1B0D2883137F1883172B
:100010000008840A0319FF0A080000308A00040857
:10002000840A82070034013400340A340034643412
:100030000034E834033410342734553473346534D1
:10004000203445344534503452344F344D343F34E9
:1000500020342034203420342034423431342034CD
:10006000593445345334203420342034203420345F
:100070004234323420344E344F340034203420346F
:1000800020342034203453344134563445344434FD
:1000900000342534643400342034EF30F200720828
:1000A000831203138705EF30F200720883160313DF
:1000B00087050530F0000030F1000A128A159625F8
:1000C0000A128A110800F5000830F3007308F400E2
:1000D0008228F51F6C286D2873280A128A1544257A
:1000E0000A128A1178280A128A114D200A128A11DE
:1000F0000A128A1516250A128A117508F300730868
:10010000F50782280130F4027408FF3A031D89289C
:100110008A2869288B280A128A1544250A128A110E
:100120000A128A15D3250A128A11080083120313B2
:10013000A40120302402031C9E289F28A128CF2838
:10014000CF2824080F39A1002108F9001030F00051
:100150000030F1002408A200A3012208F2002308C5
:10016000F3000A128A11D4230A128A1170080A12A3
:100170008A1579260A128A1120300A128A116B23F5
:100180000A128A11013083120313A1002108A40767
:1001900020302402031CCD28CE28A128CF28080017
:1001A000831603130608F2007208F3008312031388
:1001B0000608F2007208F40083160313861140301B
:1001C000F2007208F500FD288312031386158C30A7
:1001D000F0000030F1000A128A1596250A128A11E1
:1001E0008312031386118C30F0000030F1000A12E4
:1001F0008A1596250A128A11FD280130F502750824
:10020000FF3A031D04290529E428062974088312EE
:100210000313860073088316031386000800203436
:10022000003400340034003400340034003400342E
:10023000003400340034003400340034003400341E
:10024000003400340034003400340034003400340E
:1002500000340034003400340034003400342034DE
:1002600000340034003400340034003400340034EE
:1002700000340034003400340034003400340034DE
:1002800000340034003400340034003400340034CE
:100290000034003400340034003400340034790871
:1002A00078040319542955298A29FD01FD0A642976
:1002B00001300310F80DF90DFF3E031D59290130DF
:1002C000FC007C08FD076429F91F67296829582963
:1002D0006A296A2979087B02031D702978087A0245
:1002E000031C732974297B297808FA027908031CF6
:1002F000FB03FB027B2901300310F90CF80CFF3ED5
:10030000031D7C290130FD02031D872988296A29E4
:100310008A298A297B08F901F9077A08F801F80780
:1003200091290800E830F0000330F1000A128A1524
:1003300096250A128A118316031386013030831220
:10034000031386002C30F2000130F3000A128A15E4
:1003500038260A128A112030831203138600643073
:10036000F2000030F3000A128A1538260A128A11A8
:1003700028300A128A11B9220A128A110D300A1283
:100380008A11B9220A128A1106300A128A11B92278
:100390000A128A1102300A128A11B9220A128A112B
:1003A00083120313E301F0308600080077088312FC
:1003B0000313E101E1077608E001E007DF290A12F3
:1003C0008A15BE250A128A11FE30F80078088312B9
:1003D0000313E60566080A128A1163200A128A11BD
:1003E000831203136208031DF629FC290A128A15D9
:1003F000E9250A128A11DF2977080A128A11632077
:100400000A128A11831203136208031D082A0E2A96
:100410000A128A15E9250A128A11DF2976080A12BA
:100420008A1163200A128A11831203136208031DC2
:100430001A2A202A0A128A15E9250A128A11DF29A6
:10044000080083120313A0000030F9000030FA0006
:100450000A128A1503260A128A1183120313A101B4
:10046000A201A101A2012208803AFF0080307F0290
:10047000031D3C2A1F302102031C3F2A402A422A26
:10048000662A662A0A128A1561250A128A11FB0059
:100490008312031321082007FC007C0884007B08DA
:1004A000831380000130A1070318A20A0030A207BD
:1004B0002208803AFF0080307F02031D612A1F302E
:1004C0002102031C642A652A422A662A0A128A1516
:1004D000AA250A128A110800F501F60171087004B4
:1004E0000319732A742AB12AF701F70A832A013003
:1004F0000310F00DF10DFF3E031D782A0130F400CA
:100500007408F707832AF11F862A872A772A892AFF
:10051000892A01300310F50DF60DFF3E031D8A2ACE
:1005200071087302031D962A70087202031C992A2F
:100530009A2AA22A7008F2027108031CF303F3023C
:100540007514A22A01300310F10CF00CFF3E031DBC
:10055000A32A0130F702031DAE2AAF2A892AB12A45
:10056000B12A7608F101F1077508F001F007B82A01
:100570000800F600C42AE830F0000330F1000A1247
:100580008A1596250A128A110A128A1519270A1243
:100590008A110038031DCD2ACE2ABB2A83120313E9
:1005A00086100F300605F4007608F03974078600CF
:1005B0006430F2000030F3000A128A1538260A125D
:1005C0008A110F30831203130605F4007608F50034
:1005D00003300310F50DFF3E031DE92A0310750DCE
:1005E000740786006430F2000030F3000A128A15A6
:1005F00038260A128A11831203138614E830F00099
:100600000330F1000A128A1596250A128A11080091
:100610000A128A1196200A128A1183160313E9011D
:100620000A128A1544270A128A11003A0319192B53
:100630001A2B602BC9308400B03083120313CC0016
:100640000408CD002030CE004C0884008317000839
:10065000CF00CC0A4D08840083134F088000CD0AD8
:10066000CE0B242BC9300A128A1121220A128A11B8
:100670000A128A1196200A128A11C93083120313B2
:10068000A1000030A2000A128A15EF260A128A1170
:10069000492BF03083120313CC004C088604861BD0
:1006A000522B532B582B83160313E901E90A582BBD
:1006B000831603136908031D5E2B492B602B602BE7
:1006C0000A128A1196200A128A110A128A11BE256C
:1006D0000A128A11080083120313A000782BE83055
:1006E000F0000330F1000A128A1596250A128A11C9
:1006F0000A128A1519270A128A110038031D812B44
:10070000822B6F2B832B0F30831203130605FC0003
:100710002008F0397C0786000A30F2000030F30030
:100720000A128A1538260A128A110F30831203130F
:100730000605FC002008FD0003300310FD0DFF3E00
:10074000031D9D2B03107D0D7C0786000A30F200EF
:100750000030F3000A128A1538260A128A11013075
:10076000FC007C0883120313E3076308103A031D9F
:10077000BA2BBB2BC32BF90101300A128A1579263B
:100780000A128A11C32B831203136308203A031D34
:10079000CA2BCB2BD32BF90100300A128A157926EC
:1007A0000A128A11D32B0800F601F11FD82BD92B7E
:1007B000E12BF009F109F00A0319F10AF601F60A32
:1007C000E12BF31FE42BE52BEF2BF209F309F20ADF
:1007D0000319F30A0130F4007408F606EF2BF70151
:1007E000F801710870040319F62BF72B342CF5016E
:1007F000F50A062C01300310F00DF10DFF3E031D2C
:10080000FB2B0130F4007408F507062CF11F092CAE
:100810000A2CFA2B0C2C0C2C01300310F70DF80DC0
:10082000FF3E031D0D2C71087302031D192C700867
:100830007202031C1C2C1D2C252C7008F20271085E
:10084000031CF303F3027714252C01300310F10C81
:10085000F00CFF3E031D262C0130F502031D312C48
:10086000322C0C2C342C342C7608031D382C3E2CC6
:10087000F709F809F70A0319F80A3E2C7808F1017C
:10088000F1077708F001F007452C080083120313E5
:10089000C500253084009030A1000408A20020305B
:1008A000A3002108840083170008A400A10A2208DD
:1008B0008400831324088000A20AA30B512C20304B
:1008C000F0000030F1002030F2000030F30025305D
:1008D0000A128A1555260A128A1183120313C601B9
:1008E000C7014708803AFF0080307F02031D7A2C41
:1008F00008304602031C7D2C7E2C802CBA2CBA2C8E
:10090000831203134608A10021074507A20022080D
:10091000840083130008303EA3004608A400240787
:10092000253E8400230880004608A10021072007F7
:10093000A200220884000008303EA3004608A4005C
:100940002407103E253E8400230880000130C6079E
:100950000318C70A0030C7074708803AFF008030F5
:100960007F02031DB52C08304602031CB82CB92C9D
:10097000802CBA2C25300A128A159E260A128A115A
:10098000080083120313AD002130A3002308A60042
:10099000A42D2E08253A0319CE2CCF2CDB2C2E08A3
:1009A000A3002D0884002308831380000130A300D6
:1009B0002308AD07A42DA701E22CB82DF72CF72CA6
:1009C000A42DF72C0130A007FF30200784000A1265
:1009D0008A110D200A128A11AE00003A0319B82DAF
:1009E000643A0319F72C0D3A0319F72CA42D2608A5
:1009F000840083130008A900840A0008AA000230BA
:100A0000A3002308A607AA1F062D072D112D0330CA
:100A1000A3002308A704A909AA09A90A0319AA0A75
:100A2000112DAE01AE0A2E08053A031D182D192D01
:100A30001B2D432D432D2E08A3002307013E8400C8
:100A40000A128A110D200A128A11A4000A128A11B0
:100A50000D200A128A11A50025082A02031D322D35
:100A6000240829020318352D362D382D432D432D0A
:100A70000130A3002308AE072E08053A031D412DBF
:100A8000422D1B2D432D270803390319482D492DCD
:100A9000552D2D30A3002D088400230883138000DA
:100AA0000130A3002308AD07552D2E08A30023080D
:100AB000A800982D0A30F8000030F9002808A3009B
:100AC0002307013E84000A128A110D200A128A119E
:100AD000F0000A128A110D200A128A11F1002A0868
:100AE000F301F3072908F201F2070A128A116C22B6
:100AF0000A128A117108FB01FB077008FA01FA0754
:100B00000A128A114F210A128A117808303E831284
:100B10000313A4002408AE002E08A3002D088400AF
:100B20002308831380000130A3002308AD07982D0C
:100B3000FF30A3002308A8072808FF3A031DA12DB2
:100B4000A22D5A2DA42DA42D0130A007FF3020077F
:100B500084000A128A110D200A128A11A3002308A8
:100B6000AE00AE08031DB52DB62DC92CB82DB82D7D
:100B70002D08840083138001BD2D0800B03084004F
:100B8000503083120313C8000408C9001030CA0093
:100B90004808840083130008CB00C80A4908840071
:100BA0004B088000C90ACA0BC82DA0308400D03081
:100BB000C8000408C9001030CA0048088400831720
:100BC0000008CB00C80A4908840083134B08800042
:100BD000C90ACA0BDD2D83160313C601C701C8015C
:100BE000F12D310883120313B001B00783160313EC
:100BF000300883120313AF01AF070030B10000309B
:100C0000B2000030B3000030B4000A128A159F27EA
:100C10000A128A1183160313C601C701C8014808C6
:100C2000803AFF0080307F02031D182E08304702F3
:100C3000031C1B2E1C2E1F2ECD2ECD2E1F2EF03052
:100C400083120313C80048088604061A282E292E8A
:100C5000922E83160313470883120313C800480714
:100C6000B03E840083130008C900840A0008CA004B
:100C7000093049064A0403193E2E3F2E5B2E831687
:100C80000313470883120313C8004807B03E8400CB
:100C900001308007840F00080318000AFF000030AD
:100CA0007F0780008403000883160313C400840AAE
:100CB0000008C500602E83160313C401C501602E11
:100CC000470883120313C8004807B03E8400831608
:100CD000031344088000840A4508800047088312F3
:100CE0000313C8004807B03E84000008AF00840A20
:100CF0000008B00083160313480883120313B201DF
:100D0000B20783160313470883120313B101B10717
:100D10000030B3000030B4000A128A159F270A126F
:100D20008A11922EF03083120313C80048088604FB
:100D3000861B9B2E9C2EB22E83160313470883120C
:100D40000313C8004807023EC9004908F9000030F3
:100D50000A128A1579260A128A1183160313C6010C
:100D6000C60AB22E831603134608031DB82E1F2E83
:100D7000C6010130C7070318C80A0030C807480871
:100D8000803AFF0080307F02031DC82E08304702E2
:100D9000031CCB2ECC2E1F2ECD2E83160313C70182
:100DA000C8014808803AFF0080307F02031DDA2E18
:100DB00008304702031CDD2EDE2EE02E542F542F68
:100DC00083160313470883120313C8004807B03E75
:100DD000840083130008C900840A0008CA00491C63
:100DE000F22EF32E102F83160313470883120313DA
:100DF000C8004807B03E84000008C900840A000803
:100E0000CA0083160313470883120313CB004B0752
:100E1000A03E840049088000840A4A088000192FF7
:100E2000013083160313C2070318C30A0030C30737
:100E3000192F83160313470883120313C8004807AA
:100E4000A03E84000008AF00840A0008B0008316AA
:100E50000313480883120313B201B2078316031366
:100E6000470883120313B101B1070130B30000300A
:100E7000B4000A128A159F270A128A1101308316BC
:100E80000313C7070318C80A0030C8074808803A88
:100E9000FF0080307F02031D4F2F08304702031CE4
:100EA000522F532FE02E542F0A3083160313C00005
:100EB0000030C100083042064304031D602F612F3B
:100EC0007E2F692F692F0A128A11D0200A128A11E7
:100ED000692FFF3083160313C0070318C10AFF30C0
:100EE000C107FF304106031D772FFF304006031D69
:100EF0007A2F7B2F632F7E2F7E2F7E2FF030831251
:100F00000313C80048088604861B872F882F8A2F62
:100F1000AE2FAE2FF030C80048088604061B912F74
:100F2000922F7E2FA030C8004808A000B0300A12CF
:100F30008A1146240A128A110A128A1196200A126C
:100F40008A112C3083120313A1008030A2000A12F0
:100F50008A15EF260A128A117E2F7E2F0A128A1115
:100F600096200A128A1183160313C701C801480884
:100F7000803AFF0080307F02031DC02F08304702F7
:100F8000031CC32FC42FC62FF92FF92F8316031369
:100F9000470883120313C8004807B03E840000309E
:100FA00083138000840A00308000831603134708EF
:100FB00083120313C8004807A03E8400003080005D
:100FC000840A00308000013083160313C70703181A
:100FD000C80A0030C8074808803AFF0080307F0206
:100FE000031DF42F08304702031CF72FF82FC62FDC
:100FF000F92F83160313C201C301F12DF12D08004F
:101A1C0064008001840A04060319003404060F2DA7
:101A2C000A128A1537250A128A150A128A155125A7
:101A3C000A128A1508000A128A1544250A128A15F8
:101A4C000A128A1516250A128A1508000A128A111A
:101A5C004D200A128A150A128A1516250A128A15A1
:101A6C0008008312031387150530F0000030F100D5
:101A7C000A128A1596250A128A1508008316031372
:101A8C0007160530F0000030F1000A128A15962571
:101A9C000A128A150800F730F20072088312031339
:101AAC0087050530F0000030F1000A128A159625E2
:101ABC000A128A1508000A128A15CF270A128A15EB
:101ACC00F6007608F7000A128A152C250A128A15D8
:101ADC007708702D0800A030F000700883120313F3
:101AEC00E6009B308316031387008312031307123F
:101AFC00831603138711071208007E088A007F08DB
:101B0C0082000A128A1583250A128A158000840A1B
:101B1C0004087D0603190034FF0A0319FE0A872DF9
:101B2C00982D982D0130F0020030031CF103F102C6
:101B3C00FF307106031DA42DFF307006031DA72D69
:101B4C00A82D982DA92D08000A128A15CF270A1244
:101B5C008A15F6007608F7000A128A1521250A1252
:101B6C008A150A128A15E9250A128A15BD2D080054
:101B7C000A128A1544250A128A150A128A15372563
:101B8C000A128A150A128A114D200A128A150A1293
:101B9C008A1551250A128A1508000A128A1537254A
:101BAC000A128A1583120313071EDD2DDE2DE12D7B
:101BBC00E201E20AE32DE201E32D0A128A15512516
:101BCC000A128A1508000A128A114D200A128A1567
:101BDC000A128A1551250A128A150A128A153725F6
:101BEC000A128A150A128A1544250A128A150A1233
:101BFC008A1551250A128A1508007A08F701F70789
:101C0C007908F601F6070A128A11D6210A128A15EA
:101C1C000A128A15BE250A128A158312031366143A
:101C2C0066080A128A1163200A128A150800F0301D
:101C3C00831203138600F0308316031386000A12F6
:101C4C008A1571250A128A150A128A1192210A1212
:101C5C008A150A128A1108230A128A15352E0A12BD
:101C6C008A1100288312031306157308F101F1077A
:101C7C007208F001F0070A128A1596250A128A15C5
:101C8C008312031306117308F101F1077208F001B6
:101C9C00F0070A128A1596250A128A150800F50013
:101CAC007508F4007408F600672E7008F4007608C6
:101CBC0084007408831380000130F4007408F60764
:101CCC00672E0130F2020030031CF303F302FF30E5
:101CDC007306031D732EFF307206031D762E772EAE
:101CEC005B2E782E0800FB00FB08031D7E2E7F2E3A
:101CFC008D2E7908FA007A0883120313E300790811
:101D0C00803E0A128A11B9220A128A159D2E790870
:101D1C00103EFA007A0883120313E3007908C03EE0
:101D2C000A128A11B9220A128A159D2E9D2E0800BC
:101D3C00FD000030F6000030F7000A128A11D6219F
:101D4C000A128A15B72E7D088400831300080A1224
:101D5C008A156F270A128A150130FC007C08FD07D2
:101D6C00B72E7D08840083138008031DBE2EBF2E62
:101D7C00A92EC02E0A128A15E9250A128A15080006
:101D8C0083135030840066300A128A150E250A120D
:101D9C008A158317D0308400E0300A128A150E257C
:101DAC000A128A15D030FD000130FE000F30FF0002
:101DBC00903084000A128A1587250A128A150A1295
:101DCC008A114C200A128A15E70083010A128A151F
:101DDC001D2E072F831203132208FF0021088400F5
:101DEC000A128A1103200A128A150A128A116B230D
:101DFC000A128A15013083120313A1070318A20AD1
:101E0C00072F831203132208FF00210884000A12F3
:101E1C008A1103200A128A150038031D162F172F5A
:101E2C00F02E182F0800831203130608F000700818
:101E3C00F200831603130608F0007008F3000F304D
:101E4C00F00070088605F030F00070088312031360
:101E5C0086040609F0007008F10072088600730809
:101E6C008316031386007108F00004300310F00C85
:101E7C00FF3E031D3C2F7008432F080083120313F1
:101E8C00A501A4010B30A1008030A2000A128A1512
:101E9C00EF260A128A15522FF03083120313A30077
:101EAC0023088604061A5B2F5C2F602FA401A40A5A
:101EBC00A501A50A861A632F642F672FA501A50A11
:101ECC00672F2508031D6B2F522F6C2F24086E2FA4
:101EDC000800FB007B080A128A1163200A128A157B
:101EEC00013083120313E0070318E10A0030E10705
:101EFC003F306005F90000306105FA007A0879047A
:101F0C000319892F8A2F8C2F9E2F9E2F0A128A1528
:101F1C00E9250A128A15831203136108F701F707E2
:101F2C006008F601F6070A128A11D6210A128A15E0
:101F3C000800831203136708B5003508B700373063
:101F4C00B5003508A0003008A201A2072F08A10196
:101F5C00A10737300A128A11C1240A128A1583127A
:101F6C0003133108B5003507B6003608F9003308FD
:101F7C000A128A1579260A128A153730831203132E
:101F8C00A1000030A2000A128A15EF260A128A1547
:101F9C000800F5010830F3007308F4000A128A15E2
:101FAC0044250A128A15F42F7508F3007308F507F7
:101FBC000A128A1537250A128A1583120313071E73
:101FCC00E82FE92FEE2F0130F3007308F507EE2F01
:101FDC000A128A1551250A128A15F42F0130F402BF
:101FEC007408FF3A031DFB2FFC2FDA2FFD2F750809
:041FFC00FF2F0800AB
:02400E003AFF77
:00000001FF
