:100000000A128A110B29FF1B0D2883137F188317EF
:100010000008840A0319FF0A080000308A00040857
:10002000840A820700340134003410340034003470
:10003000013400341034553473346534203445347D
:100040004534503452344F344D343F34203420340E
:10005000203420342034423431342034593445346F
:100060005334203420342034203420344234323489
:1000700020344E344F34003430343134323433345D
:1000800034343534363437343834393461346234C6
:1000900063346434653466340034203420342034CE
:0E00A0002034203420340034253478340034E9
:1000B0008312031306157308F101F1077208F001AA
:1000C000F0070A128A151F260A128A1183120313D7
:1000D00006117308F101F1077208F001F0070A1226
:1000E0008A151F260A128A110800F5010830F3004C
:1000F0007308F4000A128A15CD250A128A119A286B
:100100007508F3007308F5070A128A15C0250A124C
:100110008A1183120313071E8E288F28942801301A
:10012000F3007308F50794280A128A15DA250A12D3
:100130008A119A280130F4027408FF3A031DA1289D
:10014000A2288028A3287508A52808008312031375
:100150006408B1006308B0006208AF006108AE0037
:100160004230AD002D08F8002B08FA01FA072A08E2
:10017000F901F9072C080A128A11AA240A128A1115
:10018000063083120313AD002D08F90000300A1267
:100190008A1503270A128A11831203132C08A1005F
:1001A0000030A2000A128A1550270A128A1108008C
:1001B000F5000830F3007308F400F728F51FE12874
:1001C000E228E8280A128A15CD250A128A11ED289C
:1001D0000A128A1572260A128A110A128A159F2596
:1001E0000A128A117508F3007308F507F728013021
:1001F000F4027408FF3A031DFE28FF28DE280029B8
:100200000A128A15CD250A128A110A128A155C264D
:100210000A128A110800DB01DC01DD01DE01DF01C9
:10022000E0018317E030FD000330FE002430FF00C2
:10023000903084000A128A1510260A128A1183133C
:10024000E230FD000D30FE009730FF00DE3084000C
:100250000A128A1510260A128A116530FD000D3027
:10026000FE009B30FF00613084000A128A151026C0
:100270000A128A1183010A128A15DF2EF30073080D
:10028000F2007208F40049290130F2007208F40704
:1002900049297408840083138008031D50295129BB
:1002A00044295C295C290130F2007208F40701300E
:1002B000F0070318F10A5C29710883120313FF0089
:1002C000700884000A128A1103200A128A11F200AF
:1002D000740884007208831380008008031D71294C
:1002E000722953297329080083120313A4012030B3
:1002F0002402031C7C297D297F29AD29AD292408EE
:100300000F39A1002108F9001030F0000030F10091
:100310002408A200A3012208F2002308F3000A1215
:100320008A1138240A128A1170080A128A150327C2
:100330000A128A1120300A128A11CF230A128A1156
:10034000013083120313A1002108A40720302402E6
:10035000031CAB29AC297F29AD290800E830F00047
:100360000330F1000A128A151F260A128A11831619
:100370000313860130308312031386002C30F20001
:100380000130F3000A128A1158200A128A11203013
:100390008312031386006430F2000030F3000A1267
:1003A0008A1158200A128A1128300A128A11D5227D
:1003B0000A128A110D300A128A11D5220A128A11E4
:1003C00006300A128A11D5220A128A1102300A1244
:1003D0008A11D5220A128A1183120313DE01F0302A
:1003E00086000800770883120313DC01DC07760817
:1003F000DB01DB07FB290A128A1547260A128A113C
:10040000FE30F800780883120313E50565080A1228
:100410008A11D8200A128A11831203135D08031D62
:10042000122A182A0A128A1588260A128A11FB290A
:1004300077080A128A11D8200A128A11831203132C
:100440005D08031D242A2A2A0A128A1588260A1200
:100450008A11FB2976080A128A11D8200A128A11F9
:10046000831203135D08031D362A3C2A0A128A15DB
:1004700088260A128A11FB29080083120313A000A0
:100480000030F9000030FA000A128A15A2260A127A
:100490008A1183120313A101A201A101A201220862
:1004A000803AFF0080307F02031D582A203021024D
:1004B000031C5B2A5C2A5E2A822A822A0A128A1577
:1004C000EA250A128A11FB00831203132108200770
:1004D000FC007C0884007B08831380000130A107A6
:1004E0000318A20A0030A2072208803AFF008030D9
:1004F0007F02031D7D2A20302102031C802A812ACD
:100500005E2A822A0A128A1533260A128A110800E4
:10051000F501F6017108700403198F2A902ACD2A7B
:10052000F701F70A9F2A01300310F00DF10DFF3E8D
:10053000031D942A0130F4007408F7079F2AF11F65
:10054000A22AA32A932AA52AA52A01300310F50D71
:10055000F60DFF3E031DA62A71087302031DB22A81
:1005600070087202031CB52AB62ABE2A7008F2026D
:100570007108031CF303F3027514BE2A0130031043
:10058000F10CF00CFF3E031DBF2A0130F702031DE2
:10059000CA2ACB2AA52ACD2ACD2A7608F101F1074D
:1005A0007508F001F007D42A0800F600E02AE830C8
:1005B000F0000330F1000A128A151F260A128A1170
:1005C0000A128A157A270A128A110038031DE92AAD
:1005D000EA2AD72A8312031386100F300605F40087
:1005E0007608F039740786006430F2000030F300BA
:1005F0000A128A1158200A128A110F30831203132B
:100600000605F4007608F50003300310F50DFF3EF3
:10061000031D052B0310750D740786006430F2006E
:100620000030F3000A128A1158200A128A1183122C
:1006300003138614E830F0000330F1000A128A1523
:100640001F260A128A1108002034003400340034B6
:1006500000340034003400340034003400340034FA
:1006600000340034003400340034003400340034EA
:1006700000340034003400340034003400340034DA
:1006800000340034003400342034003400340034AA
:1006900000340034003400340034003400340034BA
:1006A00000340034003400340034003400340034AA
:1006B000003400340034003400340034003400349A
:1006C000003400340034003420340034003400346A
:1006D000003400340034003400340034003400347A
:1006E000003400340034003483120313DA010A1298
:1006F0008A15A5270A128A11003A0319802B812B2B
:10070000C82B3A308400903083120313B6000408DB
:10071000B7002030B8003608840083170008B900FD
:10072000B60A37088400831339088000B70AB80B6B
:100730008B2B3A300A128A113D220A128A110A12B0
:100740008A1174210A128A113A3083120313A1000C
:100750000030A2000A128A1550270A128A11B02B03
:10076000F03083120313B60036088604861BB92BBB
:10077000BA2BBD2BDA01DA0ABD2B5A08031DC12B97
:10078000B02BC22B0A128A117E250A128A11CE2B97
:100790000A128A117E250A128A11CE2B08008312B2
:1007A0000313A000DC2BE830F0000330F1000A1244
:1007B0008A151F260A128A110A128A157A270A1226
:1007C0008A110038031DE52BE62BD32BE72B0F30C6
:1007D000831203130605FC002008F0397C0786000D
:1007E0000A30F2000030F3000A128A1158200A126F
:1007F0008A110F30831203130605FC002008FD0048
:1008000003300310FD0DFF3E031D012C03107D0D71
:100810007C0786000A30F2000030F3000A128A11C9
:1008200058200A128A110130FC007C08831203133D
:10083000DE075E08103A031D1E2C1F2C272CF90121
:1008400001300A128A1503270A128A11272C8312F3
:1008500003135E08203A031D2E2C2F2C372CF90190
:1008600000300A128A1503270A128A11372C080051
:10087000F601F11F3C2C3D2C452CF009F109F00A42
:100880000319F10AF601F60A452CF31F482C492CEE
:10089000532CF209F309F20A0319F30A0130F400A8
:1008A0007408F606532CF701F80171087004031957
:1008B0005A2C5B2C982CF501F50A6A2C0130031098
:1008C000F00DF10DFF3E031D5F2C0130F4007408A4
:1008D000F5076A2CF11F6D2C6E2C5E2C702C702C81
:1008E00001300310F70DF80DFF3E031D712C710848
:1008F0007302031D7D2C70087202031C802C812C56
:10090000892C7008F2027108031CF303F3027714B8
:10091000892C01300310F10CF00CFF3E031D8A2CD2
:100920000130F502031D952C962C702C982C982CD8
:100930007608031D9C2CA22CF709F809F70A031965
:10094000F80AA22C7808F101F1077708F001F00706
:10095000A92C080083120313A8007930FB007B0840
:10096000A200642D2908253A0319B72CB82CC42CF1
:100970002908FB00280884007B08831380000130CD
:10098000FB007B08A807642DA001CA2C782DDC2C65
:10099000642DDC2C0130F807FF30780784000A1240
:1009A0008A110D200A128A11A900003A0319782D24
:1009B000783A0319DC2C642D220884000008A30077
:1009C000840A0008A4000230FB007B08A207A901EA
:1009D000A90A2908043A031DEE2CEF2CF12C192D3D
:1009E000192D2908FB007B07013E84000A128A1199
:1009F0000D200A128A11FC000A128A110D200A1217
:100A00008A11FD007D082402031D082D7C082302A5
:100A100003180B2D0C2D0E2D192D192D0130FB0057
:100A20007B08A9072908043A031D172D182DF12C5E
:100A3000192D2908FB007B08A700582D2708FB006B
:100A40007B07013E84000A128A110D200A128A11C6
:100A5000F0000A128A110D200A128A11F1002408EE
:100A6000F301F3072308F201F2070A128A11882220
:100A70000A128A1170080F39FC007C0883120313D4
:100A8000A10021082A3E84000A128A110D200A12B0
:100A90008A11FB007B08A9002908FB0028088400B4
:100AA0007B08831380000130FB007B08A807582DCA
:100AB000FF30FB007B08A7072708FF3A031D612DC5
:100AC000622D1E2D642D642D0130F807FF3078074C
:100AD00084000A128A110D200A128A11FB007B0879
:100AE000A900A908031D752D762DB22C782D782D1F
:100AF00028088400831380017D2D08000A128A11C2
:100B000074210A128A1183160313DA01DB01D20160
:100B1000A0308400B03083120313B2000408B30085
:100B20002030B4003208840083170008B500B20AF0
:100B300033088400831335088000B30AB40B922D68
:100B4000831603136108D6006008D5005F08D4003F
:100B50005E08D300D701DC01DD010030D800803011
:100B6000D900C0308400D03083120313B2000408CF
:100B7000B3001030B4003208840083170008B500B9
:100B8000B20A33088400831335088000B30AB40B1B
:100B9000BB2DCA2D83160313D2015B0883120313E6
:100BA000AB01AB07831603135A0883120313AA0180
:100BB000AA07D330B2003208AC000A128A11A6206C
:100BC0000A128A1183160313DC01DD015D08803AE5
:100BD000FF0080307F02031DEF2D0F305C02031CED
:100BE000F22DF32DF52D192E192E2030831203131B
:100BF000B200831603135C08C03E84008312031303
:100C0000320883138000013083160313DC070318B6
:100C1000DD0A0030DD075D08803AFF0080307F028A
:100C2000031D142E0F305C02031C172E182EF52DF9
:100C3000192E83160313DC01DD015D08803AFF00E5
:100C400080307F02031D262E04305C02031C292EF7
:100C50002A2E2C2E512E512E203083120313B20037
:100C6000831603135C08D33E8400831203133208F7
:100C700083138000013083160313DC070318DD0A99
:100C80000030DD075D08803AFF0080307F02031DE1
:100C90004B2E04305C02031C4E2E4F2E2C2E512E58
:100CA000512EF03083120313B20032088604061A64
:100CB0005A2E5B2E7D2E013083160313DA0703189C
:100CC000DB0A0030DB075B0883120313AB01AB07C1
:100CD000831603135A0883120313AA01AA07D330F9
:100CE000B2003208AC000A128A11A6200A128A1138
:100CF00083160313D701D70A7D2EF0308312B2007A
:100D000032088604861A852E862EA82E0F3083166A
:100D10000313DA070318DB0A0030DB075B088312D2
:100D20000313AB01AB07831603135A088312031393
:100D3000AA01AA07D330B2003208AC000A128A1105
:100D4000A6200A128A1183160313D701D70AA82EE8
:100D5000F0308312B20032088604061BB02EB12E8A
:100D6000D32EFF3083160313DA070318DB0A003093
:100D7000DB075B0883120313AB01AB078316031376
:100D80005A0883120313AA01AA07D330B20032080B
:100D9000AC000A128A11A6200A128A1183160313C4
:100DA000D701D70AD32EF0308312B200320886045E
:100DB000831603135B08803AFF008F307F02031D08
:100DC000E32EFF305A02031CE62EE72EEC2E83168C
:100DD0000313D201D20AEC2E831603135708031D06
:100DE000F22EFE2E83120313861BF72EF82EFE2EF4
:100DF00083160313D201D20AFE2EFE2E831603138E
:100E00005208031D042F512E052FDC01DD015D0862
:100E1000803AFF0080307F02031D102F10305C02EB
:100E2000031C132F142F162F652F652F8316031302
:100E300059085B02031D1E2F58085A02031C212F5C
:100E4000222F392F313083120313B200831603137C
:100E50005C08C03E840083120313320883138000B1
:100E6000831603135808DA025908031CDB03DB025C
:100E7000482F303083120313B200831603135C082B
:100E8000C03E840083120313320883138000482F6E
:100E90000130831603130310D90CD80CFF3E031D39
:100EA0004B2F0130DC070318DD0A0030DD075D0839
:100EB000803AFF0080307F02031D602F10305C02FB
:100EC000031C632F642F162F652FF90101300A12BE
:100ED0008A1503270A128A11C03083120313A10056
:100EE0000030A2000A128A1550270A128A11782FA0
:100EF000F03083120313B20032088604861B812F60
:100F0000822F782F3B30B2003208F000A0300A1256
:100F10008A15BC260A128A11D330F0000030F10085
:100F2000A0300A128A113E210A128A118316031375
:100F3000DC01DD01A22F0130DC070318DD0A0030DF
:100F4000DD07A22F5C08D33E840083138008031DB5
:100F5000AA2FAB2F9B2FAC2F0A30D0000030D1002E
:100F6000C42F4030F0008030F100A0300A128A1106
:100F70003E210A128A11FF3083160313D00703188B
:100F8000D10AFF30D107C42F5D08803A83120313C2
:100F9000B200831603135108803A831203133202FE
:100FA000031DD62F8316031350085C02031CD92F90
:100FB000DA2FB12FDB2FC030F0000030F100A0306D
:100FC0000A128A113E210A128A11A0300A128A15C9
:100FD00028270A128A11ED2F782F83160313DA01BE
:100FE000DB010030D8008030D9000A128A11742148
:100FF0000A128A1183160313D701CA2DCA2D0800BD
:101B2E0020340034003400342034003400340034C7
:101B3E000A128A15C0250A128A150A128A15DA2582
:101B4E000A128A1508000A128A15CD250A128A155C
:101B5E000A128A159F250A128A1508000A128A157A
:101B6E0072260A128A150A128A159F250A128A15DA
:101B7E0008008312031387150530F0000030F100C2
:101B8E000A128A151F260A128A15080083160313D5
:101B9E0007160530F0000030F1000A128A151F26D4
:101BAE000A128A150800F730F20072088312031326
:101BBE0087050530F0000030F1000A128A151F2645
:101BCE000A128A1508000A128A1175200A128A153D
:101BDE00F6007608F7000A128A15B5250A128A153C
:101BEE007708F92D0800A030F00070088312031357
:101BFE00E5009B308316031387008312031307122D
:101C0E00831603138711071208007E088A007F08C7
:101C1E0082000A128A150C260A128A158000840A7E
:101C2E0004087D0603190034FF0A0319FE0A102E5C
:101C3E00212E212E0130F0020030031CF103F1029F
:101C4E00FF307106031D2D2EFF307006031D302E42
:101C5E00312E212E322E08000A128A1175200A12F8
:101C6E008A15F6007608F7000A128A15AA250A12B6
:101C7E008A150A128A1588260A128A15462E080017
:101C8E000A128A15CD250A128A150A128A15C0253E
:101C9E000A128A150A128A1572260A128A150A1251
:101CAE008A15DA250A128A1508000A128A15C02525
:101CBE000A128A1583120313071E662E672E6A2ECA
:101CCE00DD01DD0A6C2EDD016C2E0A128A15DA2575
:101CDE000A128A150800EF30F200720883120313FD
:101CEE008705EF30F200720883160313870505305F
:101CFE00F0000030F1000A128A151F260A128A150A
:101D0E0008000A128A1572260A128A150A128A15F4
:101D1E00DA250A128A150A128A15C0250A128A15A0
:101D2E000A128A15CD250A128A150A128A15DA2583
:101D3E000A128A1508007A08F701F7077908F601E2
:101D4E00F6070A128A11F2210A128A150A128A1548
:101D5E0047260A128A1583120313651465080A12A0
:101D6E008A11D8200A128A150800F2007208F100B2
:101D7E007108F300CB2E0130F1007108F30701302A
:101D8E00F1007108F007CB2E700884000A128A1138
:101D9E000D200A128A15F10073088400710883134E
:101DAE0080008008031DDC2EDD2EC22EDE2E0800E4
:101DBE00F030831203138600F0308316031386006F
:101DCE0088018312031388010A128A15FA250A1252
:101DDE008A150A128A11AE210A128A150A128A115E
:101DEE0074210A128A150A128A1174230A128A158C
:101DFE00002F0A128A110028FB00FB08031D082F72
:101E0E00092F172F7908FA007A0883120313DE00C0
:101E1E007908803E0A128A11D5220A128A15272FB6
:101E2E007908103EFA007A0883120313DE0079084F
:101E3E00C03E0A128A11D5220A128A15272F272F81
:101E4E000800FD000030F6000030F7000A128A117B
:101E5E00F2210A128A15412F7D088400831300088F
:101E6E000A128A15D0270A128A150130FC007C0846
:101E7E00FD07412F7D08840083138008031D482F22
:101E8E00492F332F4A2F0A128A1588260A128A15CD
:101E9E000800682F831203132208FF002108840014
:101EAE000A128A1103200A128A150A128A11CF23E6
:101EBE000A128A15013083120313A1070318A20A0E
:101ECE00682F831203132208FF00210884000A12D0
:101EDE008A1103200A128A150038031D772F782FD6
:101EEE00512F792F0800831203130608F000700893
:101EFE00F200831603130608F0007008F3000F308B
:101F0E00F00070088605F030F0007008831203139D
:101F1E0086040609F0007008F10072088600730846
:101F2E008316031386007108F00004300310F00CC2
:101F3E00FF3E031D9D2F7008A42F0800831203136C
:101F4E00A501A4010930A1008030A2000A128A1551
:101F5E0050270A128A15B32FF03083120313A300F1
:101F6E0023088604061ABC2FBD2FC12FA401A40A74
:101F7E00A501A50A861AC42FC52FC82FA501A50A2B
:101F8E00C82F2508031DCC2FB32FCD2F2408CF2FFC
:101F9E000800FB007B080A128A11D8200A128A1543
:101FAE00013083120313DB070318DC0A0030DC0751
:101FBE003F305B05F90000305C05FA007A087904C1
:101FCE000319EA2FEB2FED2FFF2FFF2F0A128A1581
:101FDE0088260A128A15831203135C08F701F70785
:101FEE005B08F601F6070A128A11F2210A128A1507
:021FFE000800D9
:02400E003AFF77
:00000001FF
