:100000000A128A158F2FFF1B0D2883137F18831761
:100010000008840A0319FF0A080000308A00040857
:10002000840A8207003455347334653420344534EF
:100030004534503452344F344D343F34203420341E
:10004000203420342034423431342034593445347F
:100050005334203420342034203420344234323499
:1000600020344E344F3400342034203420342034B3
:10007000203453344134563445344434203420340D
:1000800020342034203420340034203420342034F0
:10009000533459344D344D34453454345234493446
:1000A00043342034203420342034003420342034AD
:1000B00020344134533459344D344D344534543460
:1000C0005234493443342034203420340034203432
:1000D0002034203420342034203420342034203480
:1000E0002034203420342034203420342034003490
:10010200203400340034003400340034003400342D
:10011200003400340034003400340034003400343D
:10012200003400340034003400340034003400342D
:10013200003400340034003400340034003400341D
:10014200F900F908031DA628A728B5287708F800A2
:10015200780883160313E8007708803E0A128A1192
:1001620029230A128A11C5287708103EF800780858
:1001720083160313E8007708C03E0A128A11292366
:100182000A128A11C528C5280800F70100300A1290
:100192008A11A1200A128A11553083120313A0007A
:1001A2008030A1000A128A1113210A128A115530D5
:1001B20083120313A0008030A1000A128A111321B6
:1001C2000A128A11F70100300A128A11A1200A12BA
:1001D2008A110800FD000030F6000030F7000A1214
:1001E2008A1193220A128A1104297D08840083133A
:1001F20000080A128A11C0210A128A110130FC0079
:100202007C08FD0704297D08840083138008031DF0
:100212000B290C29F6280D290A128A155B270A12C6
:100222008A1108002B29831203132108FF002008DA
:1002320084000A128A1103200A128A110A128A11F0
:10024200D7240A128A11013083120313A00703185C
:10025200A10A2B29831203132108FF00200884001E
:100262000A128A1103200A128A110038031D3A2940
:100272003B2914293C290800831203130608F000C5
:100282007008F200831603130608F0007008F300EA
:100292000F30F00070088605F030F000700883120D
:1002A200031386040609F0007008F1007208860044
:1002B20073088316031386007108F00004300310DC
:1002C200F00CFF3E031D60297008672908008312A5
:1002D2000313A301A2010130A0008030A1000A1281
:1002E2008A1113210A128A117629F030FD007D0845
:1002F200831203138604061A7F2980298429A20106
:10030200A20AA301A30A861A872988298B29A30195
:10031200A30A8B292308031D8F29762990292208F5
:1003220092290800F2007208F1007108F3009E2978
:100332000130F1007108F3079E29730884008313CA
:100342008008031DA529A6299929B129B1290130BF
:10035200F1007108F3070130F1007108F007B129CB
:10036200700884000008F10073088400710880009E
:100372008008031DBD29BE29A829BF290800FB004A
:100382007B080A128A1121220A128A11013083166D
:100392000313E5070318E60A0030E6073F30650558
:1003A200F90000306605FA007A0879040319DA299F
:1003B200DB29DD29EF29EF290A128A155B270A12A8
:1003C2008A11831603136608F701F7076508F60119
:1003D200F6070A128A1193220A128A110800F501FD
:1003E2000830F3007308F4000A128A1588260A12EC
:1003F2008A11152A7508F3007308F5070A128A157F
:100402007B260A128A1183120313071E092A0A2A5B
:100412000F2A0130F3007308F5070F2A0A128A1512
:1004220095260A128A11152A0130F4027408FF3A3D
:10043200031D1C2A1D2AFB291E2A7508202A0800D2
:10044200F5000830F3007308F400402AF51F2A2A49
:100452002B2A312A0A128A1588260A128A11362A6A
:100462000A128A152B270A128A110A128A155A268B
:100472000A128A117508F3007308F507402A013041
:10048200F4027408FF3A031D472A482A272A492AF8
:100492000A128A1588260A128A110A128A15412717
:1004A2000A128A110800831603130608F200720862
:1004B200F300831203130608F2007208F400831695
:1004C20003138611A030F2007208F500812A83120C
:1004D200031386156E30F0000030F1000A128A15FF
:1004E200D8260A128A118312031386116E30F00085
:1004F2000030F1000A128A15D8260A128A11812ABE
:100502000130F5027508FF3A031D882A892A682AF4
:100512008A2A74088312031386007308831603134E
:1005220086000800770883160313E601E6077608BB
:10053200E501E5079C2A0A128A1500270A128A1188
:10054200FE30F800780883160313EB056B080A12D5
:100552008A1121220A128A11831603136708031DC6
:10056200B32AB92A0A128A155B270A128A119C2A0F
:1005720077080A128A1121220A128A11831603139A
:100582006708031DC52ACB2A0A128A155B270A129D
:100592008A119C2A76080A128A1121220A128A11C9
:1005A200831603136708031DD72ADD2A0A128A1548
:1005B2005B270A128A119C2A080083120313A000E7
:1005C2000030F9000030FA000A128A1575270A1263
:1005D2008A1183120313A101A201A101A20122081F
:1005E200803AFF0080307F02031DF92A2030210269
:1005F200031CFC2AFD2AFF2A232B232B0A128A150D
:10060200A5260A128A11FB00831203132108200770
:10061200FC007C0884007B08831780000130A1075E
:100622000318A20A0030A2072208803AFF00803095
:100632007F02031D1E2B20302102031C212B222BA3
:10064200FF2A232B0A128A15EC260A128A110800A5
:10065200F600342BE830F0000330F1000A128A155C
:10066200D8260A128A110A128A113D210A128A1107
:100672000038031D3D2B3E2B2B2B831203138610B8
:100682000F300605F4007608F039740786006430EE
:10069200F2000030F3000A128A15C4270A128A11E6
:1006A2000F30831203130605F4007608F5000330B9
:1006B2000310F50DFF3E031D592B0310750D740732
:1006C20086006430F2000030F3000A128A15C42753
:1006D2000A128A11831203138614E830F0000330E1
:1006E200F1000A128A15D8260A128A110800A030CF
:1006F200F0000F30F1000A128A15D8260A128A1168
:100702008316031386013030831203138600903060
:10071200F2000130F3000A128A15C4270A128A1164
:100722009030F2000130F3000A128A15C4270A122F
:100732008A119030F2000130F3000A128A15C427A0
:100742000A128A1120308312031386009030F200BD
:100752000130F3000A128A15C4270A128A112830BE
:100762000A128A1129230A128A110C300A128A11DA
:1007720029230A128A1106300A128A1129230A121F
:100782008A1102300A128A1129230A128A110800D8
:10079200F500F60110307602031CD02BD12BD32B9F
:1007A200F32BF32B2030F30076087107F400740862
:1007B20084007308831380007608F30073077507BB
:1007C200F40074088400FF308000840AFF30800047
:1007D2000130F3007308F60710307602031CF22B87
:1007E200F32BD32BF6010F307602031CF92BFA2BD5
:1007F200FC2B1D2C1D2C2030F30076087207F40010
:10080200740884007308831380007608F30073076A
:100812007007F40074088400FF308000840AFF30FF
:1008220080000130F3007308F6070F307602031CD4
:100832001B2C1C2CFC2B1D2C080083120313A00064
:1008420074087206031D272C73087106031D2A2CD7
:100852002B2C722CA301A4017208A201A207710819
:10086200A101A107662C2108F50075077007F600A3
:100872007608840083130008F700840A0008F80051
:100882002308F90079072007FA007A088400000893
:10089200FB00840A0008FC0078087C06031D532C28
:1008A20077087B060319562C572C5A2C0030772CCC
:1008B200772C0130A3070318A40A0030A4070130E3
:1008C200A1020030031CA203A20272082402031D2B
:1008D2006C2C71082302031C6F2C702C342C752C89
:1008E200752C0030772C772C0130772C080083167A
:1008F2000317B0010A128A11C6200A128A110A12BB
:100902008A1168210A128A11003A0319892C8A2C49
:10091200D12C90308400B13083160313E100040817
:10092200E2002030E3006108840083170008E4003D
:10093200E10A6208840064088000E20AE30B942C56
:1009420090300A128A11DE220A128A110A128A11C0
:10095200C6200A128A11903083120313A0000130BC
:10096200A1000A128A1113210A128A11B82CF0303E
:1009720083160313E1006108831203138604861BA6
:10098200C32CC42CC92C83160317B001B00AC92C7E
:10099200831603173008031DCF2CB82CD12CD12C71
:1009A2000A128A113E250A128A110800FC00E22C62
:1009B200E830F0000330F1000A128A15D8260A1234
:1009C2008A110A128A113D210A128A110038031D66
:1009D200EB2CEC2CD92CED2C0F30831203130605D3
:1009E200FA007C08F0397A0786000A30F2000030FB
:1009F200F3000A128A15C4270A128A110F308312D1
:100A020003130605FA007C08FB0003300310FB0DFC
:100A1200FF3E031D072D03107B0D7A0786000A3067
:100A2200F2000030F3000A128A15C4270A128A1152
:100A32000130FA007A0883160313E8076808103AAF
:100A4200031D242D252D2D2DF70101300A128A11A7
:100A5200A1200A128A112D2D831603136808203A49
:100A6200031D342D352D3D2DF70100300A128A1158
:100A7200A1200A128A113D2D080083160313DE01FC
:100A8200DE0A83120313EF01EB01EC01EC0A0A30D8
:100A9200E7000030E80083160313DF01E001831250
:100AA2000313ED01EE01E901EA01572D0A128A1141
:100AB200C6200A128A11C03083120313A50025082A
:100AC200F0004830A6002608F1005830A700270899
:100AD200F200A0300A128A11C9230A128A11712D5A
:100AE200F03083120313A50025088604061A7A2D16
:100AF2007B2D6A2E831603135E08031D812DF22DB2
:100B02005F0883120313A5002507A03E840001306D
:100B120083138007840A0318800A831603135F086D
:100B220083120313A5002507A03E84000008A60037
:100B3200840A0008A7002708803AFF0080307F025D
:100B4200031DA52D0A3026020318A82DA92DC02D9C
:100B5200831603135F0883120313A5002507A03E23
:100B6200840083130008303EA600831603135F0837
:100B7200483E84008312031326088000D02D83167A
:100B820003135F0883120313A5002507A03E840008
:100B9200FF3083138000840AFF308000D02DF701DC
:100BA20000300A128A11A1200A128A1148308312D7
:100BB2000313A0000030A1000A128A1113210A12A5
:100BC2008A11831603135F08013E83120313A500E3
:100BD2002508F70000300A128A11A1200A128A1190
:100BE2006A2E83120313EB01EB0A831603135F08C9
:100BF20083120313A5002507C03E8400013083132E
:100C02008007840A0318800A831603135F0883127D
:100C12000313A5002507C03E84000008A600840A2D
:100C22000008A7002708803AFF0080307F02031DDA
:100C32001C2E0A30260203181F2E202E372E831652
:100C420003135F0883120313A5002507C03E840027
:100C520083130008303EA600831603135F08583E34
:100C620084008312031326088000472E8316031381
:100C72005F0883120313A5002507C03E8400FF30DE
:100C820083138000840AFF308000472EF701013071
:100C92000A128A11A1200A128A11583083120313F0
:100CA200A0000030A1000A128A1113210A128A112F
:100CB200831603135F08013E83120313A500250860
:100CC200F70001300A128A11A1200A128A116A2E33
:100CD2006A2EF03083120313A50025088604861AB3
:100CE200732E742E092F831603135F0883120313C6
:100CF200A5002507A03E840083130008A600840AED
:100D02000008A700FF302706031D892EFF302606A4
:100D120003198C2E8D2E9A2E831603135E08031D43
:100D2200932E9A2E0130DF070318E00A0030E00705
:100D32009A2E831603135F0883120313A500250757
:100D4200C03E84000008A600840A0008A700FF3005
:100D52002706031DAE2EFF3026060319B12EB22E32
:100D6200BF2E83160313DE08031DB82EB92EBF2E25
:100D72000130DF070318E00A0030E0070F30831666
:100D820003135F066004031DC72EC82ED62EDF0193
:100D9200E001031000300318013083120313A50091
:100DA200250883160313DE00D62E83120313ED01EA
:100DB200EE016E08803AFF0080307F02031DE32EB1
:100DC20004306D02031CE62EE72EE92E092F092FAF
:100DD2005030F000C330F1000A128A15D8260A12E8
:100DE2008A11013083120313ED070318EE0A003053
:100DF200EE076E08803AFF0080307F02031D032F4A
:100E020004306D02031C062F072FE92E092F092F2C
:100E1200F03083120313A50025088604061B122F47
:100E2200132F382F83160313600883120313EA016A
:100E3200EA07831603135F0883120313E901E90724
:100E420083160313DF01E0010310003003180130A1
:100E520083120313A500250883160313DE00F7018E
:100E620001300A128A11A1200A128A11382F831224
:100E720003136B08031D3E2F4A2FF030A5002508EF
:100E82008604861B452F462F4A2FEF01EF0A4A2F71
:100E92004A2F6F08031D4E2F712D4F2F0A128A11F0
:100EA200C6200A128A11C03083120313A500250836
:100EB200F0006A08F201F2076908F101F1078316EE
:100EC20003136008F401F4075F08F301F307A0308D
:100ED2000A128A111E240A128A11003A0319722F69
:100EE200732F992F333083120313A0008030A10097
:100EF2000A128A1113210A128A11852F0A128A11E3
:100F020054220A128A11852FFF3083120313E70736
:100F12000318E80AFF30E807FF306806031D932F25
:100F2200FF306706031D962F972F7F2FA52FA52F22
:100F3200443083120313A0008030A1000A128A11E8
:100F420013210A128A11A52F83120313EF01A92F6D
:100F5200F030A50025088604861BB02FB12FB42FD0
:100F6200EF01EF0AB42FF030A500250886046C08C3
:100F7200031DBC2FE62F061BBF2FC02FE62FEC014F
:100F82004830A5002508F4005830A6002608F500D0
:100F920028300A128A1515270A128A1128300A12D5
:100FA2008A11EB200A128A110A128A11C6200A1229
:100FB2008A11223083120313A0008030A1000A128A
:100FC2008A1113210A128A11E62F831203136F0862
:100FD200031DEC2FA92FEF01EB01E901EA01EC015E
:100FE200EC0A83160313DE01DE0ADF01E0010A12B6
:0E0FF2008A11C6200A128A11572D572D0800A9
:101CB4000A128A157B260A128A150A128A15952693
:101CC4000A128A1508000A128A152B270A128A1585
:101CD4000A128A155A260A128A1508000A128A1547
:101CE40088260A128A150A128A155A260A128A1591
:101CF40008008312031387150530F0000030F1004B
:101D04000A128A15D8260A128A15080083160313A4
:101D140007160530F0000030F1000A128A15D826A3
:101D24000A128A150800F730F200720883120313AE
:101D340087050530F0000030F1000A128A15D82614
:101D44000A128A1508000A128A11F0210A128A1549
:101D5400F6007608F7000A128A1565260A128A1513
:101D64007708B42E0800A030F0007008831603131F
:101D7400EB009B30870083120313071283160313AF
:101D84008711071208007E088A007F0882000A1261
:101D94008A15C5260A128A158000840A04087D065D
:101DA40003190034FF0A0319FE0AC92EDA2EDA2EAB
:101DB4000130F0020030031CF103F102FF30710620
:101DC400031DE62EFF307006031DE92EEA2EDA2EDF
:101DD400EB2E08000A128A11F0210A128A15F60065
:101DE4007608F7000A128A1570260A128A150A1252
:101DF4008A155B270A128A15FF2E08000A128A1513
:101E040088260A128A150A128A157B260A128A154E
:101E14000A128A152B270A128A150A128A15952680
:101E24000A128A150800F7007408F6007608F00014
:101E340077080A128A15E1270A128A157508F6002E
:101E44007608F00077080A128A1193210A128A157B
:101E54000800EF30F2007208831203138705EF3095
:101E6400F20072088316031387050530F000003072
:101E7400F1000A128A15D8260A128A1508000A12D5
:101E84008A157B260A128A1583120313071E4B2F09
:101E94004C2F512F83160313E701E70A552F83169E
:101EA4000313E701552F0A128A1595260A128A157B
:101EB40008000A128A152B270A128A150A128A1593
:101EC40095260A128A150A128A157B260A128A1581
:101ED4000A128A1588260A128A150A128A15952664
:101EE4000A128A1508007A08F701F7077908F6013B
:101EF400F6070A128A1193220A128A150A128A15FF
:101F040000270A128A15831603136B146B080A122E
:101F14008A1121220A128A15080083160313E50187
:101F2400E601E701E801E901EA018317D130FD0088
:101F34000030FE008130FF00B13084000A128A159F
:101F4400C9260A128A1583010A128A15A92FF030AC
:101F5400831203138600F0308316031386000A12DB
:101F64008A15B5260A128A150A128A1178230A12CA
:101F74008A150A128A1178240A128A15C12F0A12A4
:101F84008A1100288312031306157308F101F1075F
:101F94007208F001F0070A128A15D8260A128A1567
:101FA4008312031306117308F101F1077208F0019B
:101FB400F0070A128A15D8260A128A150800F200B8
:101FC4007208F1007108F300F02F0130F10071087C
:101FD400F3070130F1007108F007F02F7008840056
:101FE40083130008F10073088400710880008008DE
:0C1FF400031DFD2FFE2FE72FFF2F08001C
:02400E003AFF77
:00000001FF
