:100000000A128A158F2FFF1B0D2883137F18831761
:100010000008840A0319FF0A080000308A00040857
:10002000840A8207003455347334653420344534EF
:100030004534503452344F344D343F34203420341E
:10004000203420342034423431342034593445347F
:100050005334203420342034203420344234323499
:1000600020344E344F3400342034203420342034B3
:10007000203453344134563445344434203420340D
:1000800020342034203420340034203420342034F0
:10009000533459344D344D34453454345234493446
:1000A00043342034203420342034003420342034AD
:1000B00020344134533459344D344D344534543460
:0E00C000523449344334203420342034003488
:1000D200203400340034003400340034003400345E
:1000E200003400340034003400340034003400346E
:1000F200003400340034003400340034003400345E
:10010200003400340034003400340034003400344D
:10011200FB00FB08031D8E288F289D287908FA0012
:100122007A0883160313E6007908803E0A128A11C0
:100132002D230A128A11AD287908103EFA007A0896
:1001420083160313E6007908C03E0A128A112D2392
:100152000A128A11AD28AD280800FD000030F60011
:100162000030F7000A128A1197220A128A11C72850
:100172007D088400831300080A128A1183210A125F
:100182008A110130FC007C08FD07C7287D08840025
:1001920083138008031DCE28CF28B928D0280A123D
:1001A2008A155B270A128A110800EE2883120313AC
:1001B2002208FF00210884000A128A1103200A1271
:1001C2008A110A128A118A240A128A1101308312B0
:1001D2000313A1070318A20AEE28831203132208AD
:1001E200FF00210884000A128A1103200A128A11D0
:1001F2000038031DFD28FE28D728FF280800831297
:1002020003130608F0007008F200831603130608B1
:10021200F0007008F3000F30F00070088605F0302F
:10022200F00070088312031386040609F0007008B8
:10023200F1007208860073088316031386007108A2
:10024200F00004300310F00CFF3E031D2329700858
:100252002A29080083120313A501A4010130A10079
:100262008030A2000A128A11D6200A128A11392974
:10027200F03083120313A30023088604061A4229CE
:1002820043294729A401A40AA501A50A861A4A29D5
:100292004B294E29A501A50A4E292508031D5229DD
:1002A20039295329240855290800F2007208F1005F
:1002B2007108F30061290130F1007108F307612927
:1002C2007308840083138008031D682969295C2947
:1002D200742974290130F1007108F3070130F1002B
:1002E2007108F0077429700884000008F10073088F
:1002F2008400710880008008031D802981296B29F0
:1003020082290800FB007B080A128A11E4210A12E2
:100312008A11013083160313E4070318E50A00303B
:10032200E5073F306405F90000306505FA007A08F8
:10033200790403199D299E29A029B229B2290A12FA
:100342008A155B270A128A11831603136508F701BF
:10035200F7076408F601F6070A128A1197220A12B1
:100362008A110800F5010830F3007308F4000A123C
:100372008A157F260A128A11D8297508F300730894
:10038200F5070A128A158C260A128A1183120313A0
:10039200071ECC29CD29D2290130F3007308F507B5
:1003A200D2290A128A1599260A128A11D8290130ED
:1003B200F4027408FF3A031DDF29E029BE29E1296E
:1003C2007508E3290800F5000830F3007308F4000B
:1003D200032AF51FED29EE29F4290A128A157F2630
:1003E2000A128A11F9290A128A152F270A128A116A
:1003F2000A128A155E260A128A117508F30073081A
:10040200F507032A0130F4027408FF3A031D0A2A91
:100412000B2AEA290C2A0A128A157F260A128A1145
:100422000A128A1545270A128A1108008312031339
:10043200A40120302402031C1F2A202A222A502A27
:10044200502A24080F39A1002108F9001030F000C9
:100452000030F1002408A200A3012208F2002308C0
:10046200F3000A128A11F3240A128A1170080A127E
:100472008A1189200A128A1120300A128A118A24CA
:100482000A128A11013083120313A1002108A40762
:1004920020302402031C4E2A4F2A222A502A080006
:1004A200E830F0000330F1000A128A15DC260A1245
:1004B2008A118316031386013030831203138600D8
:1004C2002C30F2000130F3000A128A15C4270A12F6
:1004D2008A1120308312031386006430F200003048
:1004E200F3000A128A15C4270A128A1128300A1246
:1004F2008A112D230A128A110D300A128A112D2314
:100502000A128A1106300A128A112D230A128A113E
:1005120002300A128A112D230A128A11831603133A
:10052200E601F03083120313860008007708831671
:100532000313E501E5077608E401E407A02A0A129D
:100542008A1504270A128A11FE30F80078088316E9
:100552000313E90569080A128A11E4210A128A11B1
:10056200831203136F08031DB72ABD2A0A128A15C4
:100572005B270A128A11A02A77080A128A11E4213B
:100582000A128A11831203136F08031DC92ACF2A84
:100592000A128A155B270A128A11A02A76080A1201
:1005A2008A11E4210A128A11831203136F08031DB0
:1005B200DB2AE12A0A128A155B270A128A11A02A6B
:1005C200080083120313A0000030F9000030FA0083
:1005D2000A128A1575270A128A1183120313A101BE
:1005E200A201A101A2012208803AFF0080307F020D
:1005F200031DFD2A20302102031C002B012B032B9B
:10060200272B272B0A128A15A9260A128A11FB0008
:100612008312031321082007FC007C0884007B0856
:10062200831780000130A1070318A20A0030A20735
:100632002208803AFF0080307F02031D222B2030E7
:100642002102031C252B262B032B272B0A128A158A
:10065200F0260A128A110800F600382BE830F00062
:100662000330F1000A128A15DC260A128A110A12D4
:100672008A1100210A128A110038031D412B422BD4
:100682002F2B8312031386100F300605F400760811
:10069200F039740786006430F2000030F3000A1269
:1006A2008A15C4270A128A110F3083120313060512
:1006B200F4007608F50003300310F50DFF3E031D2C
:1006C2005D2B0310750D740786006430F200003054
:1006D200F3000A128A15C4270A128A11831203131D
:1006E2008614E830F0000330F1000A128A15DC2685
:1006F2000A128A110800F500F60110307602031C76
:10070200832B842B862BA62BA62B2030F300760876
:100712007107F4007408840073088313800076085C
:10072200F30073077507F40074088400FF3080003B
:10073200840AFF3080000130F3007308F60710309E
:100742007602031CA52BA62B862BF6010F30760210
:10075200031CAC2BAD2BAF2BD02BD02B2030F300B6
:1007620076087207F400740884007308831380000B
:100772007608F30073077007F40074088400FF30F2
:100782008000840AFF3080000130F3007308F6070E
:100792000F307602031CCE2BCF2BAF2BD02B0800B1
:1007A20083120313A00074087206031DDA2B730868
:1007B2007106031DDD2BDE2B252CA301A40172087B
:1007C200A201A2077108A101A107192C2108F500B5
:1007D20075077007F6007608840083130008F70097
:1007E200840A0008F8002308F90079072007FA00B4
:1007F2007A0884000008FB00840A0008FC007808DC
:100802007C06031D062C77087B060319092C0A2C8B
:100812000D2C00302A2C2A2C0130A3070318A40A1D
:100822000030A4070130A1020030031CA203A2027F
:1008320072082402031D1F2C71082302031C222CA0
:10084200232CE72B282C282C00302A2C2A2C013090
:100852002A2C080083160317B0010A128A111722E4
:100862000A128A110A128A112B210A128A11003ADB
:1008720003193C2C3D2C842C90308400B13083161B
:100882000313E0000408E1002030E2006008840065
:1008920083170008E300E00A61088400630880000F
:1008A200E10AE20B472C90300A128A11E2220A1264
:1008B2008A110A128A1117220A128A11903083129F
:1008C2000313A1000130A2000A128A11D6200A12D3
:1008D2008A116B2CF03083160313E0006008831238
:1008E20003138604861B762C772C7C2C8316031725
:1008F200B001B00A7C2C831603173008031D822C2A
:100902006B2C842C842C0A128A1165250A128A11F6
:10091200080083120313A000972CE830F000033084
:10092200F1000A128A15DC260A128A110A128A11A9
:1009320000210A128A110038031DA02CA12C8E2C32
:10094200A22C0F30831203130605FC002008F03995
:100952007C0786000A30F2000030F3000A128A1582
:10096200C4270A128A110F30831203130605FC00F2
:100972002008FD0003300310FD0DFF3E031DBC2CBB
:1009820003107D0D7C0786000A30F2000030F30070
:100992000A128A15C4270A128A110130FC007C0847
:1009A20083160313E6076608103A031DD92CDA2CC6
:1009B200E22CF90101300A128A1189200A128A11E5
:1009C200E22C831603136608203A031DE92CEA2C55
:1009D200F22CF90100300A128A1189200A128A11B6
:1009E200F22C0800F601F11FF72CF82C002DF0096B
:1009F200F109F00A0319F10AF601F60A002DF31FB4
:100A0200032D042D0E2DF209F309F20A0319F30A3C
:100A12000130F4007408F6060E2DF701F801710892
:100A220070040319152D162D532DF501F50A252DE8
:100A320001300310F00DF10DFF3E031D1A2D0130A0
:100A4200F4007408F507252DF11F282D292D192DE5
:100A52002B2D2B2D01300310F70DF80DFF3E031D3A
:100A62002C2D71087302031D382D70087202031CAD
:100A72003B2D3C2D442D7008F2027108031CF30338
:100A8200F3027714442D01300310F10CF00CFF3EF9
:100A9200031D452D0130F502031D502D512D2B2D27
:100AA200532D532D7608031D572D5D2DF709F80997
:100AB200F70A0319F80A5D2D7808F101F1077708A2
:100AC200F001F007642D080083120313EE01EE0A11
:100AD200ED01E901EA01EA0A83160313DE01DF01EF
:100AE20083120313EB01EC01E701E801782D0A12EE
:100AF2008A1117220A128A11C03083120313A50029
:100B02002508F0004830A6002608F1005830A7005A
:100B12002708F200A0300A128A117C230A128A11D5
:100B2200922DF03083120313A50025088604061ABD
:100B32009B2D9C2D892E6E08031DA02D132E83162E
:100B420003135E0883120313A5002507A03E840049
:100B5200013083138007840A0318800A8316031363
:100B62005E0883120313A5002507A03E8400000837
:100B7200A600840A0008A7002708803AFF008030F8
:100B82007F02031DC62D0A3026020318C92DCA2D65
:100B9200E12D831603135E0883120313A5002507B4
:100BA200A03E840083130008303EA6008316031380
:100BB2005E08483E84008312031326088000F12D4C
:100BC200831603135E0883120313A5002507A03EB4
:100BD2008400FF3083138000840AFF308000F12DEF
:100BE200F90100300A128A1189200A128A1148304A
:100BF20083120313A1000030A2000A128A11D62028
:100C02000A128A11831603135E08013E831203132C
:100C1200A5002508F90000300A128A1189200A125B
:100C22008A11892EE901E90A831603135E088312E9
:100C32000313A5002507C03E8400013083138007FB
:100C4200840A0318800A831603135E0883120313AF
:100C5200A5002507C03E84000008A600840A0008FB
:100C6200A7002708803AFF0080307F02031D3B2E39
:100C72000A30260203183E2E3F2E562E83160313E9
:100C82005E0883120313A5002507C03E8400831368
:100C92000008303EA600831603135E08583E840007
:100CA2008312031326088000662E831603135E0840
:100CB20083120313A5002507C03E8400FF3083136F
:100CC2008000840AFF308000662EF90101300A128A
:100CD2008A1189200A128A11583083120313A10043
:100CE2000030A2000A128A11D6200A128A11831633
:100CF20003135E08013E83120313A5002508F900C1
:100D020001300A128A1189200A128A11892E892E2B
:100D1200F03083120313A50025088604861A922E4A
:100D2200932E252F831603135E0883120313A50047
:100D32002507A03E840083130008A600840A000849
:100D4200A700FF302706031DA82EFF302606031931
:100D5200AB2EAC2EB92E6E08031DB02EB92E01306B
:100D620083160313DE070318DF0A0030DF07B92EEC
:100D7200831603135E0883120313A5002507C03EE2
:100D820084000008A600840A0008A700FF30270696
:100D9200031DCD2EFF3026060319D02ED12EDE2EB6
:100DA200EE08031DD52ED62EDE2E01308316031338
:100DB200DE070318DF0A0030DF070F308316031344
:100DC2005E065F04031DE62EE72EF32EDE01DF0131
:100DD200031000300318013083120313A500250805
:100DE200EE00F32E8312EB01EC016C08803AFF0057
:100DF20080307F02031DFF2E04306B02031C022F82
:100E0200032F052F252F252F5030F000C330F1007E
:100E12000A128A15DC260A128A1101308312031380
:100E2200EB070318EC0A0030EC076C08803AFF006D
:100E320080307F02031D1F2F04306B02031C222F00
:100E4200232F052F252F252FF03083120313A50002
:100E520025088604061B2E2F2F2F522F83160313CD
:100E62005F0883120313E801E807831603135E0881
:100E720083120313E701E70783160313DE01DF0181
:100E8200031000300318013083120313A500250854
:100E9200EE00F90101300A128A1189200A128A1120
:100EA200522F831203136908031D582F642FF03049
:100EB200A50025088604861B5F2F602F642FED0195
:100EC200ED0A642F642F6D08031D682F922D692F80
:100ED2000A128A1117220A128A11C03083120313CE
:100EE200A5002508F0006808F201F2076708F10181
:100EF200F107831603135F08F401F4075E08F30198
:100F0200F307A0300A128A11D1230A128A11003A79
:100F120003198C2F8D2F992F333083120313A100C5
:100F22008030A2000A128A11D6200A128A11A52F35
:100F3200443083120313A1008030A2000A128A11E6
:100F4200D6200A128A11A52F83120313ED01A92FAD
:100F5200F030A50025088604861BB02FB12FB42FD0
:100F6200ED01ED0AB42FF030A500250886046A08C9
:100F7200031DBC2FE62F061BBF2FC02FE62FEA0151
:100F82004830A5002508F4005830A6002608F500D0
:100F920028300A128A1519270A128A1128300A12D1
:100FA2008A11AE200A128A110A128A1117220A1213
:100FB2008A11223083120313A1008030A2000A1288
:100FC2008A11D6200A128A11E62F831203136D08A2
:100FD200031DEC2FA92FED01E901E701E801EA0168
:100FE200EA0AEE01EE0A83160313DE01DF010A129A
:0E0FF2008A1117220A128A11782D782D080014
:101CBC000A128A158C260A128A150A128A15992676
:101CCC000A128A1508000A128A157F260A128A152A
:101CDC000A128A155E260A128A1508000A128A153B
:101CEC002F270A128A150A128A155E260A128A15DD
:101CFC0008008316031307160530F0000030F100BE
:101D0C000A128A15DC260A128A150800831203139C
:101D1C0087150530F0000030F1000A128A15DC2618
:101D2C000A128A150800F730F200720883120313A6
:101D3C0087050530F0000030F1000A128A15DC2608
:101D4C000A128A1508000A128A11B3210A128A157E
:101D5C00F6007608F7000A128A1574260A128A15FC
:101D6C007708B82E0800A030F00070088316031313
:101D7C00E9009B30870083120313071283160313A9
:101D8C008711071208007E088A007F0882000A1259
:101D9C008A15C9260A128A158000840A04087D0651
:101DAC0003190034FF0A0319FE0ACD2EDE2EDE2E97
:101DBC000130F0020030031CF103F102FF30710618
:101DCC00031DEA2EFF307006031DED2EEE2EDE2EC7
:101DDC00EF2E08000A128A11B3210A128A15F60096
:101DEC007608F7000A128A1569260A128A150A1251
:101DFC008A155B270A128A15032F08000A128A1506
:101E0C007F260A128A150A128A158C260A128A153E
:101E1C000A128A152F270A128A150A128A15992670
:101E2C000A128A150800F7007408F6007608F0000C
:101E3C0077080A128A15E1270A128A157508F60026
:101E4C007608F00077080A128A1156210A128A15B0
:101E5C000800EF30F2007208831203138705EF308D
:101E6C00F20072088316031387050530F00000306A
:101E7C00F1000A128A15DC260A128A1508000A12C9
:101E8C008A158C260A128A1583120313071E4F2FEC
:101E9C00502F532FEF01EF0A552FEF01552F0A1238
:101EAC008A1599260A128A1508000A128A152F27F4
:101EBC000A128A150A128A1599260A128A150A120A
:101ECC008A158C260A128A150A128A157F260A127E
:101EDC008A150A128A1599260A128A1508007A0898
:101EEC00F701F7077908F601F6070A128A1197220B
:101EFC000A128A150A128A1504270A128A158316E1
:101F0C000313691469080A128A11E4210A128A154A
:101F1C000800EF0183160313E401E501E601E70174
:101F2C00E8018317D130FD000030FE006930FF005E
:101F3C00B13084000A128A15CD260A128A15830143
:101F4C000A128A15A92FF030831203138600F03081
:101F5C008316031386000A128A15B9260A128A15EB
:101F6C000A128A1151220A128A150A128A112B247A
:101F7C000A128A15C12F0A128A1100288312031320
:101F8C0006157308F101F1077208F001F0070A1247
:101F9C008A15DC260A128A1583120313061173089C
:101FAC00F101F1077208F001F0070A128A15DC261C
:101FBC000A128A150800F2007208F1007108F30089
:101FCC00F02F0130F1007108F3070130F1007108B6
:101FDC00F007F02F7008840083130008F1007308D9
:101FEC008400710880008008031DFD2FFE2FE72F51
:041FFC00FF2F0800AB
:02400E003AFF77
:00000001FF
