:100000000A128A15582FFF1B0D2883137F18831798
:100010000008840A0319FF0A080000308A00040857
:10002000840A820700340134003408340034403438
:100030000034003402340034103400348034553439
:1000400073346534203445344534503452344F349D
:100050004D343F3420342034203420342034423492
:10006000313420345934453453342034203420344E
:10007000203420344234323420344E344F3400346F
:100080002034203420342034203453344134563446
:100090004534443400342034203420342034203497
:0A00A0002034003425346F3400349E
:1000AE00FB00FB08031D5C285D286B287908FA000D
:1000BE007A0883160313DE007908803E0A128A112D
:1000CE006C230A128A117B287908103EFA007A08EE
:1000DE0083160313DE007908C03E0A128A116C23C0
:1000EE000A128A117B287B280800FB007B080A1263
:1000FE008A11DD200A128A11013083160313DC07E0
:10010E000318DD0A0030DD073F305C05F9000030D2
:10011E005D05FA007A08790403199628972899281C
:10012E00AB28AB280A128A155B260A128A1183168F
:10013E0003135D08F701F7075C08F601F6070A12CC
:10014E008A1189220A128A110800F5010830F3007B
:10015E007308F4000A128A1567250A128A11D1282B
:10016E007508F3007308F5070A128A1574250A122A
:10017E008A1183120313071EC528C628CB28013007
:10018E00F3007308F507CB280A128A1581250A1287
:10019E008A11D1280130F4027408FF3A031DD828C1
:1001AE00D928B728DA287508DC280800F5000830A9
:1001BE00F3007308F400FC28F51FE628E728ED2865
:1001CE000A128A1567250A128A11F2280A128A154E
:1001DE0001260A128A110A128A1546250A128A1156
:1001EE007508F3007308F507FC280130F402740853
:1001FE00FF3A031D03290429E32805290A128A154B
:10020E0067250A128A110A128A1517260A128A11EE
:10021E000800F3007308F2007208F4001B29013085
:10022E00F2007208F4071B297408840083138008F7
:10023E00031D2229232916292E292E290130F200E9
:10024E007208F4070130F0070318F10A2E2971081D
:10025E0083120313FF00700884000A128A11032010
:10026E000A128A11F2007408840072088313800047
:10027E008008031D43294429252945290800831296
:10028E000313A40120302402031C4E294F295129A7
:10029E007F297F2924080F39A1002108F900103089
:1002AE00F0000030F1002408A200A3012208F200A1
:1002BE002308F3000A128A11F0240A128A11700818
:1002CE000A128A1157200A128A1120300A128A1134
:1002DE0087240A128A11013083120313A100210808
:1002EE00A40720302402031C7D297E2951297F2951
:1002FE0008002C30840083160313500883138000EB
:10030E00840A51088000840A52088000840A530827
:10031E008000840A54088000840A5508800040300A
:10032E0083120313AB002B08F8002A08FA01FA0710
:10033E002908F901F9072C300A128A1162250A12CE
:10034E008A11063083120313AB002B08F90000301C
:10035E000A128A1157200A128A112C3083120313A3
:10036E00A1000030A2000A128A1580270A128A11F3
:10037E0008002034003400340034003400340034DB
:10038E0000340034003400340034003400340034BF
:10039E0000340034003400340034003400340034AF
:1003AE00003400340034003400340034003400349F
:1003BE00003420340034003400340034003400346F
:1003CE00003400340034003400340034003400347F
:1003DE00003400340034003400340034003400346F
:1003EE00003400340034003400340034003400345F
:1003FE000034710870040319052A062A3B2AF501F8
:10040E00F50A152A01300310F00DF10DFF3E031D04
:10041E000A2A0130F4007408F507152AF11F182A6C
:10042E00192A092A1B2A1B2A71087302031D212A65
:10043E0070087202031C242A252A2C2A7008F20244
:10044E007108031CF303F3022C2A01300310F10C84
:10045E00F00CFF3E031D2D2A0130F502031D382A34
:10046E00392A1B2A3B2A3B2A7308F101F10772082D
:10047E00F001F007422A0800E830F0000330F100E6
:10048E000A128A15C4250A128A11831603138601CD
:10049E0030308312031386002C30F2000130F3004B
:1004AE000A128A15AA260A128A1120308312031301
:1004BE0086006430F2000030F3000A128A15AA2674
:1004CE000A128A1128300A128A116C230A128A1112
:1004DE000D300A128A116C230A128A1106300A1282
:1004EE008A116C230A128A1102300A128A116C23A5
:1004FE000A128A1183160313DE01F03083120313DE
:10050E0086000800770883160313DD01DD077608E1
:10051E00DC01DC07922A0A128A15EC250A128A11CE
:10052E00FE30F800780883160313E10561080A12FD
:10053E008A11DD200A128A11831203136F08031D1C
:10054E00A92AAF2A0A128A155B260A128A11922A42
:10055E0077080A128A11DD200A128A1183120313F8
:10056E006F08031DBB2AC12A0A128A155B260A12BE
:10057E008A11922A76080A128A11DD200A128A112D
:10058E00831203136F08031DCD2AD32A0A128A156C
:10059E005B260A128A11922A080083120313A00006
:1005AE000030F9000030FA000A128A1575260A1278
:1005BE008A1183120313A101A201A101A201220833
:1005CE00803AFF0080307F02031DEF2A2030210287
:1005DE00031CF22AF32AF52A192B192B0A128A1553
:1005EE0091250A128A11FB0083120313210820079A
:1005FE00FC007C0884007B08831380000130A10777
:10060E000318A20A0030A2072208803AFF008030A9
:10061E007F02031D142B20302102031C172B182BD5
:10062E00F52A192B0A128A15D8250A128A110800E2
:10063E00F501F601710870040319262B272B642B84
:10064E00F701F70A362B01300310F00DF10DFF3EC6
:10065E00031D2B2B0130F4007408F707362BF11F06
:10066E00392B3A2B2A2B3C2B3C2B01300310F50D4A
:10067E00F60DFF3E031D3D2B71087302031D492B22
:10068E0070087202031C4C2B4D2B552B7008F20276
:10069E007108031CF303F3027514552B013003107C
:1006AE00F10CF00CFF3E031D562B0130F702031D1B
:1006BE00612B622B3C2B642B642B7608F101F10726
:1006CE007508F001F0076B2B0800F600772BE83069
:1006DE00F0000330F1000A128A15C4250A128A119D
:1006EE000A128A15AA270A128A110038031D802BB6
:1006FE00812B6E2B8312031386100F300605F40028
:10070E007608F039740786006430F2000030F3008A
:10071E000A128A15AA260A128A110F30831203139F
:10072E000605F4007608F50003300310F50DFF3EC4
:10073E00031D9C2B0310750D740786006430F200A8
:10074E000030F3000A128A15AA260A128A118312A1
:10075E0003138614E830F0000330F1000A128A15F4
:10076E00C4250A128A11080083160313C4010A1243
:10077E008A1146210A128A110A128A15D5270A12DF
:10078E008A11003A0319CC2BCD2B152CA4308400E2
:10079E00903083160313A0000408A1002030A2009D
:1007AE002008840083170008A300A00A21088400F3
:1007BE00831323088000A10AA20BD72BA4300A12A0
:1007CE008A11D4220A128A110A128A1146210A1299
:1007DE008A11A43083120313A1000030A2000A1262
:1007EE008A1580270A128A11FC2BF0308316031308
:1007FE00A0002008831203138604861B072C082CE6
:10080E000D2C83160313C401C40A0D2C8316031377
:10081E004408031D132CFC2B152C152C0A128A11BF
:10082E0046210A128A110A128A112C260A128A11DC
:10083E000800FC00FA01FB01F801F9013930F7005C
:10084E007708F0007C080A128A15E9260A128A1126
:10085E007508F0000030F1007C080A128A11102190
:10086E000A128A11412C0130FA070318FB0A0030D4
:10087E00FB07412C7A087507F7007708840083136D
:10088E008008031D4B2C4C2C3A2C4D2C0A30F800B2
:10089E000030F900632C3E30F0008030F1007C080F
:1008AE000A128A1110210A128A11FF30F807031852
:1008BE00F90AFF30F907632C7B08803AF7007908B4
:1008CE00803A7702031D6D2C78087A02031C702C77
:1008DE00712C522C722C7608F0000030F1007C083E
:1008EE000A128A1110210A128A113930F000803052
:1008FE00F1007C080A128A1110210A128A110800CE
:10090E0083120313A000942CE830F0000330F100A2
:10091E000A128A15C4250A128A110A128A15AA27E2
:10092E000A128A110038031D9D2C9E2C8B2C9F2C95
:10093E000F30831203130605FC002008F0397C07E4
:10094E0086000A30F2000030F3000A128A15AA2639
:10095E000A128A110F30831203130605FC002008B9
:10096E00FD0003300310FD0DFF3E031DB92C0310D7
:10097E007D0D7C0786000A30F2000030F3000A126B
:10098E008A15AA260A128A110130FC007C088316E9
:10099E000313DE075E08103A031DD62CD72CDF2C6E
:1009AE00F90101300A128A1157200A128A11DF2C1E
:1009BE00831603135E08203A031DE62CE72CEF2C5A
:1009CE00F90100300A128A1157200A128A11EF2CEF
:1009DE000800F601F11FF42CF52CFD2CF009F1099D
:1009EE00F00A0319F10AF601F60AFD2CF31F002D89
:1009FE00012D0B2DF209F309F20A0319F30A013046
:100A0E00F4007408F6060B2DF701F8017108700456
:100A1E000319122D132D502DF501F50A222D01303B
:100A2E000310F00DF10DFF3E031D172D0130F400E4
:100A3E007408F507222DF11F252D262D162D282D94
:100A4E00282D01300310F70DF80DFF3E031D292D43
:100A5E0071087302031D352D70087202031C382DA8
:100A6E00392D412D7008F2027108031CF303F302B5
:100A7E007714412D01300310F10CF00CFF3E031DD5
:100A8E00422D0130F502031D4D2D4E2D282D502DDA
:100A9E00502D7608031D542D5A2DF709F809F70A23
:100AAE000319F80A5A2D7808F101F1077708F001B9
:100ABE00F007612D080083120313A7007930FB00A5
:100ACE007B08A100122E2808253A03196F2D702DD0
:100ADE007C2D2808FB00270884007B0883138000E8
:100AEE000130FB007B08A707122EA001822D262EB7
:100AFE00942D122E942D0130F807FF3078078400C4
:100B0E000A128A110D200A128A11A800003A03193E
:100B1E00262E6F3A0319942D122E210884000008F8
:100B2E00A200840A0008A3000230FB007B08A10784
:100B3E00A801A80A2808063A031DA62DA72DA92D3F
:100B4E00D12DD12D2808FB007B07013E84000A120F
:100B5E008A110D200A128A11FC000A128A110D2028
:100B6E000A128A11FD007D082302031DC02D7C0888
:100B7E0022020318C32DC42DC62DD12DD12D013027
:100B8E00FB007B08A8072808063A031DCF2DD02DA1
:100B9E00A92DD12D2808FB007B08A600062E2608BD
:100BAE00FB007B07013E84000A128A110D200A12F7
:100BBE008A11F0000A128A110D200A128A11F10010
:100BCE002308F301F3072208F201F2070A128A1131
:100BDE001F230A128A1170080739303EFC007C0868
:100BEE0083120313A8002808FB00270884007B0843
:100BFE00831380000130FB007B08A707062EFF3011
:100C0E00FB007B08A6072608FF3A031D0F2E102EA9
:100C1E00D62D122E122E0130F807FF3078078400E1
:100C2E000A128A110D200A128A11FB007B08A800F5
:100C3E00A808031D232E242E6A2D262E262E2708C5
:100C4E008400831380012B2E080083120313ED0101
:100C5E00EE01EA01E901EB01EC01D601D7015E30AC
:100C6E008400C530B2000408B3000B30B400320863
:100C7E00840083130008B500B20A330884003508D7
:100C8E008000B30AB40B3E2E36308400B030B20072
:100C9E000408B3002030B400320884008317000823
:100CAE00B500B20A33088400831335088000B30AF6
:100CBE00B40B532E5830840083160313560880004D
:100CCE00840A57088000840A58088000840A59084C
:100CDE008000840A5A088000840A5B088000772E00
:100CEE0083126E08AA01AA076D08A901A9070A12A4
:100CFE008A1180210A128A1183120313EB01EC016F
:100D0E006C08803AFF0080307F02031D902E0B305E
:100D1E006B02031C932E942E962EB52EB52E2030DC
:100D2E0083120313B2006B085E3E840032088313F5
:100D3E0080000130EB070318EC0A0030EC076C085A
:100D4E00803AFF0080307F02031DAF2E0B306B0206
:100D5E00031CB22EB32E962EB52EB52EF030831266
:100D6E000313B20032088604061ABE2EBF2ED12EF1
:100D7E000130ED070318EE0A0030EE076E08AA01E7
:100D8E00AA076D08A901A9070A128A1180210A1261
:100D9E008A11D12EF03083120313B200320886046A
:100DAE00861ADA2EDB2EED2E0A30ED070318EE0A28
:100DBE000030EE076E08AA01AA076D08A901A9075F
:100DCE000A128A1180210A128A11ED2EF030831236
:100DDE000313B20032088604061BF62EF72E092FD7
:100DEE006430ED070318EE0A0030EE076E08AA0114
:100DFE00AA076D08A901A9070A128A1180210A12F1
:100E0E008A11092FF03083120313B20032088604C0
:100E1E00861B122F132F162FEA01EA0A162F6A08C5
:100E2E00031D1A2FB52E1B2F6E086D04031D202FC8
:100E3E00212F262F3030B2003208E100262FEB0191
:100E4E00EC014030B2003208F8006E08FA01FA07E1
:100E5E006D08F901F90758300A128A1162250A1233
:100E6E008A11732F0330F0000030F1008312031348
:100E7E006E08F301F3076D08F201F2070A128A11E8
:100E8E0000220A128A117008303E83120313B20038
:100E9E006B085E3E84003208831380000330F0003E
:100EAE000030F1006E08F301F3076D08F201F2074E
:100EBE000A128A111F230A128A1171088312031350
:100ECE00EE01EE077008ED01ED070130EB07031898
:100EDE00EC0A0030EC07732F831203136E086D04B7
:100EEE00031D7A2F7B2F392F7C2F6830B2003208EA
:100EFE00F4005E300A128A15C7260A128A11F90109
:100F0E0001300A128A1157200A128A115E3083129A
:100F1E000313A1000030A2000A128A1580270A12BC
:100F2E008A1183120313EA019C2FF030B2003208AB
:100F3E008604861BA32FA42FA72FEA01EA0AA72F48
:100F4E00F030B20032088604E908031DAF2FB02F2F
:100F5E00DB2F061BB32FB42FDB2FE901E90A583024
:100F6E00B2003208F5005E30B3003308F6003630BA
:100F7E000A128A1120240A128A110A128A11462193
:100F8E000A128A1136300A128A1530270A128A116D
:100F9E002E3083120313A1008030A2000A128A158C
:100FAE0080270A128A11DB2F831203136A08031D8E
:100FBE00E12F9C2FE22F0030F0000030F1002030A6
:100FCE00F2000030F30036300A128A150C270A128E
:100FDE008A1183120313EA01ED01EE010A128A113E
:100FEE0046210A128A1183120313E901772E772EF6
:020FFE000800E9
:101A8C000A128A1574250A128A150A128A158125DA
:101A9C000A128A1508000A128A1501260A128A15DA
:101AAC000A128A1546250A128A1508000A128A1586
:101ABC0067250A128A150A128A1546250A128A15F2
:101ACC0008008316031307160530F0000030F100F0
:101ADC000A128A15C4250A128A15080083120313E8
:101AEC0087150530F0000030F1000A128A15C42564
:101AFC000A128A150800F730F200720883120313D9
:101B0C0087050530F0000030F1000A128A15C42553
:101B1C000A128A1508000A128A11AC200A128A15B8
:101B2C00F6007608F7000A128A1551250A128A1552
:101B3C007708A02D0800A030F0007008831603135E
:101B4C00E1009B30870083120313071283160313E3
:101B5C008711071208007E088A007F0882000A128B
:101B6C008A15B1250A128A158000840A04087D069C
:101B7C0003190034FF0A0319FE0AB52DC62DC62D14
:101B8C000130F0020030031CF103F102FF3071064A
:101B9C00031DD22DFF307006031DD52DD62DC62D5D
:101BAC00D72D08000A128A11AC200A128A15F600E9
:101BBC007608F7000A128A155C250A128A150A1291
:101BCC008A155B260A128A15EB2D08000A128A1553
:101BDC0067250A128A150A128A1574250A128A15A3
:101BEC000A128A1501260A128A150A128A158125EB
:101BFC000A128A150800EF30F200720883120313E0
:101C0C008705EF30F2007208831603138705053041
:101C1C00F0000030F1000A128A15C4250A128A1548
:101C2C0008000A128A1574250A128A1583120313E6
:101C3C00071E212E222E252EEF01EF0A272EEF0153
:101C4C00272E0A128A1581250A128A150800F3001C
:101C5C007308840083130008F1007108F200700807
:101C6C0084000008F1007308840071088000720879
:101C7C00F1007008840071088000080020340034E2
:101C8C0000340034003400340034003400340034A8
:101C9C000034203400340034003400340034203458
:101CAC00003400340034003400340A128A15012642
:101CBC000A128A150A128A1581250A128A150A1225
:101CCC008A1574250A128A150A128A1567250A12B2
:101CDC008A150A128A1581250A128A1508007A08B3
:101CEC00F701F7077908F601F6070A128A1189221B
:101CFC000A128A150A128A15EC250A128A158316FD
:101D0C000313611461080A128A11DD200A128A1564
:101D1C000800F030831203138600F030831603138F
:101D2C0086000A128A15A1250A128A150A128A112E
:101D3C0043220A128A150A128A11BB230A128A1527
:101D4C00A72E0A128A110028831203130615730892
:101D5C00F101F1077208F001F0070A128A15C42587
:101D6C000A128A158312031306117308F101F10785
:101D7C007208F001F0070A128A15C4250A128A1596
:101D8C000800F600D82E7408F5007508F0007608E7
:101D9C000A128A152D260A128A150130F5007508CB
:101DAC00F607D82E760874060319DD2EDE2EE82EE3
:101DBC000130F40276087406031DE52EE62EC92EBA
:101DCC00E82EE82E0800F2007208F1007108F3000A
:101DDC00F82E0130F1007108F3070130F1007108A1
:101DEC00F007F82E700884000A128A110D200A12CE
:101DFC008A15F10073088400710883138000800831
:101E0C00031D092F0A2FEF2E0B2F0800F500750864
:101E1C00F4007408F6001E2F7008F4007608840095
:101E2C007408831380000130F4007408F6071E2F29
:101E3C000130F2020030031CF303F302FF3073068F
:101E4C00031D2A2FFF307206031D2D2F2E2F122F4C
:101E5C002F2F0800FD000030F6000030F7000A12AA
:101E6C008A1189220A128A15492F7D08840083134E
:101E7C0000080A128A117C200A128A150130FC0013
:101E8C007C08FD07492F7D08840083138008031DFF
:101E9C00502F512F3B2F522F0A128A155B260A12F4
:101EAC008A150800EF0183160313DC01DD01DE0146
:101EBC00DF01E0018317D030FD000130FE00C0309F
:101ECC00FF00903084000A128A15B5250A128A1573
:101EDC008313DC30FD000E30FE004430FF00C530B3
:101EEC0084000A128A15B5250A128A1583010A1272
:101EFC008A158F2E982F831203132208FF002108B6
:101F0C0084000A128A1103200A128A150A128A11F5
:101F1C0087240A128A15013083120313A1070318B0
:101F2C00A20A982F831203132208FF0021088400B1
:101F3C000A128A1103200A128A150038031DA72FD2
:101F4C00A82F812FA92F0800831203130608F00075
:101F5C007008F200831603130608F0007008F300F3
:101F6C000F30F00070088605F030F0007008831216
:101F7C00031386040609F0007008F100720886004D
:101F8C0073088316031386007108F00004300310E5
:101F9C00F00CFF3E031DCD2F7008D42F08008312C8
:101FAC000313A501A4010D30A1008030A2000A1278
:101FBC008A1580270A128A15E32FF0308312031337
:101FCC00A30023088604061AEC2FED2FF12FA40191
:101FDC00A40AA501A50A861AF42FF52FF82FA5013E
:101FEC00A50AF82F2508031DFC2FE32FFD2F24082D
:041FFC00FF2F0800AB
:02400E003AFF77
:00000001FF
