:100000000A128A15542EFF1B0D2883137F1883179D
:100010000008840A0319FF0A080000308A00040857
:10002000840A82070034013400340A340034643412
:100030000034E834033410342734553473346534D1
:10004000203445344534503452344F344D343F34E9
:1000500020342034203420342034423431342034CD
:10006000593445345334203420342034203420345F
:100070004234323420344E344F340034203420346F
:1000800020342034203453344134563445344434FD
:100090000034203420342034203420342034003400
:1000A000253464340034A030F00070088316031344
:1000B000D6009B30870083120313071283160313A5
:1000C0008711071208003430840083160313450893
:1000D00083138000840A46088000840A4708800051
:1000E000840A48088000840A490880003E30831250
:1000F0000313B3003308A0003008A201A2072F08A1
:10010000A101A10734300A128A1122250A128A118C
:10011000063083120313B3003308F90031080A12C2
:100120008A1507260A128A11343083120313A1009C
:100130000030A2000A128A157C260A128A110800D1
:10014000831603130608F2007208F30083120313E8
:100150000608F2007208F400831603138611A0301B
:10016000F2007208F500CD288312031386156E3055
:10017000F0000030F1000A128A15EB240A128A11ED
:100180008312031386116E30F0000030F1000A1262
:100190008A15EB240A128A11CD280130F502750860
:1001A000FF3A031DD428D528B428D6287408831212
:1001B0000313860073088316031386000800203497
:1001C000003400340034003400340034003400348F
:1001D000003400340034003400340034003400347F
:1001E000003400340034003400340034003400346F
:1001F000003400340034003400340034003420343F
:10020000003400340034003400340034003400344E
:10021000003400340034003400340034003400343E
:10022000003400340034003400340034003400342E
:1002300000340034003400340034003400347908D1
:1002400078040319242925295A29FD01FD0A342996
:1002500001300310F80DF90DFF3E031D292901306F
:10026000FC007C08FD073429F91F37293829282983
:100270003A293A2979087B02031D402978087A0235
:10028000031C432944294B297808FA027908031CE6
:10029000FB03FB024B2901300310F90CF80CFF3E65
:1002A000031D4C290130FD02031D572958293A2905
:1002B0005A295A297B08F901F9077A08F801F80741
:1002C00061290800E830F0000330F1000A128A15B5
:1002D000EB240A128A11831603138601303083122D
:1002E000031386002C30F2000130F3000A128A1545
:1002F000A3250A128A11203083120313860064306A
:10030000F2000030F3000A128A15A3250A128A119E
:1003100028300A128A1189220A128A110D300A1213
:100320008A1189220A128A1106300A128A11892238
:100330000A128A1102300A128A1189220A128A11BB
:1003400083120313EE01F03086000800770883164D
:100350000313D401D4077608D301D307AF290A12B7
:100360008A1513250A128A11FE30F80078088316C0
:100370000313D60556080A128A155D270A128A1138
:10038000831203136D08031DC629CC290A128A158E
:1003900054250A128A11AF2977080A128A155D2797
:1003A0000A128A11831203136D08031DD829DE294E
:1003B0000A128A1554250A128A11AF2976080A12E0
:1003C0008A155D270A128A11831203136D08031D13
:1003D000EA29F0290A128A1554250A128A11AF292E
:1003E000080083120313A0000030F9000030FA0067
:1003F0000A128A156E250A128A1183120313A101AB
:10040000A201A101A2012208803AFF0080307F02F0
:10041000031D0C2A1F302102031C0F2A102A122A46
:10042000362A362A0A128A15C8240A128A11FB00B3
:100430008312031321082007FC007C0884007B083A
:10044000831380000130A1070318A20A0030A2071D
:100450002208803AFF0080307F02031D312A1F30BE
:100460002102031C342A352A122A362A0A128A1536
:10047000FF240A128A110800F501F60171087004C0
:100480000319432A442A812AF701F70A532A013023
:100490000310F00DF10DFF3E031D482A0130F4005A
:1004A0007408F707532AF11F562A572A472A592A50
:1004B000592A01300310F50DF60DFF3E031D5A2A8F
:1004C00071087302031D662A70087202031C692AF0
:1004D0006A2A722A7008F2027108031CF303F302FD
:1004E0007514722A01300310F10CF00CFF3E031D4D
:1004F000732A0130F702031D7E2A7F2A592A812A96
:10050000812A7608F101F1077508F001F007882AC1
:100510000800F600942AE830F0000330F1000A12D7
:100520008A15EB240A128A110A128A15A6260A12C3
:100530008A110038031D9D2A9E2A8B2A83120313D9
:1005400086100F300605F4007608F039740786002F
:100550006430F2000030F3000A128A15A3250A1253
:100560008A110F30831203130605F4007608F50094
:1005700003300310F50DFF3E031DB92A0310750D5E
:10058000740786006430F2000030F3000A128A1506
:10059000A3250A128A11831203138614E830F0008F
:1005A0000330F1000A128A15EB240A128A1108009E
:1005B000F601F31FDC2ADD2AE52AF209F309F20A23
:1005C0000319F30AF601F60AE52AF11FE82AE92AD7
:1005D000EF2AF009F109F00A0319F10AEF2A71086C
:1005E00070040319F42AF52A2A2BF501F50A042BC5
:1005F00001300310F00DF10DFF3E031DF92A01300B
:10060000F4007408F507042BF11F072B082BF82AB8
:100610000A2B0A2B71087302031D102B700872023B
:10062000031C132B142B1B2B7008F2027108031CE4
:10063000F303F3021B2B01300310F10CF00CFF3E0F
:10064000031D1C2B0130F502031D272B282B0A2B21
:100650002A2B2A2B7608031D2E2B342BF209F309A3
:10066000F20A0319F30A342B7308F101F107720837
:10067000F001F0073B2B080083120313A000492B65
:10068000E830F0000330F1000A128A15EB240A1258
:100690008A110A128A15A6260A128A110038031D29
:1006A000522B532B402B542B0F3083120313060570
:1006B000FC002008F0397C0786000A30F200003088
:1006C000F3000A128A15A3250A128A110F30831229
:1006D00003130605FC002008FD0003300310FD0D88
:1006E000FF3E031D6E2B03107D0D7C0786000A3034
:1006F000F2000030F3000A128A15A3250A128A11AB
:100700000130FC007C0883120313EE076E08103AD8
:10071000031D8B2B8C2B942BF90101300A128A15A7
:1007200007260A128A11942B831203136E08203AAB
:10073000031D9B2B9C2BA42BF90100300A128A1558
:1007400007260A128A11A42B080083160313C4017A
:100750000A128A15C6270A128A110A128A15D12688
:100760000A128A11003A0319B62BB72B032CA430B6
:100770008400903083160313A0000408A1002030E9
:10078000A2002008840083170008A300A00A210803
:100790008400831323088000A10AA20BC12BA4307C
:1007A0000A128A11F1210A128A110A128A15C62721
:1007B0000A128A11A43083120313A1000030A20090
:1007C0000A128A157C260A128A11E62BF03083164B
:1007D0000313A0002008831203138604861BF12B49
:1007E000F22BF72B83160313C401C40AF72B8316CD
:1007F00003134408031DFD2BE62BFE2B0A128A155A
:10080000C6270A128A110A128A15C6270A128A11E5
:100810000A128A111F260A128A110800F601F11F16
:10082000122C132C1B2CF009F109F00A0319F10A00
:10083000F601F60A1B2CF31F1E2C1F2C292CF20983
:10084000F309F20A0319F30A0130F4007408F606FA
:10085000292CF701F801710870040319302C312C90
:100860006E2CF501F50A402C01300310F00DF10D4E
:10087000FF3E031D352C0130F4007408F507402CB1
:10088000F11F432C442C342C462C462C01300310F1
:10089000F70DF80DFF3E031D472C71087302031D71
:1008A000532C70087202031C562C572C5F2C7008B6
:1008B000F2027108031CF303F30277145F2C01307A
:1008C0000310F10CF00CFF3E031D602C0130F5020B
:1008D000031D6B2C6C2C462C6E2C6E2C7608031D85
:1008E000722C782CF709F809F70A0319F80A782C02
:1008F0007808F101F1077708F001F0077F2C080074
:10090000FC00FA01FB01F801F9013730F700770824
:10091000F0007C080A128A15C0250A128A1175088F
:10092000F0000030F1007C080A128A1590270A12A4
:100930008A11A12C0130FA070318FB0A0030FB07CB
:10094000A12C7A087507F7007708840083138008C4
:10095000031DAB2CAC2C9A2CAD2C0A30F8000030C7
:10096000F900C32C3C30F0008030F1007C080A1202
:100970008A1590270A128A11FF30F8070318F90A1E
:10098000FF30F907C32C7B08803AF7007908803ADA
:100990007702031DCD2C78087A02031CD02CD12CB1
:1009A000B22CD22C3730F0008030F1007C080A12D3
:1009B0008A1590270A128A117608F0000030F1009B
:1009C0007C080A128A1590270A128A11FA01FB0183
:1009D000F02C0130FA070318FB0A0030FB07F02C5B
:1009E0007A087507F7007708840083138008031DD1
:1009F000FA2CFB2CE92CFC2C0A30F8000030F90012
:100A0000122D3C30F0008030F1007C080A128A156B
:100A100090270A128A11FF30F8070318F90AFF30ED
:100A2000F907122D7B08803AF7007908803A77029F
:100A3000031D1C2D78087A02031C1F2D202D012D6B
:100A4000212D080083120313AD002130A3002308D9
:100A5000A600052E2E08253A03192F2D302D3C2DEA
:100A60002E08A3002D088400230883138000013082
:100A7000A3002308AD07052EA701432D192E582DDD
:100A8000582D052E582D0130A007FF302007840077
:100A90000A128A110D200A128A11AE00003A0319B7
:100AA000192E643A0319582D0D3A0319582D052EA5
:100AB0002608840083130008A900840A0008AA00FD
:100AC0000230A3002308A607AA1F672D682D722DE8
:100AD0000330A3002308A704A909AA09A90A031936
:100AE000AA0A722DAE01AE0A2E08053A031D792D11
:100AF0007A2D7C2DA42DA42D2E08A3002307013EC2
:100B000084000A128A110D200A128A11A4000A1206
:100B10008A110D200A128A11A50025082A02031D38
:100B2000932D240829020318962D972D992DA42D75
:100B3000A42D0130A3002308AE072E08053A031D9B
:100B4000A22DA32D7C2DA42D270803390319A92D2F
:100B5000AA2DB62D2D30A3002D0884002308831361
:100B600080000130A3002308AD07B62D2E08A30096
:100B70002308A800F92D0A30F8000030F9002808F1
:100B8000A3002307013E84000A128A110D200A12D5
:100B90008A11F0000A128A110D200A128A11F1003E
:100BA0002A08F301F3072908F201F2070A128A1151
:100BB0003C220A128A117108FB01FB077008FA0136
:100BC000FA070A128A111F210A128A117808303E88
:100BD00083120313A4002408AE002E08A3002D08DE
:100BE00084002308831380000130A3002308AD078D
:100BF000F92DFF30A3002308A8072808FF3A031D9A
:100C0000022E032EBB2D052E052E0130A007FF302E
:100C1000200784000A128A110D200A128A11A300EB
:100C20002308AE00AE08031D162E172E2A2D192EEE
:100C3000192E2D088400831380011E2E08008312B4
:100C40000313EB01EC01E901EA013D308400B0300F
:100C5000B9000408BA002030BB00390884008317AB
:100C60000008BC00B90A3A08840083133C088000DD
:100C7000BA0ABB0B2D2E5D308400831603134A087D
:100C80008000840A4B088000840A4C088000840A93
:100C90004D088000840A4E08800052088312031316
:100CA000E70083160313510883120313E60083162B
:100CB0000313500883120313E500831603134F0830
:100CC00083120313E400E801652E0030F0000030C9
:100CD000F1000530F2000030F3005D300A128A1591
:100CE000E3250A128A110030F0000030F1000430D0
:100CF000F2000030F30064300A128A15E3250A126C
:100D00008A11831203136C08B001B0076B08AF019E
:100D1000AF070030B1000030B2000A128A11632020
:100D20000A128A1183120313E801962EF030B900DB
:100D300039088604061A9D2E9E2EB42E0130EB072C
:100D40000318EC0A0030EC076C08B001B0076B0820
:100D5000AF01AF070030B1000030B2000A128A11B3
:100D600063200A128A11B42EF03083120313B900E3
:100D700039088604861ABD2EBE2ED42E0A30EB0703
:100D80000318EC0A0030EC076C08B001B0076B08E0
:100D9000AF01AF070030B1000030B2000A128A1173
:100DA00063200A128A11D42EF03083120313B90083
:100DB00039088604061BDD2EDE2EF42E6430EB0788
:100DC0000318EC0A0030EC076C08B001B0076B08A0
:100DD000AF01AF070030B1000030B2000A128A1133
:100DE00063200A128A11F42EF03083120313B90023
:100DF00039088604861BFD2EFE2E012FE801E80A25
:100E0000012F6808031D052F962E062F3E30B900CE
:100E10003908A0006C08A201A2076B08A101A10774
:100E20005D300A128A1122250A128A11482F0A30CF
:100E3000F0000030F100831203136C08F301F30794
:100E40006B08F201F2070A128A11D8220A128A11DB
:100E5000700883120313E9070318EA0A7108EA0706
:100E60000A30F0000030F1006C08F301F3076B0862
:100E7000F201F2070A128A110E240A128A1171086D
:100E800083120313EC01EC077008EB01EB07482F0A
:100E9000831203136C086B04031D4F2F502F172F61
:100EA000512F3E30B9003908A0006A08A201A207FC
:100EB0006908A101A10764300A128A1122250A12C9
:100EC0008A11831203136A08B001B0076908AF01E1
:100ED000AF070130B1000030B2000A128A1163205E
:100EE0000A128A110A3083120313E2000030E30071
:100EF0000A30F0000030F1006A08F301F3076908D6
:100F0000F201F2070A128A11D8220A128A11710814
:100F10007004031D8C2F8D2FAA2F952F952F0A1249
:100F20008A11A0200A128A11952FFF308312031311
:100F3000E2070318E30AFF30E307FF306306031DEF
:100F4000A32FFF306206031DA62FA72F8F2FAA2FD6
:100F5000AA2FAA2FF03083120313B9003908860490
:100F6000861BB32FB42FB62FE42FE42FF030B90037
:100F700039088604061BBD2FBE2FAA2F5D30B9008D
:100F80003908F5006430BA003A08F6003D300A121C
:100F90008A1180240A128A110A128A15C6270A1297
:100FA0008A113D300A128A152C260A128A112C3019
:100FB00083120313A1008030A2000A128A157C2636
:100FC0000A128A11AA2FAA2F0030F0000030F10077
:100FD0002030F2000030F3003D300A128A15E3257C
:100FE0000A128A1183120313EB01EC01E901EA01F1
:100FF0000A128A15C6270A128A11652E652E080064
:1018DE000A128A1590240A128A150A128A15B82439
:1018EE000A128A1508000A128A153E250A128A154E
:1018FE000A128A156F240A128A1508000A128A150E
:10190E009D240A128A150A128A156F240A128A1544
:10191E0008008312031387150530F0000030F10024
:10192E000A128A15EB240A128A150800831603136D
:10193E0007160530F0000030F1000A128A15EB246C
:10194E000A128A15080020340034003400340034A2
:10195E002034003400340034003420340034003499
:10196E000034F730F2007208831203138705053036
:10197E00F0000030F1000A128A15EB240A128A15C3
:10198E0008000A128A152C270A128A15F600760804
:10199E00F7000A128A157A240A128A157708D72CAC
:1019AE0008007E088A007F0882000A128A15D82451
:1019BE000A128A158000840A04087D060319003471
:1019CE00FF0A0319FE0ADC2CED2CED2C0130F0027F
:1019DE000030031CF103F102FF307106031DF92CD8
:1019EE00FF307006031DFC2CFD2CED2CFE2C080088
:1019FE000A128A152C270A128A15F6007608F700A5
:101A0E000A128A1585240A128A150A128A15542575
:101A1E000A128A15122D08000A128A159D240A121E
:101A2E008A150A128A1590240A128A150A128A1524
:101A3E003E250A128A150A128A15B8240A128A1528
:101A4E0008000A128A1590240A128A1583120313AB
:101A5E00071E322D332D362DED01ED0A382DED01F9
:101A6E00382D0A128A15B8240A128A150800EF308A
:101A7E00F2007208831203138705EF30F20072082A
:101A8E008316031387050530F0000030F1000A12AB
:101A9E008A15EB240A128A1508000A128A153E25A9
:101AAE000A128A150A128A15B8240A128A150A12FF
:101ABE008A1590240A128A150A128A159D240A1272
:101ACE008A150A128A15B8240A128A1508007A088D
:101ADE00F701F7077908F601F6070A128A11A6210F
:101AEE000A128A150A128A1513250A128A158316E6
:101AFE000313561456080A128A155D270A128A1500
:101B0E000800F030831203138600F030831603139F
:101B1E0086000A128A1153200A128A150A128A1195
:101B2E0062210A128A150A128A11A5230A128A152F
:101B3E00A02D0A128A1100288312031306157308AA
:101B4E00F101F1077208F001F0070A128A15EB2471
:101B5E000A128A158312031306117308F101F10795
:101B6E007208F001F0070A128A15EB240A128A1580
:101B7E000800F2007208F1007108F300CF2D013059
:101B8E00F1007108F3070130F1007108F007CF2D55
:101B9E00700884000A128A110D200A128A15F100AB
:101BAE00730884007108831380008008031DE02DE4
:101BBE00E12DC62DE22D0800F5007508F40074081D
:101BCE00F600F52D7008F40076088400740883136F
:101BDE0080000130F4007408F607F52D0130F20292
:101BEE000030031CF303F302FF307306031D012EB6
:101BFE00FF307206031D042E052EE92D062E080059
:101C0E00FB00FB08031D0C2E0D2E1B2E7908FA006F
:101C1E007A0883120313EE007908803E0A128A11A5
:101C2E0089220A128A152B2E7908103EFA007A089C
:101C3E0083120313EE007908C03E0A128A1189221C
:101C4E000A128A152B2E2B2E0800FD000030F600EE
:101C5E000030F7000A128A11A6210A128A15452EA3
:101C6E007D088400831300080A128A15FC260A12C6
:101C7E008A150130FC007C08FD07452E7D08840086
:101C8E0083138008031D4C2E4D2E372E4E2E0A1216
:101C9E008A1554250A128A150800ED01EE01EF018E
:101CAE0083160313D301D401D5018317D030FD0061
:101CBE000030FE00DF30FF00903084000A128A15DB
:101CCE00DC240A128A158313D330FD000C30FE007B
:101CDE00AA30FF00C53084000A128A15DC240A12CD
:101CEE008A1583010A128A15882D942E83120313E6
:101CFE002208FF00210884000A128A1103200A120A
:101D0E008A150A128A113C230A128A15013083128F
:101D1E000313A1070318A20A942E83120313220899
:101D2E00FF00210884000A128A1103200A128A1564
:101D3E000038031DA32EA42E7D2EA52E080083127F
:101D4E0003130608F0007008F2008316031306084A
:101D5E00F0007008F3000F30F00070088605F030C8
:101D6E00F00070088312031386040609F000700851
:101D7E00F10072088600730883160313860071083B
:101D8E00F00004300310F00CFF3E031DC92E700846
:101D9E00D02E080083120313A501A4010B30A1005D
:101DAE008030A2000A128A157C260A128A15DF2EAE
:101DBE00F03083120313A30023088604061AE82EBC
:101DCE00E92EED2EA401A40AA501A50A861AF02E6D
:101DDE00F12EF42EA501A50AF42E2508031DF82ECA
:101DEE00DF2EF92E2408FB2E0800FB007B080A12BA
:101DFE008A155D270A128A15013083160313D3073D
:101E0E000318D40A0030D4073F305305F9000030D0
:101E1E005405FA007A0879040319162F172F192F73
:101E2E002B2F2B2F0A128A1554250A128A15831668
:101E3E0003135408F701F7075308F601F6070A12C1
:101E4E008A11A6210A128A150800F5010830F3003E
:101E5E007308F4000A128A159D240A128A15512F4E
:101E6E007508F3007308F5070A128A1590240A12F2
:101E7E008A1583120313071E452F462F4B2F013051
:101E8E00F3007308F5074B2F0A128A15B8240A12AD
:101E9E008A15512F0130F4027408FF3A031D582F92
:101EAE00592F372F5A2F75085C2F0800F500083070
:101EBE00F3007308F4007C2FF51F662F672F6D2F2C
:101ECE000A128A159D240A128A15722F0A128A1571
:101EDE003E250A128A150A128A156F240A128A15CD
:101EEE007508F3007308F5077C2F0130F4027408AF
:101EFE00FF3A031D832F842F632F852F0A128A1515
:101F0E009D240A128A150A128A1528250A128A1584
:101F1E000800F3007308F2007208F4009B2F0130E2
:101F2E00F2007208F4079B2F740884008313800854
:101F3E00031DA22FA32F962FAE2FAE2F0130F2002E
:101F4E007208F4070130F0070318F10AAE2F71087A
:101F5E0083120313FF00700884000A128A110320F3
:101F6E000A128A15F2007408840072088313800026
:101F7E008008031DC32FC42FA52FC52F0800831261
:101F8E000313A40120302402031CCE2FCF2FD12FF8
:101F9E00FF2FFF2F24080F39A1002108F900103060
:101FAE00F0000030F1002408A200A3012208F20084
:101FBE002308F3000A128A110E240A128A157008D9
:101FCE000A128A1507260A128A1520300A128A1159
:101FDE003C230A128A15013083120313A100210833
:101FEE00A40720302402031CFD2FFE2FD12FFF2F1C
:021FFE000800D9
:02400E003AFF77
:00000001FF
