:060000000A128A11122809
:10000800FE00030EF0000408F1000A08F200831253
:1000180003137F08F3000A168A15A42A0A168A15FC
:10002800412C83160313B900673083120313EA00C7
:100038006A0883160313A7004B2F3D08253A0319B6
:10004800262827283B283D0883120313EA00831635
:10005800031339088400831203136A088317800086
:100068000130EA006A0883160313B9074B2FAC0165
:10007800AD014328692F2D1560284B2F6028831266
:1000880003136608EB006508EA000130E50703186A
:10009800E60A6B08FF006A0884000A168A15002021
:1000A8000A128A1183160313BD00003A0319692F37
:1000B800663A03193F284B2F00302C05831203138F
:1000C800EA000730831603132D0583120313EB0090
:1000D8006B086A04031971287228242F06308316C6
:1000E8000313AE000030AF00270884008313000814
:1000F800BA00840A0008BB00840A0008BC00033068
:1001080083120313EA006A0883160313A7073A0841
:1001180083120313A000831603133B0883120313EF
:10012800A100831603133C0883120313A2000030B6
:10013800A3000030A4000030A5000A168A114B2144
:100148000A128A110318A928AA28D8288316031383
:100158003A0883120313A000831603133B08831283
:100168000313A100831603133C0883120313A20090
:100178000A168A15C1210A128A118312031320084C
:1001880083160313BA00831203132108831603137B
:10019800BB0083120313220883160313BC00033029
:1001A800AC040030AD04D82883160313B701B80196
:1001B8003C083B043A040319E228E328152ABA301C
:1001C80084008313000883120313EA00840A0008DA
:1001D800EB00840A0008EC00840A0008ED000F30E8
:1001E8000310ED0CEC0CEB0CEA0CFF3E031DF4289D
:1001F800FF306A05EE0000306B05EF006E08823EA6
:1002080083160313B700831203136F080318013E04
:10021800FF3E83160313B800FF30B7070318B80A68
:10022800FF30B807033083120313A0000030A10089
:1002380083160313380883120313A301A307831635
:100248000313370883120313A201A2070A168A159B
:1002580015240A128A118312031321088316031323
:10026800B801B80783120313200883160313B701D4
:10027800B7070A3083120313A6000030A7008316BD
:100288000313380883120313A901A907831603135C
:10029800370883120313A801A8070A128A151C201D
:1002A8000A128A1183120313270883160313B8014D
:1002B800B80783120313260883160313B701B70779
:1002C800B81F672968296F29FF30B7070318B80ACC
:1002D800FF30B8076F293703FF3A0A128A15F92445
:1002E8000A128A1183120313420883160313B400F7
:1002F80083120313430883160313B50083120313F1
:10030800440883160313B6003A0883120313B20095
:10031800831603133B0883120313B30083160313D6
:100328003C0883120313B4008316031334088312A2
:100338000313B50083160313350883120313B6009D
:1003480083160313360883120313B7000A168A119B
:1003580078240A128A1183120313320883160313AE
:10036800B40083120313330883160313B5008312F2
:100378000313340883160313B600340883120313D7
:10038800A00083160313350883120313A1008316F4
:100398000313360883120313A2000030A300803031
:1003A800A4003F30A5000A168A114B210A128A11AF
:1003B8000318DF29E029E929FF3083160313B7075B
:1003C8000318B80AFF30B807152A83160313340830
:1003D80083120313A0008316031335088312031333
:1003E800A10083160313360883120313A2000030FA
:1003F800A3002030A4004130A5000A168A114B2121
:100408000A128A11031C092A0A2A152A013083169E
:100418000313B7070318B80A0030B807152A152AB6
:10042800152A831603132F08803AFF0080307F02B5
:10043800031D202A0D302E020318232A242A5E2A9F
:10044800831603132E080A128A1590200A128A119D
:10045800831203134208D2004308D3004408D4008F
:10046800831603133A0883120313D5008316031364
:100478003B0883120313D600831603133C08831228
:100488000313D7000A168A1166250A128A118312E5
:100498000313520883160313BA0083120313530875
:1004A80083160313BB008312031354088316031324
:1004B800BC005E2A831603133808803AFF00803098
:1004C8007F02031D692A0A30370203186C2A6D2A35
:1004D800A52A831603133C083B043A040319752A1A
:1004E800762A802B3A0883120313CB008316031352
:1004F8003B0883120313CC00831603133C088312B2
:100508000313CD000A168A1128220A128A118312AF
:1005180003134E084D044C044B04031D942A952ADA
:10052800802B831603133808803AFF0080307F023F
:10053800031DA02A02303702031CA32AA42A802BF9
:10054800A52A83160313340883120313A000831605
:100558000313350883120313A10083160313360807
:1005680083120313A2007030A3008930A400403026
:10057800A5000A168A114B210A128A110318C52AE6
:10058800C62ACF2AF73083160313B7070318B80A09
:10059800FF30B807D82AF83083160313B7070318B3
:1005A800B80AFF30B807D82A37080A128A15F9247A
:1005B8000A128A1183120313420883160313B40024
:1005C80083120313430883160313B500831203131E
:1005D800440883160313B600312B3A088312031319
:1005E800A000831603133B0883120313A10083168C
:1005F80003133C0883120313A20083160313340861
:1006080083120313A30083160313350883120313FD
:10061800A40083160313360883120313A5000A16D1
:100628008A11AB260A128A11831203132308831630
:100638000313A60083120313220883160313A500CD
:1006480083120313210883160313A40083120313D0
:10065800200883160313A300712B3A08831203138F
:10066800A000831603133B0883120313A10083160B
:1006780003133C0883120313A200831603133408E0
:1006880083120313A300831603133508831203137D
:10069800A40083160313360883120313A5000A1651
:1006A8008A1196230A128A118312031323088316C8
:1006B8000313A60083120313220883160313A5004D
:1006C80083120313210883160313A4008312031350
:1006D800200883160313A300712B2608B3002508EE
:1006E800B2002408B1002308B0000030BA0000307E
:1006F800BB000030BC00FE2B831603133A0883129C
:100708000313CB00831603133B0883120313CC0097
:10071800831603133C0883120313CD000A168A11AB
:1007280028220A128A11831203134E088316031310
:10073800B300831203134D0883160313B200831208
:1007480003134C0883160313B100831203134B08D9
:1007580083160313B000330883120313AB00831608
:100768000313320883120313AA00831603133108F4
:1007780083120313A900831603133008831203138B
:10078800A8000A168A1541250A128A118312031332
:100798002808DF002908E0002A08E100831603136F
:1007A8003A0883120313E200831603133B088312EB
:1007B8000313E300831603133C0883120313E400B6
:1007C8000A168A15C2220A128A11831203135F08B5
:1007D80083160313BA0083120313600883160313E6
:1007E800BB0083120313610883160313BC00B7010F
:1007F800B801FE2BBD01BD0A3D080A3A031D052CB0
:10080800062C082C632C632C3D0883120313EA0082
:1008180001300310EA0DFF3E031D0D2C03106A0D75
:10082800123E840098300318013EFF000A168A150C
:1008380000200A128A11EB000A168A1500200A12F3
:100848008A11EC000A168A1500200A128A11ED0096
:100858000A168A1500200A128A11EE006E088316FD
:1008680003133302031D4E2C831203136D088316E2
:1008780003133202031D4E2C831203136C088316D4
:1008880003133102031D4E2C831203136B088316C6
:10089800031330020318512C522C542C632C632C54
:1008A800013083120313EA006A0883160313BD0795
:1008B8003D080A3A031D612C622C082C632C033076
:1008C8002C0583120313EA000030831603132D0549
:1008D80083120313EB006B086A040319742C752C3C
:1008E800192D2D30EA00831603133908840083126A
:1008F80003136A08831780000130EA006A08831628
:100908000313B907192D192D3D0883120313EA00A3
:1009180001300310EA0DFF3E031D8D2C03106A0DF4
:10092800123E840098300318013EFF000A168A150B
:1009380000200A128A11A0000A168A1500200A123D
:100948008A11A1000A168A1500200A128A11A2002B
:100958000A168A1500200A128A11A30083160313A7
:10096800330883120313A700831603133208831274
:100978000313A60083160313310883120313A5007B
:1009880083160313300883120313A4000A168A116E
:10099800B9210A128A11831203132108831603133B
:1009A800A901A90783120313200883160313A801BA
:1009B800A8070A3083120313A0000030A100831691
:1009C8000313290883120313A301A3078316031330
:1009D800280883120313A201A2070A168A15712692
:1009E8000A128A1183120313210883160313A9011B
:1009F800A90783120313200883160313A801A80765
:100A08002808303E83120313EA00831603133908BB
:100A18008400831203136A08831780000130EA00F8
:100A28006A0883160313B907192DFF308312EA00E9
:100A38006A0883160313BD073D08FF3A031D252DD9
:100A4800262D882C422D422D303083120313EA00C4
:100A58008316031339088400831203136A08831763
:100A680080000130EA006A0883160313B907FF30D3
:100A7800B7070318B80AFF30B807422D3808803A7C
:100A8800FF0080307F02031D4B2D01303702031811
:100A98004E2D4F2D282D502D831603132F08803AE5
:100AA800FF0080307F02031D5B2D09302E02031CDE
:100AB8005E2D5F2D682D083083120313EA006A0843
:100AC80083160313BD00722D831603132E08831299
:100AD8000313EA006A0883160313BD003D08831256
:100AE8000313EA00EB01EA1BEB036A0883160313FE
:100AF800AE02831203136B0883160313031CAF03A0
:100B0800AF023D08031D892D9D2D2E30831203133E
:100B1800EA008316031339088400831203136A0852
:100B2800831780000130EA006A0883160313B907A7
:100B38009D2D3D080A128A15F9240A128A1183127A
:100B48000313420883160313A000831203134308F8
:100B580083160313A1008312031344088316031397
:100B6800A200200883120313B5008316031321087B
:100B780083120313B6008316031322088312031388
:100B8800B700831603133A0883120313B2008316BF
:100B980003133B0883120313B300831603133C08A3
:100BA80083120313B4000A168A1178240A128A11D0
:100BB800831203133208CB003308CC003408CD006D
:100BC8000A168A1128220A128A11831203134E0860
:100BD80083160313B300831203134D0883160313FC
:100BE800B200831203134C0883160313B100831257
:100BF80003134B0883160313B000F22E3D0883122B
:100C08000313EA0001300310EA0DFF3E031D072E0F
:100C180003106A0D123E840098300318013EFF004D
:100C28000A168A1500200A128A11A0000A168A15C7
:100C380000200A128A11A1000A168A1500200A1239
:100C48008A11A2000A168A1500200A128A11A30026
:100C580083160313330883120313A70083160313A1
:100C6800320883120313A600831603133108831274
:100C78000313A50083160313300883120313A4007B
:100C88000A168A11B9210A128A118312031321083C
:100C980083160313AB01AB078312031320088316D3
:100CA8000313AA01AA070A3083120313A000003015
:100CB800A100831603132B0883120313A301A307B0
:100CC800831603132A0883120313A201A2070A1624
:100CD8008A1571260A128A118312031321088316B2
:100CE8000313AB01AB078312031320088316031306
:100CF800AA01AA072A08303E83120313EA008316C2
:100D0800031339088400831203136A0883178000C9
:100D18000130EA006A0883160313B9073D088312F5
:100D28000313EA0001300310EA0DFF3E031D972E5E
:100D380003106A0D123E840098300318013EFF002C
:100D48000A168A1500200A128A11A0000A168A15A6
:100D580000200A128A11A1000A168A1500200A1218
:100D68008A11A2000A168A1500200A128A11A30005
:100D780083160313330883120313A7008316031380
:100D8800320883120313A600831603133108831253
:100D98000313A50083160313300883120313A4005A
:100DA8000A168A15A3270A128A1183120313230825
:100DB80083160313B3008312031322088316031345
:100DC800B20083120313210883160313B1008312A0
:100DD8000313200883160313B000F22EFF3083128A
:100DE8000313EA006A0883160313BD073D08FF3A98
:100DF800031DFF2E002F022E1C2F1C2F30308312B4
:100E08000313EA00831603133908840083120313BB
:100E18006A08831780000130EA006A088316031302
:100E2800B907FF30AE070318AF0AFF30AF071C2F12
:100E38002F082E04031D212F222F022F4B2F4B2F5B
:100E48000330831603132C0583120313EA000030C2
:100E5800831603132D0583120313EB006B086A0432
:100E68000319372F382F4B2F2D30EA008316031321
:100E780039088400831203136A088317800001303D
:100E8800EA006A0883160313B9074B2F4B2F831206
:100E98006608EB006508EA000130E5070318E60A72
:100EA8006B08FF006A0884000A168A1500200A12D7
:100EB8008A11EC006C0883160313BD00BD08031DDE
:100EC800662F672F2128692F692F39088400831717
:100ED80080016E2F0800831203132308031D752F4A
:100EE8007D2F220821042004031D7B2F7C2F932FA4
:100EF8007D2F0030A0000030A1000030A200EB2FB1
:100F0800EB2F932F0130A5002508A307013003100C
:100F1800A20CA10CA00CFF3E031D8B2F932FFE30BB
:100F28002205031D982F992F862FB12FB12F01303D
:100F3800A5002508A3070130A007003003180130D9
:100F4800A107003003180130A20701300310A20CDA
:100F5800A10CA00CFF3E031DAA2FFF302205031D84
:100F6800B62FB72F9B2FC42FC42F0130A3020130F7
:100F78000310A00DA10DA20DFF3E031DBC2FC42F11
:100F8800A11FC72FC82FB92F2318CB2FCC2FD22F93
:100F9800FF30A0057F30A105FF30A2050310A30C88
:100FA8002308A500A601A70110300310A50DA60D62
:100FB800A70DFF3E031DD92F2508A0042608A1046C
:100FC8002708A2042408031DEA2FEB2FA217080004
:100FD8000A168A159F240A128A1183120313A40081
:100FE8002408A5000A168A159C210A128A11831260
:100FF80003132508FF2F0800831203132808A501EF
:10100800A5072708A401A4070A168A1501270A12AA
:101018008A150A168A1516220A128A1583160313C8
:101028006D146D080A168A150A250A128A15080011
:1010380083120313AB01A71F222823282B28A609F4
:10104800A709A60A0319A70AAB01AB0A2B28A91FEF
:101058002E282F283928A809A909A80A0319A90A96
:101068000130F5007508AB063928AC01AD01270839
:1010780026040319402841287E28AA01AA0A5028D4
:1010880001300310A60DA70DFF3E031D45280130B2
:10109800F5007508AA075028A71F53285428442884
:1010A8005628562801300310AC0DAD0DFF3E031D28
:1010B800572827082902031D632826082802031C2D
:1010C800662867286F282608A8022708031CA90392
:1010D800A9022C146F2801300310A70CA60CFF3EA0
:1010E800031D70280130AA02031D7B287C2856287E
:1010F8007E287E282B08031D82288828AC09AD0984
:10110800AC0A0319AD0A88282D08A701A7072C08DF
:10111800A601A6078F28080083120313D1006E309A
:101128005102031C982899288A290330C5004508CC
:10113800AE000A30A6000030A7005108C600C7015B
:101148004608A2004708A3006430A0000030A100B0
:101158000A168A117C200A128A15831203132108A1
:10116800A901A9072008A801A8070A128A151C20A6
:101178000A128A15831203132608093E0A168A15CD
:101188006D220A128A153A3E840098300318013EEF
:1011980083120313FF000A168A1500200A128A1503
:1011A800B2000A168A1500200A128A15B3000A1618
:1011B8008A1500200A128A15B4000330C8004808AE
:1011C800AE006430A6000030A7005108C900CA016B
:1011D8004908A8004A08A9000A128A151C200A1200
:1011E8008A15831203132608123E0A168A156D22E1
:1011F8000A128A153A3E840098300318013E831279
:101208000313FF000A168A1500200A128A15B50072
:101218000A168A1500200A128A15B6000A168A15B7
:1012280000200A128A15B7000A168A1178240A12B1
:101238008A15831203133208CE003308CF0034080E
:10124800D0000330C5004508AE005108C600C701EC
:101258004608A2004708A3000A30A0000030A100F9
:101268000A168A117C200A128A1583120313200891
:101278000A168A156D220A128A153A3E8400983099
:101288000318013E83120313FF000A168A15002073
:101298000A128A15B2000A168A1500200A128A153F
:1012A800B3000A168A1500200A128A15B4004E08DF
:1012B800B5004F08B6005008B7000A168A117824FE
:1012C8000A128A15831203133208CB003308CC00A4
:1012D8003408CD000030B2000030B3003F30B40015
:1012E8004B08B5004C08B6004D08B7000A168A111D
:1012F80078240A128A15831203133208C2003308AD
:10130800C3003408C4005E2A5E2A262A0B30510224
:10131800031C8F299029262A0330C5004508AE00F2
:101328005108C600C7014608A2004708A3000A30B2
:10133800A0000030A1000A168A117C200A128A1522
:101348008312031320080A168A156D220A128A15B9
:101358003A3E840098300318013E83120313FF00BD
:101368000A168A1500200A128A15B2000A168A156A
:1013780000200A128A15B3000A168A1500200A12DC
:101388008A15B4000330C8004808AE000A30A60029
:101398000030A7005108C900CA014908A8004A0836
:1013A800A9000A128A151C200A128A15831203132F
:1013B8002608093E0A168A156D220A128A153A3E2F
:1013C800840098300318013E83120313FF000A16A5
:1013D8008A1500200A128A15B5000A168A150020F7
:1013E8000A128A15B6000A168A1500200A128A15EA
:1013F800B7000A168A1178240A128A158312031371
:101408003208CE003308CF003408D0000030B200D4
:101418000030B3003F30B4004E08B5004F08B600A6
:101428005008B7000A168A1178240A128A158312FE
:1014380003133208C2003308C3003408C4005E2A0C
:101448005E2A262A0030B2000030B3003F30B400D4
:101458000330C5004508AE0051080A168A156D22EA
:101468000A128A153A3E840098300318013E831206
:101478000313FF000A168A1500200A128A15B50000
:101488000A168A1500200A128A15B6000A168A1545
:1014980000200A128A15B7000A168A1178240A123F
:1014A8008A15831203133208C2003308C3003408B4
:1014B800C4005E2A080083160317C301BB01BB0AD8
:1014C800B0308400E43083160313BE000408BF0064
:1014D8000830C0003E08840083170008C100BE0A17
:1014E8003F08840041088000BF0AC00B6E2A903074
:1014F80084001030BE000408BF002030C0003E0841
:10150800840083170008C100BE0A3F088400410810
:101518008000BF0AC00B832A8312031301088316B5
:101528000313BE00BF01C001C101410883160317A0
:10153800BF0083160313400883160317BE008316E3
:1015480003133F0883160317BD00831603133E08D1
:1015580083160317BC000030B8000030B900003013
:10156800BA000030C0000030C1000030C200BC2A00
:101578000A168A15B3250A128A150030831603172E
:10158800EF000030EE000030ED000030EC00831278
:1015980003138101FF3083160313BE00FF30BF0021
:1015A800FF30C000FF30C1000130831603173C052F
:1015B80083160313C2000030831603173D058316F4
:1015C8000313C3000030831603173E058316031365
:1015D800C4000030831603173F0583160313C500A4
:1015E8004208BE0743080318430FFB2AFC2ABF071B
:1015F80044080318440F012B022BC00745080318A1
:10160800450AC107410840043F043E0403190D2B55
:101618000E2B332BF33083120313B4009830B5002C
:101628000A168A1596230A128A151A2BF030831681
:101638000313BE003E08831203138604061A252BE3
:10164800262B2B2B83160317C301C30A2B2B8316B8
:1016580003174308031D312B1A2B572B572B053023
:1016680083120313B4009930B5000A168A1596231D
:101678000A128A153F2BF03083160313BE003E086A
:10168800831203138604861A4A2B4B2B502B83167E
:101698000317C301C30A502B831603174308031DFE
:1016A800562B3F2B572BC3016C0883160313BE0020
:1016B800831603176D0883160313BF0083160317D9
:1016C8006E0883160313C000831603176F0883166A
:1016D8000313C10008300310BE0DBF0DC00DC10DAE
:1016E800FF3E031D6F2B8312031301088316031398
:1016F8003E0783160317BC00831603133F0803181D
:101708003F0F031083160317BD0083160313400809
:101718000318400F031083160317BE008316031324
:1017280041080318410A83160317BF0020308312AB
:101738000313AF009930B0004630B1008316031789
:101748003F0883120313AB00831603173E08831266
:101758000313AA00831603173D0883120313A90075
:10176800831603173C0883120313A8000A168A1568
:1017780041250A128A15831203132808B200290882
:10178800B3002A08B4000A168A11CE220A128A1552
:10179800831203132F0883160317B8008312031349
:1017A800300883160317B900831203133108831610
:1017B8000317BA00380883120313D20083160317DD
:1017C800390883120313D300831603173A088312C8
:1017D8000313D40083160317400883120313D5009C
:1017E80083160317410883120313D60083160317C1
:1017F800420883120313D7000A168A1166250A12B3
:101808008A1583120313520883160317C000831224
:101818000313530883160317C100831203135408D4
:1018280083160317C2001D3083120313E500993095
:10183800E600831603173B080A168A1501230A12C5
:101848008A15831203132808AF002908B0002A0854
:10185800B10083160317400883120313B2008316DE
:101868000317410883120313B300831603174208B2
:1018780083120313B4000A168A11CE220A128A159B
:10188800831203132F08E7003008E8003108E90045
:10189800B0300A128A1115200A128A1502308316EE
:1018A8000313BE003E0883120313AE0001300A166C
:1018B8008A1522230A128A15B03083120313B40042
:1018C8000130B5000A168A1596230A128A151730B0
:1018D80083120313B4009930B5000A168A159623AB
:1018E8000A128A15772CF03083160313BE003E08BF
:1018F800831203138604861B822C832C902C831658
:101908000317C301C30A013083160313BE003E0840
:1019180083160317BB07902C83120313061B952C01
:10192800962CEF2C8830AA009830AB000A168A153E
:1019380079250A128A15E030F4009830F5009030C5
:101948000A168A1547230A128A15B030F4000130A6
:10195800F50090300A168A15D4240A128A15173011
:10196800F4009930F50090300A168A15D4240A122A
:101978008A15903083120313AA000130AB000A16AF
:101988008A1579250A128A150A168A15B3250A12A4
:101998008A15CC3083120313B4009830B5000A16A8
:1019A8008A1596230A128A15B03083120313B400DD
:1019B8000130B5000A168A1596230A128A151730BF
:1019C80083120313B4009930B5000A168A159623BA
:1019D8000A128A15EF2C831603174308031DF52CEA
:1019E800772CC301BC2ABC2A080083120313CA003F
:1019F800CA1FFF2C002D812ECA09CA0A4A08803A3C
:101A0800123E031C082D092DDB2D0330C5004508A7
:101A1800AE000A30A6000030A7004A08A200A301C1
:101A2800A21BA3036430A0000030A1000A168A118B
:101A38007C200A128A15831203132108A901A90719
:101A48002008A801A8070A128A151C200A128A155C
:101A5800831203132608093E0A168A156D220A12F4
:101A68008A153A3E840098300318013E8312031306
:101A7800FF000A168A1500200A128A15B2000A16F3
:101A88008A1500200A128A15B3000A168A15002042
:101A98000A128A15B4000330C6004608AE00643046
:101AA800A6000030A7004A08A800A901A81BA9039E
:101AB8000A128A151C200A128A1583120313260893
:101AC800123E0A168A156D220A128A153A3E8400B9
:101AD80098300318013E83120313FF000A168A1573
:101AE80000200A128A15B5000A168A1500200A1263
:101AF8008A15B6000A168A1500200A128A15B70038
:101B08000A168A1178240A128A15831203133208D6
:101B1800C7003308C8003408C9000330C5004508A9
:101B2800AE004A08A200A301A21BA3030A30A0002A
:101B38000030A1000A168A117C200A128A15831225
:101B4800031320080A168A156D220A128A153A3ECE
:101B5800840098300318013E83120313FF000A160D
:101B68008A1500200A128A15B2000A168A15002062
:101B78000A128A15B3000A168A1500200A128A1555
:101B8800B4004708B5004808B6004908B7000A1667
:101B98008A1178240A128A15831203133208C200A4
:101BA8003308C3003408C400FF2FFF2F5B2E4A08F8
:101BB800803A753E031CE12DE22D5B2E0330C500F3
:101BC8004508AE004A08A200A301A21BA3030A30DD
:101BD800A0000030A1000A168A117C200A128A157A
:101BE8008312031320080A168A156D220A128A1511
:101BF8003A3E840098300318013E83120313FF0015
:101C08000A168A1500200A128A15B2000A168A15C1
:101C180000200A128A15B3000A168A1500200A1233
:101C28008A15B4000330C6004608AE000A30A60084
:101C38000030A7004A08A800A901A81BA9030A1296
:101C48008A151C200A128A15831203132608093ED6
:101C58000A168A156D220A128A153A3E84009830AF
:101C68000318013E83120313FF000A168A15002089
:101C78000A128A15B5000A168A1500200A128A1552
:101C8800B6000A168A1500200A128A15B7000A1625
:101C98008A1178240A128A15831203133208C200A3
:101CA8003308C3003408C400FF2FFF2F5B2E033016
:101CB800C5004508AE004A080A168A156D220A12A0
:101CC8008A153A3E840098300318013E83120313A4
:101CD800FF000A168A1500200A128A15C2000A1681
:101CE8008A1500200A128A15C3000A168A150020D0
:101CF8000A128A15C400FF2FFF2F4A08803A123EA5
:101D0800031C872E882E5A2F0330C5004508AE00C5
:101D18000A30A6000030A7004A08A200A301A21BAF
:101D2800A3036430A0000030A1000A168A117C20A9
:101D38000A128A15831203132108A901A90720088A
:101D4800A801A8070A128A151C200A128A158312EC
:101D580003132608093E0A168A156D220A128A15E7
:101D6800613E840098300318013E83120313FF007C
:101D78000A168A1500200A128A15B2000A168A1550
:101D880000200A128A15B3000A168A1500200A12C2
:101D98008A15B4000330C6004608AE006430A600B9
:101DA8000030A7004A08A800A901A81BA9030A1225
:101DB8008A151C200A128A15831203132608123E5C
:101DC8000A168A156D220A128A15613E8400983017
:101DD8000318013E83120313FF000A168A15002018
:101DE8000A128A15B5000A168A1500200A128A15E1
:101DF800B6000A168A1500200A128A15B7000A16B4
:101E08008A1178240A128A15831203133208C7002C
:101E18003308C8003408C9000330C5004508AE00BF
:101E28004A08A200A301A21BA3030A30A0000030A5
:101E3800A1000A168A117C200A128A15831203133C
:101E480020080A168A156D220A128A15613E840036
:101E580098300318013E83120313FF000A168A15EF
:101E680000200A128A15B2000A168A1500200A12E2
:101E78008A15B3000A168A1500200A128A15B400BA
:101E88004708B5004808B6004908B7000A168A117D
:101E980078240A128A15831203133208C200330801
:101EA800C3003408C400FF2FFF2FDA2F4A08803AF6
:101EB800753E031C602F612FDA2F0330C5004508DB
:101EC800AE004A08A200A301A21BA3030A30A00087
:101ED8000030A1000A168A117C200A128A15831282
:101EE800031320080A168A156D220A128A15613E04
:101EF800840098300318013E83120313FF000A166A
:101F08008A1500200A128A15B2000A168A150020BE
:101F18000A128A15B3000A168A1500200A128A15B1
:101F2800B4000330C6004608AE000A30A6000030F0
:101F3800A7004A08A800A901A81BA9030A128A1524
:101F48001C200A128A15831203132608093E0A1652
:101F58008A156D220A128A15613E8400983003188A
:101F6800013E83120313FF000A168A1500200A1285
:101F78008A15B5000A168A1500200A128A15B600B5
:101F88000A168A1500200A128A15B7000A168A113D
:101F980078240A128A15831203133208C200330800
:101FA800C3003408C400FF2FFF2FDA2F0330C50009
:101FB8004508AE004A080A168A156D220A128A15C3
:101FC800613E840098300318013E83120313FF001A
:101FD8000A168A1500200A128A15C2000A168A15DE
:101FE80000200A128A15C3000A168A1500200A1250
:081FF8008A15C400FF2F080048
:102002000A168A1541220A168A110A168A15CF2142
:102012000A168A110A168A15A7210A168A110A16A1
:102022008A15B4210A168A110A168A15CF210A16B0
:102032008A11080083160313EA010A168A15EA2395
:102042000A168A11003A0319272828287528CA3047
:102052008400C43083160313C6000408C70020306E
:10206200C8004608840083170008C900C60A47084A
:102072008400831349088000C70AC80B3228CA307B
:102082000A168A15B6260A168A110A168A15B32561
:102092000A168A11CA3083120313B4000030B50045
:1020A2000A168A1596230A168A115728F0308316C3
:1020B2000313C6004608831203138604861B622894
:1020C2006328682883160313EA01EA0A682883163C
:1020D20003136A08031D6E2857286F280A128A15EF
:1020E2005F220A168A117B280A128A155F220A16B3
:1020F2008A117B28080083120313A501A31F8228DB
:1021020083288B28A209A309A20A0319A30AA501FD
:10211200A50A8B28A11F8E288F289528A009A1091E
:10212200A00A0319A10A95282108200403199A2854
:102132009B28D028A401A40AAA2801300310A00DCC
:10214200A10DFF3E031D9F280130F4007408A4076F
:10215200AA28A11FAD28AE289E28B028B0282108A1
:102162002302031DB62820082202031CB928BA281C
:10217200C1282008A2022108031CA303A302C1282C
:1021820001300310A10CA00CFF3E031DC228013038
:10219200A402031DCD28CE28B028D028D028250897
:1021A200031DD428DA28A209A309A20A0319A30A43
:1021B200DA282308A101A1072208A001A007E1282B
:1021C200080083120313B300EF28E830F400033051
:1021D200F5000A168A1502220A168A110A168A15AB
:1021E2006E240A168A110038031DF828F928E628F9
:1021F200FA280F30831203130605B1003308F039B1
:10220200310786000A30A0000030A1000A168A15A4
:1022120087220A168A110F30831203130605B100B2
:102222003308B20003300310B20DFF3E031D142920
:102232000310320D310786000A30A0000030A100E1
:102242000A168A1587220A168A110130831203138D
:10225200B1003108F7077708103A031D31293229F6
:102262003A29AE0101300A168A1522230A168A116A
:102272003A297708203A031D3F2940294A29831227
:102282000313AE0100300A168A1522230A168A1198
:102292004A29080083120313A21F502951297729C2
:1022A2000030A6000030A7008030A8002009A90055
:1022B2002109AA002209AB00A90A0319AA0A0319D3
:1022C200AB0A2908A6072A0803182A0F69296A29CE
:1022D200A7072B0803182B0F6F297029A8072608B8
:1022E200A0002708A1002808A2007729A51F7A29A3
:1022F2007B29A1290030A6000030A7008030A80069
:102302002309A9002409AA002509AB00A90A031977
:10231200AA0A0319AB0A2908A6072A0803182A0FD2
:1023220093299429A7072B0803182B0F99299A2977
:10233200A8072608A3002708A4002808A500A129A9
:102342008030A2068030A50625082202031DAF298F
:1023520024082102031DAF29230820020318B229F1
:10236200B329B5290310B8290314B829B8290800DC
:10237200003083120313AB000030AA000030A90022
:102382000030A80023082204210420040319CA29CA
:10239200CB291E2AAC01AC0ADC290130F40003105F
:1023A200A00DA10DA20DA30DF40BD0290130F40054
:1023B2007408AC07DC29A31FDF29E029CE29E22912
:1023C200E2290130F4000310A80DA90DAA0DAB0DEE
:1023D200F40BE42923082702031DF9292208260207
:1023E200031DF92921082502031DF92920082402C9
:1023F200031CFC29FD290D2A2008A4022108031C24
:10240200210FA5022208031C220FA6022308031C87
:10241200230FA70228140D2A01300310A30CA20CCB
:10242200A10CA00CFF3E031D0E2A0130AC02031DBD
:102432001B2A1C2AE2291E2A1E2A2B08A3002A086C
:10244200A2002908A1002808A000272A0800831258
:1024520003134B08CF004C08D0004D08D1000310E5
:10246200500D510DD2005208D800D808031D3A2A47
:102472003B2A452A0030CE000030CD000030CC008F
:102482000030CB00CD2ACD2A4B08CF004C08D0001B
:102492004D08D10017300310D10CD00CCF0CFF3EE9
:1024A200031D4C2A4F08D2005208D300CC17FF302C
:1024B200CB05FF30CC050030CD054B08D4004C08CD
:1024C200D5004D08D600D7018E30D802D81F6A2A0F
:1024D2006B2A902A5808803A8F3E0318712A722A72
:1024E2007D2A0030CE000030CD000030CC0000301C
:1024F200CB00CD2ACD2A7D2A01300310D70CD60C71
:10250200D50CD40CFF3E031D7E2A0130CF004F08AC
:10251200D807031D8D2A8E2A7D2AB42AB42A1830A0
:102522005802031C952A962AAD2A0030CE000030AC
:10253200CD000030CC000030CB00CD2ACD2AAD2A10
:102542000130CF000310D40DD50DD60DD70DCF0B12
:10255200A32A0130D802AD2AD808031DB12AB22A13
:10256200A12AB42AB42A5308031DB82AC42AD409BA
:10257200D509D609D709D40A0319D50A0319D60AE7
:102582000319D70AC42A5708CE005608CD005508A9
:10259200CC005408CB00CD2A080083120313320862
:1025A200B5003308B6003408B7000310360D370DF6
:1025B200B8003808BD00BD08031DE02AE12AE92A57
:1025C2000030AF000030B0000030B100952B952BE9
:1025D2002F08B5003008B6003108B7000310360DD9
:1025E200370DB8003808BE00BE08031DF92AFA2AC2
:1025F200022B0030AF000030B0000030B100952B4C
:10260200952B0030BA000030BB000030BC0089308E
:102612003E07B5003508BD023208B5003308B600E2
:102622003408B70010300310B70CB60CB50CFF3EDF
:10263200031D142B3508B8003808BE002F08B5005A
:102642003008B6003108B70010300310B70CB60CD2
:10265200B50CFF3E031D262B3508B8003808BE0610
:102662008030B5003508BE05B317FF30B205FF3024
:10267200B3050030B405B017FF30AF05FF30B00529
:102682000030B1051830B5003508B900482B0130CB
:102692000310BA0DBB0DBC0DFF3E031D492B3108C3
:1026A2003402031D5A2B30083302031D5A2B2F0804
:1026B2003202031C5D2B5E2B6A2B2F08B2023008FC
:1026C200031C300FB3023108031C310AB4023A145E
:1026D2006A2B01300310B20DB30DB40DFF3E031D82
:1026E2006B2B0130B902031D772B782B482B792BEA
:1026F2003A08A0003B08A1003C08A2003D08B50032
:102702003508A3003E08B6003608A4000A128A1152
:102712006F270A168A11831203132008AF002108BB
:10272200B0002208B100952B080083120313200881
:10273200A6002108A7002208A8000310270D280DD3
:10274200A9002908AF00AF08031DA82BA92BB32BA2
:102752000030A3000030A2000030A1000030A00031
:10276200772C772C2308A6002408A7002508A800A8
:102772000310270D280DA9002908AE00AE08031D7D
:10278200C32BC42BCE2B0030A3000030A20000309C
:10279200A1000030A000772C772CA117FF30A005F4
:1027A200FF30A1050030A205A417FF30A305FF30BA
:1027B200A4050030A5050030AD000030AC000030AB
:1027C200AB000030AA007F30AF0298302E07A6007F
:1027D2002608AF021830A6002608AE00F02B013002
:1027E200A6000310AA0DAB0DAC0DAD0DA60BF22B7E
:1027F20025082202031D032C24082102031D032C99
:1028020023082002031C062C072C132C2308A002E9
:102812002408031C240FA1022508031C250AA20276
:102822002A14132C01300310A00DA10DA20DFF3E9E
:10283200031D142C0130AE02031D202C212CF02B81
:10284200AF1F242C252C4A2C2F08803A973E0318C0
:102852002B2C2C2C372C0030A3000030A20000308F
:10286200A1000030A000772C772C372C0130031008
:10287200AD0CAC0CAB0CAA0CFF3E031D382C013086
:10288200A6002608AF07031D472C482C372C6E2CB8
:102892006E2C18302F02031C4F2C502C672C00304A
:1028A200A3000030A2000030A1000030A000772C6D
:1028B200772C672C0130A6000310AA0DAB0DAC0DCE
:1028C200AD0DA60B5D2C0130AF02672CAF08031DC6
:1028D2006B2C6C2C5B2C6E2C6E2C2D08A3002C0800
:1028E200A2002B08A1002A08A000772C080083125E
:1028F20003133208B8003308B9003408BA000310D1
:10290200390D3A0DBB003B08BC00BC08031D8A2CE4
:102912008B2C932C0030B2000030B3000030B40096
:10292200652D652D3508B8003608B9003708BA009C
:102932000310390D3A0DBB003B08C100C108031D4D
:10294200A32CA42CAC2C0030B2000030B300003019
:10295200B400652D652D41087B3EB8003808BC07E0
:102962003208B8003308B9003408BA001030031036
:10297200BA0CB90CB80CFF3E031DB82C3808BB00CA
:102982003B08C1003508B8003608B9003708BA005C
:1029920010300310BA0CB90CB80CFF3E031DCA2C40
:1029A2003808BB003B08C1068030B8003808C105B2
:1029B200B317B617FF30B505FF30B6050030B705BF
:1029C2000030BD000030BE000030BF000730B8004C
:1029D2003808C000EC2C321CEF2CF02C012D3508ED
:1029E200BD07360803110318360A0319F92CBE076E
:1029F200370803110318370A0319002DBF07012DE9
:102A020001300310B40CB30CB20CFF3E031D022DB7
:102A120001300310B50DB60DB70DFF3E031D0A2D93
:102A22000130C002031D162D172DEC2C182D093074
:102A3200B8003808C0001D2D321C202D212D322D4A
:102A42003508BD07360803110318360A03192A2D63
:102A5200BE07370803110318370A0319312DBF07C0
:102A6200322D01300310B40CB30CB20CFF3E031D27
:102A7200332D01300310BF0CBE0CBD0CFF3E031DF5
:102A82003B2D0130C002031D472D482D1D2D492D20
:102A92003D08A0003E08A1003F08A2003C08B80083
:102AA2003808A3004108B9003908A4000A128A11A3
:102AB2006F270A168A11831203132008B200210815
:102AC200B3002208B400652D0800831203135208D4
:102AD200D8005308D9005408DA000310590D5A0DD2
:102AE200DB005B08DE005508D8005608D9005708FD
:102AF200DA000310590D5A0DDB005B08DD005E0899
:102B0200031D842D952D5D085E020318892D8A2DE3
:102B12009D2D5E03FF3A5D07D80019305802031C51
:102B2200932D942D9D2D952D5508D2005608D30036
:102B32005708D400AA2EAA2E5D08031DA12DB12D7F
:102B42005E085D020318A62DA72DB22D5D03FF3A84
:102B52005E07D80019305802031CB02DB12DB22DDA
:102B6200AA2E0630D8005808DC00D41FB92DBA2D81
:102B7200BB2DDC17D71FBE2DBF2DC02D5C17D31761
:102B8200FF30D205FF30D3050030D405D617FF3011
:102B9200D505FF30D6050030D7055D085E02031863
:102BA200D32DD42D052ED52D01300310D50DD60DE4
:102BB200D70DFF3E031DD62D0130DD025D085E06F6
:102BC2000319E42DE52DFD2D0130DC025C080739E7
:102BD200031DEC2DED2DD52DFD2DFD2DFD2D0130EF
:102BE2000310D40CD30CD20CFF3E031DF12D013087
:102BF200D8005808DE07FD2D5E085D06031D022E73
:102C0200032EF02D3C2E3C2E5E085D0203180A2E88
:102C12000B2E3C2E0C2E01300310D20DD30DD40DF1
:102C2200FF3E031D0D2E0130DE025D085E06031914
:102C32001B2E1C2E342E0130DC025C080739031DCA
:102C4200232E242E0C2E342E342E342E013003103B
:102C5200D70CD60CD50CFF3E031D282E0130D80010
:102C62005808DD07342E5E085D06031D392E3A2E04
:102C7200272E3C2E3C2EDC1F3F2E402E512EFF30A5
:102C8200D206FF30D306FF30D4060130D20700301F
:102C920003180130D307003003180130D407512E36
:102CA2005C1F542E552E662EFF30D506FF30D606F9
:102CB200FF30D7060130D507003003180130D607A0
:102CC200003003180130D707662EDC015208D50701
:102CD200530803110318530A0319702ED607540818
:102CE20003110318540A0319772ED707D71F7A2E18
:102CF2007B2E8E2EFF30D506FF30D606FF30D7064C
:102D02000130D507003003180130D6070030031810
:102D12000130D707DC01DC0A8E2E5508A0005608C8
:102D2200A1005708A2005E08D8005808A3005C085A
:102D3200D9005908A4000A128A116F270A168A11AB
:102D4200831203132008D2002108D3002208D400E2
:102D5200AA2E080020308400831300088312031374
:102D6200A600840A0008A700840A0008A800840AB2
:102D72000008A9000310280D290DAA002A08B30093
:102D8200B308031DC52EC62ED02E0030A30000307E
:102D9200A2000030A1000030A000FF2FFF2F23303F
:102DA20084000008A600840A0008A700840A00081C
:102DB200A800840A0008A9000310280D290DAA0002
:102DC2002A08B200B208031DE72EE82EF22E0030C8
:102DD200A3000030A2000030A1000030A000FF2FAD
:102DE200FF2F2030840000308004840A00308004E9
:102DF200840A80308004840A0030800420308400F9
:102E0200FF308005840AFF308005840AFF30800588
:102E1200840A003080052330840000308004840A54
:102E220000308004840A80308004840A00308004E8
:102E320023308400FF308005840AFF308005840A35
:102E4200FF308005840A003080050030B100003078
:102E5200B0000030AF000030AE007F30B302A030CF
:102E62003207A6002608B3022030A6002608B200C8
:102E72003A2F0130A6000310AE0DAF0DB00DB10D0B
:102E8200A60B3C2F233084000008A600840A000809
:102E9200A700840A0008A800840A0008A9002030BC
:102EA20084000008AA00840A0008AB00840A000813
:102EB200AC00840A0008AD0029082D02031D6B2F07
:102EC20028082C02031D6B2F27082B02031D6B2FD2
:102ED20026082A02031C6E2F6F2F922F23308400A4
:102EE2000008A600840A0008A700840A0008A800B7
:102EF200840A0008A9002030840026088002840A7F
:102F02002708031C270F8002840A2808031C280FA5
:102F12008002840A2908031C290A800203308402E1
:102F22002E142030840001300310800D840A800D9D
:102F3200840A800D840A800D840384038403FF3E87
:102F4200031D952F0130B202031DA82FA92F3A2F7E
:102F5200B31FAC2FAD2FD22F3308803A9F3E0318F8
:102F6200B32FB42FBF2F0030A3000030A2000030D7
:102F7200A1000030A000FF2FFF2FBF2F0130031050
:102F8200B10CB00CAF0CAE0CFF3E031DC02F0130D4
:102F9200A6002608B307031DCF2FD02FBF2FF62F71
:102FA200F62F20303302031CD72FD82FEF2F0030FB
:102FB200A3000030A2000030A1000030A000FF2FCB
:102FC200FF2FEF2F0130A6000310AE0DAF0DB00D95
:102FD200B10DA60BE52F0130B302EF2FB308031D8D
:102FE200F32FF42FE32FF62FF62F3108A30030082A
:102FF200A2002F08A1002E08A000FF2F0800FF1B2F
:103002000A2883137F1883170008840A0319FF0A0A
:1030120008007F087F398A000408840A0319FF0A1E
:10302200820001340034003400340A3400340034A5
:1030320000346434003400340034E834033400349F
:1030420000341034273400340034A0348634013480
:103052000034403442340F3400348034963498348F
:1030620000340034E134F53405340034CA349A347F
:103072003B34003480343F34CD34CC343D34D73407
:1030820023343C34123483343A34B734D1343834B0
:10309200C63427343734383486343534C034D634E1
:1030A2003334CC342B343234703489343034E73412
:1030B200DB342E34E5343C341E344234A2340D3435
:1030C200003480343F340034203441340034C83476
:1030D200423400347A34443440341C34463450345C
:1030E200C3344734243474344934973418344B3459
:1030F200BC34BE344C346B346E344E340334153429
:1031020050347934AD346034F3344934713420347A
:10311200203420342034203420342034203420340D
:1031220020342034203420342034203420342034FD
:1031320020342034203420342034203420342034ED
:1031420020342034203420342034203420342034DD
:1031520020340034553473346534203445344534D6
:10316200503452344F344D343F34203420342034E0
:1031720020342034423431342034593445345334E9
:103182002034203420342034203442343234203469
:103192004E344F34003420342034533441345634C6
:1031A2004534443420344134563445345234453461
:1031B2004734453420342034203420340034203441
:1031C200203420342034413456344534523445348A
:1031D2004734453420342034203420342034203401
:1031E2002034003420344C344534463454342034B2
:1031F20042345534543454344F344E342034203411
:10320200203420342034003420342034203420343C
:1032120052344934473448345434203442345534D7
:10322200543454344F344E34203400342034533424
:0E32320065346334733400342534663400345C
:10330C000A168A15A7210A168A150A168A15CF21BC
:10331C000A168A1508000A168A15B4210A168A1587
:10332C000A168A1586210A168A1508000A168A15A5
:10333C0041220A168A150A168A1586210A168A153A
:10334C0008008312031387150530F4000030F500D4
:10335C000A168A1502220A168A1508008316031308
:10336C0007160530F4000030F5000A168A15022203
:10337C000A168A150800831203132208210420045C
:10338C000319C929CA29CD298030A206CD29CE29F5
:10339C000800F73083120313A000200887050530BE
:1033AC00F4000030F5000A168A1502220A168A1556
:1033BC000800A030F400740883160313ED009B3052
:1033CC008700831203130712831603138711071246
:1033DC0008007E088A007F0882000A168A15EF21F1
:1033EC000A168A158000840A04087D060319003425
:1033FC00FF0A0319FE0AF329042A042A0130F402F5
:10340C000030031CF503F502FF307506031D102A6E
:10341C00FF307406031D132A142A042A152A0800E7
:10342C000A168A15B4210A168A150A168A15A721B6
:10343C000A168A150A168A1541220A168A150A16C0
:10344C008A15CF210A168A1508000A168A15A72193
:10345C000A168A1583120313071E352A362A392AAF
:10346C00F601F60A3B2AF6013B2A0A168A15CF21E9
:10347C000A168A150800EF3083120313A0002008E7
:10348C008705EF30A000200883160313870505304D
:10349C00F4000030F5000A168A1502220A168A1565
:1034AC0008000A168A159F240A168A15831203131C
:1034BC00A4002408A5000A168A1591210A168A155B
:1034CC000A168A1101200A168A156C2A0800831222
:1034DC000313B100B001311C742A752A7A2A2E0804
:1034EC00AF002F08B0077A2A0310AE0D0310B10CF1
:1034FC00B108031D822A832A712A842A3008862A5D
:10350C0008008312031306152108F501F50720089E
:10351C00F401F4070A168A1502220A168A15831278
:10352C00031306112108F501F5072008F401F4072F
:10353C000A168A1502220A168A150800013083160B
:10354C000317EC07003003180130ED0700300318A7
:10355C000130EE07003003180130EF070B11730830
:10356C0083120313FF0072088A0071088400700E26
:10357C008300FE0E7E0E0900803083120313E106D9
:10358C006208D2006308D3006408D4005F08D50039
:10359C006008D6006108D7000A168A1166250A163B
:1035AC008A15831203135208DF005308E0005408F5
:1035BC00E100E02A080020340034003400340034E8
:1035CC00003400340034003400340034003400344F
:1035DC00003400340034003400340034003400343F
:1035EC00003400340034003400340034003400342F
:1035FC00003400340034F400740883120313AB005D
:10360C00AC01AD012B08A0002C08A1002D08A200D4
:10361C008E30AE002E08A300A4010A128A116F2767
:10362C000A168A15831203132008A8002108A90082
:10363C002208AA00212B080083120313B000B00843
:10364C00031D292B2A2B362B2E08AF002F08F70031
:10365C002E08803E0A168A1552270A168A15462B02
:10366C00831203132E08103EAF002F08F7002E080C
:10367C00C03E0A168A1552270A168A15462B462B67
:10368C00080083120313A1002108A0002008A20047
:10369C00582B0130A0002008A2070130F4070318B2
:1036AC00F50A582B7508FF00740884000A168A1551
:1036BC0000200A168A15A00022088400200883170F
:1036CC0080008008031D6B2B6C2B4F2B6D2B08007F
:1036DC00203400340034003400340034003400341E
:1036EC00003400340034003400340034003400342E
:1036FC00003400340034003400340034003400341E
:10370C00003400340034003400340034003400340D
:10371C0020340034003400340034003400340034DD
:10372C00AE2B831203133508FF00340884000A16ED
:10373C008A1500200A168A150A168A11E2200A1622
:10374C008A15013083120313B4070318B50AAE2B84
:10375C00831203133508FF00340884000A168A15F7
:10376C0000200A168A150038031DBD2BBE2B972B83
:10377C00BF2B0800F030831203138600F030831641
:10378C000313860088018312031388010730831604
:10379C0003138100A0308B000A168A15DF210A164C
:1037AC008A150A168A152D260A168A150A168A15DE
:1037BC00B3250A168A150A168A111B200A168A15B1
:1037CC00E72B0A128A11122883120313B801B701CE
:1037DC00AB30B4009830B5000A168A1596230A1639
:1037EC008A15F82BF03083120313B60036088604C2
:1037FC00061A012C022C062CB701B70AB801B80A1C
:10380C00861A092C0A2C0D2CB801B80A0D2C380874
:10381C00031D112CF82B122C3708142C0800F40162
:10382C00F501182C83120313201C1D2C1E2C242C88
:10383C002208F4070318F50A2308F50701300310D2
:10384C00A20DA30DFF3E031D252C01300310A10C6E
:10385C00A00CFF3E031D2C2C21082004031D372C2B
:10386C00382C182C392C7508A101A1077408A0015B
:10387C00A007402C0800F601F701F801F9018316A6
:10388C000313EB01EC0183160317EC01ED01EE01C0
:10389C00EF018317EC30FD001B30FE006E30FF0093
:1038AC00C43084000A168A15F3210A168A153030A2
:1038BC00FD001A30FE00E130FF00103084000A16C3
:1038CC008A15F3210A168A1583010A168A15C02B4C
:1038DC00831203130608F4007408A1008316031363
:1038EC000608F400740883120313A2000F30F400CE
:1038FC007408831603138605F030F40074088312E1
:10390C00031386040609F4007408A000210886003D
:10391C002208831603138600831203132008F40075
:10392C0004300310F40CFF3E031D972C74089E2CDE
:10393C00080083120313A3010830A1002108A20080
:10394C000A168A15B4210A168A15C62C031083127E
:10395C000313A30D0A168A15A7210A168A158312BA
:10396C000313071EBA2CBB2CC02C0130A10021085C
:10397C00A307C02C0A168A15CF210A168A15C62C45
:10398C00013083120313A2022208FF3A031DCF2C2D
:10399C00D02CAC2CD12C2308D32C0800831203136D
:1039AC00A1002108A0002008A200E12C0130A000F9
:1039BC002008A207E12C2208840083178008031D2D
:1039CC00E82CE92CDC2CF42CF42C0130A000200881
:1039DC00A2070130F4070318F50AF42C7508FF0050
:1039EC00740884000A168A1500200A168A15A0008D
:1039FC00220884002008831780008008031D072DEF
:103A0C00082DEB2C092D080083120313A30008309A
:103A1C00A1002108A2002D2DA31F152D162D1C2D44
:103A2C000A168A15B4210A168A15212D0A168A152A
:103A3C0041220A168A150A168A1586210A168A1533
:103A4C00831203132308A1002108A3072D2D013095
:103A5C00A2022208FF3A031D342D352D122D362DCE
:103A6C000A168A15B4210A168A150A168A152B22EB
:103A7C000A168A1508008E30F4007408F500562DCD
:103A8C000130031083120313AB0CAA0CA90CA80C65
:103A9C00FF3E031D472D0130F4007408F507562D29
:103AAC00FF30831203132B05031D5D2D5E2D462D58
:103ABC005F2D2808A0002908A1002A08A20075087B
:103ACC00F4007408A300A4010A128A116F270A16C5
:103ADC008A15831203132008A8002108A9002208C4
:103AEC00AA00782D0800003083120313A4000030C4
:103AFC00A5000A168A1501270A168A159C2D831211
:103B0C0003132B08FF002A0884000A168A150020CC
:103B1C000A168A150A168A15EF250A168A15013017
:103B2C0083120313AA070318AB0A9C2D83120313E9
:103B3C002B08FF002A0884000A168A1500200A1692
:103B4C008A150038031DAB2DAC2D852DAD2D0A1615
:103B5C008A1101200A168A15080083120313B70173
:103B6C0020303702031CBB2DBC2DBE2DEE2DEE2DAF
:103B7C0037080F39B4003408AE001030A6000030FE
:103B8C00A7003708B500B6013508A8003608A9000B
:103B9C000A128A151C200A168A158312031326088A
:103BAC000A168A1522230A168A1520300A168A113B
:103BBC00E2200A168A15013083120313B40034086C
:103BCC00B70720303702031CEC2DED2DBE2DEE2D4A
:103BDC00080083120313A90029080A168A150A255E
:103BEC000A168A15013083160313EB070318EC0A27
:103BFC000030EC073F306B0583120313A700003035
:103C0C00831603136C0583120313A80028082704DA
:103C1C000319112E122E142E2C2E2C2E0A168A114C
:103C2C0001200A168A15831603136C0883120313DA
:103C3C00A501A507831603136B0883120313A401B4
:103C4C00A4070A168A1501270A168A150800E830F7
:103C5C00F4000330F5000A168A1502220A168A159A
:103C6C0083160313860130308312031386002C3025
:103C7C00A0000130A1000A168A1587220A168A159F
:103C8C0020308312031386006430A0000030A100A2
:103C9C000A168A1587220A168A1528300A168A15DA
:103CAC0052270A168A150D300A168A1552270A163B
:103CBC008A1506300A168A1552270A168A150230FA
:103CCC000A168A1552270A168A15F701F030831244
:103CDC000313860008008312031321082004031920
:103CEC00782E792EAE2EF501F50A882E01300310B0
:103CFC00A00DA10DFF3E031D7D2E0130F4007408B4
:103D0C00F507882EA11F8B2E8C2E7C2E8E2E8E2EA0
:103D1C0021082302031D942E20082202031C972E37
:103D2C00982E9F2E2008A2022108031CA303A30295
:103D3C009F2E01300310A10CA00CFF3E031DA02EE2
:103D4C000130F502031DAB2EAC2E8E2EAE2EAE2EF8
:103D5C002308A101A1072208A001A007B52E080085
:103D6C0083120313AB000030A7000030A8000A1226
:103D7C008A1500200A168A1583120313AC01AD01B3
:103D8C00AC01AD012D08803AFF0080307F02031D8D
:103D9C00D12E20302C02031CD42ED52ED72EFB2E48
:103DAC00FB2E0A128A11EC270A168A1583120313AA
:103DBC00A9002C082B07AA002A08840029088313C1
:103DCC0080000130AC070318AD0A0030AD072D0898
:103DDC00803AFF0080307F02031DF62E20302C022B
:103DEC00031CF92EFA2ED72EFB2E0A168A155722F3
:103DFC000A168A1508008312031325088316031369
:103E0C00EC01EC0783120313240883160313EB0154
:103E1C00EB07102F0A168A1516220A168A15FE3081
:103E2C0083120313A600260883160313ED056D08F1
:103E3C000A168A150A250A168A157608031D272FD5
:103E4C002D2F0A168A1101200A168A15102F83129B
:103E5C00031325080A168A150A250A168A157608E8
:103E6C00031D392F3F2F0A168A1101200A168A15B5
:103E7C00102F8312031324080A168A150A250A1612
:103E8C008A157608031D4B2F512F0A168A11012013
:103E9C000A168A15102F080083120313A5005F2F32
:103EAC00E830F4000330F5000A168A1502220A16CF
:103EBC008A150A168A156E240A168A150038031DEF
:103ECC00682F692F562F8312031386100F300605A7
:103EDC00A3002508F039230786006430A0000030C9
:103EEC00A1000A168A1587220A168A150F3083122A
:103EFC0003130605A3002508A40003300310A40D2A
:103F0C00FF3E031D842F0310240D2307860064300D
:103F1C00A0000030A1000A168A1587220A168A15FD
:103F2C00831203138614E830F4000330F5000A16EC
:103F3C008A1502220A168A15080083120313230815
:103F4C002204210420040319AC2FAD2FF62FF50108
:103F5C00F50ABE2F0130F4000310A00DA10DA20D27
:103F6C00A30DF40BB22F0130F4007408F507BE2F2B
:103F7C00A31FC12FC22FB02FC42FC42F2308270279
:103F8C00031DD22F22082602031DD22F2108250241
:103F9C00031DD22F20082402031CD52FD62FE52F6A
:103FAC002008A4022108031C210FA5022208031CCF
:103FBC00220FA6022308031C230FA702E52F0130B2
:103FCC000310A30CA20CA10CA00CFF3E031DE62FAA
:103FDC000130F502031DF32FF42FC42FF62FF62F0B
:103FEC002708A3002608A2002508A1002408A00089
:043FFC00FF2F08008B
:02400E003AFF77
:00000001FF
