:100000000A128A15B82DFF1B0D2883137F1883173A
:100010000008840A0319FF0A080000308A00040857
:10002000840A8207003455347334653420344534EF
:100030004534503452344F344D343F34203420341E
:10004000203420342034423431342034593445347F
:100050005334203420342034203420344234323499
:1000600020344E344F3400342034203420342034B3
:10007000203453344134563445344434203420340D
:1000800020342034203420340034203420342034F0
:1000900020344E344534583454343A3442343734AE
:1000A00020342034203420342034003420342034D0
:1000B0002034203459344F345534203443344134BF
:1000C0004E34203420342034203420340034203482
:1000D000203459344F3455342034433441344E3471
:1000E00020344E344F3454342034203420340034FF
:1000F00053344134563445343A344234363420345F
:1001000020344E344534583454343A34423437343D
:10011000003420342034203420342034203420345F
:10012000203420342034203420342034203420342F
:1001300020340034F030831203138600F03083162D
:10014000031386000A128A119F220A128A11A82814
:100150000A128A110028770883160313E601E607BE
:100160007608E501E507B4280A128A15ED240A127B
:100170008A11FE30F800780883160313EB056B082C
:100180000A128A155A270A128A118316031367085E
:10019000031DCB28D1280A128A152E250A128A118E
:1001A000B42877080A128A155A270A128A11831668
:1001B00003136708031DDD28E3280A128A152E257C
:1001C0000A128A11B42876080A128A155A270A12C6
:1001D0008A11831603136708031DEF28F5280A12F6
:1001E0008A152E250A128A11B428080083120313D7
:1001F000A0000030F9000030FA000A128A156225CA
:100200000A128A1183120313A101A201A101A20102
:100210002208803AFF0080307F02031D1129203020
:100220002102031C1429152917293B293B290A12ED
:100230008A1592240A128A11FB00831203132108E3
:100240002007FC007C0884007B08831780000130B5
:10025000A1070318A20A0030A2072208803AFF0073
:1002600080307F02031D362920302102031C3929EA
:100270003A2917293B290A128A15D9240A128A1108
:100280000800F6004C29E830F0000330F1000A12B3
:100290008A15C5240A128A110A128A1576260A12AC
:1002A0008A110038031D5529562943298312031347
:1002B00086100F300605F4007608F03974078600C2
:1002C0006430F2000030F3000A128A157C250A120D
:1002D0008A110F30831203130605F4007608F50027
:1002E00003300310F50DFF3E031D71290310750D3A
:1002F000740786006430F2000030F3000A128A1599
:100300007C250A128A11831203138614E830F00048
:100310000330F1000A128A15C5240A128A11080056
:10032000A030F0000F30F1000A128A15C5240A121D
:100330008A1183160313860130308312031386005B
:100340009030F2000130F3000A128A157C250A125F
:100350008A119030F2000130F3000A128A157C25D0
:100360000A128A119030F2000130F3000A128A1545
:100370007C250A128A1120308312031386009030E4
:10038000F2000130F3000A128A157C250A128A1144
:1003900028300A128A1141210A128A110E300A12DB
:1003A0008A1141210A128A1106300A128A1141214A
:1003B0000A128A1102300A128A1141210A128A1184
:1003C0000800F500F60110307602031CE829E9293F
:1003D000EB290C2A0C2A2030F30076087107F40070
:1003E000740884007308831380007608F300730791
:1003F0007507F40074088400FF3083178000840AB6
:10040000FF3080000130F3007308F60710307602E9
:10041000031C0B2A0C2AEB29F6010F307602031C71
:10042000122A132A152A372A372A2030F300760891
:100430007207F40074088400730883138000760840
:10044000F30073077007F40074088400FF3083170B
:100450008000840AFF3080000130F3007308F60743
:100460000F307602031C352A362A152A372A08004F
:10047000FC00432AE830F0000330F1000A128A152C
:10048000C5240A128A110A128A1576260A128A11BE
:100490000038031D4C2A4D2A3A2A4E2A0F30831267
:1004A00003130605FA007C08F0397A0786000A3043
:1004B000F2000030F3000A128A157C250A128A1114
:1004C0000F30831203130605FA007C08FB0003308B
:1004D0000310FB0DFF3E031D682A03107B0D7A07F6
:1004E00086000A30F2000030F3000A128A157C25DB
:1004F0000A128A110130FA007A0883160313E807FA
:100500006808103A031D852A862A8E2AF7010130D1
:100510000A128A15DA250A128A118E2A8316031303
:100520006808203A031D952A962A9E2AF701003072
:100530000A128A15DA250A128A119E2A08008316E1
:100540000317EE010A128A15A2240A128A110A124E
:100550008A1190210A128A110A128A15FF250A129D
:100560008A110A128A15A1260A128A11003A031961
:10057000BA2ABB2A022BCE30840010308316031314
:10058000E1000408E2002030E300610884008317E2
:100590000008E400E10A6208840064088000E20ABE
:1005A000E30BC52ACE300A128A11F6200A128A11EC
:1005B0000A128A15FF250A128A11CE3083120313FC
:1005C000A0000130A1000A128A154C260A128A11D5
:1005D000E92AF03083160313E10061088312031344
:1005E0008604861BF42AF52AFA2A83160317EE01DD
:1005F000EE0AFA2A831603176E08031D002BE92A58
:10060000022B022B0A128A1146240A128A110800B0
:1006100083120313DC00343084004430F5000408F6
:10062000F6001430F7007508840083170008F800FE
:10063000F50A76088400831378088000F60AF70B21
:10064000132B483084005830F5000408F6001430AD
:10065000F7007508840083170008F800F50A76088B
:100660008400831378088000F60AF70B292B2030CA
:1006700084003030F5000408F6001430F7007508E7
:10068000840083170008F800F50A760884008313B5
:1006900078088000F60AF70B3F2B74087206031DDA
:1006A000532B73087106031D562B572B402CE10169
:1006B000E2016208803AFF0080307F02031D622B56
:1006C0000A306102031C652B662B682BF42BF42B7C
:1006D00083120313DD01DE01CF2B831203135D08A8
:1006E000F50075075C07F60076088400831700089C
:1006F000F700840A0008F8006108F9007907203E35
:10070000840083130008FA00840A0008FB007808BC
:100710007B06031D8D2B77087A06031D902B912BEA
:100720009B2B6108F5007507343E8400013080077B
:10073000840A0318800A5D08F50075077007F60043
:100740007608840083170008F700840A0008F80080
:100750006108F9007907203E840083130008FA003D
:10076000840A0008FB0078087B06031DB92B770874
:100770007A06031DBC2BBD2BC82B6108F50075073D
:10078000483E840001308007840A0318800AC82B81
:100790000130DD070318DE0A0030DE07CF2B5E08CC
:1007A000803AF5007208803A7502031DD92B710852
:1007B0005D02031CDC2BDD2B6D2BDE2B0130831245
:1007C0000313E1070318E20A0030E2076208803AE7
:1007D000FF0080307F02031DEF2B0A306102031CF3
:1007E000F22BF32B682BF42B83120313DF01E001B0
:1007F0006008803AFF0080307F02031D012C0A3020
:100800005F02031C042C052C072C432C432C831261
:1008100003135F08F5007507483E84008313000842
:10082000F600840A0008F7005F08F8007807343EF5
:1008300084000008F900840A0008FA0077087A06A4
:10084000031D242C760879060319272C282C2B2C21
:100850000030452C452C0130DF070318E00A00303A
:10086000E0076008803AFF0080307F02031D3A2CC9
:100870000A305F02031C3D2C3E2C072C432C432CDA
:100880000030452C452C0130452C08008312031301
:10089000EF01EF0AEE01EA01EB01EB0A0A30E60094
:1008A0000030E70083160313DF01E0018312031316
:1008B000EC01ED01E801E9015D2C0A128A15FF2522
:1008C0000A128A11B03083120313E3006308F000A8
:1008D000C030E4006408F100D030E5006508F200A3
:1008E00090300A128A11E1210A128A11772CF03015
:1008F00083120313E30063088604061A802C812CFC
:10090000702D6F08031D852CF92C831603135F08C7
:1009100083120313E3006307903E840001308317C2
:100920008007840A0318800A831603135F08831262
:100930000313E3006307903E84000008E400840A88
:100940000008E5006508803AFF0080307F02031D43
:10095000AB2C0A3064020318AE2CAF2CC72C8316C4
:1009600003135F0883120313E3006307903E8400C0
:1009700083170008303EE400831603135F08C03E6F
:10098000840083120313640883138000D72C83161A
:1009900003135F0883120313E3006307903E840090
:1009A000FF3083178000840AFF308000D72CF701C6
:1009B00000300A128A15DA250A128A11C030831211
:1009C0000313A0000030A1000A128A154C260A1257
:1009D0008A11831603135F08013E83120313E30099
:1009E0006308F70000300A128A15DA250A128A1104
:1009F000702DEA01EA0A831603135F0883120313BA
:100A0000E3006307B03E8400013083178007840A47
:100A10000318800A831603135F0883120313E3008D
:100A20006307B03E84000008E400840A0008E50083
:100A30006508803AFF0080307F02031D212D0A30B7
:100A400064020318242D252D3D2D831603135F0802
:100A500083120313E3006307B03E8400831700088A
:100A6000303EE400831603135F08D03E84008312F7
:100A700003136408831380004D2D831603135F084E
:100A800083120313E3006307B03E8400FF30831733
:100A90008000840AFF3080004D2DF70101300A12DA
:100AA0008A15DA250A128A11D03083120313A000A6
:100AB0000030A1000A128A154C260A128A118316E8
:100AC00003135F08013E83120313E3006308F7007A
:100AD00001300A128A15DA250A128A11702D702D3A
:100AE000F03083120313E30063088604861A792D1D
:100AF0007A2DEE2E831603135F0883120313E3008F
:100B00006307903E840083170008E400840A00080D
:100B1000E500FF306506031D8F2DFF3064060319C5
:100B2000922D932D102E6F08031D972D102E01303E
:100B300083160313DF070318E00A0030E0075F089D
:100B400083120313E3006307903E840001308007A3
:100B5000840A0318800A831603135F0883120313A1
:100B6000E3006307903E84000008E400840A000864
:100B7000E5006508803AFF0080307F02031DC22D2A
:100B80000A3064020318C52DC62DDE2D831603130B
:100B90005F0883120313E3006307903E840083170A
:100BA0000008303EE400831603135F08C03E840053
:100BB00083120313640883138000EE2D831603133E
:100BC0005F0883120313E3006307903E8400FF3045
:100BD00083178000840AFF308000EE2DF70100307B
:100BE0000A128A15DA250A128A11C03083120313F9
:100BF000A0000030A1000A128A154C260A128A11A0
:100C0000831603135F08013E83120313E300630896
:100C1000F70000300A128A15DA250A128A11102EFE
:100C2000831603135F0883120313E3006307B03EC8
:100C3000840083170008E400840A0008E500FF3000
:100C40006506031D252EFF3064060319282E292E64
:100C5000A72EEF08031D2D2E2E2EA72E0130831652
:100C60000313DF070318E00A0030E0075F08831270
:100C70000313E3006307B03E840001308007840A59
:100C80000318800A831603135F0883120313E3001B
:100C90006307B03E84000008E400840A0008E50011
:100CA0006508803AFF0080307F02031D592E0A300C
:100CB000640203185C2E5D2E752E831603135F08E5
:100CC00083120313E3006307B03E84008317000818
:100CD000303EE400831603135F08D03E8400831285
:100CE0000313640883138000852E831603135F08A3
:100CF00083120313E3006307B03E8400FF308317C1
:100D00008000840AFF308000852EF70101300A122E
:100D10008A15DA250A128A11D03083120313A00033
:100D20000030A1000A128A154C260A128A11831675
:100D300003135F08013E83120313E3006308F70007
:100D400001300A128A15DA250A128A11A72E0F30ED
:100D5000831603135F066004031DAF2EB02EBC2E56
:100D6000DF01E00103100030031801308312031388
:100D7000E3006308EF00BC2E8312EC01ED016D0867
:100D8000803AFF0080307F02031DC82E04306C02C1
:100D9000031CCB2ECC2ECE2EEE2EEE2E5030F0009D
:100DA000C330F1000A128A15C5240A128A110130D3
:100DB00083120313EC070318ED0A0030ED076D08EA
:100DC000803AFF0080307F02031DE82E04306C0261
:100DD000031CEB2EEC2ECE2EEE2EEE2EF0308312D8
:100DE0000313E30063088604061BF72EF82E1F2F5B
:100DF0006F08031DFC2E1F2F831603136008831238
:100E00000313E901E907831603135F088312031331
:100E1000E801E80783160313DF01E0010310003047
:100E20000318013083120313E3006308EF00F70196
:100E300001300A128A15DA250A128A111F2F83122D
:100E400003136A08031D252F312FF030E3006308D8
:100E50008604861B2C2F2D2F312FEE01EE0A312F09
:100E6000312F6E08031D352F772C362F0A128A1565
:100E7000FF250A128A11B03083120313E3006308BE
:100E8000F0006908F201F2076808F101F107831622
:100E900003136008F401F4075F08F301F3079030CF
:100EA0000A128A1108230A128A11003A0319592FCB
:100EB0005A2F842F0A3083120313E6000030E70014
:100EC0004430A0008030A1000A128A154C260A1274
:100ED0008A11702F0A128A15C1270A128A11702FDF
:100EE000FF3083120313E6070318E70AFF30E70712
:100EF000FF306706031D7E2FFF306606031D812F1E
:100F0000822F6A2F8F2F8F2F553083120313A0004B
:100F10008030A1000A128A154C260A128A11663006
:100F200083120313A0008030A1000A128A154C26F8
:100F30000A128A1183120313EE019E2FF030E30090
:100F400063088604861BA52FA62FA92FEE01EE0AA3
:100F5000A92FF030E300630886046B08031DB12F4E
:100F6000E62F061BB42FB52FE62FEB01C030E300B0
:100F70006308F400D030E4006408F500A0300A12E1
:100F80008A1502250A128A11A0300A128A1524260F
:100F90000A128A110A128A15FF250A128A112230B2
:100FA00083120313A0008030A1000A128A154C2678
:100FB0000A128A11333083120313A0008030A1007B
:100FC0000A128A154C260A128A11E62F831203137D
:100FD0006E08031DEC2F9E2FEE01EA01E801E901E6
:100FE000EB01EB0AEF01EF0A83160313DF01E001C7
:100FF0000A128A15FF250A128A115D2C5D2C080041
:10187E0064008001840A0406031900340406402C17
:10188E000A128A1575240A128A150A128A158224DA
:10189E000A128A1508000A128A1518250A128A15C4
:1018AE000A128A1547240A128A1508000A128A1586
:1018BE0068240A128A150A128A1547240A128A15F2
:1018CE0008008316031307160530F0000030F100F0
:1018DE000A128A15C5240A128A15080083120313E8
:1018EE0087150530F0000030F1000A128A15C52464
:1018FE000A128A150800F730F200720883120313D9
:10190E0087050530F0000030F1000A128A15C52453
:10191E000A128A1508000A128A1529270A128A1530
:10192E00F6007608F7000A128A1552240A128A1552
:10193E007708A12C0800A030F0007008831603135E
:10194E00EB009B30870083120313071283160313D9
:10195E008711071208007E088A007F0882000A128B
:10196E008A15B2240A128A158000840A04087D069C
:10197E0003190034FF0A0319FE0AB62CC72CC72C14
:10198E000130F0020030031CF103F102FF3071064A
:10199E00031DD32CFF307006031DD62CD72CC72C5D
:1019AE00D82C08000A128A1529270A128A15F60061
:1019BE007608F7000A128A155D240A128A150A1291
:1019CE008A152E250A128A15EC2C08000A128A1581
:1019DE0068240A128A150A128A1575240A128A15A3
:1019EE000A128A1518250A128A150A128A158224D5
:1019FE000A128A150800F7007408F6007608F0003F
:101A0E0077080A128A1599250A128A157508F600A2
:101A1E007608F00077080A128A15CC260A128A1563
:101A2E000800EF30F2007208831203138705EF30BF
:101A3E00F20072088316031387050530F00000309C
:101A4E00F1000A128A15C5240A128A1508000A1214
:101A5E008A1518250A128A150A128A1582240A1264
:101A6E008A150A128A1575240A128A150A128A15FF
:101A7E0068240A128A150A128A1582240A128A15F5
:101A8E0008000A128A1575240A128A158312031386
:101A9E00071E522D532D582D83160313E701E70A07
:101AAE005C2D83160313E7015C2D0A128A1582241E
:101ABE000A128A1508007A08F701F7077908F60165
:101ACE00F6070A128A11AB200A128A150A128A1513
:101ADE00ED240A128A15831603136B146B080A126F
:101AEE008A155A270A128A1508008312031306153F
:101AFE007308F101F1077208F001F0070A128A1556
:101B0E00C5240A128A158312031306117308F101F4
:101B1E00F1077208F001F0070A128A15C5240A129D
:101B2E008A150800F2007208F1007108F300A82D62
:101B3E000130F1007108F3070130F1007108F00770
:101B4E00A82D7008840083130008F1007308840028
:101B5E00710880008008031DB52DB62D9F2DB72D61
:101B6E00080083160313E501E601E701E801E90128
:101B7E00EA018317443084006C300A128A153F2420
:101B8E000A128A154430FD000F30FE008D30FF0022
:101B9E00103084000A128A15B6240A128A1583019F
:101BAE000A128A119A28F900F908031DDF2DE02D7B
:101BBE00EE2D7708F800780883160313E8007708EF
:101BCE00803E0A128A1141210A128A15FE2D7708CB
:101BDE00103EF800780883160313E8007708C03E1D
:101BEE000A128A1141210A128A15FE2DFE2D0800B5
:101BFE00F70100300A128A15DA250A128A15773093
:101C0E0083120313A0008030A1000A128A154C26FD
:101C1E000A128A15773083120313A0008030A100B8
:101C2E000A128A154C260A128A15F70100300A127A
:101C3E008A15DA250A128A150800FD000030F60012
:101C4E000030F7000A128A11AB200A128A153D2EB7
:101C5E007D088400831300080A128A15F9260A12D9
:101C6E008A150130FC007C08FD073D2E7D0884009E
:101C7E0083138008031D442E452E2F2E462E0A1246
:101C8E008A152E250A128A150800642E8312031354
:101C9E002108FF00200884000A128A1103200A126C
:101CAE008A150A128A1138220A128A1501308312F5
:101CBE000313A0070318A10A642E8312031321082D
:101CCE00FF00200884000A128A1103200A128A15C6
:101CDE000038031D732E742E4D2E752E08008312A0
:101CEE0003130608F0007008F200831603130608AB
:101CFE00F0007008F3000F30F00070088605F03029
:101D0E00F00070088312031386040609F0007008B1
:101D1E00F10072088600730883160313860071089B
:101D2E00F00004300310F00CFF3E031D992E7008D6
:101D3E00A02E080083120313A301A2010130A000FC
:101D4E008030A1000A128A154C260A128A15AF2E6F
:101D5E00F030FD007D08831203138604061AB82E98
:101D6E00B92EBD2EA201A20AA301A30A861AC02E65
:101D7E00C12EC42EA301A30AC42E2308031DC82EF0
:101D8E00AF2EC92E2208CB2E0800F2007208F100E9
:101D9E007108F300D72E0130F1007108F307D72E2A
:101DAE007308840083138008031DDE2EDF2ED22ECF
:101DBE00EA2EEA2E0130F1007108F3070130F1002E
:101DCE007108F007EA2E700884000008F10073080D
:101DDE008400710880008008031DF62EF72EE12E78
:101DEE00F82E0800FB007B080A128A155A270A12E1
:101DFE008A15013083160313E5070318E60A00302F
:101E0E00E6073F306505F90000306605FA007A08EE
:101E1E0079040319132F142F162F282F282F0A1287
:101E2E008A152E250A128A15831603136608F701E2
:101E3E00F7076508F601F6070A128A11AB200A1297
:101E4E008A150800F5010830F3007308F4000A1231
:101E5E008A1568240A128A154E2F7508F300730826
:101E6E00F5070A128A1575240A128A1583120313AE
:101E7E00071E422F432F482F0130F3007308F5073A
:101E8E00482F0A128A1582240A128A154E2F013003
:101E9E00F4027408FF3A031D552F562F342F572F77
:101EAE007508592F0800F5000830F3007308F40088
:101EBE00792FF51F632F642F6A2F0A128A15682453
:101ECE000A128A156F2F0A128A1518250A128A15F8
:101EDE000A128A1547240A128A157508F300730828
:101EEE00F507792F0130F4027408FF3A031D802F95
:101EFE00812F602F822F0A128A1568240A128A15E2
:101F0E000A128A1548250A128A1508002034003450
:101F1E000034003400340034003400340034003413
:101F2E000034003400340034003400340034003403
:101F3E0000340034003400340034003400340034F3
:101F4E0000340034003400340034003400340034E3
:101F5E0001340034023400340334003404340034C9
:101F6E0005340034063400340734003408340034A9
:101F7E0009340034831603130608F2007208F300C6
:101F8E00831203130608F2007208F400831603137B
:101F9E008611A030F2007208F500EE2F83120313A3
:101FAE0086156E30F0000030F1000A128A15C52435
:101FBE000A128A158312031386116E30F000003058
:101FCE00F1000A128A15C5240A128A15EE2F013065
:101FDE00F5027508FF3A031DF52FF62FD52FF72FB3
:101FEE007408831203138600730883160313860086
:021FFE000800D9
:02400E003AFF77
:00000001FF
