:100000000A128A158F2EFF1B0D2883137F18831762
:100010000008840A0319FF0A080000308A00040857
:10002000840A8207003455347334653420344534EF
:100030004534503452344F344D343F34203420341E
:10004000203420342034423431342034593445347F
:100050005334203420342034203420344234323499
:1000600020344E344F3400342034203420342034B3
:10007000203453344134563445344434203420340D
:1000800020342034203420340034203420342034F0
:1000900020344E344534583454343A3442343734AE
:1000A00020342034203420342034003420342034D0
:1000B0002034203459344F345534203443344134BF
:1000C0004E34203420342034203420340034203482
:1000D000203459344F3455342034433441344E3471
:1000E00020344E344F3454342034203420340034FF
:1000F00053344134563445343A344234363420345F
:1001000020344E344534583454343A34423437343D
:10011000003420342034203420342034203420345F
:10012000203420342034203420342034203420342F
:040130002034003443
:10013600F2007208F1007108F300AA280130F100FC
:100146007108F3070130F1007108F007AA2870085A
:10015600840083130008F10073088400710880008E
:100166008008031DB728B828A128B9280800F5017A
:100176000830F3007308F4000A128A155A250A1289
:100186008A11DF287508F3007308F5070A128A1525
:100196004D250A128A1183120313071ED328D42869
:1001A600D9280130F3007308F507D9280A128A15F1
:1001B60067250A128A11DF280130F4027408FF3A13
:1001C600031DE628E728C528E8287508EA28080058
:1001D600F5000830F3007308F4000A29F51FF42827
:1001E600F528FB280A128A155A250A128A110029AF
:1001F6000A128A150E260A128A110A128A152C2547
:100206000A128A117508F3007308F5070A290130E6
:10021600F4027408FF3A031D11291229F128132943
:100226000A128A155A250A128A110A128A152426D2
:100236000A128A11080020340034003400340034D5
:100246000034003400340034003400340034003408
:1002560000340034003400340034003400340034F8
:1002660000340034003400340034003400340034E8
:1002760000340034003400340034013400340234D5
:1002860000340334003404340034053400340634B6
:10029600003407340034083400340934003483163B
:1002A60003130608F2007208F3008312031306080C
:1002B600F2007208F400831603138611A030F200D0
:1002C6007208F5007F298312031386156E30F0003D
:1002D6000030F1000A128A15BB250A128A11831210
:1002E600031386116E30F0000030F1000A128A15F1
:1002F600BB250A128A117F290130F5027508FF3ADB
:10030600031D862987296629882974088312031301
:100316008600730883160313860008007708831681
:100326000313E601E6077608E501E5079A290A12AE
:100336008A15E3250A128A11FE30F800780883161A
:100346000313EB056B080A128A11EB200A128A11B5
:10035600831603136708031DB129B7290A128A15E4
:100366003E260A128A119A2977080A128A11EB2068
:100376000A128A11831603136708031DC329C929A4
:100386000A128A153E260A128A119A2976080A1234
:100396008A11EB200A128A11831603136708031DBC
:1003A600D529DB290A128A153E260A128A119A29AC
:1003B600080083120313A0000030F9000030FA0091
:1003C6000A128A1558260A128A1183120313A101EA
:1003D600A201A101A2012208803AFF0080307F021B
:1003E600031DF72920302102031CFA29FB29FD29C8
:1003F600212A212A0A128A1577250A128A11FB0058
:100406008312031321082007FC007C0884007B0864
:10041600831780000130A1070318A20A0030A20743
:100426002208803AFF0080307F02031D1C2A2030FC
:100436002102031C1F2A202AFD29212A0A128A15B5
:10044600CF250A128A110800F600322AE830F00099
:100456000330F1000A128A15BB250A128A110A1204
:100466008A154D270A128A110038031D3B2A3C2A99
:10047600292A8312031386100F300605F400760826
:10048600F039740786006430F2000030F3000A1277
:100496008A1572260A128A110F3083120313060573
:1004A600F4007608F50003300310F50DFF3E031D3A
:1004B600572A0310750D740786006430F200003069
:1004C600F3000A128A1572260A128A11831203137E
:1004D6008614E830F0000330F1000A128A15BB25B5
:1004E6000A128A110800A030F0000F30F1000A123B
:1004F6008A15BB250A128A1183160313860130302A
:100506008312031386009030F2000130F3000A12C2
:100516008A1572260A128A119030F2000130F30011
:100526000A128A1572260A128A119030F2000130D8
:10053600F3000A128A1572260A128A1120308312D3
:10054600031386009030F2000130F3000A128A1578
:1005560072260A128A1128300A128A1127220A12D2
:100566008A110E300A128A1127220A128A110630BF
:100576000A128A1127220A128A1102300A128A11D5
:1005860027220A128A110800F500F60110307602B9
:10059600031CCE2ACF2AD12AF22AF22A2030F300CF
:1005A60076087107F40074088400730883138000CA
:1005B6007608F30073077507F40074088400FF30AB
:1005C60083178000840AFF3080000130F30073082F
:1005D600F60710307602031CF12AF22AD12AF60118
:1005E6000F307602031CF82AF92AFB2A1D2B1D2B35
:1005F6002030F30076087207F4007408840073084C
:10060600831380007608F30073077007F4007408FC
:100616008400FF3083178000840AFF308000013099
:10062600F3007308F6070F307602031C1B2B1C2BF6
:10063600FB2A1D2B0800FC00292BE830F0000330B4
:10064600F1000A128A15BB250A128A110A128A15A6
:100656004D270A128A110038031D322B332B202B0B
:10066600342B0F30831203130605FA007C08F03989
:100676007A0786000A30F2000030F3000A128A1563
:1006860072260A128A110F30831203130605FA0026
:100696007C08FB0003300310FB0DFF3E031D4E2BB1
:1006A60003107B0D7A0786000A30F2000030F30053
:1006B6000A128A1572260A128A110130FA007A087D
:1006C60083160313E8076808103A031D6B2B6C2B7F
:1006D600742BF70101300A128A15B1260A128A1103
:1006E600742B831603136808203A031D7B2B7C2B7F
:1006F600842BF70100300A128A15B1260A128A11D4
:10070600842B080083160317EE010A128A15872523
:100716000A128A110A128A1176220A128A110A12FA
:100726008A15D6260A128A110A128A1578270A12FB
:100736008A11003A0319A02BA12BE82BCE30840096
:10074600103083160313E1000408E2002030E300B2
:100756006108840083170008E400E10A6208840047
:1007660064088000E20AE30BAB2BCE300A128A1132
:10077600DC210A128A110A128A15D6260A128A1151
:10078600CE3083120313A0000130A1000A128A158D
:1007960023270A128A11CF2BF03083160313E100A8
:1007A6006108831203138604861BDA2BDB2BE02BEE
:1007B60083160317EE01EE0AE02B831603176E0865
:1007C600031DE62BCF2BE82BE82B0A128A112C25CA
:1007D6000A128A11080083120313DC0034308400E5
:1007E6004430F5000408F6001430F700750884005C
:1007F60083170008F800F50A760884008313780842
:100806008000F60AF70BF92B483084005830F500C3
:100816000408F6001430F7007508840083170008F2
:10082600F800F50A76088400831378088000F60A33
:10083600F70B0F2C203084003030F5000408F6004A
:100846001430F7007508840083170008F800F50ACD
:1008560076088400831378088000F60AF70B252CA7
:1008660074087206031D392C73087106031D3C2C8F
:100876003D2C262DE101E2016208803AFF0080301E
:100886007F02031D482C0A306102031C4B2C4C2CA2
:100896004E2CDA2CDA2C83120313DD01DE01B52C83
:1008A600831203135D08F50075075C07F6007608EA
:1008B600840083170008F700840A0008F80061081E
:1008C600F9007907203E840083130008FA00840AA1
:1008D6000008FB0078087B06031D732C77087A0650
:1008E600031D762C772C812C6108F5007507343EA4
:1008F600840001308007840A0318800A5D08F50029
:1009060075077007F6007608840083170008F7005D
:10091600840A0008F8006108F9007907203E84007F
:1009260083130008FA00840A0008FB0078087B0697
:10093600031D9F2C77087A06031DA22CA32CAE2C30
:100946006108F5007507483E840001308007840A77
:100956000318800AAE2C0130DD070318DE0A0030CA
:10096600DE07B52C5E08803AF5007208803A7502FB
:10097600031DBF2C71085D02031CC22CC32C532C13
:10098600C42C013083120313E1070318E20A003076
:10099600E2076208803AFF0080307F02031DD52CF3
:1009A6000A306102031CD82CD92C4E2CDA2C831267
:1009B6000313DF01E0016008803AFF0080307F0208
:1009C600031DE72C0A305F02031CEA2CEB2CED2CEE
:1009D600292D292D831203135F08F5007507483E5C
:1009E600840083130008F600840A0008F7005F08F5
:1009F600F8007807343E84000008F900840A0008ED
:100A0600FA0077087A06031D0A2D76087906031977
:100A16000D2D0E2D112D00302B2D2B2D0130DF0726
:100A26000318E00A0030E0076008803AFF008030D3
:100A36007F02031D202D0A305F02031C232D242D67
:100A4600ED2C292D292D00302B2D2B2D01302B2D72
:100A5600080083120313EF01EF0AEE01EA01EB012E
:100A6600EB0A0A30E6000030E70083160313DF01C5
:100A7600E00183120313EC01ED01E801E901432DC6
:100A86000A128A15D6260A128A11B0308312031367
:100A9600E3006308F000C030E4006408F100D030E1
:100AA600E5006508F20090300A128A11C7220A1280
:100AB6008A115D2DF03083120313E3006308860468
:100AC600061A662D672D562E6F08031D6B2DDF2D1A
:100AD600831603135F0883120313E3006307903E34
:100AE6008400013083178007840A0318800A83165E
:100AF60003135F0883120313E3006307903E840029
:100B06000008E400840A0008E5006508803AFF0052
:100B160080307F02031D912D0A3064020318942D44
:100B2600952DAD2D831603135F0883120313E3007F
:100B36006307903E840083170008303EE400831666
:100B460003135F08C03E84008312031364088313F3
:100B56008000BD2D831603135F0883120313E30081
:100B66006307903E8400FF3083178000840AFF30BD
:100B76008000BD2DF70100300A128A15B1260A122F
:100B86008A11C03083120313A0000030A1000A129C
:100B96008A1523270A128A11831603135F08013E5A
:100BA60083120313E3006308F70000300A128A1564
:100BB600B1260A128A11562EEA01EA0A831603138F
:100BC6005F0883120313E3006307B03E840001301D
:100BD60083178007840A0318800A831603135F08A5
:100BE60083120313E3006307B03E84000008E400A9
:100BF600840A0008E5006508803AFF0080307F021D
:100C0600031D072E0A30640203180A2E0B2E232E0C
:100C1600831603135F0883120313E3006307B03ED2
:100C2600840083170008303EE400831603135F0830
:100C3600D03E840083120313640883138000332E8E
:100C4600831603135F0883120313E3006307B03EA2
:100C56008400FF3083178000840AFF308000332E23
:100C6600F70101300A128A15B1260A128A11D0300C
:100C760083120313A0000030A1000A128A1523274D
:100C86000A128A11831603135F08013E83120313A7
:100C9600E3006308F70001300A128A15B1260A122A
:100CA6008A11562E562EF03083120313E300630882
:100CB6008604861A5F2E602EF22E831603135F08B3
:100CC60083120313E3006307903E84008317000832
:100CD600E400840A0008E500FF306506031D752E52
:100CE600FF3064060319782E792E862E6F08031DB1
:100CF6007D2E862E013083160313DF070318E00AC4
:100D06000030E007862E831603135F088312031351
:100D1600E3006307B03E84000008E400840A00088C
:100D2600E500FF306506031D9A2EFF3064060319A1
:100D36009D2E9E2EAB2EEF08031DA22EA32EAB2EAC
:100D4600013083160313DF070318E00A0030E007BB
:100D56000F30831603135F066004031DB32EB42EF3
:100D6600C02EDF01E00103100030031801308312AA
:100D76000313E3006308EF00C02E8312EC01ED01BC
:100D86006D08803AFF0080307F02031DCC2E0430B0
:100D96006C02031CCF2ED02ED22EF22EF22E503005
:100DA600F000C330F1000A128A15BB250A128A1117
:100DB600013083120313EC070318ED0A0030ED0728
:100DC6006D08803AFF0080307F02031DEC2E043050
:100DD6006C02031CEF2EF02ED22EF22EF22EF030E5
:100DE60083120313E30063088604061BFB2EFC2E06
:100DF6001F2F83160313600883120313E901E90703
:100E0600831603135F0883120313E801E8078316AA
:100E16000313DF01E00103100030031801308312D1
:100E26000313E3006308EF00F70101300A128A1585
:100E3600B1260A128A111F2F831203136A08031D93
:100E4600252F312FF030E30063088604861B2C2FF4
:100E56002D2F312FEE01EE0A312F312F6E08031D93
:100E6600352F5D2D362F0A128A15D6260A128A11BB
:100E7600B03083120313E3006308F0006908F2013F
:100E8600F2076808F101F107831603136008F401FD
:100E9600F4075F08F301F30790300A128A11EE2374
:100EA6000A128A11003A0319592F5A2F842F0A3031
:100EB60083120313E6000030E700672F0A128A1137
:100EC60052210A128A11672FFF3083120313E60795
:100ED6000318E70AFF30E707FF306706031D752F83
:100EE600FF306606031D782F792F612F7A2F443045
:100EF600A0008030A1000A128A1523270A128A113F
:100F06008F2F553083120313A0008030A1000A12E0
:100F16008A1523270A128A11663083120313A0004A
:100F26008030A1000A128A1523270A128A11831219
:100F36000313EE019E2FF030E30063088604861B40
:100F4600A52FA62FA92FEE01EE0AA92FF030E30058
:100F5600630886046B08031DB12FE62F061BB42F0A
:100F6600B52FE62FEB01C030E3006308F400D03064
:100F7600E4006408F500A0300A128A15F8250A1262
:100F86008A11A0300A128A15FB260A128A110A1241
:100F96008A15D6260A128A11223083120313A0005C
:100FA6008030A1000A128A1523270A128A113330CB
:100FB60083120313A0008030A1000A128A1523278A
:100FC6000A128A11E62F831203136E08031DEC2FF3
:100FD6009E2FEE01EA01E801E901EB01EB0AEF01C0
:100FE600EF0A83160313DF01E0010A128A15D626DB
:0A0FF6000A128A11432D432D080052
:101A480064008001840A0406031900340406252D65
:101A58000A128A154D250A128A150A128A1567254F
:101A68000A128A1508000A128A155A250A128A15B6
:101A78000A128A152C250A128A1508000A128A15D4
:101A88000E260A128A150A128A152C250A128A1598
:101A980008008312031387150530F0000030F100A9
:101AA8000A128A15BB250A128A1508008316031321
:101AB80007160530F0000030F1000A128A15BB2520
:101AC8000A128A150800F730F2007208831203130D
:101AD80087050530F0000030F1000A128A15BB2591
:101AE8000A128A1508000A128A11BA200A128A15DF
:101AF800F6007608F7000A128A1542250A128A1596
:101B08007708862D0800A030F000700883160313AC
:101B1800EB009B308700831203130712831603130D
:101B2800871107120800F030831203138600F03083
:101B38008316031386000A128A1185230A128A154E
:101B4800A52D0A128A1100287E088A007F088200C3
:101B58000A128A15A8250A128A158000840A040820
:101B68007D0603190034FF0A0319FE0AAC2DBD2DAA
:101B7800BD2D0130F0020030031CF103F102FF30EB
:101B88007106031DC92DFF307006031DCC2DCD2D08
:101B9800BD2DCE2D08000A128A11BA200A128A1504
:101BA800F6007608F7000A128A1537250A128A15F0
:101BB8000A128A153E260A128A15E22D08000A1210
:101BC8008A155A250A128A150A128A154D250A12EB
:101BD8008A150A128A150E260A128A150A128A15F9
:101BE80067250A128A150800F7007408F6007608B7
:101BF800F00077080A128A119B200A128A157508C4
:101C0800F6007608F00077080A128A15A3270A1248
:101C18008A150800EF30F200720883120313870553
:101C2800EF30F20072088316031387050530F000C1
:101C38000030F1000A128A15BB250A128A1508001D
:101C48000A128A154D250A128A1583120313071ED4
:101C58002E2E2F2E342E83160313E701E70A382E73
:101C680083160313E701382E0A128A1567250A120C
:101C78008A1508000A128A150E260A128A150A12EF
:101C88008A1567250A128A150A128A154D250A121D
:101C98008A150A128A155A250A128A150A128A15ED
:101CA80067250A128A1508007A08F701F7077908E4
:101CB800F601F6070A128A1191210A128A150A12E8
:101CC8008A15E3250A128A15831603136B146B0809
:101CD8000A128A11EB200A128A15080083120313CC
:101CE80006157308F101F1077208F001F0070A12EE
:101CF8008A15BB250A128A15831203130611730865
:101D0800F101F1077208F001F0070A128A15BB25E4
:101D18000A128A15080083160313E501E601E70194
:101D2800E801E901EA018317443084006C300A12A3
:101D38008A1524250A128A154430FD000130FE0058
:101D48001E30FF00103084000A128A15AC250A12D2
:101D58008A1583010A128A15972DF900F908031DBF
:101D6800B62EB72EC52E7708F80078088316031309
:101D7800E8007708803E0A128A1127220A128A157B
:101D8800D52E7708103EF800780883160313E8006C
:101D98007708C03E0A128A1127220A128A15D52E00
:101DA800D52E0800F70100300A128A15B1260A124A
:101DB8008A15773083120313A0008030A1000A121D
:101DC8008A1523270A128A15773083120313A00075
:101DD8008030A1000A128A1523270A128A15F701F2
:101DE80000300A128A15B1260A128A150800FD0069
:101DF8000030F6000030F7000A128A1191210A1209
:101E08008A15142F7D088400831300080A128A1586
:101E1800D0270A128A150130FC007C08FD07142F10
:101E28007D08840083138008031D1B2F1C2F062F99
:101E38001D2F0A128A153E260A128A1508003B2F02
:101E4800831203132108FF00200884000A128A1154
:101E580003200A128A150A128A111E230A128A15E9
:101E6800013083120313A0070318A10A3B2F831222
:101E780003132108FF00200884000A128A11032096
:101E88000A128A150038031D4A2F4B2F242F4C2F76
:101E98000800831203130608F0007008F200831686
:101EA80003130608F0007008F3000F30F000700804
:101EB8008605F030F00070088312031386040609C3
:101EC800F0007008F1007208860073088316031387
:101ED80086007108F00004300310F00CFF3E031D6B
:101EE800702F7008772F080083120313A301A20133
:101EF8000130A0008030A1000A128A1523270A1297
:101F08008A15862FF030FD007D088312031386049E
:101F1800061A8F2F902F942FA201A20AA301A30AB9
:101F2800861A972F982F9B2FA301A30A9B2F23086C
:101F3800031D9F2F862FA02F2208A22F0800F20032
:101F48007208F1007108F300AE2F0130F10071083A
:101F5800F307AE2F7308840083138008031DB52F81
:101F6800B62FA92FC12FC12F0130F1007108F30737
:101F78000130F1007108F007C12F700884000008D3
:101F8800F10073088400710880008008031DCD2FBC
:101F9800CE2FB82FCF2F0800FB007B080A128A111A
:101FA800EB200A128A15013083160313E50703187C
:101FB800E60A0030E6073F306505F900003066059F
:101FC800FA007A0879040319EA2FEB2FED2FFF2F77
:101FD800FF2F0A128A153E260A128A158316031342
:101FE8006608F701F7076508F601F6070A128A116D
:081FF80091210A128A1508006C
:02400E003AFF77
:00000001FF
