:060000000A128A15D42E3D
:100008000A128A15CB250A128A110A128A15A825FE
:100018000A128A110800831603130608F0008312D7
:1000280003136608A03E84007008831380006608E6
:10003800013E1F39F0007008E6000608F000660867
:10004800A03E8400700880006608013E1F39F00059
:100058007008E6000F30F000700883160313860559
:10006800F030F00070088312031386040608F03994
:10007800F03A0030031D0130F0007008F100E60886
:10008800031D472848284D280130F0007008E6076E
:100098004D280130E6026608A03E8400000886006C
:1000A800E608031D582859285E280130F00070081A
:1000B800E6075E280130E6026608A03E84000008D4
:1000C800831603138600710869280800F601F31FD8
:1000D8006E286F287728F209F309F20A0319F30A40
:1000E800F601F60A7728F11F7A287B288128F0097B
:1000F800F109F00A0319F10A81287108700403193B
:1001080086288728BC28F501F50A962801300310AF
:10011800F00DF10DFF3E031D8B280130F40074082B
:10012800F5079628F11F99289A288A289C289C2840
:1001380071087302031DA22870087202031CA52807
:10014800A628AD287008F2027108031CF303F30215
:10015800AD2801300310F10CF00CFF3E031DAE2852
:100168000130F502031DB928BA289C28BC28BC28F0
:100178007608031DC028C628F209F309F20A0319F4
:10018800F30AC6287308F101F1077208F001F007B5
:10019800CD280800FC00831603130608FA00831212
:1001A80003136608A03E84007A088313800066085B
:1001B800013E1F39FA007A08E6000608FA006608C8
:1001C800A03E84007A0880006608013E1F39FA00C4
:1001D8007A08E6007C08FA0004300310FA0DFF3EA6
:1001E800031DF12879087A07FB007B08DF007C08EB
:1001F800FA0006300310FA0DFF3E031DFE287908A9
:100208007A07803E0A128A11A9230A128A118312D8
:100218000313E608031D1129122917290130FA00D2
:100228007A08E60717290130E6026608A03E84002E
:10023800831300088600E608031D23292429292999
:100248000130FA007A08E60729290130E602660833
:10025800A03E840000088316031386000800831656
:100268000313060883120313A4006608A03E840043
:100278002408831380006608013E1F39A40024085F
:10028800E6000608A4006608A03E84002408800052
:100298006608013E1F39A4002408E60068292308DF
:1002A800FF00220884000A128A1500200A128A1107
:1002B8000A128A1134240A128A1101308312031394
:1002C800A2070318A30A68292308FF00220884004C
:1002D8000A128A1500200A128A110038031D75298E
:1002E800762953297729E608031D7B297C2981294A
:1002F8000130A4002408E60781290130E6026608D7
:10030800A03E8400831300088600E608031D8D299B
:100318008E2993290130A4002408E6079329013087
:10032800E6026608A03E84000008831603138600D0
:100338000800F601F11FA129A229AA29F009F1094B
:10034800F00A0319F10AF601F60AAA29F31FAD29E2
:10035800AE29B829F209F309F20A0319F30A0130A0
:10036800F4007408F606B829F701F801710870045A
:100378000319BF29C029FD29F501F50ACF29013044
:100388000310F00DF10DFF3E031DC4290130F400E8
:100398007408F507CF29F11FD229D329C329D529F4
:1003A800D52901300310F70DF80DFF3E031DD6299E
:1003B80071087302031DE22970087202031CE52903
:1003C800E629EE297008F2027108031CF303F30210
:1003D8007714EE2901300310F10CF00CFF3E031DD9
:1003E800EF290130F502031DFA29FB29D529FD293A
:1003F800FD297608031D012A072AF709F809F70AD3
:100408000319F80A072A7808F101F1077708F001BB
:10041800F0070E2A0800203084004530F90004084F
:10042800FA001630FB007908840083130008FC00EA
:10043800F90A7A0884007C088000FA0AFB0B172A5C
:10044800013077067804031D2A2A2B2A2F2AF70160
:10045800F801962A962A83120313B601B7013708C2
:10046800803AFF0080307F02031D3C2A0B303602A1
:10047800031C3F2A402A422A912A912A83120313F5
:100488003608F9007907203E840083130008F0003D
:10049800840A0008F1007808F301F3077708F201ED
:1004A800F2070A128A116A200A128A117108700466
:1004B800031D5F2A602A7B2A831203133608F9007A
:1004C8007907203E840083130008FA00840A000894
:1004D800FB0078087B06031D732A77087A06031940
:1004E800762A772A7B2AF701F801962A962A01307C
:1004F80083120313B6070318B70A0030B707370883
:10050800803AFF0080307F02031D8C2A0B303602B0
:10051800031C8F2A902A422A912A0130F7000030C2
:10052800F800962A0800FD009E2A0130F800780895
:10053800FD079E2A7D08840083130008203A0319CA
:10054800A62AA72A992A7D0884000008093A0319CF
:10055800AE2AAF2A992AB02AFB01FC01FA017D08CC
:10056800840000082D3A031DBA2ABB2AC42A013088
:10057800F8007808FA070130F8007808FD07F92A2A
:100588007D08840000082B3A031DCB2ACC2AF92ABF
:100598000130F8007808FD07F92AF92AF92A7C08B9
:1005A800F101F1077B08F001F0070A30F200003092
:1005B800F3000A128A15F6260A128A117D088400A9
:1005C800831300087007F80071080318710AF9000E
:1005D8007808D03EFB0079080318013EFF3EFC0076
:1005E8000130F8007808FD07F92A7D088400000822
:1005F8000A128A150B260A128A110318042B052BD6
:10060800D32A062B7A08031D0A2B172B7B09F8001F
:100618007C09F900F80A0319F90A7808F60079083C
:10062800F7001E2B1E2B7C08F701F7077B08F60145
:10063800F6071E2B0800831603130608F50083121D
:1006480003136608A03E84007508831380006608BB
:10065800013E1F39F5007508E6000608F500660832
:10066800A03E8400750880006608013E1F39F50029
:100678007508E6008230F600DD30F500F50B422BF8
:10068800F60B422B472B30300A128A11A9230A1283
:100698008A11283083120313860006150830F500E6
:1006A800F50B542B8312031306110830F500F50BD4
:1006B8005B2B4230F500F50B5F2B000028300A1247
:1006C8008A11A9230A128A1108300A128A11A92349
:1006D8000A128A1101300A128A11A9230A128A11F0
:1006E80006300A128A11A9230A128A110E300A1238
:1006F8008A11A9230A128A1183120313DF01E6085B
:10070800031D872B882B8D2B0130F5007508E60714
:100718008D2B0130E6026608A03E84008313000892
:100728008600E608031D992B9A2B9F2B0130F500B4
:100738007508E6079F2B0130E6026608A03E840094
:1007480000088316031386000800F40083120313BD
:10075800860183160313860183120313861006117C
:10076800C02BC02B2130F3007630F200F20BBA2BED
:10077800F30BBA2B0000C02B0A128A110F200A12A1
:100788008A110038031DC92BCA2BB62BCB2B21305D
:10079800F3007630F200F20BCF2BF30BCF2B0000D7
:1007A8000A128A110F200A128A110038031DDD2B44
:1007B800DE2BC02BDF2B0F30831203130605F2004C
:1007C8007408F0397207860006150830F200F20B3B
:1007D800EB2B8312031306110830F200F20BF22BF5
:1007E8000F30831203130605F2007408F300033078
:1007F8000310F30DFF3E031DFC2B0310730DF0399E
:100808007207860006150830F200F20B092C8312D5
:10081800031306110830F200F20B102C7408013A89
:100828000319172C182C1F2C7408023A031D1D2CB1
:100838001E2C2C2C1F2C0B30F3006230F200F20B14
:10084800232CF30B232C000083120313DF01332C1A
:100858004230F200F20B2E2C0000332C332C08000F
:10086800FD00831203138601831603138601831286
:100878000313861406114D2C4D2C213083120313BB
:10088800A1007630A000A00B472CA10B472C00003C
:100898004D2C0A128A110F200A128A110038031DE2
:1008A800562C572C412C582C213083120313A100AD
:1008B8007630A000A00B5E2CA10B5E2C00000A1263
:1008C8008A110F200A128A110038031D6C2C6D2C16
:1008D8004D2C6E2C0F30831203130605A0007D08E3
:1008E800F0392007860006150830A000A00B7A2CE6
:1008F8008312031306110830A000A00B812C0F30BF
:10090800831203130605A0007D08A100033003101D
:10091800A10DFF3E031D8B2C0310210DF03920077C
:10092800860006150830A000A00B982C831203132C
:1009380006110830A000A00B9F2C4230831203132D
:10094800A000A00BA52C0000013083120313A00007
:100958002008DF075F080F39031DB32CB42CCD2CFA
:10096800F9011030F0000030F1005F08A000A1018B
:100978002008F2002108F3000A128A119D210A12A8
:100988008A1170080A128A11CE200A128A11CD2CF7
:10099800CD2C08000A128A111F230A128A11A030CE
:1009A80083120313B8003808E3009B30831603133F
:1009B80087000A128A1598250A128A1103308312B1
:1009C8000313BA008A30B9005630B800B80BEA2CC5
:1009D800B90BEA2CBA0BEA2CF12C01308312031361
:1009E800A2008030A3000A128A1133210A128A1148
:1009F8000F3083120313B8003808831603138605D3
:100A0800F03083120313B800380886040B2D8312C4
:100A18000313061A102D112D592D0030F90000303E
:100A2800FA000A128A15BA260A128A1183120313C7
:100A3800C101C201262D0130C1070318C20A0030C6
:100A4800C207262D0A128A15E8250A128A1183126E
:100A58000313B80041083D3E840038088313800022
:100A68008008031D382D392D1F2D3A2D3D30A20049
:100A78000030A3000A128A1133210A128A110A12BD
:100A88008A1533260A128A117F3083120313BA009B
:100A9800D430B900AE30B800B80B502DB90B502D7A
:100AA800BA0B502D572D7C2D0B2D861B5C2D5D2DE3
:100AB8000B2D0630BA001330B900B130B800B80BAE
:100AC800632DB90B632DBA0B632D6A2D6C2D6C2D1C
:100AD8000A128A110F200A128A110038031D752D77
:100AE800762D6C2D7C2D7C2D0B2D0B2D0B2D7C2D1F
:100AF80001300A128A11A9230A128A110F308312AF
:100B08000313A2008030A3000A128A1133210A12AB
:100B18008A11033083120313A5000030A6003D306C
:100B28000A128A113B260A128A1183120313260815
:100B3800BC01BC072508BB01BB073D300A128A115E
:100B480097220A128A11770883120313C401C40773
:100B58007608C301C3074408F801F8074308F701FA
:100B6800F7070A128A110F220A128A1178087704E5
:100B78000319BF2DC02DC52D83120313C301C40152
:100B8800CC2D013083120313C3000030C400CC2DD8
:100B98000030F6000030F7000A128A15B5270A124D
:100BA8008A1183120313C101C201F42D43085B3E6D
:100BB800840041088313000784000A128A150A205A
:100BC8000A128A110A128A1551270A128A1101304B
:100BD80083120313C1070318C20A0030C207F42D99
:100BE80043085B3E840041088313000784000A120F
:100BF8008A150A200A128A110038031D042E052EB0
:100C0800DA2D062E00300A128A1551270A128A1187
:100C18000A128A15A0260A128A11F90101300A124D
:100C28008A11CE200A128A118312031343085B3EED
:100C3800840083130008A2008030A3000A128A11DE
:100C480033210A128A117F3083120313BA00D43079
:100C5800B900AE30B800B80B2F2EB90B2F2EBA0B37
:100C68002F2E362E7C2D7C2D0A128A1100288312F5
:100C78000313AB00AC01AA01AA0A831603130608E2
:100C880083120313A7006608A03E84002708831375
:100C980080006608013E1F39A7002708E6000608FD
:100CA800A7006608A03E8400270880006608013E69
:100CB8001F39A7002708E6000F30A700270883166A
:100CC80003138605F03083120313A7002708860450
:100CD8000130A5020030031CA603A6022B088400DD
:100CE8008001B62F061A792E7A2E7C2EAA01AF2FF4
:100CF800861A7F2E802EB42E2C08031D842EAF2F2B
:100D080020300A128A1134240A128A1102308312FE
:100D18000313DF022C082B07A7002708840083137E
:100D280080010130AC025F080F39A7002708F900DD
:100D38001030F0000030F1005F08A800A901280871
:100D4800F2002908F3000A128A119D210A128A1159
:100D580070080A128A11CE200A128A11AF2FAF2FFB
:100D6800061BB72EB82E032F2C082B07A700270821
:100D78008400831380080319C22EC32EAF2F2C08BA
:100D8800A700A80126082802031DCC2E2508270243
:100D98000318CF2ED02EAF2F2B0884000008303A2E
:100DA8000319D72ED82EAF2F0130A7002708DF0749
:100DB8000130A7002708AC072C082B07A800280833
:100DC800840080015F080F39A7002708F900103058
:100DD800F0000030F1005F08A800A9012808F2001F
:100DE8002908F3000A128A119D210A128A11700833
:100DF8000A128A11CE200A128A11AF2FAF2F861B32
:100E0800062F072FAF2F2C082B07A70027088400D1
:100E1800831380080319112F122F352F0A30F00081
:100E28000030F1002C082B07A700270884000008D1
:100E3800D13EF200FF3003180030F3000A128A1185
:100E48006A200A128A117008303E83120313A80020
:100E58002C082B07A9002908840028088313800080
:100E6800452F3030A7002C082B07A800280884003D
:100E7800270880002C08013E2B07A70027088400BC
:100E880080015F08A7006608A03E8400270880004C
:100E98006608013E1F39A7002708E6002C08DF0274
:100EA8005F080F39A7002708F9001030F00000305C
:100EB800F1005F08A800A9012808F2002908F3003A
:100EC8000A128A119D210A128A1170080A128A11BF
:100ED800CE200A128A11831203132B08A2000030B5
:100EE800A3000A128A1133210A128A1183120313EA
:100EF800E608031D802F812F862F0130A7002708C1
:100F0800E607862F0130E6026608A03E84008313B8
:100F18000008A7002708DF005F080F39A700270887
:100F2800F9001030F0000030F1005F08A800A901B6
:100F38002808F2002908F3000A128A119D210A12D2
:100F48008A1170080A128A11CE200A128A11AF2F4C
:100F5800AF2FAF2FAF2FF03083120313A70027084E
:100F68008604B62FAA08031DBA2FBB2F762EBC2FD6
:100F7800E608031DC02FC12FC62F0130A700270880
:100F8800E607C62F0130E6026608A03E84008313F8
:100F980000088600E608031DD22FD32FD82F013072
:100FA800A7002708E607D82F0130E6026608A03E0A
:100FB80084000008831603138600831203132B088A
:100FC800840080080319E92FEA2FF62F0130A700C3
:100FD8002708AC072C08A800A9012808A50029089B
:100FE800A600FF2F2C08A700A8012708A50028089D
:100FF800A600FF2FFF2F0800FF1B0A2883137F1866
:1010080083170008840A0319FF0A080008308A00B9
:101018000408840A82070034453445345034523475
:101028004F344D342834533431342F34533434341A
:10103800293400344E3475346D3462346534723476
:101048003A342034003459344534533400344E345F
:041058004F340034DD
:101B30008312031307128316031387110712080079
:101B400064008001840A0406031900340406A12DF0
:101B50000A128A15BE250A128A150A128A15D82574
:101B60000A128A1508000A128A155C260A128A15BA
:101B70000A128A15A8250A128A150800831203136F
:101B800087150530F0000030F1000A128A151F2673
:101B90000A128A1508008316031307160530F00091
:101BA0000030F1000A128A151F260A128A15080051
:101BB000F730F20072088312031387050530F00036
:101BC0000030F1000A128A151F260A128A15080031
:101BD0000A128A1520270A128A15F6007608F700DD
:101BE0000A128A15B3250A128A157708F72D0800FC
:101BF0007E088A007F0882000A128A15F8250A12D8
:101C00008A158000840A04087D0603190034FF0A3F
:101C10000319FE0AFC2DF100F0013A30710203189D
:101C2000122E132E1C2E30307102031C182E192E6A
:101C30001C2EF001F00A1C2E700C1E2E0800212E06
:101C4000212E0130F0020030031CF103F102FF30BD
:101C50007106031D2D2EFF307006031D302E312E10
:101C6000212E322E08000A128A1520270A128A1500
:101C7000F6007608F7000A128A1104200A128A1563
:101C80000A128A15A0260A128A15462E08000A1280
:101C90008A15CB250A128A150A128A15BE250A1240
:101CA0008A150A128A155C260A128A150A128A15E2
:101CB000D8250A128A150800EF30F2007208831244
:101CC00003138705EF30F2007208831603138705AC
:101CD0000530F0000030F1000A128A151F260A12A2
:101CE0008A1508000A128A15BE250A128A1583125F
:101CF0000313071E7C2E7D2E802EE001E00A822E2B
:101D0000E001822E0A128A15D8250A128A150800C7
:101D10000234003403340034053400340734003412
:101D20000B3400340D3400341134003413340034D7
:101D3000173400341D3400341F34003418341C347C
:101D40000A128A155C260A128A150A128A15D825E3
:101D50000A128A150A128A15BE250A128A150A1253
:101D60008A15CB250A128A150A128A15D8250A1255
:101D70008A1508007A08F701F7077908F601F607CF
:101D80000A128A15B5270A128A150A128A154726D9
:101D90000A128A1583120313631463080A128A1540
:101DA00082270A128A15080083135D30840066308A
:101DB0000A128A15A0250A128A15A0308400C030A4
:101DC0000A128A15A0250A128A155D30FD000E3010
:101DD000FE008830FF00453084000A128A15FC2579
:101DE0000A128A1583010A128A11CE2CF401F50118
:101DF000F92E701CFC2EFD2E032F7208F407031819
:101E0000F50A7308F50701300310F20DF30DFF3EDC
:101E1000031D042F01300310F10CF00CFF3E031DD5
:101E20000B2F71087004031D162F172FF92E182F72
:101E30007508F101F1077408F001F0071F2F080081
:101E4000F5010830F3007308F4000A128A15CB2557
:101E50000A128A15452F7508F3007308F5070A1250
:101E60008A15BE250A128A1583120313071E392FFD
:101E70003A2F3F2F0130F3007308F5073F2F0A1266
:101E80008A15D8250A128A15452F0130F4027408E4
:101E9000FF3A031D4C2F4D2F2B2F4E2F7508502F1F
:101EA0000800FB007B080A128A1582270A128A158D
:101EB000013083120313DD070318DE0A0030DE074A
:101EC0003F305D05F90000305E05FA007A087904BC
:101ED00003196B2F6C2F6E2F812F812F0A128A15F9
:101EE000A0260A128A15831203135E08F701F7076A
:101EF0005D08F601F6070A128A15B5270A128A1537
:101F0000812F0800F5000830F3007308F400A12FBA
:101F1000F51F8B2F8C2F922F0A128A15CB250A12B0
:101F20008A15972F0A128A155C260A128A150A1238
:101F30008A15A8250A128A157508F3007308F50793
:101F4000A12F0130F4027408FF3A031DA82FA92F16
:101F5000882FAA2F0A128A15CB250A128A150A126F
:101F60008A1572260A128A1508007708831203134D
:101F7000DE01DE077608DD01DD07BE2F0A128A15B5
:101F800047260A128A15FE30F800780883120313D8
:101F9000E30563080A128A1582270A128A1583123A
:101FA00003136008031DD52FDB2F0A128A15A02604
:101FB0000A128A15BE2F77080A128A1582270A127A
:101FC0008A15831203136008031DE72FED2F0A12F1
:101FD0008A15A0260A128A15BE2F76080A128A15BB
:101FE00082270A128A15831203136008031DF92F32
:101FF000FF2F0A128A15A0260A128A15BE2F080082
:02400E0032FF7F
:00000001FF
